:020000021000EC
:1080000000400020B5AF0100FDAF0100FFAF01004F
:108010000000000000000000000000000000000060
:1080200000000000000000000000000001B001009E
:10803000000000000000000003B0010005B00100D6
:1080400007B0010007B00100D18C010011900100C0
:1080500007B0010000000000198A01000191010031
:1080600007B00100B18B0100098B010007B00100CE
:1080700007B0010007B0010007B0010007B0010020
:1080800007B00100E1A8010007B0010007B001003E
:10809000C1A9010007B0010081AF010007B00100D4
:1080A00007B0010007B00100000000000000000060
:1080B00000000000000000000000000000000000C0
:1080C00010B5064C2378002B07D1054B002B02D0AE
:1080D000044800E000BF0123237010BDA820002049
:1080E0000000000098FF0100084B10B5002B03D0E2
:1080F0000749084800E000BF07480368002B00D18B
:1081000010BD064B002BFBD09847F9E7000000009C
:10811000AC20002098FF0100A820002000000000F3
:10812000164B002B00D1144B9D46402292029A1A06
:10813000924600218B460F461348144A121A00F04B
:1081400067F80F4B002B00D098470E4B002B00D048
:1081500098470020002104000D000D48002802D09F
:108160000C4800E000BF00F02DF82000290000F0CE
:10817000C1F800F011F8C0460000080000400020DF
:108180000000000000000000A8200020B023002014
:108190000000000000000000084B10B50400002B98
:1081A00002D0002100E000BF054B1868836A002B55
:1081B00000D09847200000F033F8C04600000000CF
:1081C0001CEB01000E4B70B500251E000D4CE41A8F
:1081D000A410A54204D0AB00F35898470135F8E746
:1081E00006F08EFC084B00251E00084CE41AA41073
:1081F000A54204D0AB00F35898470135F8E770BDAD
:10820000A0200020A0200020A0200020A4200020EA
:1082100003008218934202D019700133FAE77047C5
:10822000FEE7C0461D4B1B78012B00D070471C4B4E
:108230001B681B07FAD1F0221A4B1B68134018D198
:10824000194B1B6813421CD0154B1B681B07EDD143
:10825000F022144B1B681340402BE7D1124B1B68D4
:108260001342E3D1C12380220121DB00D205D1508A
:10827000DCE7102B01D0302BEAD10B4B1B681342EB
:10828000E6D10A4A0A4B1A6080220A4B12021A608F
:10829000024B1B78012BD7D0C8E7C046E00F00F097
:1082A000E40F00F0E80F00F0EC0F00F0DFFF07C074
:1082B00004050040186C004082B00190019B002B27
:1082C00014D0019B0A48013B01930138C046C046C7
:1082D000C046C046C046C046C046C046C046C0466E
:1082E000C046C046F1D1019B002BEAD102B07047D5
:1082F000E703000010B500F07DFD00F03FFB00F04B
:108300009BFB00F00FFF00F0B9FE6421012002F09A
:1083100003FA00F025FF00F03DFF00F03BF90748AD
:1083200005F086FC6420FFF7C7FFBFF34F8F044AB8
:10833000044BDA60BFF34F8FFEE7C04620EB01002D
:108340000400FA0500ED00E070B5364805F070FC59
:108350000023354C0025E38123826382A382E382DC
:1083600023836383A3830623E25E002A21D10821AD
:10837000635E002B23D10A21625E0C20215E002A5D
:1083800001D1002925D0E58023810023092A01DDC0
:108390000A3A13B263810023092901DD0A390BB2BD
:1083A000FA208000A381FFF787FF0623E25E002A00
:1083B000DDD0092A31DD0A3A0821635E12B2E2807B
:1083C000092B24DD0A3B0A21625E1BB20C20215ED0
:1083D000DAE70222A35E002B15D10422A35E002B54
:1083E00011D1124D03E00422A35E002B0BD100211A
:1083F000280005F01DFCFA208000FFF75DFF022237
:10840000A35E002BEFD00A4805F012FC70BD0A23D2
:10841000E25E0C23E15E0023B6E70822A35E0022A1
:10842000CDE7C04658EB0100F822002078EB0100B0
:1084300068EB0100F0B55F4656464D464446F0B441
:108440004F4887B005F0F4FB72B64E4B984616279E
:10845000DF5F43460E229B5EFF1843461820185EDE
:10846000434610229B5EC01843461A269E5F434631
:10847000B34612229B5E9B4443461C229A5E4346AF
:1084800014215B5ED31862B63226704373434000FA
:1084900081469A467743B9444B465246981A05F0AE
:1084A00049FB0022384B04F021FD02F0ADFD5B4694
:1084B0005E437600BB1B9B460400504658440D00AB
:1084C00005F038FB0022304B04F010FD02F09CFD5B
:1084D0005B4652460600981A0F0005F02BFB00225F
:1084E000294B04F003FD02F08FFD029003915046EA
:1084F000484405F01FFB244B002204F0F7FC02F077
:1085000083FD049005912000290005F0DDFAFA238F
:1085100004009B00984200DD1C003000390005F08B
:10852000D3FAFA2305009B00984200DD1D00029853
:10853000039905F0C9FAFA2306009B00984200DD72
:108540001E000498059905F0BFFAFA239B00984293
:1085500000DD18004346DC801D815E8198810B4B55
:1085600022000021595E019000962B00084805F07A
:108570005FFB07B03CBC90469946A246AB46F0BDB7
:10858000E4EB0100F82200200000D03F9C230020F3
:10859000F4EB0100F0B520234746644C80B423700F
:1085A00000230022A3806380E38123826382A3826D
:1085B000E38223836383A3835D4B82B098465D4D42
:1085C0002378002A29D1203BDBB29A00092BFDD861
:1085D000A9588F4600235848638005F029FB72B6DE
:1085E000FA2320260127E38023816381A381FA22D5
:1085F0000093FA21514805F01BFB5148FFF75CFE40
:1086000050482670678005F013FB62B626706780BD
:108610000423E25E2378002AD5D002B004BC904641
:10862000F0BD00234848638005F002FBF0E700231B
:108630004046638005F0FCFAEAE700234348638084
:1086400005F0F6FAE4E700234148638005F0F0FA0C
:108650000222A35E002B15D10422A35E002B11D1B0
:108660003C4F03E00422A35E002B0BD10021380015
:1086700005F0DEFAFA208000FFF71EFE0222A35E5C
:10868000002BEFD0344805F0D3FAC1E7002333487C
:10869000638005F0CDFA0222A35E002B15D10422DF
:1086A000A35E002B11D12E4F03E00422A35E002B0A
:1086B0000BD10021380005F0BBFAFA208000FFF74B
:1086C000FBFD0222A35E002BEFD0264805F0B0FA96
:1086D0009EE700232448638005F0AAFA0222A35EE5
:1086E000002B15D10422A35E002B11D11F4F03E0F4
:1086F0000422A35E002B0BD10021380005F098FA6C
:10870000FA208000FFF7D8FD0222A35E002BEFD0F5
:10871000174805F08DFA7BE700236380FFF714FE0E
:1087200076E700236380FFF785FE71E7F8220020DB
:108730002CED010030EB010098EB0100A8EB0100EB
:1087400088130000D0EB010004ED010014ED0100DE
:10875000ACEC0100DCEC0100C4EC01005CEC0100BD
:108760008CEC010074EC01000CEC01003CEC01000D
:1087700024EC010010B5010004001E4805F058FA71
:108780001D4A13789C422BD0202B04D0202C0AD0D9
:10879000292C2AD010BD203CE4B2092C1CD8174B40
:1087A000A4001B599F46202313701F3B5380F1E701
:1087B00025231370243B5380ECE724231370233BC1
:1087C0005380E7E723231370223B5380E2E7222301
:1087D0001370213B5380DDE7094805F029FAD9E7FA
:1087E0002100084805F024FAD4E7012314705380CF
:1087F000D0E7C046A8ED0100F822002040ED0100BE
:10880000D4ED0100C0ED010070B5040A050C82B082
:10881000E4B2EDB2019021002A004B4805F008FABD
:108820004A4E317820290FD0092C0BD8484BA40090
:108830001B599F46FA22738A92000A331BB2934255
:108840003DDD728202B070BD012C06D1414805F0B9
:10885000EFF92800FFF78EFFF4E73F4805F0E8F94D
:10886000F0E729003D4805F0E3F9012D5AD0002D2D
:10887000E8D1F3890A3B1BB2772B00DC7823F38124
:10888000E0E72900364805F0D3F9012D41D0002D4D
:10889000D8D1338A0A3B1BB2772B00DC7823338292
:1088A000D0E729002F4805F0C3F9012DC2D0002DD3
:1088B000C8D1738A0A3B1BB2772B00DC7823738202
:1088C000C0E72900284805F0B3F9012D33D0002D69
:1088D000B8D1B38A0A3B1BB2772B00DC7823B38272
:1088E000B0E72900214805F0A3F9F582AAE729009D
:1088F0001F4805F09DF9F582A4E729001D4805F001
:1089000097F9F5829EE729001B4805F091F9F58259
:1089100098E7FA22338A92000A331BB29342BEDDF3
:1089200032828FE7FA22F38992000A331BB2934214
:10893000A5DDF28186E7FA22B38A92000A331BB2E0
:108940009342CCDDB2827DE790ED0100F822002059
:1089500068ED0100D4EE0100A4EE0100E4ED010099
:10896000FCED010014EE01002CEE010044EE0100CC
:108970005CEE010074EE01008CEE0100A0230021EA
:108980001C4ADB0510B59950A2211B4A1B48C9009F
:108990005050C121012089005050C0224024184865
:1089A000520084504458174A2240C02424042243D1
:1089B0004250032214495A5014495A5014495A50EB
:1089C00014495A501C395A5008315A5010315A50D3
:1089D00008315A50A1228021D200C9039950802128
:1089E000490499508021490599508021C905995021
:1089F00010BDC046140700000060004001050200E1
:108A000000E100E0FFFF00FF540700005C070000EA
:108A100064070000740700008023054A5B00D158FA
:108A2000002904D00021D1500122024B1A70704756
:108A300000600040C4200020F0B54746002380B409
:108A4000A227254AFF001360244AA8261370244A4F
:108A50000433D3519C46C1239B009846E0234146F2
:108A6000A924DB025350604601211E4BF6009351AE
:108A70001D4D1E4BE40053511D4B13511D4BD16036
:108A8000D851F02740463F031F50E43098515851C9
:108A90001851194CC0251851D96011601960C221B4
:108AA000164B4D3C6D00FF3C5C5189005858144AF0
:108AB0000240C02000040243802080005A505851D8
:108AC0005D58104A2A40C0252D022A435A501C6086
:108AD000186004BC9046F0BDC8200020C5200020CE
:108AE00000A00040C40900004405000050C300007D
:108AF000FFFF0000009000404C05000000E100E096
:108B0000FFFF00FFFF00FFFFA02210B5204B520027
:108B1000995800291BD0A8201E4CC000A446195803
:108B200080246144195001201B49A403C860A0207F
:108B3000A121C005C900445080242404445080244D
:108B4000A40444508024A405445000219950A2223A
:108B50000F4B5200995800290AD0104C1048A446D7
:108B600019586144195001200E490870002199508C
:108B7000A423074A5B00D158002907D00A4C0B48B0
:108B8000A4460168614401600021D15010BDC04677
:108B900000A00040C40900000090004050C3000045
:108BA00044050000C5200020FFFF0000C820002071
:108BB000A02310B51B4A5B00D158002907D08024A0
:108BC000A0201949A403C00544500021D150A2237C
:108BD000144A5B00D158002907D08024A0201249F4
:108BE0002404C00544500021D150A4230D4A5B0049
:108BF000D158002907D08024A0200B49A404C00527
:108C000044500021D150A623064A5B00D1580029C8
:108C100007D08024A0200449A405C00544500021A9
:108C2000D15010BD009000400C0500000122044B03
:108C3000DA64044A9858044B1B68C0187047C04651
:108C400000A000404C050000C8200020F0B55F46A1
:108C500056464D464446F0B483B00192002A24DDC6
:108C6000802399467C3B9246984600230C008A4418
:108C7000124E134D04279B4609E05B46114A3370A0
:108C8000114B0134D15043462B6054450DD04B4617
:108C90002178EF503378002BEFD10C4800F004F925
:108CA000434601342B605445F1D1019803B03CBCDC
:108CB00090469946A246AB46F0BDC04664200020CF
:108CC00000E100E0002000401C050000E821002039
:108CD000842270B53D4B5200995800292FD13C4C4D
:108CE0008E233A4D5B00EA58002A09D00022394809
:108CF000EA509A3BC35C002B35D10122364B1A70E7
:108D00009222324B52009958002923D18223E35CEE
:108D1000002B00D170BD200000F0D4F83F282CD0EB
:108D2000212832D02D4C2368012B21D0022B34D0A6
:108D3000042BEFD100232A4A23601360EAE70021C5
:108D40009950A322D2009958214CC9B2200000F0BA
:108D5000ABF8C5E7002199509022D20099582148DC
:108D600004F066FFD2E700F0ADF81F4BE850C7E70C
:108D70001E4B587002232360CCE71C4B184A187016
:108D800001231360154A1360C4E7184B134AD870C7
:108D900000231360124A1360BCE701332360144BB5
:108DA000124D1B78A870292BB4D06B7829781B0240
:108DB000C0B20B4300041A000300E8781343000616
:108DC0001843FFF721FD2368B2E7C04600200040AA
:108DD00054210020E821002064200020CC20002025
:108DE000D0200020F0EE01001C050000A823002088
:108DF000F822002010B51E4800F04CF81D4800F085
:108E000049F8A023E7220321DB05D2009950E8218D
:108E100000220E20C9005A50174B184958501849C3
:108E200002305850174818495850A0200421C0005B
:108E30001950842040001A5014301A5001329A60A0
:108E40001A60C2221E38FF3892009850A120043ABE
:108E500080009850C0230D4A5B00D1507C301458DC
:108E60000B4B2340C024240423431350116010BD36
:108E700054210020E8210020002000400C050000C3
:108E80001405000000E0D7012405000000E100E027
:108E9000FFFF00FF002380227F2183540132815491
:108EA000013283547047C046812210B57F24835C11
:108EB000013323408354C1540132835C0133835412
:108EC00010BDC046802110B57F240200435CC05C09
:108ED0000133234053540231535C013B535410BDC2
:108EE000F0B557464E4645468446E0B489469A4614
:108EF0000120002A3BD0B12300276146244E254D96
:108F0000254CDB002F702770F1504946234BF15060
:108F1000802189007750B06029780029FCD0002199
:108F20002970012A2ED08021012519488900455039
:108F30000121174889460160802189008846FF3950
:108F4000A325FF39534600268C46ED0021780029E1
:108F5000FCD026704159013AD2B21970012A0BD0C7
:108F600049460162002A01D00133EFE700201CBC12
:108F700090469946A246F0BD4146674601334750A8
:108F80000262E3E780210225014889004550CFE7CE
:108F900000300040D4200020D52000201C05000017
:108FA000F0B5474680B407000120002A27D00025ED
:108FB000B126A846134CF6002570134DAF518027FB
:108FC0004646BF00EE51114EA951A86021780029F4
:108FD000FCD000210020013A2170D1B201310A4EAB
:108FE0000A4D59181A7872512278002AFCD00133A0
:108FF00020708B42F6D101220020034B5A6104BC41
:109000009046F0BDD4200020003000401C05000038
:10901000F8B58423144A5B00D158002904D00021FC
:10902000D1500122114B1A708E230F4A5B00D15888
:10903000002904D00021D15001220D4B1A70922535
:10904000094C6D006359002B0CD00A4EA759FFF74D
:10905000EDFD39000200084804F0EAFD0323A351A6
:1090600000236351F8BDC04600300040D5200020E9
:10907000D4200020C404000004EF0100A023E2215A
:109080001A4ADB05C90010B55A5008395A50042154
:10909000174B053AFF3A9950164A02399950002267
:1090A000CD200731FF315A5014315A501249C004B3
:1090B0005850A120C1218000890058500539FF393E
:1090C0005A50A022FC39FF39D2009950C023C02445
:1090D0000A4A03315B00D1507C30135824061B022E
:1090E0001B0A23431350116010BDC0460C0600003C
:1090F000003000400C0500002405000000E100E005
:1091000080220021054B52009950A122D2009A588A
:10911000D3009B1A024A13807047C046007000407B
:10912000702200200A4B0B490B4AC0209950A02105
:109130000122C9005A50FD39FF395A50074A00062A
:1091400053581B021B0A034353508023136070477C
:1091500000700040041000000405000000E100E081
:1091600070B5A024094E0A4D2B0002222100772061
:10917000FFF7B6FE2B786A781B0202341343E4B281
:1091800033800236B02CEFD170BDC046D82000200D
:10919000E8200020F0B55F4656464D464446F0B400
:1091A00089B006AD062200212800FFF731F84023E0
:1091B0006B70353BAB70023BEB7009332B71013B9D
:1091C0006B71894B2900981D06229A4604F027FDF1
:1091D000AB78032298464146A0230020C131FF31DD
:1091E000DB058900CA50E97884468946C131FF31E0
:1091F0008900CA50297944468B46C131FF31890024
:10920000C8506F79A12039004E46C131FF31890025
:10921000CA507649C0000C50754C0E515E46A046AF
:1092200004340E5101263400BC401C506F78714C40
:109230003F060F512F78704D64464F518427543D9F
:109240007F00CC514E51E025ED005A516B4D5A51E3
:10925000802292011E501A505246694D2960D27ADE
:10926000964042469E505022664BCC51CA508422B2
:10927000C8595E4B52000028F9D0A321C9005958A3
:10928000A0200191A121C005C900465001990127E4
:10929000013101915649465000205A4998505F507B
:1092A00058508427995851487F000029F9D000234D
:1092B000C351A323DB00C35802938422C1594B4BF3
:1092C00052000029F9D0A321C9005958A0200291C9
:1092D000A121C005C900465002990527013102911C
:1092E000434946500020474998505F5058508427C2
:1092F00099583E487F000029F9D00023C351A32389
:10930000DB00C3588421C259384B4900002AF9D0E8
:10931000A322A027A120D2009A58C000FF05D2B2F4
:109320003E500020002A06D009B03CBC9046994629
:10933000A246AB46F0BD2E483E5006205A50314A58
:10934000985084205F58294A4000002FF9D0A32369
:10935000DB00D358A0210393A123C905DB00CE5025
:10936000039B01330393224BCE5000236021135003
:10937000244BD15084235B00984613581B4F002B7D
:10938000F8D0A323DB00FB5864200493A023DB0563
:109390009946A1234A46DB00D650049B013304932F
:1093A000FEF78AFF53462F60DA7A0123494693403D
:1093B0000F4A8B50002241467A50124A0339FF3936
:1093C000B9504246B9580029FCD0A3220749D2001F
:1093D0008A58A0210592A122C905D2008B50059B75
:1093E0000120013305939FE7EC200020004000405E
:1093F0000C0500002405000054050000340700009F
:10940000F82000201C05000030B5554C83B0A37A2D
:10941000002B00D197E06B46DD1D00232B702368E5
:109420000122597C636818782B00FFF7B9FD0028EA
:1094300000D088E0236801225979636818782B00EE
:10944000FFF7AEFD002800D07DE0236801221979E6
:10945000636818782B00FFF7A3FD002800D072E0A6
:109460002423E35C002B36D00C232B7023680122CD
:109470001979636818782B00FFF792FD002862D1F4
:109480003230FEF719FFC0232B70A37ADB0762D4BA
:10949000236801221979636818782B00FFF780FD93
:1094A000002850D1637C002B58D12B7023680122F7
:1094B000597C636818782B00FFF772FD002842D1B1
:1094C0002368287059796368012218782B00FFF708
:1094D00067FD404235E004232B702368012219798F
:1094E000636818782B00FFF75BFD00282BD1A27C66
:1094F0004023002A2AD02B7023680122197963683F
:1095000018782B00FFF74CFD00281CD13230FEF7F5
:10951000D3FE637C5A1E93412B7023680122597C31
:10952000636818782B00FFF73BFD00280BD1230060
:10953000226810335179626810780122FFF730FDFC
:10954000404203B030BD01204042FAE7A27AD20780
:10955000D1D52033CFE7E0232B7099E70223A4E78E
:109560006820002070B5060082B0282800D9BBE032
:109570002323694C01ADE35C00282CD1002B18D0CB
:109580002870A27C8023002A02D07E3B2B7080337F
:109590002222A25C002A00D08AE023680122D97D21
:1095A000636818782B00FFF7FBFC002801D1232308
:1095B000E05400232B7007336B7023680222597D1F
:1095C000636818782B00FFF7EBFC002800D08BE0D5
:1095D000207502B070BD012B19D030232B70A27CF6
:1095E0008033002A02D07E3B2B7080332222A25C83
:1095F000002A5BD123680122D97D636818782B008B
:10960000FFF7CEFC002802D101222323E2542023BD
:109610002B70012E6BD0052E59D9142E4AD9032355
:109620006B70A37A002B6FD004236A46D370E37A61
:10963000042B69D0236801229978636818786B46F7
:109640000333FFF7ADFC002860D16B460722DB78BF
:10965000E3726B789B011343DBB26B7023680222C9
:10966000597D636818782B00FFF79AFC00283BD1DE
:1096700008230122A372207322751C33E35C002BA4
:1096800012D12374637C002B0ED16B46DA702368F1
:10969000597C636818786B460333FFF781FC002818
:1096A00002D16B46DB786374002092E72B70A1E750
:1096B0002B7072E702236B70A37A002B05D0052371
:1096C0006A46D370E37A052BB4D18723C5E701231B
:1096D0006B70A37A002B05D006236A46D370E37A19
:1096E000062BA7D14723B8E70120404271E70023AA
:1096F0006B70A37A002B05D006236A46D370E37AF9
:10970000062B97D10723A8E7C723A6E76B789A0112
:1097100007231343DBB2A0E76820002010B5114AED
:109720000100537A012B19D0002B13D0022B0AD041
:10973000032B0CD1102320240370D37C0020002B9A
:1097400000D00C7010BD082310240370F5E7012031
:109750004042F7E7022304240370EEE704230824C1
:109760000370EAE76820002070B51C4C82B0A37A31
:10977000002B27D06B46DD1DBB2816D8612817D9D2
:1097800002232B70E27A00269A420BD02368012232
:109790009978636818782B00FFF702FC002811D134
:1097A0002B78E372300002B070BD01232B70E9E723
:1097B000292804D8132808D904232B70E2E70323AF
:1097C0002B70DFE701267642ECE7092802D9052352
:1097D0002B70D7E706232B70D4E7C0466820002003
:1097E00070B5584C82B0A37A0600002B00D196E0E9
:1097F0002423E35C002B00D091E0227D002A30D0AE
:10980000421E272A00D885E02322A25C01AD002A4F
:1098100018D02B70A37C8022002B02D002230232AE
:109820002B702223E35C002B00D071E0236801221F
:10983000D97D636818782B00FFF7B2FB002801D1AF
:109840002323E05400232B7007336B70236802221C
:10985000597D636818782B00FFF7A2FB002800D120
:109860002075F920032E31D86B46D8702368012269
:109870005978636818786B460333FFF791FB00282B
:109880004DD16B46FA20D9788000013101F09EFD60
:10989000A37A80B2E0814008002B14D001ADBB2830
:1098A00021D9012301222B70E37A93420BD0236844
:1098B00001229978636818782B00FFF771FB002864
:1098C00001D12B78E372002002B070BDFA23311C65
:1098D0009B009E420FD8FA2089B2800001F076FDED
:1098E0000138C0B2C0E761280ED829281AD903234D
:1098F00003222B70D8E7FA20191C89B2800001F0EE
:1099000065FD0138C0B2AFE7022302222B70CBE71E
:109910002A708BE7C0B2FFF725FE0020D4E70120B4
:109920004042D1E7132805D8092807D90523052285
:109930002B70B9E7042304222B70B5E70623062217
:109940002B70B1E768200020F0B54746242380B48F
:10995000304D82B0EB5C0024002B2BD1AC7A002C74
:1099600054D00133984304402F7C2C74041B621E96
:10997000944106006442002821D12A7D002A30D07B
:109980006A7C002A16D107326A4413702B6890460D
:10999000597C6B68187813000122FFF701FB00283F
:1099A00008D143461B786B74002E03D0FFF72CFDC3
:1099B000002827D1200002B004BC9046F0BD6A7C8C
:1099C000002AF3D107226A4413702B689046597C11
:1099D0006B68187813000122FFF7E2FA0028E0D044
:1099E000E4E76B46DA712B680122597C6B681878C2
:1099F0006B460733FFF7D4FA0028DBD16B46DB79DF
:109A00006B74D7E701242F746442D3E701246442C6
:109A1000D0E7C04668200020F0B54F464646702388
:109A2000C0B4050083B0034069D06B469E1D01237E
:109A30003370484C01222368597D636818783300DD
:109A4000FFF7AEFA002800D07EE040223378307075
:109A5000934323732A4266D03A208446373881469E
:109A600001383823392201213B278046A80604D437
:109A700043463A00337049466346E80601D4130072
:109A800031702A0700D4337023680122997D6368FE
:109A900018783300FFF784FA002855D108232A00EC
:109AA0009A4320D02323E35C002B1CD06B46D87153
:109AB000A37C8022002B03D06A460223D37182222A
:109AC0002223E35C002B01D06B46DA71236801226C
:109AD000D97D636818786B460733FFF761FA002871
:109AE00001D12323E05400233220A5722375FEF711
:109AF000E3FB002003B00CBC90469946F0BD002863
:109B00001ED16B464027134C9E1D23683770597D2C
:109B10006368012218783300FFF742FA002813D156
:109B20003378BB4323733E20042384463738814671
:109B3000013833703D22383305213F27804695E7B1
:109B40006A46961D337074E700230120A3724042D9
:109B5000D0E7C04668200020802370B5774C84B0E1
:109B600002AD2B7023680122597D636818782B00A1
:109B7000FFF716FA061E00D0C2E06420FEF79CFB39
:109B800023682E70597D6368012218782B00FFF737
:109B900007FA002800D0B3E070232B70236801225D
:109BA000D97E636818782B00FFF7FAF9002800D0F7
:109BB000B5E023680622597E636818782B00FFF70A
:109BC0008FF9002800D09BE004216B7901269B00CF
:109BD00019400223EA78520013406A780B4332405E
:109BE000134300D182E0D9B2012B03D0022900D067
:109BF00098E00023E37400232B7023680122D97EB0
:109C0000636818782B00FFF7CBF9051E00D086E0BB
:109C10000122FF235242A37223726372E372E28134
:109C20002274A3742332FE3BA35423732233E054E3
:109C3000607520752000163A16300021FEF7E8FA0C
:109C40002423E5540133E554A37AE584002B57D04F
:109C50006B46DD1D18232B70237A032B0FD023684E
:109C600001229979636818782B00FFF799F9002889
:109C700046D12B78DB082372A37A002B40D0002337
:109C80002B70637A002B0FD023680122D979636887
:109C900018782B00FFF784F9002831D12B78DB08E6
:109CA0006372A37A002B2BD005232B70E37A052B4C
:109CB0000BD0236801229978636818782B00FFF78E
:109CC0006FF900281CD12B78E372FA208000FFF78F
:109CD00087FD002814D10020FFF736FE041E0FD1A7
:109CE0000020FFF799FE200004B070BD2368012218
:109CF000D978636818782B00FFF7F2F8002802D0B3
:109D000001246442EFE70F222B78134010D0042B7C
:109D100000D06EE70A4803F08BFFE6746BE703247C
:109D20006442E0E70124074803F082FF6442DAE777
:109D30000124054803F07CFF6442D4E7682000203A
:109D4000DCEF010064EF01008CEF010070B50D0045
:109D500082B0161E20D0124CA37A002B1CD0020A0F
:109D600001AB1A70C0B262685870401851898842BD
:109D700012DC21681078C97E0222FFF711F9002851
:109D80000AD12368EAB2197E636818783300FFF7B6
:109D900007F9404202B070BD01204042FAE7C046D8
:109DA00068200020F0B556465F464D464446F0B464
:109DB0008BB003932523514E01910292F35C8246AE
:109DC000002B75D1002973D0002800D194E0040045
:109DD000102800DD75E0A3B29B46B37A002B67D054
:109DE000002305AF70683B707B7043899C425FDC49
:109DF000019B0025984638E033681078D97E02220E
:109E00003B00FFF7CDF8002852D133684A46197E4F
:109E10007368187806ABFFF763F8002848D1220072
:109E200006A9404603F0ECFE00284CD15D44ADB2DB
:109E3000AA454BD953465C1B102C00DD1024A3B25D
:109E40009B46019B9846A8444346002B30D0B37AEA
:109E5000002B2DD02B0A3B707068EBB222047B7074
:109E6000120CD3184289934222DC33680078D97EE1
:109E700002223B00FFF794F8002819D1E3B299467B
:109E800033684A46197E736818784346FFF788F8A6
:109E900000280DD1B37A002B0AD02B0A3B707268D0
:109EA000EBB27B702404240C51891B198B42A3DD77
:109EB000012040420BB03CBC90469946A246AB46BE
:109EC000F0BD102487E702204042F3E7029A130A0C
:109ED0003B7033687A70597F7368022218783B00B0
:109EE000FFF75EF80028E3D125230122F2546B46E8
:109EF0009B890020F384DDE705AFE8E768200020B8
:109F0000242330B55A4C83B0E35C834276D00028DA
:109F100000D17AE02522A25C002A00D19EE0002B2D
:109F200000D06EE0A27A002A00D19AE06A46D51DE0
:109F30002B7023680122597C636818782B00FFF787
:109F40002FF8002801D12B786374A37C002B36D026
:109F5000236801221979636818782B00FEF7C0FF87
:109F600000282CD1A37ADB0700D56FE020222B78C4
:109F700093432B70236801221979636818782B00AA
:109F8000FFF70EF800281AD10330FEF795F92223C7
:109F9000E35C3022002B01D0802380322B702323FE
:109FA000E35C002B00D02A7023680122D97D63680E
:109FB00018782B00FEF7F4FF002800D1A074E08C85
:109FC000FFF70EFC6B46002206331A7062682321ED
:109FD00010780122FEF7E4FF24230122E254223B01
:109FE0002B702368597C636818782B00FEF7D8FF24
:109FF000002801D12B786374FFF706FA002003B024
:10A0000030BD6B46DD1D002392E7002B22D1A27AE2
:10A01000002A29D06A46D51D2B7023680122597C5D
:10A02000636818782B00FEF7BBFF002801D12B785E
:10A030006374237C01222B706368232118782B0022
:10A04000FEF7AEFF00222423E254D5E720232A782E
:10A0500013438EE76B46DD1D2870DEE7012040428A
:10A06000CDE76B46DD1D70E76B46DD1DE1E7C046C1
:10A0700068200020802210B5C823D200024903487E
:10A08000FFF790FE10BDC04674F00100F60B000013
:10A09000F0B5404C87B002AF050003AE21000322AB
:10A0A000380003F0BCFD211D0322300003F0B7FD92
:10A0B00021000322083104A803F0B1FD210003228E
:10A0C0000C3105A803F0ABFD032108006A466C467D
:10A0D00028403B5C1370EA080A40BB5CB25C6370CA
:10A0E000AB090B40F95CF35CA170315C01AC2170F1
:10A0F000627003216A462848A370FFF727FE0028F4
:10A1000045D1220003212548FFF720FE00283ED13B
:10A11000032204A9684603F082FD032205A920005A
:10A1200003F07DFD6B0708D56A4601236946127866
:10A130001A430A70227813432370AB0608D56A4687
:10A140000123694652781A434A7062781343637058
:10A15000EB0512D488206A460321C000FFF7F6FD04
:10A16000002814D1220003210D48FFF7EFFD00283D
:10A170000DD10C4B1D8107B0F0BD6A460123694625
:10A1800092781A438A70A2781343A370E2E7012001
:10A190004042F0E728F00100260400002A040000F5
:10A1A00031040000FC20002010B5144986B00400E2
:10A1B0000C22103103A803F032FDC82C1AD821005C
:10A1C000C82001F003F9013880B201AA030A5070D7
:10A1D00002210B481370FFF7B9FD00280AD103AA2A
:10A1E0000C210848FFF7B2FD002803D1064B9C81E3
:10A1F00006B010BD01204042FAE7C04628F0010039
:10A2000016020000C10A0000FC200020F0B5050085
:10A2100083B043076BD0C823DB00994267D808009E
:10A2200001F0D6FE4D4901F04DFA6B46DC1C071CCF
:10A230002000FFF773FA2378042B00D17DE033D997
:10A24000082B6AD0102B52D18A21381CC90501F085
:10A2500003FC01F01FFA424986B2381C01F0FCFBF6
:10A2600001F018FA80B201AC330A2370030A667059
:10A27000A370E070EB0729D4AB073CD400206B0738
:10A2800037D5EE20220002214000FFF75FFD0028B5
:10A290002DD16B462D309A1D0221FF30FFF756FD60
:10A2A000431E9841404224E0022B20D18D21381CCE
:10A2B000C90501F0D1FB01F0EDF92A4986B2381C3D
:10A2C00001F0CAFB01F0E6F980B2CCE7EA202200F7
:10A2D00002214000FFF73AFD002808D16B462530E7
:10A2E0009A1D0221FF30FFF731FD0028C4D0012064
:10A2F000404203B0F0BDEC20220002214000FFF7F5
:10A3000025FD0028F3D16B4629309A1D0221FF302C
:10A31000FFF71CFD0028B1D0E9E78B21381CC905E7
:10A3200001F09AFB01F0B6F90F4986B2381C01F032
:10A3300093FB01F0AFF980B295E78C21381CC90579
:10A3400001F08AFB01F0A6F9084986B2381C01F039
:10A3500083FB01F09FF980B285E7C04600004843C7
:10A360000000C04400004046000040450000C045D9
:10A37000F0B54E4645465746E0B486B0924B03AC26
:10A3800006002200042168200393FFF7DFFC40222F
:10A39000A32332402370904600D10DE11D3363703A
:10A3A0000833A370063BE370C0277F00374000D11D
:10A3B000FDE0C423237108336371063BA371A3231B
:10A3C00022000A218148E37123726372FFF7BEFC09
:10A3D0000323334099464A462023002A00D1B8334C
:10A3E000220001217A4823706D46FFF7AFFC092255
:10A3F0007849B30600D4D8E01C31280003F00FFCE4
:10A4000097202A000921C000FFF7A0FC002F09D0E7
:10A41000F30500D5D4E0704B0393220004216F486C
:10A42000FFF794FCF30700D4B6E08B20F82322005A
:10A43000012100012370FFF789FCFA210720FFF7B3
:10A44000E5FEA4203F232A00012140002B70FFF7E6
:10A450007DFC002350209A462A000121FF302B70FA
:10A46000FFF774FC5346EF202B7014232A000221BF
:10A4700040006B70FFF76AFC5346ED202B7064239D
:10A480002A00022140006B70FFF760FC53462B70DE
:10A490008E23AE206B706B33AB702A00693B0421B6
:10A4A0004000EB70FFF752FC5346AD202B700823A1
:10A4B0002A00022140006B70FFF748FC5346AC2095
:10A4C0002B7002232A00022140006B70FFF73EFC34
:10A4D000B307DB0FD8332200012141482370FFF777
:10A4E00035FC730752D53F4B00932A0004213E48A8
:10A4F000FFF72CFCFEF788FFF30641D53B4B00939A
:10A500002A0004213A48FFF721FCFEF77DFF0823CB
:10A51000384C33436381FEF777FF4346002B22D14B
:10A520000A20434684460C3082461038A373142216
:10A53000042310211A258046002F04D043462A0008
:10A54000A373514663461420304201D01300A17317
:10A550004A46002A00D0A373002006B01CBC9046D7
:10A560009946A246F0BD1020062384460C30824650
:10A570001038A3731A220433162120258046DBE706
:10A580000422A3212800FDF743FEB9E704228B2112
:10A590002800FDF73DFEA8E78B20D82322000121EB
:10A5A00000012370FFF7D2FB92E7283125E7A323B0
:10A5B00023716371A37102E76370A370E370F3E624
:10A5C0000D4B039329E7C04602CAE309A70A00001E
:10A5D000B60A000028F00100B080B490A20A000082
:10A5E0003D070000C0C2C4C6980A000020283038C9
:10A5F0009E0A0000FC200020B28BB69B0023F0B521
:10A60000C356002B36DD30220023202408212826C3
:10A6100010259446382703228256002A18DD062189
:10A6200041560022002902DD134398B2F0BD0029F3
:10A630003AD10721415640320029F5DC51D1082199
:10A64000415640320029EFDC59D1E0225200EBE7BD
:10A65000002A27D1042282560B00002ADFDC3ED1DB
:10A66000052282562B00002AD9DC3B00002AD6D0D6
:10A670006346D4E7002B0CD10123C356002B16DD13
:10A680003122012321240921292611259446392725
:10A69000C1E73422042324240C212C2614259446BB
:10A6A0003C27B8E72300BAE780225200BCE7002B22
:10A6B0000CD10223C356002B16DD322202232224A2
:10A6C0000A212A26122594463A27A4E73522052393
:10A6D00025240D212D26152594463D279BE7330083
:10A6E0009DE7A02252009FE7002B0BD137220723C2
:10A6F00027240F212F26172594463F278BE7013269
:10A70000FF3291E73622062326240E212E26162517
:10A7100094463E277FE7C04670B5050082B0002012
:10A720000E00FFF719FA0100324803F081FA782091
:10A73000FFF772F90100304803F07AFA7820FFF74A
:10A7400003F901002D4803F073FA002D22D16B4666
:10A75000DC1D0122DD711A2123006820FEF720FC98
:10A760000100274803F064FAFA203100400100F0AC
:10A770002DFE013820701921230001226820FEF7E8
:10A780000FFC01001F4803F053FA40221E4B1A60D1
:10A7900002B070BDFFF76EFC01001C4803F048FAE0
:10A7A0001B48FFF72BFFFFF773FC0100194803F06C
:10A7B0003FFA7220FF30FFF7DBFD0100164803F07F
:10A7C00037FA6420FFF7F0FC0100144803F030FA78
:10A7D0000120FFF795FB0100114803F029FA0A2038
:10A7E000FEF7C2FF01000F4803F022FA0A20FDF72E
:10A7F00063FDCAE78CFC0100A4FC0100BCFC010065
:10A8000064FD01007CFD010000E100E0D4FC0100DA
:10A8100094200020ECFC010004FD01001CFD01005F
:10A8200034FD01004CFD010010B50B0001000B4888
:10A8300003F0FEF98021A123A022FA20C900DB0049
:10A84000D205D150C000FDF737FDBFF34F8F044A4A
:10A85000044BDA60BFF34F8FFEE7C04694FD010062
:10A860000400FA0500ED00E080218023184A8902E7
:10A87000D1508022D221174B520289005A504039C0
:10A880005A5001222F205A600138C046C046C046A7
:10A89000C046C046C046C046C046C046C046C04688
:10A8A000C046F1D19A6000230B4A2F201360013873
:10A8B000C046C046C046C046C046C046C046C04668
:10A8C000C046C046C046C046F1D1044A1370704726
:10A8D00000E100E0001001400C2100202C210020AC
:10A8E000A021F0B5002347462C4A490080B45350BC
:10A8F0000431535004315350043153504C395350A8
:10A9000004315350264B1B68002B37D025490026B5
:10A9100052582549254F0C68141B00222402240A92
:10A92000904602E0002D1AD02B001A68A24216D8D9
:10A93000A41AB6181A7CDD69002AF3D04246996938
:10A940001A745A693B68002B1BD0100098470028E6
:10A95000E8D000220021FFF767FF002DE4D1144B5F
:10A9600014491A780B789A420ED0134A9B009E50D5
:10A9700080218023114A49035B00D15004BC9046DA
:10A98000F0BD08009047CDE70132D3B2022B01D0D1
:10A990000B70EAE700230B70E7E7C04600100140A8
:10A9A00010210020040500000C21002014210020AB
:10A9B00020210020212100202421002000E100E0AE
:10A9C000F0B55F4656464D464446F0B4C54BC64AC0
:10A9D0001B68C6498BB0059309781378994200D15A
:10A9E00057E10133DBB2022B00D100231370C04AC0
:10A9F0009B009B58BB4A9A46059B53441B021B0A6B
:10AA0000136001230193BB4B00241B689B46BA4B88
:10AA10005A461B78914619000393B84B88461B6829
:10AA200047460493AF4B013F1B680793B44B1B7819
:10AA3000099300239C4606930893FBB2664698460A
:10AA4000FF2B32D04346D800049B9C461300604441
:10AA50000178457800961A00A9421FD046684A003E
:10AA6000B446521886780131D200C9B262448E428F
:10AA700000D1EDE01678022E00D1C7E0032EEAD116
:10AA8000002BE8D01C74DB69002BFBD10133457827
:10AA90000093002399461A00A942DFD14746013F9F
:10AAA000FBB2009E9846FF2BCCD1089BC846029271
:10AAB000B446002B00D0F0E0069B002B02D0894B5F
:10AAC000079A1A606346002B02D04246894B1A60EF
:10AAD000019B002B00D02DE15B46029A00259B1ABA
:10AAE0005A1E9341DBB205937E4B00271B680299E7
:10AAF0009C46804B1B689B46814B1B78069300232A
:10AB00000193804B994601230093039B013BDBB2E9
:10AB10000393FF2B00D1F9E0049ADB0092460E006C
:10AB20009A44002D28D06A68A9682C00ED69634614
:10AB3000D31A1B021B0A4B4552D86A4612785B187F
:10AB400023606760A7602274E761002E58D03168E7
:10AB50003000994205D3B9E01168994200D3A3E0CF
:10AB60001000C2695B1A002AF6D1E261320023604C
:10AB7000C4611600002DD6D153461A785B78310097
:10AB80009342C2D0514649685300884651469B18AB
:10AB90000132D2B20A708978DB004344914200D17D
:10ABA0009DE0197832000129E3D15C68227C90464F
:10ABB000414632000029DCD19A686260D968A16000
:10ABC0001869E0605B69A361069B002BAFD0434628
:10ABD000002263606346D31A1B021B0A4B45ACD9A3
:10ABE00063469A1A1202120A8A4264D28B1A6A4681
:10ABF000127823606760A7602274E761002EA6D1F7
:10AC000022000123A34601931600B3E75668002BE8
:10AC100030D09E421ED0009A1F00944602E0964219
:10AC200006D01700FA69002AF9D16246009212E7AD
:10AC300065460095BA420FD01568D269FA61002ABC
:10AC400016D013689C466544156045784B4602E76C
:10AC500000210FE71A001F00DE69002E0CD001252D
:10AC600000951568D269B1463300FA61002AE8D12F
:10AC70004578F0E60023EEE60125234B9D60009524
:10AC800006950025002307950135994608950995F5
:10AC9000D2E700239A460193B5E66A46242152186A
:10ACA000174B12781A7007E7C91A1160E261236026
:10ACB0003200C4615DE76B461B7827606760A76060
:10ACC0002374E761002E9BD000233168CB1A3360D8
:10ACD00022000123E661A346019316004AE752468B
:10ACE00015705EE70C21002020210020212100208A
:10ACF0002421002010210020182100201C210020E8
:10AD000022210020FEFF7F0000100140019B002B4C
:10AD100000D09DE0029B994236D1059B002B33D198
:10AD20000023534A13700BB03CBC90469946A24690
:10AD3000AB46F0BD4F4B002418680025029B002154
:10AD40000026574615E01A68BA4200D984E0D86850
:10AD5000BF1A89181E60DC69002807D0DD611D005C
:10AD6000059A986052181202120A5A6023002000B5
:10AD7000019C002BE7D1002C01D03E4B1860002332
:10AD8000029301330593AFE6002900D15DE00B6823
:10AD900039489846394B3A4DC4583A4B2E781B687F
:10ADA000E11A0902090A0331002E2DD042468A42D7
:10ADB00000D20A00A820D21812022F49130AC0009C
:10ADC0002E4D0B504A591B1B121B1202120A1B025A
:10ADD00003321B0A9A42A3D94B590B502F2001383A
:10ADE000C046C046C046C046C046C046C046C04633
:10ADF000C046C046C046C046F1D180218023224AC9
:10AE000089025B00D1508BE78026D1277602BF00F4
:10AE1000C651403FC651C02280271B4EBF02520080
:10AE2000B7503760012606602F200138C046C04663
:10AE3000C046C046C046C046C046C046C046C046E2
:10AE4000C046C046F1D12E70B0E7FFF70DFD67E7B1
:10AE50005A46084B1A605DE7BA46002C01D00549F6
:10AE600008605146521A1A600293012305933BE68B
:10AE700022210020102100200010014004050000C4
:10AE80002C2100200C21002000E100E051DF704760
:10AE900061DF7047F0B557464E464546E0B4344B47
:10AEA000344E1D6899466B425D41334BEDB21C68D0
:10AEB000984663425C4182B0E4B2304FB246002D06
:10AEC00013D0002C40D13C68338801A920000B80AE
:10AED000FFF7DEFF052837D000282AD00022002106
:10AEE000FFF7A2FC0024002DEBD101A8FFF7CEFF55
:10AEF00005280DD0002822D000220021FFF794FC65
:10AF0000002C27D0012401A8FFF7C0FF0528F1D1AC
:10AF1000002C19D153466A461B8801A99380174B10
:10AF20001C682000FFF7B4FF05280DD0012500287C
:10AF3000D4D1434620001B6898470024D3E74B46F2
:10AF400001981B689847DBE702B01CBC9046994605
:10AF5000A246F0BD6A46074B01A91B889380074BA8
:10AF60001C682000FFF794FF0528B5D10124CAE72B
:10AF7000342100202E210020382100203021002003
:10AF800010B50A4B1B68002B08D09847002800D149
:10AF900010BD00220021FFF747FCF9E7044B1B78A6
:10AFA000002BF5D0FFF776FFF2E7C0463C210020EA
:10AFB0002D21002003210A4802680A430260094843
:10AFC00002680A4302600849084A094B9B1A03DDDC
:10AFD000043BC858D050FBDC064880470648004771
:10AFE0002405004054050040A0FF0100002000207F
:10AFF000A82000202582010021810100FEE7FEE754
:10B00000FEE7FEE7FEE7FEE7F0B546464F46C0B472
:10B010008DB004000D0000F057F8294B009001910D
:10B020001B785BB29846013312D022002B0020001F
:10B03000290002F029FD8146002809D100260027B9
:10B0400032003B002000290000F0C2FA002806D19F
:10B05000009801990DB00CBC90469946F0BD0123B3
:10B060000293184B0694079503934B460A93434665
:10B0700004940595002B15D03B00320030003900B8
:10B0800001F010FB434608900991022B0CD102F00D
:10B09000B1FD212303600A9B0093002B0AD108987D
:10B0A0000999D7E70896099702A800F003F9002844
:10B0B000F1D1ECE702F09EFD0A9B00930360EEE7FE
:10B0C0009D200020BCFD0100F0B556464D4644468B
:10B0D0005F46754BF0B40A000D00190083B00600FE
:10B0E00004002940994200D1BAE0002D00DC94E030
:10B0F0002D1500D1A3E06D4B12039C468023120B4B
:10B100005B0365441A43EB0700D581E06B1098465A
:10B11000E30F9B189B18802216210026002764004D
:10B120009203B818984202DC87181B1AB618E00F71
:10B130005B0001391B18640052080029F1D100227C
:10B1400001929446802212062020914609E09F42F7
:10B1500041D0E10FC9180138CB186400520800280B
:10B160001ED0614651189F42F1DA8D18AC46CD0FC2
:10B17000ED07BA464D4539D0DB1B8C42BF417F42BB
:10B18000DB1B641A019901388B469344594601919F
:10B19000E10FC9185746CB18640052080028E0D1C7
:10B1A00023432BD1019B5B08414972108C466244BA
:10B1B000F10702D5802109060B43414609058D1888
:10B1C0001E002F003000390003B03CBC9046994669
:10B1D000A246AB46F0BDA1420ED88D18AC46CD0FAD
:10B1E000ED074D4548D09A460023CAE76546002D35
:10B1F000C2DB7D1CAA46BFE73B00AAE7019B0133E7
:10B200003ED0019A01239446134063445B08CBE788
:10B21000E30F52009A18640078E76B005B08034361
:10B220002F00002BCED00025002A31D1E20A153D97
:10B230006405002AFAD080235B031A4223D18020C0
:10B240000023400300E00B005200591C0242FAD0D8
:10B250002020401AED1A2300C3408C401A434AE7CD
:10B2600002002B00290001F041FE32002B0000F00B
:10B27000EDFE06000F00A5E76546002DB9DAB2E73E
:10B280000136002390E7012320205B420021E1E703
:10B290003B000200390002F0A3F802000B0001F0AD
:10B2A00001FA06000F008DE70000F07F01FCFFFFB0
:10B2B0000000E03F00207047002243088B4274D317
:10B2C00003098B425FD3030A8B4244D3030B8B42A7
:10B2D00028D3030C8B420DD3FF22090212BA030CB0
:10B2E0008B4202D31212090265D0030B8B4219D391
:10B2F00000E0090AC30B8B4201D3CB03C01A5241B1
:10B30000830B8B4201D38B03C01A5241430B8B42F8
:10B3100001D34B03C01A5241030B8B4201D30B03E1
:10B32000C01A5241C30A8B4201D3CB02C01A524108
:10B33000830A8B4201D38B02C01A5241430A8B42CB
:10B3400001D34B02C01A5241030A8B4201D30B02B4
:10B35000C01A5241CDD2C3098B4201D3CB01C01ACE
:10B36000524183098B4201D38B01C01A52414309D8
:10B370008B4201D34B01C01A524103098B4201D3C6
:10B380000B01C01A5241C3088B4201D3CB00C01A33
:10B39000524183088B4201D38B00C01A52414308AB
:10B3A0008B4201D34B00C01A5241411A00D20146D0
:10B3B000524110467047FFE701B5002000F0F0F859
:10B3C00002BDC0460029F7D076E7704703460B431D
:10B3D0007FD4002243088B4274D303098B425FD38E
:10B3E000030A8B4244D3030B8B4228D3030C8B42BA
:10B3F0000DD3FF22090212BA030C8B4202D31212A0
:10B40000090265D0030B8B4219D300E0090AC30B74
:10B410008B4201D3CB03C01A5241830B8B4201D321
:10B420008B03C01A5241430B8B4201D34B03C01A0A
:10B430005241030B8B4201D30B03C01A5241C30A82
:10B440008B4201D3CB02C01A5241830A8B4201D3F3
:10B450008B02C01A5241430A8B4201D34B02C01ADD
:10B460005241030A8B4201D30B02C01A5241CDD282
:10B47000C3098B4201D3CB01C01A524183098B42CD
:10B4800001D38B01C01A524143098B4201D34B01B6
:10B49000C01A524103098B4201D30B01C01A524119
:10B4A000C3088B4201D3CB00C01A524183088B42A0
:10B4B00001D38B00C01A524143088B4201D34B0089
:10B4C000C01A5241411A00D20146524110467047FB
:10B4D0005DE0CA0F00D04942031000D34042534000
:10B4E00000229C4603098B422DD3030A8B4212D3C0
:10B4F000FC22890112BA030A8B420CD389019211F2
:10B500008B4208D3890192118B4204D389013AD02E
:10B51000921100E08909C3098B4201D3CB01C01A03
:10B52000524183098B4201D38B01C01A5241430916
:10B530008B4201D34B01C01A524103098B4201D304
:10B540000B01C01A5241C3088B4201D3CB00C01A71
:10B55000524183088B4201D38B00C01A5241D9D289
:10B5600043088B4201D34B00C01A5241411A00D20A
:10B570000146634652415B10104601D34042002B06
:10B5800000D54942704763465B1000D3404201B585
:10B59000002000F005F802BD0029F8D016E770473A
:10B5A0007047C0468446101C62468C46191C634690
:10B5B00000E0C0461FB501F02FFC002801D4002197
:10B5C000C8421FBD10B501F083FB4042013010BDE1
:10B5D00010B501F021FC002801DB002010BD012086
:10B5E00010BDC04610B501F017FC002801DD002099
:10B5F00010BD012010BDC04610B501F0A9FB002808
:10B6000001DC002010BD012010BDC04610B501F0C6
:10B610009FFB002801DA002010BD012010BDC046AC
:10B620008446081C6146FFE71FB500F0D1F90028E9
:10B6300001D40021C8421FBD10B500F05DF94042A1
:10B64000013010BD10B500F0C3F9002801DB002067
:10B6500010BD012010BDC04610B500F0B9F900289A
:10B6600001DD002010BD012010BDC04610B500F066
:10B670006BF9002801DC002010BD012010BDC04680
:10B6800010B500F061F9002801DA002010BD01209A
:10B6900010BDC0469E2110B5C905041CFFF7F0FF80
:10B6A000002803D1201C00F071FC10BD9E21201C3D
:10B6B000C90500F0E5FA00F069FC80231B069C46F2
:10B6C0006044F2E7F0B5564644465F464D46F0B456
:10B6D00044024600C70F83B08846650A360EBA4654
:10B6E0003DD0FF2E22D00023EC00802599469B46BA
:10B6F000ED0425437F3E43465C025800DB0F640A9D
:10B70000000E984636D0FF2830D080230021E40078
:10B71000DB041C437F38301A0190484642460843F8
:10B72000724E800030587A4013008746002D44D175
:10B7300008239946063B9B46DDE70122FF200024B3
:10B740001A406402C305640AD2071C431443200054
:10B7500003B03CBC90469946A246AB46F0BD002DD6
:10B7600020D104239946033B9B46C4E7002C17D104
:10B77000022102E0002C0AD10121321A01924A462C
:10B7800043460A435A48920082587B40974620001D
:10B7900002F012FA431F76309C4040420021BAE783
:10B7A0000321B8E7280002F007FA431F9D40002359
:10B7B0007630464299469B469DE70C239946093BC5
:10B7C0009B4698E780240022E403FF20B9E7002489
:10B7D000C2468B465A465346022AAED0032A7DD033
:10B7E000012A31D1012200201A400024A9E70122B8
:10B7F000101A1B2856DD1A4000200024A1E78023E0
:10B80000DB031D424BD18023DB032B435C02640A24
:10B810003A00FF2095E76D016001854230D2019A20
:10B820000024013A01921B220127290064006D00C7
:10B83000002901DBA84201D82D1A3C43013A002A15
:10B84000F3D16A1E95412C4301987F300028CEDD4C
:10B85000620704D00F222240042A00D004342201BF
:10B8600003D5244A019814408030FE2800DD64E7A7
:10B870000122A401640AC0B21A4062E72C00A9E7C1
:10B880002D1A1A220124CFE76B02BCD50024802395
:10B89000DB031C436402640A4246FF2051E71C425A
:10B8A000B3D1F4E721002022C140101A8440621E67
:10B8B00094410C43620704D00F222240042A00D096
:10B8C0000434620104D5012201201A40002438E723
:10B8D0000122A401640A1A40002032E78023DB031E
:10B8E0001C436402640A5246FF202AE7C4FD01009B
:10B8F00004FE0100FFFFFFF7430270B542004C0059
:10B900005D0AC30F4802120E460A240EC90FFF2A11
:10B910000FD0FF2C11D00120A24200D070BDB54243
:10B92000FCD18B420DD0002AF8D12800431E98414B
:10B93000F4E70120002DF1D1EBE70120002EEDD13D
:10B94000E9E70020EAE7C0464302F0B542005D0A9D
:10B95000C30F4802440A4800120E000EC90FFF2A06
:10B960001FD0FF2822D0002A09D16E426E41002844
:10B970000FD1002C0DD10020002D09D005E00028AA
:10B9800001D1002C01D08B4213D05842012318431F
:10B99000F0BD002EF7D04842414101204942084302
:10B9A000F6E7002DDDD002204042F1E7002CDAD08E
:10B9B000F9E78242E9DC04DBA542E6D80020A54293
:10B9C000E6D25842434101205B421843E0E7C046BB
:10B9D0004302F0B542004C005E0AC30F4802120E4B
:10B9E000450A240EC90FFF2A17D0FF2C19D0002AB0
:10B9F0000BD170427041002C17D0002807D048426C
:10BA00004141012049420843F0BD002C13D08B4234
:10BA100014D0584201231843F6E70220002EF3D138
:10BA2000E3E70220002DEFD1E1E7002DE5D1002072
:10BA3000002EE9D0EDE7002DE9D1EAE7A242E8DCEB
:10BA400004DBAE42E5D80020AE42DDD2584243418D
:10BA500001205B421843D7E7F0B557464E464546AE
:10BA60004300E0B446028846760A1F0EC40F002F3A
:10BA700047D0FF2F25D0002380259A469946F6000F
:10BA8000ED042E437F3F434642465D02D20F5B00EA
:10BA90006D0A1B0E904640D0FF2B39D0802200202B
:10BAA000ED00D20415437F3BFB1842465746591C14
:10BAB00062408C4607430F2F5CD86F49BF00C959BD
:10BAC0008F46002E45D108239A46063B9946DAE771
:10BAD000424602282DD0032800D1C3E0012800D01F
:10BAE000A2E0002500260240D4B27602ED05760AD7
:10BAF0002E43E407264330001CBC90469946A246DC
:10BB0000F0BD002E1AD104239A46033B9946BAE7AA
:10BB10002A00511E8A41901CC6E70120002DC3D087
:10BB2000280002F049F8431F76309D404342002030
:10BB3000BAE70124FF2514400026D6E7300002F0C2
:10BB40003BF8431F9E400023763047429A46994671
:10BB500099E70C239A46093B994694E780260024EE
:10BB6000F603FF25C1E735004846B2E7350022005D
:10BB70004846AEE72904090C0800370C3604360C99
:10BB80002C0C7943704367437443060C64183619D0
:10BB9000B14203D980214902884647440004000C81
:10BBA000310409188D01681E8541890E2943350C21
:10BBB000ED19AD010D43290104D5012369081D408C
:10BBC00063460D4319007F31002925DD680704D045
:10BBD0000F202840042800D00435280103D5274928
:10BBE00080330D401900FE29A3DC0124AD016E0A4B
:10BBF0001440CDB279E78020C003064207D0054249
:10BC000005D128434602760A4446FF256DE70643E0
:10BC10007602760AFF2568E70124611A1B2905DDF3
:10BC200014400025002660E76346CBE72E00202362
:10BC3000CE40591A8D406B1E9D412E43730704D090
:10BC40000F233340042B00D00436730104D50124A4
:10BC500001251440002648E70124B601760A144065
:10BC6000002542E780260124F6032E437602760A59
:10BC70001440FF2539E7C04644FE0100FFFFFFF7EF
:10BC8000F8B54A024E0043024400240EC50F9B093A
:10BC9000360EC90F9209FF2E00D183E001204140EA
:10BCA000A01BA9425CD0002800DC95E0002E1CD12E
:10BCB000002A00D081E05A0704D00F221A40042A3B
:10BCC00000D004335A013BD50134FF2C00D191E060
:10BCD00001209B015B0AE4B205405B02E4055B0ABC
:10BCE000ED0723432B431800F8BDFF2CE3D0802140
:10BCF000C9040A431B2800DD90E016002021C6403D
:10BD0000081A8240511E8A4132439B1A5A0115D5A6
:10BD10009B019E09300001F04FFF053886408442A8
:10BD20006CDC041B330020200134E340041BA640DC
:10BD3000721E964100243343BDE70D005A07BCD163
:10BD4000DF0801231D40FF2C33D1002F00D190E0EC
:10BD50008022D20313003B435B025B0AFF24BCE753
:10BD600000284FDD002E2ED0FF2CA4D08025ED041E
:10BD70002A431B2800DD97E016002025C640281A1C
:10BD80008240501E824132439B185A01D5D501345E
:10BD9000FF2C6DD001227B481A405B0803401343FF
:10BDA0000D0088E7002A00D07AE777E7031EC5D1A7
:10BDB00000257B025B0AE4B28FE701380028A4D09B
:10BDC000FF2C97D177E7002A00D174E701380028CB
:10BDD000DAD0FF2CCDD16EE7002821D1601CC0B293
:10BDE000012858DD80279E1AFF0437402FD0D61A2D
:10BDF0000D008FE701231D4000236EE7624B241ADC
:10BE0000334058E7002851D1601CC6B2012E33DD03
:10BE1000FF282DD09B185B0804004CE7012274E733
:10BE2000002C1AD0FF2E1FD08024E404404223436C
:10BE30001B2800DD96E01D002024C540201A834009
:10BE4000581E83412B43D31A34000D005EE7002EA9
:10BE500000D05FE700250024ABE7002B44D0C043AF
:10BE60000028F0D0FF2EE3D11300FF240D0022E7BD
:10BE70000D00FF24002330E7002C5DD1002B7DD086
:10BE8000002A00D117E79B185A0100D456E73E4A12
:10BE9000040013400FE7002C1ED1002B2FD1002AE5
:10BEA00065D013000D0006E701226DE7002C1FD1BD
:10BEB000002B59D0C04300280BD0FF2E4FD01B2899
:10BEC0005EDC1D002024C540201A8340581E83419B
:10BED0002B439B18340058E7002B1CD1002A49D073
:10BEE00013000D00FF24E6E6130034000D00E2E627
:10BEF000FF2E34D08024E40440422343DFE7002AAD
:10BF000000D1D8E68027981AFF04074000D14DE7FA
:10BF1000D31A0D00CFE6FF24002A00D1CBE6802003
:10BF2000DB08C003034204D0D208024201D113004F
:10BF30000D00DB00FF24BEE6002B10D0FF24002AFA
:10BF400000D1B8E68020DB08C003034203D0D2084A
:10BF5000024200D11300DB000D00FF24ABE613000A
:10BF6000FF24A8E601236EE713003400A3E60027B0
:10BF700000251EE780270025FF03E9E613009AE667
:10BF80000123A6E7FFFFFF7DFFFFFFFB4302590AE6
:10BF90004300C20F1B0E00207E2B0EDD9D2B0DDCFF
:10BFA000802000040143952B0BDC9620C31AD94056
:10BFB0000B005842002A00D118007047034BD018DC
:10BFC000FBE7963B99400B00F3E7C046FFFFFF7F7E
:10BFD00070B5041E28D001F0EFFD9E231B1A962B8E
:10BFE0000ADC9622D21A94406202520AD8B2520255
:10BFF000520AC005104370BD992B18DC9922D21A41
:10C000009440114A2240610704D00F210C40042CB7
:10C0100000D00432510103D50B4B1A409F231B1A49
:10C020009201520AD8B2E2E700200022DFE705229F
:10C030002500121AB921D5402200C91A8A40541E7F
:10C04000A2412C001443DCE7FFFFFFFBF8B5564686
:10C050005F464D464446F0B40F00FD0FAA46090363
:10C060007C002E005F00450F490A7F0D2943C50063
:10C070001803BC46400A570F640DDB0F3843D2004B
:10C080009A4500D1AAE06646A61B002E00DCFFE020
:10C090006346002B39D10300134300D0D9E06B076E
:10C0A00009D00F232B40042B05D02B1DAB42AD41F3
:10C0B0006D4249191D000B0200D482E0CA4B0134C5
:10C0C0009C4200D1FEE00A005646C84BED081A40DB
:10C0D0005007640552020543120B640D0021120340
:10C0E0000B0D1B056405120B1A436308C04CF607C1
:10C0F00014401C43640064083443280021003CBC05
:10C1000090469946A246AB46F8BDB74B9C42C6D076
:10C1100080231B041843382E00DDEBE01F2E00DDCA
:10C120001EE120239B1B9C4603006746BB409846AC
:10C1300013004746F3403B436746BA40571EBA4197
:10C1400013430200F240EB1A9D42B6411D008A1AC9
:10C150007642911B0B0231D54A02560A002E00D1BD
:10C16000B4E0300001F028FD0300083B1F2B00DD88
:10C17000B5E020222900D21AD1409E400A009D40FD
:10C1800032439C4200DDB1E01C1B631C1F2B00DD11
:10C19000D5E0202114002800C91A8C40D8408D40D9
:10C1A0000443DA40681E854111002543002476E7E8
:10C1B0004146314300D134E2310045466B0700D09F
:10C1C0006FE756464807ED08C9080543864B9C4271
:10C1D00035D00A036405120B640D7FE76346E31A4A
:10C1E0009B46002B00DC8BE06746002F3CD07E4F47
:10C1F000BC4200D153E780273F0438435B46382BCD
:10C2000000DCF7E00243501E82410020D2B25319F5
:10C210004218AB4289411D00494289180B02CDD515
:10C22000714B01349C4200D13DE101206F4A6B0803
:10C230000A4028401843D507054351082FE72B0033
:10C240000B4300D1CBE180231B030B431A03120BDA
:10C2500044E7013E002E6DD1AE1AB5429B41091A4A
:10C260005B42C91A350075E70700174300D116E78E
:10C2700001235B429C46E3445B46002B00D0E0E098
:10C28000AA18AA429B4109185B4259181500C5E734
:10C29000002E75D1661C7605760D012E00DCF3E0CC
:10C2A000AE1AB0464545BF410E1A7F42F61B370213
:10C2B00000D48FE0551BAA42B641411A76428E1B2C
:10C2C0009A464BE756460022002507E7280001F072
:10C2D00073FC20300300083B1F2B00DC49E72A00D9
:10C2E0002838824000259C4200DC4DE73F49E41A93
:10C2F0001140D4E60243501E8241D3B2002222E70D
:10C30000002B00D0F3E0631C9C465B055B0D012B0A
:10C3100000DC9FE0344B9C4500D1C3E0AA1809180B
:10C32000AA42804140424118CD07520815434908AE
:10C330006446B4E62C4B9C4200D0ECE6AFE611001C
:10C340001F3CE1400C00202B00D17FE04021CB1AA4
:10C350009A4015436A1E95410021254300242DE78C
:10C3600033000700203BDF403B00202E70D04027E9
:10C37000BE1BB0400243501E824113430022E2E63E
:10C38000002C4FD0184CA44500D1ABE080242404ED
:10C3900076422143382E00DDDFE01F2E00DD43E131
:10C3A0002027BC1BA1460C004F46BC40A0462C00D9
:10C3B0004746F4403C434F46BD406F1EBD41F140EF
:10C3C0002C43151BAA429241411A5242891A6446D3
:10C3D0009A46BFE641464546314300D0BEE60026B8
:10C3E00000240025F2E6C046FF070000FFFF7FFFA4
:10C3F000FFFF0F801F2B59DC2027FF1ABC460700C8
:10C4000063469F405B46B9461700DF40B8464F463B
:10C4100043461F4363469A40531E9A415B463A4344
:10C42000D840F4E60C002C435CD0F643002E55D1E6
:10C43000551BAA42A441411A6442091B9A4664460C
:10C4400088E6964FBC4200D0D8E628E6002280E776
:10C4500000208FE70B002B43002C00D0C2E0002B04
:10C4600000D101E10300134300D118E6AB18AB4241
:10C47000B6410918764271180A0200D409E1884AC7
:10C480001D00114064460AE6002C5BD10E002E43CD
:10C4900000D08AE00100114300D1C2E00100150084
:10C4A0009A46FCE56446002100258FE620235B4286
:10C4B0009C46DC4463460700DF405B46BC46202BBD
:10C4C00000D1ACE040235F46DB1B98400243501E86
:10C4D0008241634613431A00002098E66F4CA4453E
:10C4E00000D057E70100150064469A46D7E5002CB6
:10C4F00039D10C002C436ED0DB43002B1AD0674C93
:10C50000A44568D0382B00DDA4E01F2B00DDAEE091
:10C5100020240F00E41AA740B9462F00DF40B84698
:10C52000A3464F46444627435C46A5406C1EA541A2
:10C53000D9403D43AD1895429B4109185B425918BB
:10C5400064466BE60C002C4315D1010011437BD0EF
:10C55000010015009A46514CA1E50D43691E8D411D
:10C560000021ECB22DE74D4CA44534D080242404A6
:10C570005B422143C6E7040014434ED0ED084C074C
:10C580002C438025C9082D03294208D0C6082E4215
:10C5900005D1D208410711430C009A463100620FC1
:10C5A000C900E50011433D4C79E50600164300D172
:10C5B00075E5AE1AB0464545BF410E1A7F42F61BDF
:10C5C000370200D4F4E5551BAA42B641411A76421F
:10C5D000891B9A4663E50100150064465FE5002269
:10C5E00000257BE5002B3BD00300134315D0ED085D
:10C5F0004B072B438025C9082D03294207D0C408C7
:10C600002C4204D141070B002100D2081343C9007A
:10C610005A0F1143DD00214C41E5204C3FE500203D
:10C6200054E700260025D1E534000F00203CE74008
:10C630003C00202E2BD04027BE1BB1400D43691E6D
:10C640008D4100212C43BCE6802100260903134CB8
:10C650000025BBE50D43691E8D410021EDB269E760
:10C66000010015000D4C1AE50100150017E51C002E
:10C670000F00203CE7403C00202B0CD04027FB1A49
:10C6800099400D43691E8D410021254352E7002149
:10C69000D4E71D0092E50021F3E7C046FF07000044
:10C6A000FFFF7FFFF0B556464D4644465F46F0B467
:10C6B0001D000E034C00CB0F87B007009246814649
:10C6C000360B640D98466AD06D4B9C4235D0802263
:10C6D000430F12041343F6001E43C3009946694BEF
:10C6E00000279C460023644402932B0368001B0B25
:10C6F000ED0F51469B46400D009500D178E0604B10
:10C7000098426CD05B46DA004B0F802109040B4342
:10C7100013439B465346D9005A4B9C460023604422
:10C720004246201A6A40924601901F430F2F00D9BB
:10C73000B0E05548BF00C0598746374300D088E075
:10C74000002399460233082700260293CDE743468B
:10C75000B34649460093029B009A9246022B00D0B2
:10C76000BFE1002153460122002689461A40444B6E
:10C77000002136030C0D2405360B2643434C1B05C4
:10C7800026401E437600D2077608164348463100FD
:10C7900007B03CBC90469946A246AB46F0BD33007C
:10C7A00003434FD0002E00D1BCE1300001F004FA69
:10C7B00003000B3B1C2B00DDADE11D220100D31A51
:10C7C00008393A008F408E40DA40B9461643304B64
:10C7D00000279C46002360444442029385E7534669
:10C7E0005A4613432CD1002300219B46023397E77E
:10C7F0000B4320D05B46002B00D19EE1584601F050
:10C80000DBF903000B3B1C2B00DD8FE102005946D6
:10C81000083A91408B461D21CB1A5146D9400B0056
:10C8200059460B4351469B469140194B9C466044E8
:10C830004042002374E7002300219B4601336FE749
:10C8400003236DE700239946013304270026029352
:10C850004BE703230C27029347E70122D51A382D13
:10C8600000DCB0E153461A4000210023002689462F
:10C870007EE700238026994600223603004B77E7A7
:10C88000FF07000001FCFFFF84FE0100FFFF0F8097
:10C89000F30300005E4500D972E100D16DE1019B18
:10C8A0004D46013B01930023340002935B461E0278
:10C8B0000B0E1E430B020393330C994633041B0CDF
:10C8C000494620000093FEF7F7FC009B37004343E6
:10C8D0000600494620009846FEF774FD2C0C09041A
:10C8E0000C43A04509D9E419731EA74200D95CE1A5
:10C8F000A04500D859E1023EE4194346E41A4946EE
:10C900002000FEF7D9FC0300009A804653434946B5
:10C9100020009B46FEF756FD2A040904120C0A4328
:10C9200093450DD94346D219013B974200D93AE1CC
:10C93000934500D837E102235B429C46D219E0447C
:10C940005B46D21A4346360433439B460399180C80
:10C950000B0C1D00059309045B46090C0C001B041D
:10C960001B0C4443049159436B4368431B190D0C42
:10C97000EB189C4203D980246402A44660441C0C3A
:10C9800009041B04090C20185D18824200D2DEE065
:10C9900000D1D7E0161A029B9C465D1BAC459B411B
:10C9A0005B42F61AB74200D106E149463000FEF775
:10C9B00083FC009B04004343494630009846FEF741
:10C9C00001FD2E0C09040E43B04509D9F619631E6A
:10C9D000B74200D9F3E0B04500D8F0E0023CF619C8
:10C9E0004346F31A494618000293FEF765FC009B84
:10C9F00006004343494602989846FEF7E3FC2D049F
:10CA000009042D0C0D43A84509D9ED19731EAF4239
:10CA100000D9D6E0A84500D8D3E0023EED192404A1
:10CA2000210043463143049E059A3000ED1A0B0461
:10CA30000C0C1B0C58436643534354439A19030C84
:10CA40009B189E4203D980225202944664441A0CD9
:10CA500000041B04000C14191B18A54250D34DD020
:10CA600001231943964A019B94466344002B00DC42
:10CA7000F3E64A0709D00F220A40042A05D00A1D0E
:10CA80008A42894149428B4411005A46D20108D555
:10CA90005A468C4B1A4093468022D2009446019B02
:10CAA0006344894A934200DD5BE65A46C908500751
:10CAB00008435602514601225B058146360B5B0D49
:10CAC0000A4055E680231B031E4211D05A461A42E3
:10CAD0000ED15E461E433603360B2A0089467B4B39
:10CAE00046E6032B00D1E1E0012BBBD11A40BBE6A7
:10CAF0001E433603360B4246744B39E6002BB1D049
:10CB00007D194A1EAF4252D91100A542A8D1039AFD
:10CB10009A42A5D1A6E703003E00283B9E40002391
:10CB2000994654E601F048F8203041E603005246A9
:10CB3000283B9A400021934677E6504601F03CF8A6
:10CB400020305EE6029B0026AB4200D323E7039E23
:10CB50000299B44661448846B045B6415B46764288
:10CB6000F619B218013B0291974213D290424FD866
:10CB700000D18EE0161A9B460DE7894500D28EE65D
:10CB800074084B46F60735005B081D434B46DB0730
:10CB900002938BE69742EDD10399029CA142E5D91D
:10CBA0003E1A9B46F7E69846CAE61E00A5E6AC424A
:10CBB0003ED874D0110053E70121494252E71C00CE
:10CBC0000EE71E002BE71F2D3CDC20230A005846F1
:10CBD0005B1B9840EA4099400243481E81415E46F3
:10CBE0001143EE404B0709D00F230B40042B05D017
:10CBF0000B00191D99429B415B42F61833023CD54C
:10CC00005346012200211A40002601238946AFE540
:10CC100002235B429C46039CE344A446029B63447C
:10CC20009846A045B6417642F6190293B218B1E68D
:10CC300003988A1E41008142B6417642F619AD1929
:10CC4000039161E71F225242D31A5A46DA40130079
:10CC5000202D29D040225846551BA8400143481E8C
:10CC6000814107200B4318400026002809D00F22DD
:10CC700000261A401900042ABBD10B007007760267
:10CC8000360BDB0803439946012253461A40002322
:10CC90006EE502998D42BBD89B4600267BE6039841
:10CCA0009842C5D3110032E70020D7E780265B46C3
:10CCB00036031E433603360B009A8946034B57E56D
:10CCC000FF030000FFFFFFFEFE070000FF0700005C
:10CCD000F0B55F4656464D464446F0B41F035C002F
:10CCE000DB0F9A46194B0E034D00C90F8046360BD9
:10CCF0006D0D8B4691463F0B640D9D4219D0134B31
:10CD00009C421BD00123A54206D018003CBC904693
:10CD10009946A246AB46F0BDBE42F6D1C845F4D115
:10CD2000D34510D0002DF0D1304303005A1E93415B
:10CD3000EBE7310001230143E7D1E0E73A43012368
:10CD4000002AE2D1DEE70023DFE7C046FF0700004C
:10CD5000F0B55F46444656464D46F0B41F033C0BC3
:10CD60002C4F0E034D00A3465C008446360B6D0D20
:10CD7000C90F9046640DDB0FBD422BD0254FBC423E
:10CD80002ED0002D0ED130430700814678427841E5
:10CD9000002C17D15F463A4314D14B460020002B9C
:10CDA0000AD006E0002C02D15846024301D0994235
:10CDB0001AD00123484218433CBC90469946A246EB
:10CDC000AB46F0BD0028F2D0584258410122404203
:10CDD0001043F1E737000743D0D002204042EBE791
:10CDE0005F461743CDD0F8E7A542E2DC05DB5E45A0
:10CDF000DFD808D000205E45DED2484248410123FA
:10CE000040421843D8E7C445D3D80020C445F4D3E2
:10CE1000D2E7C046FF070000F0B55F464D464446E6
:10CE20005646F0B41C03240BA4462F4C0F034D00B0
:10CE30005E00C90F80463F0B6D0D8B469146760D07
:10CE4000DB0FA54220D0284CA64222D0002D12D1C3
:10CE5000384344424441002E20D0002C0DD05C4287
:10CE6000634101245B421C4320003CBC9046994630
:10CE7000A246AB46F0BD002E17D05B4519D05B46ED
:10CE80005C4201231C43EFE7390002240143EBD14C
:10CE9000D9E7614602241143E6D1D7E761460A4348
:10CEA000DBD100240028DFD0E9E761460A43E4D162
:10CEB000E5E7B54203DD01225C421443D4E7B54205
:10CEC000CDDB6745DBD809D000246745CCD2594675
:10CED0004C426141012449420C43C5E7C845CED8C4
:10CEE0000024C845F3D3BFE7FF070000F0B55F4655
:10CEF00056464D464446F0B40D0399464E002B0B62
:10CF000087B00700924680469B46760DCC0F002ED8
:10CF100069D06D4B9E4235D05B468022DD00120405
:10CF2000430F13432B439B46C3009846674B002790
:10CF30009C460023664401934A4615035000D20FD5
:10CF400053462D0B400D914600D176E05E4A90424B
:10CF50006CD080225B0F120413435C4AED009446B0
:10CF60001D4353460022DB00604449463618701CBE
:10CF70006140029017430F2F00D9AFE05448BF0023
:10CF8000C759BF465B461F4300D088E000239B463D
:10CF90009846023308270193CEE74946022A6AD011
:10CFA000032A00D109E2012A00D0BBE1114000228E
:10CFB000002300259046CCB200212D030A0D120556
:10CFC0002D0B1543434A1B0515401D436D00E40717
:10CFD0006D0825434046290007B03CBC9046994661
:10CFE000A246AB46F0BD034352D05B46002B00D1B6
:10CFF0008AE1584600F0E0FD03000B3B1C2B00DDEE
:10D000007BE11D22D31A3A0001005D46DA4008395F
:10D010008D4013008F402B439B46B8462E4B002774
:10D020009C46002360444642019385E752462A43CA
:10D030002CD100250023022297E752462A4321D013
:10D04000002D00D154E1280000F0B6FD03000B3B99
:10D050001C2B00DD46E11D21CB1A51460200D940B0
:10D060005346083A954093400D431B4A944660440A
:10D070004042002279E7012400220C40124B002597
:10D08000904699E70025002301226EE703226CE712
:10D0900000239B4698460133042701934CE7032362
:10D0A0000C27019348E700238025984600242D0390
:10D0B000054B81E75D464346019A6FE75D4643466F
:10D0C0002100019A6AE7C046FF07000001FCFFFF4C
:10D0D000C4FE0100FFFF0F80F30300004246120C64
:10D0E00091461A0C9446424617044A461B041B0CF0
:10D0F0005A43604690464A464243100003926246B5
:10D100001C003F0C7A437C4342440192220C92461D
:10D11000019A5244904506D98246802040028046BA
:10D12000C24450460390100C049048462404240C3A
:10D130001204121905922A0C2D042D0C68432C00A0
:10D14000824648467C4350438146200C80465743E4
:10D1500057444744BA4503D9802040028046C14421
:10D16000380C3F04B84648442404240C0190049829
:10D17000A044404404905846000C8146584604049C
:10D18000200C8246070048465F434C4643436046B6
:10D1900060436446834650464443380C8446E41852
:10D1A0006444A34203D980235B029C46E34448467F
:10D1B0003F04230C3F0C2404E419574668436F4393
:10D1C00084464D46504655434243380C814662449E
:10D1D0004A445B44944503D9802040028446654418
:10D1E00003983F04834604983F0C8446E344C345B8
:10D1F0008041404282461004844601986744844638
:10D200006744A344BC46A345A4419946D444644220
:10D210008742BF41D4458041E144A04699459B41A6
:10D220007F424042C8440743120CBA18A045A441AB
:10D230005F423B0064422343D71843467D19DB0D10
:10D240006D021D435B465A02059B1A43531E9A41C9
:10D250005B46DB0D1A4343465B021343EA0107D5E5
:10D2600001225C0813402343EA07029E13436D0822
:10D27000574AB218002A4BDD580709D00F20184032
:10D28000042805D0181D98429B415B42ED1803000D
:10D29000E80104D54F4A15408022D200B2184E480A
:10D2A000824200DDE7E60124DB08680718436D02CF
:10D2B000530580462D0B5B0D0C407DE680225946C0
:10D2C0001203114208D0154206D115432D0398468A
:10D2D0002D0B4C46414B6FE65D4615432D032D0B40
:10D2E0003E4B69E603005546283B9D400023BCE6C3
:10D2F000504600F061FC2030A8E60300283B9F4028
:10D300000023BB46984689E600F056FC203073E6C1
:10D310000124A61A382E07DD00220C400023002528
:10D32000904649E6029EA3E71F2E20DC20222C0017
:10D330001800921BF040944093400443581E8341D0
:10D340001C43F540630709D00F232340042B05D06D
:10D3500023001C1D9C4292415242AD182B021FD546
:10D36000012400220C4001230025904624E61F20C2
:10D370002C004042821AD440202E1CD04022961B02
:10D38000B5402B43581E83410720234318400025F6
:10D39000002809D00F2200251A401C00042AD8D1E9
:10D3A000230068076D022D0B0124DB080343984618
:10D3B0000C40002300E60025E3E78022012412034D
:10D3C00015432D0398462D0B0C40044BF4E5C04645
:10D3D000FF030000FFFFFFFEFE070000FF07000045
:10D3E000F0B557464E464546E0B40E001100F20F28
:10D3F0009246C500420F180337037400400A4E0FCF
:10D400007F0A3043CF4E17435A00640D520DDB0F95
:10D41000C900B24200D1E5E001267340A61AB44625
:10D42000534500D1AFE0002E00DC0DE1002A3AD1D7
:10D4300003000B4300D0E4E06B0709D00F232B401F
:10D44000042B05D02B1DAB42AD416D427F191D0051
:10D450003B0200D488E0BB4B01349C4200D110E178
:10D460003A00B94B51461A4001235007ED085202C9
:10D4700064050543120B640D0B40002128001203C4
:10D480000D0D120B64052D0515436208AF4CDB072B
:10D490002C401443640064081C4321001CBC9046CB
:10D4A0009946A246F0BDA74B9C42C5D080231B04E1
:10D4B00018436346382B00DDFDE01F2B00DD30E113
:10D4C000624620239B1A02009A40664690460A0054
:10D4D0009940F24046464B1E994132431143634600
:10D4E0000200DA40691A8D429B410D00BA1A5B4274
:10D4F000D71A3B0235D57A02530A98464346002B89
:10D5000000D1C4E0404600F057FB0300083B1F2B4E
:10D5100000DDC5E020222900D21A4746D1409F40B5
:10D520000A009D403A439C4200DDC0E01C1B631C86
:10D530001F2B00DDE4E0202114002800C91AD84088
:10D540008C408D400443DA40681E85411700254316
:10D55000002471E7424663461A4300D14CE2674615
:10D5600045466B0700D069E7012351467807ED086F
:10D57000FA080B40054373498C4238D01203640506
:10D58000120B640D79E7002E00DC9AE0002A47D0E8
:10D590006C4A944200D14FE7802212041043624645
:10D5A000382A00DC08E10143481E81410022C9B24B
:10D5B0004919D219A942BF410D007F42BF183A0252
:10D5C00000D442E15F4A0134944200D14EE101208F
:10D5D0005D4A69083A4028400843D5070543570883
:10D5E0009A4629E706000E4300D017E714E7290002
:10D5F000114300D1F9E1802109030A431203120B00
:10D600003BE701235B429846C4446346002B72D13A
:10D61000691A8D429B413F1A5B42FF1A0D0068E771
:10D6200002000A4300D107E7012252429046C44457
:10D630006246002A00D0E6E06918A942B6413F18C8
:10D640007642F7190D00BAE7002E00D080E0621C88
:10D650005205520D012A00DCF9E06A1A91464D4547
:10D66000B6413A1A7642921B9046120200D499E0D3
:10D670004D1BA9428941C71B49427A1A90469A46D6
:10D680003CE752460123002513400022F5E628001E
:10D6900000F092FA20300300083B1F2B00DC39E732
:10D6A0002A002838824000259C4200DC3EE7264FB5
:10D6B000E41A1740C0E60143481E81410022C9B266
:10D6C00010E7002E00D0F1E0621C94465205520D86
:10D6D000012A00DCA0E01B4A944500D1C5E069188E
:10D6E000A94292413F185242D2194908D5070D4329
:10D6F00057086446A0E6134B9C4200D0D9E69BE64F
:10D7000011001F3CE1400C00202B00D180E04021A3
:10D71000CB1A9A4015436A1E9541002725430024E1
:10D720001FE763460200203BDA406346202B71D09E
:10D73000402366469B1B98400143481E814111438C
:10D740000022CFE6FF070000FFFF7FFFFFFF0F80F3
:10D75000002C48D0CA4CA24200D1A2E07442A1469B
:10D760008024240427434C46382C00DDDBE01F2CAA
:10D7700000DD44E14E462024A41B3E00A640A24604
:10D78000B0464C462E00E640B44646466446264324
:10D790005446A5406C1EA54134002C434D46EF4035
:10D7A0000D1B28E04A4643464D461A4300D0A5E6E5
:10D7B000002300240025DEE61F2A5ADC66462022CC
:10D7C000921B060096409146B04662460E00D64037
:10D7D000424616434A4691404A1E91410200604625
:10D7E0003143C240E4E63C002C435AD0F443A14606
:10D7F000002C52D14D1BA9428941C71B49427F1AB7
:10D8000014009A4675E69E4A944200D0C7E613E695
:10D8100000227FE700208FE7002C00D0C8E03B000B
:10D820002B4300D10FE103000B4300D104E669183C
:10D83000A9429B413F185B42DF193B0200D41AE129
:10D84000904B0D001F406446F6E59A4689E63A0083
:10D850002A43002C5CD1002A75D102000A4300D172
:10D86000CAE007000D009A46E6E56446002200255E
:10D8700081E662460600203AD6406246B046202A3B
:10D8800000D1B7E040226646921B904001434246D9
:10D89000481E8141114300228AE6794CA24200D001
:10D8A00061E707000D0014009A46C5E5002C41D140
:10D8B0003C002C4378D0F443A146002C20D0704C7F
:10D8C000A24271D04C46382C00DDB2E01F2C00DDA6
:10D8D000BCE02026341BA2463C005646B4404E46CF
:10D8E000A0462C00F440A446444666463443A44671
:10D8F0005446A54064466E1EB54125434C46E7405C
:10D900006D188D4289413F184942CF19140056E6DF
:10D91000002A2FD102000A4300D184E007000D0045
:10D920009A46574C88E53D436F1EBD41ECB2002737
:10D930000D1B60E7524CA24236D07442802636045A
:10D94000A1463743BEE702000A4300D174E56A1AD4
:10D9500090464545B6413A1A7642921B94461202C9
:10D9600000D4F7E54D1BA9428941C71B49427F1AE4
:10D970009A4661E502000A433AD0ED087C072C4341
:10D980008025FA082D032A4208D0C7082F4205D166
:10D9900045072C003A009A46C9080C43670FD2008D
:10D9A000E5001743364C47E507000D00140043E53A
:10D9B0003A002A4343D002000A4319D0ED087C07FD
:10D9C0002C438025FA082D032A4207D0C6082E4290
:10D9D00004D147073C003200C9080C43D700620F4E
:10D9E000E50017439A46264C26E50022002544E52B
:10D9F000234C21E5002049E700230025BBE54C46E8
:10DA00003E00203CE6404C46B446202C31D0402419
:10DA10004E46A61BB7403D436C1EA54164462C43B1
:10DA200000270D1BE7E6802200231203144C00257B
:10DA3000A1E53D436F1EBD410027EDB260E7070041
:10DA40000D000F4CF8E407000D00F5E44E463C00D5
:10DA5000203EF440A0464C46202C0ED040244E469A
:10DA6000A41BA7403D436F1EBD41444600272543EC
:10DA700046E70027CFE70D0073E50027F2E7C04631
:10DA8000FF070000FFFF7FFF70B50E4E0C031D0364
:10DA900049005B00240B490D2D0B5B0DB14204D0F6
:10DAA000084900208B4208D070BD04430120002C9F
:10DAB000FAD1044900208B42F6D115432800451EB7
:10DAC000A841F1E7FF0700000B0330B5134D1A0B17
:10DAD0004B005B0DC90F0024AB4211DD104CA3427B
