:020000021000EC
:1080000000400020A5CC0100EDCC0100EFCC010028
:108010000000000000000000000000000000000060
:10802000000000000000000000000000F1CC010092
:108030000000000000000000F3CC0100F5CC0100BE
:10804000F7CC0100F7CC0100299F0100B1A201008B
:10805000F7CC010000000000859B0100B9A30100DE
:10806000F7CC0100AD9D01008D9C0100F7CC010013
:10807000F7CC0100F7CC0100F7CC0100F7CC0100F0
:10808000F7CC0100D1C50100F7CC0100F7CC01000D
:10809000B1C60100F7CC010071CC0100F7CC0100A2
:1080A000F7CC0100F7CC0100000000000000000048
:1080B00000000000000000000000000000000000C0
:1080C00010B5064C2378002B07D1054B002B02D0AE
:1080D000044800E000BF0123237010BDA820002049
:1080E000000000003C280200084B10B5002B03D014
:1080F0000749084800E000BF07480368002B00D18B
:1081000010BD064B002BFBD09847F9E7000000009C
:10811000AC2000203C280200A82000200000000025
:10812000164B002B00D1144B9D46402292029A1A06
:10813000924600218B460F461348144A121A00F04B
:1081400067F80F4B002B00D098470E4B002B00D048
:1081500098470020002104000D000D48002802D09F
:108160000C4800E000BF00F02DF82000290000F0CE
:10817000C1F800F011F8C0460000080000400020DF
:108180000000000000000000A82000202C24002097
:108190000000000000000000084B10B50400002B98
:1081A00002D0002100E000BF054B1868836A002B55
:1081B00000D09847200000F033F8C04600000000CF
:1081C000E81502000E4B70B500251E000D4CE41A98
:1081D000A410A54204D0AB00F35898470135F8E746
:1081E00009F0F4F9084B00251E00084CE41AA4100D
:1081F000A54204D0AB00F35898470135F8E770BDAD
:10820000A0200020A0200020A0200020A4200020EA
:1082100003008218934202D019700133FAE77047C5
:10822000FEE7C0461D4B1B78012B00D070471C4B4E
:108230001B681B07FAD1F0221A4B1B68134018D198
:10824000194B1B6813421CD0154B1B681B07EDD143
:10825000F022144B1B681340402BE7D1124B1B68D4
:108260001342E3D1C12380220121DB00D205D1508A
:10827000DCE7102B01D0302BEAD10B4B1B681342EB
:10828000E6D10A4A0A4B1A6080220A4B12021A608F
:10829000024B1B78012BD7D0C8E7C046E00F00F097
:1082A000E40F00F0E80F00F0EC0F00F0DFFF07C074
:1082B00004050040186C004082B00190019B002B27
:1082C00014D0019B0A48013B01930138C046C046C7
:1082D000C046C046C046C046C046C046C046C0466E
:1082E000C046C046F1D1019B002BEAD102B07047D5
:1082F000E703000010B501F0CDFE01F0F5FB01F041
:108300005DFC02F06BF802F009F86421012004F032
:108310007BF802F053F902F055FB01F0F5F907483C
:1083200008F0ECF96420FFF7C7FFBFF34F8F044A52
:10833000044BDA60BFF34F8FFEE7C046EC15020036
:108340000400FA0500ED00E030B50224C8224378AD
:1083500004575DB2E1B25A40002D00DA7DE0C82238
:108360005B00DBB24A40002C00DA7EE0C822490004
:108370005CB2C9B25A40002C00DA7FE0C8245B002E
:10838000DAB24BB24C40002B00DA80E0C82349003F
:1083900054B2C9B25340002C00DA81E0C823520025
:1083A0004CB2D2B24B40002C00DA82E0C824490023
:1083B000CBB251B25440002900DA83E0C824520005
:1083C00059B2D2B25C40002900DA84E0C8245B00D4
:1083D00051B2DBB25440002900DA85E0C8245200D3
:1083E00059B2D2B25C40002900DA86E0C8245B00B2
:1083F00051B2DBB25440002900DA87E0C8245200B1
:1084000059B2D2B25C40002900DA88E0C8245B008F
:1084100051B2DBB25440002900DA89E0C82452008E
:1084200059B2D2B25C40002900DA8AE0C8215B0070
:1084300054B2DBB25140002C00DA8BE0C8215CB2B0
:10844000D2B25940002C00DA8CE00F2152005B06BA
:108450008A431B0F1343C37030BD131CC8225B003B
:10846000DBB24A40002C00DB80E7111CC822490027
:108470005CB2C9B25A40002C00DB7FE7C824131C51
:108480005B00DAB24BB24C40002B00DB7EE7C82326
:10849000211C490054B2C9B25340002C00DB7DE7D7
:1084A0001A1CC82352004CB2D2B24B40002C00DB45
:1084B0007CE7C824191C4900CBB251B254400029B2
:1084C00000DB7BE7221CC824520059B2D2B25C40C8
:1084D000002900DB7AE7231CC8245B0051B2DBB221
:1084E0005440002900DB79E7221CC824520059B20D
:1084F000D2B25C40002900DB78E7231CC8245B0073
:1085000051B2DBB25440002900DB77E7221CC824BB
:10851000520059B2D2B25C40002900DB76E7231C3E
:10852000C8245B0051B2DBB25440002900DB75E780
:10853000221CC824520059B2D2B25C40002900DB90
:1085400074E7C821231C5B0054B2DBB25140002CFD
:1085500000DB73E70A1CC8215CB2D2B25940002C80
:1085600000DB72E70B1C70E7C82110B5030A020C90
:10857000DBB282B000905CB250B2C2B25940002C63
:1085800000DA83E0C8215B00DBB25140002800DA4A
:1085900084E0C821520058B2D2B25940002800DA13
:1085A00085E0C8215B0050B2DBB25140002800DA00
:1085B00086E0C820520059B2D2B25840002900DAF1
:1085C00087E0C8205B0051B2DBB25040002900DADE
:1085D00088E0C820520059B2D2B25840002900DACF
:1085E00089E0C8205B0051B2DBB25040002900DABC
:1085F0008AE0C820520059B2D2B25840002900DAAD
:108600008BE0C8205B0051B2DBB25040002900DA99
:108610008CE0C820520059B2D2B25840002900DA8A
:108620008DE0C8205B0051B2DBB25040002900DA77
:108630008EE0C820520059B2D2B25840002900DA68
:108640008FE0C8205B0051B2DBB25040002900DA55
:1086500090E0C821520058B2D2B25940002800DA46
:1086600091E0C82150B2DBB25140002800DA92E01C
:108670000F215B0052068B43120F13436A46D078DA
:10868000DBB2C01A431E984102B010BD0B1CC821BA
:108690005B00DBB25140002800DB7AE70A1CC821EE
:1086A000520058B2D2B25940002800DB79E70B1CC7
:1086B000C8215B0050B2DBB25140002800DB78E7F4
:1086C000C8200A1C520059B2D2B25840002900DB1F
:1086D00077E7031CC8205B0051B2DBB25040002991
:1086E00000DB76E7021CC820520059B2D2B25840D3
:1086F000002900DB75E7031CC8205B0051B2DBB228
:108700005040002900DB74E7021CC820520059B217
:10871000D2B25840002900DB73E7031CC8205B007D
:1087200051B2DBB25040002900DB72E7021CC820C6
:10873000520059B2D2B25840002900DB71E7031C45
:10874000C8205B0051B2DBB25040002900DB70E76B
:10875000021CC820520059B2D2B25840002900DB96
:108760006FE7031CC8205B0051B2DBB25040002908
:1087700000DB6EE7C821021C520058B2D2B2594049
:10878000002800DB6DE70B1CC82150B2DBB2514062
:10879000002800DB6CE70A1C6AE7C0460E4AA820E6
:1087A0000623D15EFA239B009C460C4B6144C0001B
:1087B00019500820115E0A48614419500A20115EC0
:1087C000604661306144FF3019500C21525E05490A
:1087D00062445A507047C0460C230020009000406D
:1087E000440500004C05000070B501F01DFB224B54
:1087F000224C1B88224AA380224B20601B88E380E6
:10880000214B1B882381214B1B886381204B1B88B4
:10881000A381204B1B88E3811F4B1B88238293423B
:108820000AD81E4B1A78202A06D029221A70283A14
:108830005A801B4B1A7070BD1A4D1B4B28680200E2
:1088400014329A4209D81422210001F01FFF002897
:10885000F1D02B6814332B60EDE701F0C9FE002343
:10886000124A00201360210014222B6001F00EFF39
:108870000028EED1DFE7C04654230020EC2300207F
:108880001A04000082220020E4230020802200201D
:108890006021002066210020842200200C2300207B
:1088A000C620002014240020FFFF0100E823002040
:1088B0000023402210B5304CA3520232A3520232A0
:1088C000A35202326387A387E387A35201F0BCFA65
:1088D000002811D0294B14211868421C1A6005F099
:1088E00099F8002938D001F05BFD01F095FD0120D9
:1088F000FFF7E2FC01F0AEFA01F054F9002803D0D2
:1089000003F080FC01F054F91D4BE28B1B889B1A8D
:1089100063871C4B228C1B889B1AA3871A4B628C83
:108920001B889B1AE387194BA28C1B889B1A402239
:10893000A352174BE28C1B889B1A4222A352154B61
:10894000228D1B889B1A4422A352134B628D1B68F5
:108950009B1A4622A35210BDA02380210F4ADB059B
:108960009A58C905520003D4A122D2009950BAE7FF
:108970000B4A9950B7E7C0460C230020C8200020BE
:108980005423002082220020E423002080220020A3
:108990006021002066210020F8210020040500004D
:1089A0000C05000030B583B06A46FA2368461370A0
:1089B000E73B5370FFF7C8FC6A46F5231371019932
:1089C000009800F013FF402001F04AFA01F02CFA61
:1089D0000400C0B201F044FA2012C0B201F040FA23
:1089E0002014C0B201F03CFA200E01F039FA1A4D01
:1089F000287801F035FA194B1C88E0B201F030FA02
:108A0000200A01F02DFA0623EC5EE0B2241201F0F8
:108A100027FAE0B201F024FA0823EC5EE0B2241257
:108A200001F01EFAE0B201F01BFA0A23EC5EE0B29C
:108A3000241201F015FAE0B201F012FA0C23EC5EF8
:108A4000E0B2241201F00CFAE0B201F009FA45207C
:108A500001F006FA03B030BD0C2300208422002070
:108A6000F0B55F4656464D464446F0B4894F83B054
:108A70000222BB5E002B00D000E10422BB5E002B73
:108A800000D0FBE0AF239B009946C2E06EB2634684
:108A900065B244B26846C371C37975195BB27E4E44
:108AA000E41849B253B2CA1874437543564364007C
:108AB000760043461819401B07F04EFD0022774B05
:108AC00006F026FF07F012FD43468346981B401927
:108AD00007F042FD0022714B06F01AFF07F006FD79
:108AE00043468246181B401B07F036FD00226B4BA5
:108AF00006F00EFF07F0FAFC46440400701907F078
:108B00002BFD664B002206F003FF07F0EFFC5B46EF
:108B100006000125002B07DB584607F01DFD04F079
:108B200055F907F0E3FC0500012398465346002B56
:108B300007DB504607F010FD04F048F907F0D6FCBB
:108B4000804601239A46002C07DB200007F004FD35
:108B500004F03CF907F0CAFC82460120002E06DB37
:108B6000300007F0F9FC04F031F907F0BFFC1623E0
:108B7000FB56052B0FDD962D00DA96254346962BE6
:108B800001DA962398465346962B01DA96239A46A5
:108B9000962800DA96204D4501DDAF25AD0043460D
:108BA000FD804B4501DDAF239B003B8153464B4588
:108BB00001DDAF239B007B81484501DDAF208000B4
:108BC000374BB8811B78002B47D0364B1B78002BD6
:108BD0003FD0354B1B78002B0ED1344B1A78002A2E
:108BE0000AD0304A1278002A06D1314A1278002A77
:108BF00002D11A70FFF7D6FEFFF7D0FD0120FFF774
:108C00005BFB0222BB5E002B38D10422BB5E002B33
:108C100034D172B616260E23BE57FB56F618122311
:108C2000FC5E1823F95EA4461023FA5E1A23F85E50
:108C30001C23FD5E1423FC5E62B61E4B7343162696
:108C4000BE579846042E00DD20E7002600240025AC
:108C50002FE7134A1370FFF72BFE134B1B78002BE3
:108C6000BBD0104B1B78002BC6D1134A1278002AB8
:108C70000BD10E4B1A78002AB7D1BDE703B03CBC2C
:108C800090469946A246AB46F0BD074A1370FFF7DF
:108C9000ABFDA2E70C230020B80B00000000D03F82
:108CA000C4200020C6200020C7200020C5200020AE
:108CB000CC20002070170000CD200020F0B54446E5
:108CC0005F4656464D460223F0B4874C83B0A385D9
:108CD0001233E3810222A35E002B00D0DFE00422E6
:108CE000A35E002B00D0DAE0804B9B46AF239B00B5
:108CF0009A46AEE07E4B1B78002B00D1CAE07D4B3C
:108D00001B78002B0ED17C4B1A78002A0AD0784AA7
:108D10001278002A06D1794A1278002A02D11A70F4
:108D2000FFF740FE72B616260E23A657E356F61836
:108D30001C22A35E98461423E75E62B600250A2E25
:108D400012DD3E23E05E182104F068FE43466A46C9
:108D50000725D37155577FB2EF1900B22C23E55E7A
:108D6000C71B6F43664D7D4366484643701B07F043
:108D7000F3FB0022644B06F0CBFD07F0B7FB0700C6
:108D8000701907F0E9FB00225F4B06F0C1FD07F008
:108D9000ADFB0600002F75DB380007F0DDFB04F0AB
:108DA00015F807F0A3FB8146002E00DA83E03000BF
:108DB00007F0D2FB04F00AF807F098FB0500380032
:108DC00007F0CAFB04F002F807F090FB8046300081
:108DD00007F0C2FB06000F003000390003F0F6FF79
:108DE00007F084FB1623E356052B0FDD4B46962B2D
:108DF00001DA96239946962D00DA96254346962B5E
:108E000001DA96239846962800DA96204B46534579
:108E100001DDAF239B00E380554501DDAF25AD00AB
:108E200043462581534501DDAF239B0063815045B7
:108E300001DDAF208000A081FFF7B0FC0120FFF72B
:108E40003BFA0222A35E002B29D10422A35E002B51
:108E500025D15B461B78002B00D04BE7254B1B78B8
:108E6000002B00D14FE7224B1B78002B00D059E795
:108E7000264A1278002A19D11F4B1A78002A00D0EE
:108E800049E74FE7002821DA012301259946984652
:108E90000120A7E75A461370FFF70AFDDEE703B08B
:108EA0003CBC90469946A246AB46F0BD114A1370B1
:108EB000FFF79AFC27E7380007F04EFB03F086FF28
:108EC00007F014FB0125804601208BE7300007F0F6
:108ED00043FB06000F0003F079FF07F007FB0123B7
:108EE00005009946984677E70C230020C42000200F
:108EF000C6200020C7200020C5200020CC20002054
:108F0000EE020000701700000000D03FCD200020CE
:108F1000F0B544465F4656464D460123F0B49D4C9D
:108F200083B06386A386E38623871333E38102221B
:108F3000A35E002B00D020E10422A35E002B00D012
:108F40001BE1954B9B46AF239B009846F4E0934B67
:108F50001B78002B00D10BE1914B1B78002B0ED11D
:108F6000904B1A78002A0AD08C4A1278002A06D12F
:108F70008D4A1278002A02D11A70FFF713FD72B6DB
:108F800016270E23E757E356FF181822A35E9A46CA
:108F90001023E65E1A23E55E1222A35E62B60A2F54
:108FA00000DCE2E05BB26DB2ED1842233821E05EF6
:108FB00004F034FD00B22D1A3623E05E062145434D
:108FC0003C23E05E04F02AFD3822A35E00B22D1A95
:108FD0005D43FA239B006A4699465D43534607204A
:108FE000D3714023105676B286193821E05E04F022
:108FF00015FD00B2361A3223E05E062146433A23BD
:10900000E05E04F00BFD3422A35E00B2361A5E432C
:109010004B465E436D00760064484743781907F07D
:109020009BFA0022624B06F073FC07F05FFA82465F
:10903000B81B07F091FA00225D4B06F069FC07F0BF
:1090400055FA8146781B07F087FA0022584B06F044
:109050005FFC07F04BFA0500B81907F07DFA544B96
:10906000002206F055FC07F041FA5346070001269E
:10907000002B07DB504607F06FFA03F0A7FE07F05E
:1090800035FA060001239A464B46002B07DB48467B
:1090900007F062FA03F09AFE07F028FA82460123ED
:1090A0009946002D07DB280007F056FA03F08EFEE4
:1090B00007F01CFA81460120002F06DB380007F07C
:1090C0004BFA03F083FE07F011FA1623E356052B43
:1090D0000FDD962E00DA96265346962B01DA96235C
:1090E0009A464B46962B01DA96239946962800DA43
:1090F0009620464501DDAF26B6005346E68043453F
:1091000001DDAF239B0023814B46434501DDAF23A7
:109110009B006381404501DDAF208000A081FFF707
:109120003DFB0120FFF7C8F80222A35E002B24D1EB
:109130000422A35E002B20D15B461B78002B00D0BD
:1091400005E7174B1B78002B00D109E7134B1B7861
:10915000002B00D013E7174A1278002A14D1114BC4
:109160001A78002A00D003E709E70026002553E714
:109170005A461370FFF79CFBE3E703B03CBC9046F4
:109180009946A246AB46F0BD054A1370FFF72CFB8B
:10919000E6E6C0460C230020C4200020C6200020A4
:1091A000C7200020C5200020CC2000207017000020
:1091B0000000D03FCD200020F0B55F4656464D461A
:1091C0004446F0B483B000F02FFE774B984200D8AD
:1091D000E6E0A0238027DB059846744B744C0026FC
:1091E0009946FF0502E0013C002C29D000F02CFE3E
:1091F000002817D014213000751C04F00BFC002946
:1092000008D143464A469B583B427AD1A123424665
:10921000DB00D75001F000F90120FFF74DF82E00D8
:1092200000F018FE00F0BEFC0028DCD002F0EAFFDF
:10923000013C0120FFF740F800F0BAFC002CD5D12A
:10924000002398465B4A0196594D002799469B4654
:1092500000939246464625E0574B012000229B5E34
:10926000013D9B44554B00229B5E009A94469C44D2
:1092700063460093524B00229B5E9944514B00225F
:109280009B5EF618504B00229B5EE4184F4B002269
:109290009B5EFF1853461B689C46E044FFF70CF8A2
:1092A000002D34D000F0D0FD00281ED0019B1421E9
:1092B0005A1C1800019204F0ADFB00290ED1A02326
:1092C0003A4ADB059B588022D20513421DD1A123C7
:1092D000DB00A0228021D205C905D15001F09CF805
:1092E0000120FEF7E9FF00F0B5FD00F05BFC00286F
:1092F000B2D002F087FF0120FEF7DEFF00F058FC3D
:10930000AAE74246324BD75084E7314BE1E75B4650
:10931000424618002649A046140004F07FFB2D4D5C
:10932000CB46B14606B2EE830098214904F076FBA5
:1093300003B22B841E4958469A4604F06FFB03B2D1
:109340006B841B4948469B4604F068FB1849A88477
:10935000404604F063FB1649E884380004F05EFBE5
:1093600013492885200004F059FB524631006885D6
:109370005B46194807F0C2F92822AB5E26216A5ED7
:109380002420295E154807F0B9F920232B701F3BD4
:109390006B8003B03CBC90469946A246AB46F0BDFC
:1093A0000F48FEF789FF14E7FF2C31010405000088
:1093B000C4090000F821002054230020822200204C
:1093C000E42300208022002060210020662100206C
:1093D0000C0500000C230020241602004016020099
:1093E00010270000F0B5584B83B01B78202B21D0FC
:1093F0006A46FA231370AA3B537068464F3B93703A
:10940000FEF7A2FF6A46F5231078137100F028FDDD
:109410006B46587800F024FD6B46987800F020FDEC
:109420006B46D87800F01CFD6B46187900F018FDEB
:1094300003B0F0BD6A46DA331370CA3B5370684616
:1094400002339370FEF780FF6A46F523107813719C
:1094500000F006FD6B46587800F002FD6B469878E8
:1094600000F0FEFC6B46D87800F0FAFC6B461879E9
:1094700000F0F6FC354C364E364F02E06420FEF725
:109480001BFF14222100306801F024FA0028CFD0FD
:10949000902000F0E5FC2568E8B200F0E1FC28121D
:1094A000C0B200F0DDFC2814C0B200F0D9FC280ED8
:1094B00000F0D6FC0423E55EE8B22D1200F0D0FCEB
:1094C000E8B200F0CDFC0623E55EE8B22D1200F014
:1094D000C7FCE8B200F0C4FC0823E55EE8B22D1238
:1094E00000F0BEFCE8B200F0BBFC0A23E55EE8B287
:1094F0002D1200F0B5FCE8B200F0B2FC0C23E55EE2
:10950000E8B22D1200F0ACFCE8B200F0A9FC0E238A
:10951000E55EE8B22D1200F0A3FCE8B200F0A0FC7A
:10952000258AE8B200F09CFC280A00F099FC9920FA
:1095300000F096FC33683A681433336093429DD34D
:109540000022054B1A7073E70C2300200024002032
:10955000E823002014240020CC200020F8B54D463C
:1095600044465F4656460023F0B4604C0025E38134
:1095700023826382A382E38223836383A3830623FC
:10958000E25E002A22D10821635E002B25D10A2148
:10959000625E0C20215E002A01D1002927D0E580DF
:1095A00023810023092A01DD0A3A13B263810023D3
:1095B000092901DD0A390BB2A381FFF7EFF8FA2080
:1095C000FEF77AFE0623E25E002ADCD0092A00DCE0
:1095D00087E00A3A0821635E12B2E280092B69DD56
:1095E0000A3B0A21625E1BB20C20215ED8E70222F0
:1095F000A35E002B58D10422A35E002B54D13C4B18
:109600003C4D9846012399463B4B3C4F3C4E9A4675
:109610001EE04B46A3803B78002B27D02B78002BF5
:109620004ED1384A1278002A54D13378002B55D0C5
:10963000314B9B461B78002B23D00120FEF73CFECC
:109640000222A35E002B2FD10422A35E002B2BD17C
:109650002B78002BDDD142461278002ADBD042461F
:109660001370FFF725F93B78002BD7D13378002B07
:1096700029D02B78002BE0D11F4B9B461B78002B69
:10968000DBD13370FFF78EF95B461B78002BD4D00B
:109690003378002BD1D1FFF7A5FE0120FEF70CFE99
:1096A0000222A35E002BCFD03CBC90469946A24636
:1096B000AB46F8BD0A23E25E0C23E15E00236FE7B0
:1096C0003378002BB9D153461B78002BB5D0FFF768
:1096D00089FEE2E73B70FFF787F8C7E7064B9B463A
:1096E000D2E70822A35E002277E7C0460C230020C1
:1096F000C4200020C6200020CC200020C72000204D
:10970000C5200020CD200020202370B5314C324AE6
:10971000237000231360314AFA2613600022A380CD
:109720006380E38123826382A382E3822383638352
:10973000A383E383238463846385294B1A7000F039
:1097400057FF0423E25E274D002A1ED11621635ED7
:1097500062800A2B0BDD2378202B36D0292B24D0D6
:10976000202323701621635E62800A2BF3DC2378AA
:10977000203BDBB2092BE9D89B00EB589F46FFF753
:109780001BFD0423E25E002AE0D070BDFFF7C0FBA2
:109790000423E25ED8E7FFF791FA0423E25ED3E701
:1097A000FFF75EF90423E25ECEE7E680268166815C
:1097B000A681FEF7F3FF0C48FEF77EFD2023237001
:1097C0001F3B63800423E25EBEE7FFF7C7FE04236E
:1097D000E25EB9E70C23002014240020E8230020D7
:1097E000C6200020FC1502008813000000B583B0DD
:1097F0000090C0B2019100F033FB6B46587800F046
:109800002FFB6B46987800F02BFB6B46D87800F066
:1098100027FB6B46187900F023FB03B000BDC04660
:1098200000B583B06A46FA23907013706846AA3B6D
:109830005370FEF789FD03B000BDC04600B5234A52
:1098400083B01378834205D0202B05D020281AD06E
:10985000292837D003B000BD2038C0B2092826D847
:109860001B4B80001B589F4625231370243B5380BD
:109870006A46FA231370AA3B53700023684693701C
:10988000FEF762FDE6E7202313701F3B5380EFE7EE
:1098900024231370233B5380EAE723231370223BD6
:1098A0005380E5E722231370213B5380E0E76A46AB
:1098B000FA231370AA3B53704F3B93706846FEF730
:1098C00043FDC7E7012310705380D1E70C2300202C
:1098D0006016020010B5030C84B000905CB2FEF775
:1098E00043FE002807D16B465B78302B03D87A4AB9
:1098F0009B00D3589F46FA2302A80370AA3B4370EB
:109900004F3B8370FEF720FD04B010BD322C00D118
:10991000D3E0332C00D1DAE0312CF5D101226F4BAA
:109920001A70F1E7E0B2FFF789FFEDE7E3B2012B30
:1099300000D1B8E0002BDED1694AD389023B1BB2CB
:1099400019007F3101DA7F235B42D38134E0E3B237
:10995000012B00D182E0002BCDD1614A138A023B5A
:109960001BB219007F3101DA7F235B42138223E0AF
:10997000E3B2012B00D17BE0002BBCD1584A538AC3
:10998000023B1BB219007F3101DA7F235B42538215
:1099900012E0E3B2012B74D0002BACD1504A938A71
:1099A000023B1BB219007F3101DA7F235B429382B5
:1099B00002E04B4AE3B21383FA2302A80370AA3BE6
:1099C000437000238370FEF7BFFC9DE7444AE3B277
:1099D0005383F1E7424AE3B29383EDE7404AE3B2AF
:1099E000D382E9E7E3B2012B2FD0002B00D082E72E
:1099F0003B498A8D023A12B2002A66DB8A85DBE790
:109A0000E3B2012B18D0002B00D074E73449CA8D83
:109A1000023A12B2002A56DBCA85CDE7E3B2012B27
:109A200038D0002B00D066E72D490A8E023A12B2D8
:109A3000002A46DB0A86BFE7294AD38D02331BB2D0
:109A4000322B00DD3223D385B6E7254A938D0233CE
:109A50001BB2322B00DD32239385ADE7204A138AF7
:109A600002331BB2802B00DC80E780231382A3E744
:109A70001B4A538A02331BB2802B88DD802353821A
:109A80009AE7174A938A02331BB2802B8FDD80231B
:109A9000938291E7124A138E02331BB2322B00DD00
:109AA0003223138688E70E4AD38902331BB2802BF8
:109AB00000DC4AE78023D3817EE70122094B1A703C
:109AC00022E70B8678E7CB8576E78B8574E7002263
:109AD000044B1A7018E7C04688160200CC200020FC
:109AE0000C230020CD200020A02300211C4ADB05F0
:109AF00010B59950A2211B4A1B48C9005050C121E2
:109B0000012089005050C02240241848520084503F
:109B10004458174A2240C0242404224342500322BE
:109B200014495A5014495A5014495A5014495A5019
:109B30001C395A5008315A5010315A5008315A5075
:109B4000A1228021D200C903995080214904995053
:109B50008021490599508021C905995010BDC04602
:109B600014070000006000400105020000E100E071
:109B7000FFFF00FF540700005C07000064070000BF
:109B8000740700008023054A5B00D158002904D0E7
:109B90000021D1500122024B1A7070470060004032
:109BA000CE200020014B18787047C046CE20002000
:109BB0000022014B1A707047CE200020F0B54746B6
:109BC000002380B4A227254AFF001360244AA82658
:109BD0001370244A0433D3519C46C1239B009846FA
:109BE000E0234146A924DB025350604601211E4B6D
:109BF000F60093511D4D1E4BE40053511D4B135164
:109C00001D4BD160D851F02740463F031F50E43030
:109C1000985158511851194CC0251851D9601160EC
:109C20001960C221164B4D3C6D00FF3C5C51890010
:109C30005858144A0240C02000040243802080008B
:109C40005A5058515D58104A2A40C0252D022A43C7
:109C50005A501C60186004BC9046F0BDD42000200F
:109C6000CF20002000A00040C409000044050000EF
:109C700050C30000FFFF0000009000404C050000B2
:109C800000E100E0FFFF00FFFF00FFFFA02370B531
:109C9000384A5B00D358002B3DD0374A13789907D8
:109CA00059D00133DBB2354D13702C7814212000CC
:109CB00003F0B0FEC9B2002957D00134E4B22C70D1
:109CC0002F4DC8212C78200003F0A4FEC9B2002932
:109CD00046D00134E4B2A8222A48264984462C7092
:109CE000D2008B58802063448B500122264B800386
:109CF000DA60A022A123D205DB00D050802000042E
:109D0000D05080208004D05080208005D050A023E7
:109D100000225B00CA50A222164B5200995800291B
:109D20000AD01A4C1A48A446195861441950012007
:109D30001849087000219950A4230E4A5B00D1589D
:109D4000002907D0144C1548A446016861440160FD
:109D50000021D15070BD0121114B19700123A2E7E0
:109D60000122104B01241A70B5E701220E4B012489
:109D70001A70A4E700A00040D2200020D1200020CB
:109D8000D0200020C40900000090004050C3000013
:109D900044050000CF200020FFFF0000D420002059
:109DA000C4200020C5200020C7200020A02310B51B
:109DB0001B4A5B00D158002907D08024A0201949F4
:109DC000A403C00544500021D150A223144A5B00D3
:109DD000D158002907D08024A02012492404C005AE
:109DE00044500021D150A4230D4A5B00D1580029D2
:109DF00007D08024A0200B49A404C00544500021B2
:109E0000D150A623064A5B00D158002907D08024F0
:109E1000A0200449A405C00544500021D15010BD24
:109E2000009000400C0500000122044BDA64044A53
:109E30009858044B1B68C0187047C04600A00040EB
:109E40004C050000D4200020014B18787047C04614
:109E5000CF2000200022014B1A707047CF20002035
:109E600010B5802304240A4AD4500A4B1A78002AD9
:109E700008D000221A70084B084AD0500422044B24
:109E80001A6010BD0100064800F05EF9F6E7C04612
:109E900000E100E0642000201C05000000200040DC
:109EA000FC210020F0B55F4656464D464446F0B4CE
:109EB00083B00192002A24DD802399467C3B9246A0
:109EC000984600230C008A44124E134D04279B46EB
:109ED00009E05B46114A3370114B0134D1504346BF
:109EE0002B6054450DD04B462178EF503378002B32
:109EF000EFD10C4800F028F9434601342B6054455B
:109F0000F1D1019803B03CBC90469946A246AB46BD
:109F1000F0BDC0466420002000E100E000200040C9
:109F20001C050000FC210020842270B54D4B52001E
:109F30009958002931D14C4C8E234A4D5B00EA5888
:109F4000002A09D000224948EA509A3BC35C002B02
:109F500042D10122464B1A709222424B520099582C
:109F6000002925D18223E35C002B00D170BD2000A5
:109F700000F0F8F8FA2837D03E4C2368F52847D08F
:109F8000012B5DD0022B60D0032B66D03A4B1A68B0
:109F9000002A37D000232360E8E700219950A3224C
:109FA000D2009958304CC9B2200000F0CDF8C3E778
:109FB000002199509022D2009958304806F09EFB1B
:109FC000A02380212E4ADB059A58C903520208D4E7
:109FD000A122D2009950C5E700F0C4F8294BE850FF
:109FE000BAE7294A9950BDE7234B1A68012A31D0B4
:109FF000204C2268002A05D1244BFA321A70012322
:10A000002360B3E7012201201A60FFF709FCC1E7D2
:10A01000042BBBD11E4B1D4D1B782871292BB9D0A9
:10A020006B782978A8781B020B4300041A00030000
:10A03000E878134300061843F521FFF74BFCA9E726
:10A04000124B58700223236090E7104B9870032343
:10A0500023608BE700221A60CAE70C4BD8700423F8
:10A06000236083E70020004068210020FC210020BD
:10A0700064200020DC200020D82000204C170200A3
:10A08000040500001C0500000C0500001824002039
:10A090000C23002010B51E4800F04CF81D4800F0BD
:10A0A00049F8A023E7220321DB05D2009950E821DB
:10A0B00000220E20C9005A50174B18495850184911
:10A0C00002305850174818495850A0200421C000A9
:10A0D0001950842040001A5014301A5001329A60EE
:10A0E0001A60C2221E38FF3892009850A120043A0C
:10A0F00080009850C0230D4A5B00D1507C3014582A
:10A100000B4B2340C024240423431350116010BD83
:10A1100068210020FC210020002000400C050000E8
:10A120001405000000E0D7012405000000E100E074
:10A13000FFFF00FF002380227F21835401328154DE
:10A14000013283547047C046812210B57F24835C5E
:10A15000013323408354C1540132835C013383545F
:10A1600010BDC046802110B57F240200435CC05C56
:10A170000133234053540231535C013B535410BD0F
:10A18000F0B557464E4645468446E0B489469A4661
:10A190000120002A3BD0B12300276146244E254DE3
:10A1A000254CDB002F702770F1504946234BF150AE
:10A1B000802189007750B06029780029FCD00021E7
:10A1C0002970012A2ED08021012519488900455087
:10A1D0000121174889460160802189008846FF399E
:10A1E000A325FF39534600268C46ED00217800292F
:10A1F000FCD026704159013AD2B21970012A0BD015
:10A2000049460162002A01D00133EFE700201CBC5F
:10A2100090469946A246F0BD4146674601334750F5
:10A220000262E3E780210225014889004550CFE71B
:10A2300000300040E0200020E12000201C0500004C
:10A24000F0B5474680B407000120002A27D000253A
:10A25000B126A846134CF6002570134DAF51802748
:10A260004646BF00EE51114EA951A8602178002941
:10A27000FCD000210020013A2170D1B201310A4EF8
:10A280000A4D59181A7872512278002AFCD00133ED
:10A2900020708B42F6D101220020034B5A6104BC8E
:10A2A0009046F0BDE0200020003000401C0500007A
:10A2B000F8B58423144A5B00D158002904D000214A
:10A2C000D1500122114B1A708E230F4A5B00D158D6
:10A2D000002904D00021D15001220D4B1A70922583
:10A2E000094C6D006359002B0CD00A4EA759FFF79B
:10A2F0009BFD39000200084806F000FA0323A35131
:10A3000000236351F8BDC04600300040E12000202A
:10A31000E0200020C404000060170200A023E22116
:10A320001A4ADB05C90010B55A5008395A500421A1
:10A33000174B053AFF3A9950164A023999500022B4
:10A34000CD200731FF315A5014315A501249C00400
:10A350005850A120C1218000890058500539FF398B
:10A360005A50A022FC39FF39D2009950C023C02492
:10A370000A4A03315B00D1507C30135824061B027B
:10A380001B0A23431350116010BDC0460C06000089
:10A39000003000400C0500002405000000E100E052
:10A3A0008022044BD2009A58002A01D101321A604F
:10A3B0007047C0460070004080220021054B5200CB
:10A3C0009950A122D2009A58D3009B1A024A1380B6
:10A3D0007047C04600700040842200200A4B0B49A1
:10A3E0000B4AC0209950A0210122C9005A50FD39C2
:10A3F000FF395A50074A000653581B021B0A0343F1
:10A400005350802313607047007000400410000018
:10A410000405000000E100E0F0B5474680B45B4C65
:10A4200082B02578002D07D0012D1BD0022D24D01D
:10A4300002B004BC9046F0BDB1227721544BD2004B
:10A4400099508022753992009950524A463199505C
:10A4500001229A602270FFF7E7FC4F4B25781860C5
:10A46000012DE3D1FFF7E0FC4B4E3368C01A4B4B94
:10A47000984268D82578022DDAD1FFF7D5FC464BF3
:10A480001B68C01A464B9842D2D9464D03222B0076
:10A4900000217720FFF774FE2B7800211A046B78D7
:10A4A0001B021343AA78404D1343404A13606A8944
:10A4B000288912029B1A98461A00002303F012FC06
:10A4C0004E06CB110021C2093243AE883004121867
:10A4D0004B41009201930021E8884246002303F09B
:10A4E00001FC0E06020A32436E880B12F0030021B3
:10A4F00016001F00424636184F410023A88900214C
:10A5000003F0F0FBFA23DB009C464902C00D084330
:10A51000274B60441860274B3200186800213B002D
:10A5200003F0E0FBCD02420D4B152A430098019940
:10A53000121A8B4111005B04CA0B1A431E4B1A609E
:10A540000023237074E7174F03223B00002177207C
:10A55000FFF716FE3B7877211A047B7854201B0204
:10A560001343BA781343134A1360B122084BD20045
:10A57000995002228A31FF315A50064958509D6045
:10A580002270FFF751FC2578306074E7E22000204C
:10A59000003000401C050000F82000200F270000BC
:10A5A000B70B0000F4200020E4200020202400202D
:10A5B000F021002024240020F821002070B5A024E0
:10A5C000094E0A4D2B00022221007720FFF7D8FD0B
:10A5D0002B786A781B0202341343E4B233800236CC
:10A5E000B02CEFD170BDC046E4200020FC2000203C
:10A5F00030B501252048214BA0221860204BD20500
:10A60000DB7A84249D401F4B6400D5500023062232
:10A6100003511D4B83B0C25084210359164A49008F
:10A62000002BF9D0A323DB00D358A0200093A12353
:10A63000C005DB00C550009B01330093114BC55092
:10A64000002360205350104BD0505358002BFCD0A7
:10A65000A323094ADB00D358A0220193A123D205EA
:10A66000DB00D550019B642001330193FDF724FEEC
:10A67000012003B030BDC046004000400C21002046
:10A68000002100200C0500001C050000F0B5564616
:10A6900044465F464D4684460120F0B4874B884CC3
:10A6A00092461C60874BA022DB7AD2059840864BED
:10A6B0008426D050002306227600A351834B87B016
:10A6C000E250842252009346A2597D4B002AF8D0D2
:10A6D000A324E4001A59A1260492A022AF27F60071
:10A6E000D2059051049E0136049603AE377067463A
:10A6F0003F0CB846777067463F0AB946B770674661
:10A70000F770002900D19EE057466D462F802F88B4
:10A710000197002F00D196E06B4F5D46D05100228B
:10A7200092465A5100940C005A4651469B46A24606
:10A73000745C664D5C519C58002CFCD084275C46B0
:10A7400000257F00E551009D0131645905940429DD
:10A75000EED151464B1C5A4C9A460A785B4B250069
:10A76000E2503C0084222B59554E5200002BF9D068
:10A770000023B350A323DB00F358A0250593A123A6
:10A78000ED05DB00E8504B46FF201B0200020340B2
:10A790006446FF2020401818FF26434636041B0459
:10A7A00033401B1801985446013880B2013084466A
:10A7B0000120824644488C448146AF20C9438046EC
:10A7C000CB18424E00931420644544D00138C04653
:10A7D000C046C046C046C046C046C046C046C04649
:10A7E000C046C046C046F1D15146364B4046DB7AA2
:10A7F00099404B46E950314B1B68985198580028B6
:10A80000FCD0002083465F460930FF301F50A32054
:10A81000C000185805902078985198580028FCD00E
:10A82000002083465F460930FF301F50A320C00040
:10A830001B5801340593A123DB00E950009B191933
:10A84000234B9942BFD9002007B03CBC90469946A3
:10A85000A246AB46F0BD0138C046C046C046C04621
:10A86000C046C046C046C046C046C046C046C046B8
:10A87000F1D10120134BA022DB7A04219840124B26
:10A88000D205D0500D4B1A68104BD1500531FF3115
:10A890005358002BFCD0842300215B00D150A3230C
:10A8A000DB00D358A0220593A123D205DB00D050B2
:10A8B000059B012001330593C6E7C0460C2100200B
:10A8C00000400040002100200C0500001C05000095
:10A8D000FEFF0100F0B544465F4656464D46F0B4D3
:10A8E00083B06C4603232370030C6370030AE0708B
:10A8F000A37092B20020002901D0002A06D103B033
:10A900003CBC90469946A246AB46F0BD284B294C2C
:10A91000A0272360284CFF05E57AA4460124AC401B
:10A92000264D7C518424640018511800244B0025C6
:10A930009A4600239846A323DB000700A1469B46C6
:10A940006B4656465B5D83510359002BFCD04B464A
:10A950004646FE505B46FB5801350193042DEFD16E
:10A96000174B8424A32698460027013A95B2013557
:10A970000F484D196400F6004346C75003590C4A6E
:10A98000002BFBD084235B00D75093590B7001310F
:10A99000A942F1D16346DA7A0123A0219340A12292
:10A9A000C905D2008B50019B012001330193A6E71A
:10A9B000004000400C210020002100200C05000078
:10A9C0001C050000F0B55F4656464D464446F0B4BF
:10A9D00089B006AD062200212800FDF719FC4023AE
:10A9E0006B70353BAB70023BEB7009332B71013B55
:10A9F0006B71894B2900981D06229A4605F075FE59
:10AA0000AB78032298464146A0230020C131FF3194
:10AA1000DB058900CA50E97884468946C131FF3197
:10AA20008900CA50297944468B46C131FF318900DB
:10AA3000C8506F79A12039004E46C131FF318900DD
:10AA4000CA507649C0000C50754C0E515E46A04667
:10AA500004340E5101263400BC401C506F78714CF8
:10AA60003F060F512F78704D64464F518427543D57
:10AA70007F00CC514E51E025ED005A516B4D5A519B
:10AA8000802292011E501A505246694D2960D27A96
:10AA9000964042469E505022664BCC51CA5084226A
:10AAA000C8595E4B52000028F9D0A321C90059585B
:10AAB000A0200191A121C005C9004650019901279C
:10AAC000013101915649465000205A4998505F5033
:10AAD00058508427995851487F000029F9D0002305
:10AAE000C351A323DB00C35802938422C1594B4BAB
:10AAF00052000029F9D0A321C9005958A020029181
:10AB0000A121C005C90046500299052701310291D3
:10AB1000434946500020474998505F505850842779
:10AB200099583E487F000029F9D00023C351A32340
:10AB3000DB00C3588421C259384B4900002AF9D0A0
:10AB4000A322A027A120D2009A58C000FF05D2B2AC
:10AB50003E500020002A06D009B03CBC90469946E1
:10AB6000A246AB46F0BD2E483E5006205A50314A10
:10AB7000985084205F58294A4000002FF9D0A32321
:10AB8000DB00D358A0210393A123C905DB00CE50DD
:10AB9000039B01330393224BCE50002360211350BB
:10ABA000244BD15084235B00984613581B4F002B35
:10ABB000F8D0A323DB00FB5864200493A023DB051B
:10ABC0009946A1234A46DB00D650049B01330493E7
:10ABD000FDF772FB53462F60DA7A01234946934012
:10ABE0000F4A8B50002241467A50124A0339FF39EE
:10ABF000B9504246B9580029FCD0A3220749D200D7
:10AC00008A58A0210592A122C905D2008B50059B2C
:10AC10000120013305939FE7002100200040004000
:10AC20000C05000024050000540500003407000056
:10AC30000C2100201C05000030B5554C83B0A37AD0
:10AC4000002B00D197E06B46DD1D00232B7023689D
:10AC50000122597C636818782B00FFF7F1FA00286D
:10AC600000D088E0236801225979636818782B00A6
:10AC7000FFF7E6FA002800D07DE023680122197969
:10AC8000636818782B00FFF7DBFA002800D072E029
:10AC90002423E35C002B36D00C232B702368012285
:10ACA0001979636818782B00FFF7CAFA002862D177
:10ACB0003230FDF701FBC0232B70A37ADB0762D48F
:10ACC000236801221979636818782B00FFF7B8FA16
:10ACD000002850D1637C002B58D12B7023680122AF
:10ACE000597C636818782B00FFF7AAFA002842D134
:10ACF0002368287059796368012218782B00FFF7C0
:10AD00009FFA404235E004232B7023680122197911
:10AD1000636818782B00FFF793FA00282BD1A27CE8
:10AD20004023002A2AD02B702368012219796368F6
:10AD300018782B00FFF784FA00281CD13230FDF779
:10AD4000BBFA637C5A1E93412B7023680122597C05
:10AD5000636818782B00FFF773FA00280BD12300E3
:10AD6000226810335179626810780122FFF768FA7F
:10AD7000404203B030BD01204042FAE7A27AD20738
:10AD8000D1D52033CFE7E0232B7099E70223A4E746
:10AD90006820002070B5060082B0282800D9BBE0EA
:10ADA0002323694C01ADE35C00282CD1002B18D083
:10ADB0002870A27C8023002A02D07E3B2B70803337
:10ADC0002222A25C002A00D08AE023680122D97DD9
:10ADD000636818782B00FFF733FA002801D123238A
:10ADE000E05400232B7007336B7023680222597DD7
:10ADF000636818782B00FFF723FA002800D08BE057
:10AE0000207502B070BD012B19D030232B70A27CAD
:10AE10008033002A02D07E3B2B7080332222A25C3A
:10AE2000002A5BD123680122D97D636818782B0042
:10AE3000FFF706FA002802D101222323E25420233F
:10AE40002B70012E6BD0052E59D9142E4AD903230D
:10AE50006B70A37A002B6FD004236A46D370E37A19
:10AE6000042B69D0236801229978636818786B46AF
:10AE70000333FFF7E5F9002860D16B460722DB7842
:10AE8000E3726B789B011343DBB26B702368022281
:10AE9000597D636818782B00FFF7D2F900283BD161
:10AEA00008230122A372207322751C33E35C002B5C
:10AEB00012D12374637C002B0ED16B46DA702368A9
:10AEC000597C636818786B460333FFF7B9F900289B
:10AED00002D16B46DB786374002092E72B70A1E708
:10AEE0002B7072E702236B70A37A002B05D0052329
:10AEF0006A46D370E37A052BB4D18723C5E70123D3
:10AF00006B70A37A002B05D006236A46D370E37AD0
:10AF1000062BA7D14723B8E70120404271E7002361
:10AF20006B70A37A002B05D006236A46D370E37AB0
:10AF3000062B97D10723A8E7C723A6E76B789A01CA
:10AF400007231343DBB2A0E76820002010B5114AA5
:10AF50000100537A012B19D0002B13D0022B0AD0F9
:10AF6000032B0CD1102320240370D37C0020002B52
:10AF700000D00C7010BD082310240370F5E70120E9
:10AF80004042F7E7022304240370EEE70423082479
:10AF90000370EAE76820002070B51C4C82B0A37AE9
:10AFA000002B27D06B46DD1DBB2816D8612817D98A
:10AFB00002232B70E27A00269A420BD023680122EA
:10AFC0009978636818782B00FFF73AF9002811D1B7
:10AFD0002B78E372300002B070BD01232B70E9E7DB
:10AFE000292804D8132808D904232B70E2E7032367
:10AFF0002B70DFE701267642ECE7092802D905230A
:10B000002B70D7E706232B70D4E7C04668200020BA
:10B0100070B5584C82B0A37A0600002B00D196E0A0
:10B020002423E35C002B00D091E0227D002A30D065
:10B03000421E272A00D885E02322A25C01AD002A07
:10B0400018D02B70A37C8022002B02D00223023266
:10B050002B702223E35C002B00D071E023680122D7
:10B06000D97D636818782B00FFF7EAF8002801D132
:10B070002323E05400232B7007336B7023680222D4
:10B08000597D636818782B00FFF7DAF8002800D1A3
:10B090002075F920032E31D86B46D8702368012221
:10B0A0005978636818786B460333FFF7C9F80028AE
:10B0B0004DD16B46FA20D9788000013102F0AEFC08
:10B0C000A37A80B2E0814008002B14D001ADBB28E8
:10B0D00021D9012301222B70E37A93420BD02368FC
:10B0E00001229978636818782B00FFF7A9F80028E7
:10B0F00001D12B78E372002002B070BDFA23311C1D
:10B100009B009E420FD8FA2089B2800002F086FC94
:10B110000138C0B2C0E761280ED829281AD9032304
:10B1200003222B70D8E7FA20191C89B2800002F0A4
:10B1300075FC0138C0B2AFE7022302222B70CBE7C7
:10B140002A708BE7C0B2FFF725FE0020D4E701206C
:10B150004042D1E7132805D8092807D9052305223D
:10B160002B70B9E7042304222B70B5E706230622CF
:10B170002B70B1E768200020F0B54746242380B447
:10B18000304D82B0EB5C0024002B2BD1AC7A002C2C
:10B1900054D00133984304402F7C2C74041B621E4E
:10B1A000944106006442002821D12A7D002A30D033
:10B1B0006A7C002A16D107326A4413702B689046C5
:10B1C000597C6B68187813000122FFF739F80028C2
:10B1D00008D143461B786B74002E03D0FFF72CFD7B
:10B1E000002827D1200002B004BC9046F0BD6A7C44
:10B1F000002AF3D107226A4413702B689046597CC9
:10B200006B68187813000122FFF71AF80028E0D0C5
:10B21000E4E76B46DA712B680122597C6B68187879
:10B220006B460733FFF70CF80028DBD16B46DB7960
:10B230006B74D7E701242F746442D3E7012464427E
:10B24000D0E7C04668200020F0B54F464646702340
:10B25000C0B4050083B0034069D06B469E1D012336
:10B260003370484C01222368597D63681878330095
:10B27000FEF7E6FF002800D07EE0402233783070F1
:10B28000934323732A4266D03A2084463738814656
:10B2900001383823392201213B278046A80604D4EF
:10B2A00043463A00337049466346E80601D413002A
:10B2B00031702A0700D4337023680122997D6368B6
:10B2C00018783300FEF7BCFF002855D108232A0068
:10B2D0009A4320D02323E35C002B1CD06B46D8710B
:10B2E000A37C8022002B03D06A460223D3718222E2
:10B2F0002223E35C002B01D06B46DA712368012224
:10B30000D97D636818786B460733FEF799FF0028EC
:10B3100001D12323E05400233220A5722375FCF7CA
:10B32000CBFF002003B00CBC90469946F0BD00282E
:10B330001ED16B464027134C9E1D23683770597DE4
:10B340006368012218783300FEF77AFF002813D1D2
:10B350003378BB4323733E20042384463738814629
:10B36000013833703D22383305213F27804695E769
:10B370006A46961D337074E700230120A372404291
:10B38000D0E7C04668200020802370B5774C84B099
:10B3900002AD2B7023680122597D636818782B0059
:10B3A000FEF74EFF061E00D0C2E06420FCF784FFCB
:10B3B00023682E70597D6368012218782B00FEF7F0
:10B3C0003FFF002800D0B3E070232B7023680122D8
:10B3D000D97E636818782B00FEF732FF002800D072
:10B3E000B5E023680622597E636818782B00FEF7C3
:10B3F000C7FE002800D09BE004216B7901269B004A
:10B4000019400223EA78520013406A780B43324015
:10B41000134300D182E0D9B2012B03D0022900D01E
:10B4200098E00023E37400232B7023680122D97E67
:10B43000636818782B00FEF703FF051E00D086E036
:10B440000122FF235242A37223726372E372E281EC
:10B450002274A3742332FE3BA35423732233E0549B
:10B46000607520752000163A16300021FCF7D0FEDA
:10B470002423E5540133E554A37AE584002B57D007
:10B480006B46DD1D18232B70237A032B0FD0236806
:10B4900001229979636818782B00FEF7D1FE002805
:10B4A00046D12B78DB082372A37A002B40D00023EF
:10B4B0002B70637A002B0FD023680122D97963683F
:10B4C00018782B00FEF7BCFE002831D12B78DB0862
:10B4D0006372A37A002B2BD005232B70E37A052B04
:10B4E0000BD0236801229978636818782B00FEF747
:10B4F000A7FE00281CD12B78E372FA208000FFF70A
:10B5000087FD002814D10020FFF736FE041E0FD15E
:10B510000020FFF799FE200004B070BD23680122CF
:10B52000D978636818782B00FEF72AFE002802D02D
:10B5300001246442EFE70F222B78134010D0042B34
:10B5400000D06EE70A4805F0D9F8E6746BE70324EB
:10B550006442E0E70124074805F0D0F86442DAE7E6
:10B560000124054805F0CAF86442D4E768200020A9
:10B5700038180200C0170200E8170200F0B54F4665
:10B5800046462423C0B4284C83B0E35C07008946B8
:10B590009046002B3BD0A37A002B38D0236801AE15
:10B5A000197B6368022218783300FEF7E9FD002852
:10B5B0002DD1357873782D021D43BD422AD36068A2
:10B5C00043885B089D420CD923680078D97C01220E
:10B5D0003300FEF7D5FD002819D13378DB061DD4E2
:10B5E00060682368FAB2597B00784B46FEF7C8FDC5
:10B5F00000280CD13900280002F086F943460138B2
:10B600001870002003B00CBC90469946F0BD012094
:10B610004042F7E7434618700138F3E7FFF70CFBA9
:10B6200002204042EEE7C0466820002070B50D00C1
:10B6300082B0161E20D0124CA37A002B1CD0020A16
:10B6400001AB1A70C0B262685870401851898842C4
:10B6500012DC21681078C97E0222FEF7F1FD002875
:10B660000AD12368EAB2197E636818783300FEF7BE
:10B67000E7FD404202B070BD01204042FAE7C046FB
:10B6800068200020F0B556465F464D464446F0B46B
:10B690008BB003932523514E01910292F35C8246B5
:10B6A000002B75D1002973D0002800D194E004004C
:10B6B000102800DD75E0A3B29B46B37A002B67D05B
:10B6C000002305AF70683B707B7043899C425FDC50
:10B6D000019B0025984638E033681078D97E022215
:10B6E0003B00FEF7ADFD002852D133684A46197E73
:10B6F0007368187806ABFEF743FD002848D1220096
:10B7000006A9404604F0E2FF00284CD15D44ADB2EA
:10B71000AA454BD953465C1B102C00DD1024A3B264
:10B720009B46019B9846A8444346002B30D0B37AF1
:10B73000002B2DD02B0A3B707068EBB222047B707B
:10B74000120CD3184289934222DC33680078D97EE8
:10B7500002223B00FEF774FD002819D1E3B299469E
:10B7600033684A46197E736818784346FEF768FDC9
:10B7700000280DD1B37A002B0AD02B0A3B707268D7
:10B78000EBB27B702404240C51891B198B42A3DD7E
:10B79000012040420BB03CBC90469946A246AB46C5
:10B7A000F0BD102487E702204042F3E7029A130A13
:10B7B0003B7033687A70597F7368022218783B00B7
:10B7C000FEF73EFD0028E3D125230122F2546B460B
:10B7D0009B890020F384DDE705AFE8E768200020BF
:10B7E000242330B55A4C83B0E35C834276D00028E2
:10B7F00000D17AE02522A25C002A00D19EE0002B35
:10B8000000D06EE0A27A002A00D19AE06A46D51DE7
:10B810002B7023680122597C636818782B00FEF78F
:10B820000FFD002801D12B786374A37C002B36D048
:10B83000236801221979636818782B00FEF7A0FCB1
:10B8400000282CD1A37ADB0700D56FE020222B78CB
:10B8500093432B70236801221979636818782B00B1
:10B86000FEF7EEFC00281AD10330FCF725FD222359
:10B87000E35C3022002B01D0802380322B70232305
:10B88000E35C002B00D02A7023680122D97D636815
:10B8900018782B00FEF7D4FC002800D1A074E08CAF
:10B8A000FFF7B6FB6B46002206331A70626823214D
:10B8B00010780122FEF7C4FC24230122E254223B2B
:10B8C0002B702368597C636818782B00FEF7B8FC4E
:10B8D000002801D12B786374FFF7AEF9002003B084
:10B8E00030BD6B46DD1D002392E7002B22D1A27AEA
:10B8F000002A29D06A46D51D2B7023680122597C65
:10B90000636818782B00FEF79BFC002801D12B7888
:10B910006374237C01222B706368232118782B0029
:10B92000FEF78EFC00222423E254D5E720232A7858
:10B9300013438EE76B46DD1D2870DEE70120404291
:10B94000CDE76B46DD1D70E76B46DD1DE1E7C046C8
:10B9500068200020802210B5C823D2000249034885
:10B96000FFF790FE10BDC046D0180200F60B000095
:10B97000F0B5404C87B002AF050003AE21000322B2
:10B98000380004F0B2FE211D0322300004F0ADFEA9
:10B9900021000322083104A804F0A7FE210003229D
:10B9A0000C3105A804F0A1FE032108006A466C468C
:10B9B00028403B5C1370EA080A40BB5CB25C6370D1
:10B9C000AB090B40F95CF35CA170315C01AC2170F8
:10B9D000627003216A462848A370FFF727FE0028FB
:10B9E00045D1220003212548FFF720FE00283ED143
:10B9F000032204A9684604F078FE032205A920006A
:10BA000004F073FE6B0708D56A4601236946127875
:10BA10001A430A70227813432370AB0608D56A468E
:10BA20000123694652781A434A706278134363705F
:10BA3000EB0512D488206A460321C000FFF7F6FD0B
:10BA4000002814D1220003210D48FFF7EFFD002844
:10BA50000DD10C4B1D8107B0F0BD6A46012369462C
:10BA600092781A438A70A2781343A370E2E7012008
:10BA70004042F0E784180200260400002A04000077
:10BA8000310400001021002010B5144986B00400D4
:10BA90000C22103103A804F028FEC82C1AD821006B
:10BAA000C82001F0BBFF013880B201AA030A507020
:10BAB00002210B481370FFF7B9FD00280AD103AA31
:10BAC0000C210848FFF7B2FD002803D1064B9C81EA
:10BAD00006B010BD01204042FAE7C04684180200BB
:10BAE00016020000C10A000010210020F0B5050078
:10BAF00083B043076BD0C823DB00994267D80800A6
:10BB000002F078FF4D4902F0A7FA6B46DC1C071CD7
:10BB10002000FFF71BFA2378042B00D17DE033D9F6
:10BB2000082B6AD0102B52D18A21381CC90502F08B
:10BB30005DFC02F003F9424986B2381C02F056FC63
:10BB400002F0FCF880B201AC330A2370030A66707D
:10BB5000A370E070EB0729D4AB073CD400206B073F
:10BB600037D5EE20220002214000FFF75FFD0028BC
:10BB70002DD16B462D309A1D0221FF30FFF756FD67
:10BB8000431E9841404224E0022B20D18D21381CD5
:10BB9000C90502F02BFC02F0D1F82A4986B2381C04
:10BBA00002F024FC02F0CAF880B2CCE7EA202200BE
:10BBB00002214000FFF73AFD002808D16B462530EE
:10BBC0009A1D0221FF30FFF731FD0028C4D001206B
:10BBD000404203B0F0BDEC20220002214000FFF7FC
:10BBE00025FD0028F3D16B4629309A1D0221FF3034
:10BBF000FFF71CFD0028B1D0E9E78B21381CC905EF
:10BC000002F0F4FB02F09AF80F4986B2381C02F0F9
:10BC1000EDFB02F093F880B295E78C21381CC90542
:10BC200002F0E4FB02F08AF8084986B2381C02F000
:10BC3000DDFB02F083F880B285E7C0460000484390
:10BC40000000C04400004046000040450000C045E0
:10BC5000F0B54E4645465746E0B486B0924B03AC2D
:10BC600006002200042168200393FFF7DFFC402236
:10BC7000A32332402370904600D10DE11D33637041
:10BC80000833A370063BE370C0277F00374000D124
:10BC9000FDE0C423237108336371063BA371A32322
:10BCA00022000A218148E37123726372FFF7BEFC10
:10BCB0000323334099464A462023002A00D1B83353
:10BCC000220001217A4823706D46FFF7AFFC09225C
:10BCD0007849B30600D4D8E01C31280004F005FDF3
:10BCE00097202A000921C000FFF7A0FC002F09D0EF
:10BCF000F30500D5D4E0704B0393220004216F4874
:10BD0000FFF794FCF30700D4B6E08B20F823220061
:10BD1000012100012370FFF789FCFA210720FFF7BA
:10BD2000E5FEA4203F232A00012140002B70FFF7ED
:10BD30007DFC002350209A462A000121FF302B7001
:10BD4000FFF774FC5346EF202B7014232A000221C6
:10BD500040006B70FFF76AFC5346ED202B706423A4
:10BD60002A00022140006B70FFF760FC53462B70E5
:10BD70008E23AE206B706B33AB702A00693B0421BD
:10BD80004000EB70FFF752FC5346AD202B700823A8
:10BD90002A00022140006B70FFF748FC5346AC209C
:10BDA0002B7002232A00022140006B70FFF73EFC3B
:10BDB000B307DB0FD8332200012141482370FFF77E
:10BDC00035FC730752D53F4B00932A0004213E48AF
:10BDD000FFF72CFCFEF730FFF30641D53B4B0093F9
:10BDE0002A0004213A48FFF721FCFEF725FF08232B
:10BDF000384C33436381FEF71FFF4346002B22D1AB
:10BE00000A20434684460C3082461038A37314221D
:10BE1000042310211A258046002F04D043462A000F
:10BE2000A373514663461420304201D01300A1731E
:10BE30004A46002A00D0A373002006B01CBC9046DE
:10BE40009946A246F0BD1020062384460C30824657
:10BE50001038A3731A220433162120258046DBE70D
:10BE60000422A3212800FCF7D3F9B9E704228B218F
:10BE70002800FCF7CDF9A8E78B20D8232200012168
:10BE800000012370FFF7D2FB92E7283125E7A323B7
:10BE900023716371A37102E76370A370E370F3E62B
:10BEA0000D4B039329E7C04602CAE309A70A000025
:10BEB000B60A000084180200B080B490A20A000004
:10BEC0003D070000C0C2C4C6980A000020283038D0
:10BED0009E0A000010210020B28BB69BF0B54446AC
:10BEE0005F4656464D460023F0B491B014001A9AAE
:10BEF000070013807B4B8846987B1B9A08A9FFF7A5
:10BF00003DFB061E00D0E4E01422764B5B891A420A
:10BF100000D07DE002250022AC46013D062404212C
:10BF20000320A946924693460C320792013A0692A4
:10BF3000013A0592013A0492013A0392013A0292BF
:10BF4000013A0192013A00925D0630D5524608ADA1
:10BF5000AA5CA346120292462A004D46525D5546FF
:10BF6000154342461580654608AA525D079C120299
:10BF7000944608AA105C62461043424650800098DE
:10BF800008AA515C125C09021143424691801A9A38
:10BF90000498118808220A431A990A80069A05997A
:10BFA0000092039A9446029A9146019A9246C025BD
:10BFB0006D002B4222D0554608AA525D4D46120212
:10BFC000904608AA525D454615433D80654608AA3D
:10BFD000525DA3461202944608AA105C62461043C2
:10BFE000788008AA0098515C125C09020A43BA8062
:10BFF0001A9A118870220A431A990A809B074BD11A
:10C00000300011B03CBC90469946A246AB46F0BD0C
:10C01000089A11BA099A216010BA0A9A606012BA95
:10C020009246A2600B9A001412BAE2600C145146B8
:10C0300064430914404312144943524320184018E2
:10C040008018F122120694468022604492049042A5
:10C0500042D880211A9A4900128816240A431A9954
:10C0600013200A80102293460C320792013A06925E
:10C07000013A0592013A0492013A0392013A02927E
:10C08000013A0192013A0092033A9446013A9146EC
:10C09000013A1421924657E708AB9C465C4664443B
:10C0A0006378E778DA070BD50E4A1268002A07D0C2
:10C0B00007200100FB0839401840013190476378A0
:10C0C0001B079DD5074B5B68002B99D0B809984793
:10C0D00096E70126764293E7FEF7AEFD1A9B1E8097
:10C0E000013E8DE7102100200023F0B5C356002B40
:10C0F00036DD3022002320240821282610259446EE
:10C10000382703228256002A18DD062141560022D4
:10C11000002902DD134398B2F0BD00293AD107216E
:10C12000415640320029F5DC51D1082141564032B8
:10C130000029EFDC59D1E0225200EBE7002A27D199
:10C14000042282560B00002ADFDC3ED105228256F3
:10C150002B00002AD9DC3B00002AD6D06346D4E766
:10C16000002B0CD10123C356002B16DD31220123F5
:10C17000212409212926112594463927C1E7342293
:10C18000042324240C212C26142594463C27B8E7AC
:10C190002300BAE780225200BCE7002B0CD1022317
:10C1A000C356002B16DD3222022322240A212A261E
:10C1B000122594463A27A4E73522052325240D218C
:10C1C0002D26152594463D279BE733009DE7A022A9
:10C1D00052009FE7002B0BD13722072327240F2182
:10C1E0002F26172594463F278BE70132FF3291E730
:10C1F0003622062326240E212E26162594463E2777
:10C200007FE7C046F0B55F4656464D464446F0B41B
:10C21000724B91B004AA944601930E236344009399
:10C220000CAA00230AA908A8FFF758FE40B200286C
:10C2300000D0CBE00C9802F095FBC221890502F0FA
:10C24000D5F8041C0D9802F08DFBC221890502F07F
:10C25000CDF880460E9802F085FBC221890502F0D8
:10C26000C5F881460F9802F07DFBC221890502F0D6
:10C27000BDF8211C051C201C02F0B8F84146071C23
:10C28000404602F0B3F849468246484602F0AEF80E
:10C29000291C0290281C02F0A9F85146061C381CE3
:10C2A00002F0B8F9029902F0B5F9311C039601F0D9
:10C2B0005DFD04F093F904900591291C484602F0B5
:10C2C00095F841468346201C02F090F8011C584620
:10C2D00001F04CFD04F082F902000B0002F0C8FBF3
:10C2E000049A059B00F06EFD00223D4B03F010FB0D
:10C2F00004F0FCF83B4B291C1880404602F076F80D
:10C3000049468346201C02F071F8011C584602F091
:10C3100081F904F063F9C02300221B0603F0F8FA48
:10C3200000F0EEFC80268B46844636065E4460466E
:10C3300000222B4B310003F0EBFA04F0D7F82A4B24
:10C3400051461880381C01F011FD029902F062F983
:10C35000039902F05FF904F041F906000F0040462E
:10C36000494602F043F8291C8046201C02F03EF8A2
:10C37000011C404601F0FAFC04F030F902000B0009
:10C3800002F076FB32003B0000F01CFD0022144B53
:10C3900003F0BEFA04F0AAF8144B188004AB1A8B11
:10C3A000134B1A8004AB5A8B124B1A8004AB9A8B36
:10C3B000114B1A8004AB1A8A104B1A8004AB5A8AAC
:10C3C0000F4B1A8004AB9A8A0E4B1A8011B03CBCFA
:10C3D00090469946A246AB46F0BDC0466421002077
:10C3E000005FC440EC210020F421002062210020E5
:10C3F000802200206021002066210020542300209C
:10C4000082220020E423002070B5050082B00020C5
:10C410000E00FEF7B9FF0100324804F06FF97820F2
:10C42000FEF712FF0100304804F068F97820FEF7AB
:10C43000A3FE01002D4804F061F9002D22D16B46C6
:10C44000DC1D0122DD711A2123006820FDF7F8FEB2
:10C450000100274804F052F9FA203100400101F0B0
:10C46000DDFA013820701921230001226820FDF730
:10C47000E7FE01001F4804F041F940221E4B1A60FC
:10C4800002B070BDFFF766FA01001C4804F036F9EF
:10C490001B48FFF729FEFFF76BFA0100194804F06B
:10C4A0002DF97220FF30FFF7D3FB0100164804F08E
:10C4B00025F96420FFF7E8FA0100144804F01EF99A
:10C4C0000120FFF78DF90100114804F017F90A2047
:10C4D000FEF762FD01000F4804F010F90A20FBF797
:10C4E000EBFECAE7E824020000250200182502003E
:10C4F000C0250200D825020000E100E0302502003E
:10C5000094200020482502006025020078250200C2
:10C5100090250200A825020010B50B0001000B4871
:10C5200004F0ECF88021A123A022FA20C900DB004E
:10C53000D205D150C000FBF7BFFEBFF34F8F044AB6
:10C54000044BDA60BFF34F8FFEE7C046F0250200D0
:10C550000400FA0500ED00E080218023184A8902DA
:10C56000D1508022D221174B520289005A504039B3
:10C570005A5001222F205A600138C046C046C0469A
:10C58000C046C046C046C046C046C046C046C0467B
:10C59000C046F1D19A6000230B4A2F201360013866
:10C5A000C046C046C046C046C046C046C046C0465B
:10C5B000C046C046C046C046F1D1044A1370704719
:10C5C00000E100E000100140202100204021002077
:10C5D000A021F0B5002347462C4A490080B45350AF
:10C5E0000431535004315350043153504C3953509B
:10C5F00004315350264B1B68002B37D025490026A9
:10C6000052582549254F0C68141B00222402240A85
:10C61000904602E0002D1AD02B001A68A24216D8CC
:10C62000A41AB6181A7CDD69002AF3D0424699692B
:10C630001A745A693B68002B1BD0100098470028D9
:10C64000E8D000220021FFF767FF002DE4D1144B52
:10C6500014491A780B789A420ED0134A9B009E50C8
:10C6600080218023114A49035B00D15004BC9046CD
:10C67000F0BD08009047CDE70132D3B2022B01D0C4
:10C680000B70EAE700230B70E7E7C046001001409B
:10C690002421002004050000202100202821002062
:10C6A00034210020352100203821002000E100E065
:10C6B000F0B55F4656464D464446F0B4C54BC64AB3
:10C6C0001B68C6498BB0059309781378994200D14D
:10C6D00057E10133DBB2022B00D100231370C04AB3
:10C6E0009B009B58BB4A9A46059B53441B021B0A5E
:10C6F000136001230193BB4B00241B689B46BA4B7C
:10C700005A461B78914619000393B84B88461B681C
:10C7100047460493AF4B013F1B680793B44B1B780C
:10C72000099300239C4606930893FBB266469846FD
:10C73000FF2B32D04346D800049B9C461300604434
:10C740000178457800961A00A9421FD046684A0031
:10C75000B446521886780131D200C9B262448E4282
:10C7600000D1EDE01678022E00D1C7E0032EEAD109
:10C77000002BE8D01C74DB69002BFBD1013345781A
:10C780000093002399461A00A942DFD14746013F92
:10C79000FBB2009E9846FF2BCCD1089BC846029264
:10C7A000B446002B00D0F0E0069B002B02D0894B52
:10C7B000079A1A606346002B02D04246894B1A60E2
:10C7C000019B002B00D02DE15B46029A00259B1AAD
:10C7D0005A1E9341DBB205937E4B00271B680299DA
:10C7E0009C46804B1B689B46814B1B78069300231D
:10C7F0000193804B994601230093039B013BDBB2DD
:10C800000393FF2B00D1F9E0049ADB0092460E005F
:10C810009A44002D28D06A68A9682C00ED69634607
:10C82000D31A1B021B0A4B4552D86A4612785B1872
:10C8300023606760A7602274E761002E58D03168DA
:10C840003000994205D3B9E01168994200D3A3E0C2
:10C850001000C2695B1A002AF6D1E261320023603F
:10C86000C4611600002DD6D153461A785B7831008A
:10C870009342C2D0514649685300884651469B189E
:10C880000132D2B20A708978DB004344914200D170
:10C890009DE0197832000129E3D15C68227C904642
:10C8A000414632000029DCD19A686260D968A160F3
:10C8B0001869E0605B69A361069B002BAFD043461B
:10C8C000002263606346D31A1B021B0A4B45ACD996
:10C8D00063469A1A1202120A8A4264D28B1A6A4674
:10C8E000127823606760A7602274E761002EA6D1EA
:10C8F00022000123A34601931600B3E75668002BDC
:10C9000030D09E421ED0009A1F00944602E096420C
:10C9100006D01700FA69002AF9D16246009212E7A0
:10C9200065460095BA420FD01568D269FA61002AAF
:10C9300016D013689C466544156045784B4602E75F
:10C9400000210FE71A001F00DE69002E0CD0012520
:10C9500000951568D269B1463300FA61002AE8D122
:10C960004578F0E60023EEE60125234B9D60009517
:10C9700006950025002307950135994608950995E8
:10C98000D2E700239A460193B5E66A46242152185D
:10C99000174B12781A7007E7C91A1160E261236019
:10C9A0003200C4615DE76B461B7827606760A76053
:10C9B0002374E761002E9BD000233168CB1A3360CB
:10C9C00022000123E661A346019316004AE752467E
:10C9D00015705EE720210020342100203521002041
:10C9E00038210020242100202C210020302100208B
:10C9F00036210020FEFF7F0000100140019B002B2C
:10CA000000D09DE0029B994236D1059B002B33D18B
:10CA10000023534A13700BB03CBC90469946A24683
:10CA2000AB46F0BD4F4B002418680025029B002147
:10CA30000026574615E01A68BA4200D984E0D86843
:10CA4000BF1A89181E60DC69002807D0DD611D004F
:10CA5000059A986052181202120A5A6023002000A8
:10CA6000019C002BE7D1002C01D03E4B1860002325
:10CA7000029301330593AFE6002900D15DE00B6816
:10CA800039489846394B3A4DC4583A4B2E781B6872
:10CA9000E11A0902090A0331002E2DD042468A42CA
:10CAA00000D20A00A820D21812022F49130AC0008F
:10CAB0002E4D0B504A591B1B121B1202120A1B024D
:10CAC00003321B0A9A42A3D94B590B502F2001382D
:10CAD000C046C046C046C046C046C046C046C04626
:10CAE000C046C046C046C046F1D180218023224ABC
:10CAF00089025B00D1508BE78026D1277602BF00E8
:10CB0000C651403FC651C02280271B4EBF02520073
:10CB1000B7503760012606602F200138C046C04656
:10CB2000C046C046C046C046C046C046C046C046D5
:10CB3000C046C046F1D12E70B0E7FFF70DFD67E7A4
:10CB40005A46084B1A605DE7BA46002C01D00549E9
:10CB500008605146521A1A600293012305933BE67E
:10CB6000362100202421002000100140040500008F
:10CB7000402100202021002000E100E051DF70472B
:10CB800061DF7047F0B557464E464546E0B4344B3A
:10CB9000344E1D6899466B425D41334BEDB21C68C3
:10CBA000984663425C4182B0E4B2304FB246002DF9
:10CBB00013D0002C40D13C68338801A920000B80A1
:10CBC000FFF7DEFF052837D000282AD000220021F9
:10CBD000FFF7A2FC0024002DEBD101A8FFF7CEFF48
:10CBE00005280DD0002822D000220021FFF794FC58
:10CBF000002C27D0012401A8FFF7C0FF0528F1D1A0
:10CC0000002C19D153466A461B8801A99380174B03
:10CC10001C682000FFF7B4FF05280DD0012500286F
:10CC2000D4D1434620001B6898470024D3E74B46E5
:10CC300001981B689847DBE702B01CBC90469946F8
:10CC4000A246F0BD6A46074B01A91B889380074B9B
:10CC50001C682000FFF794FF0528B5D10124CAE71E
:10CC600048210020422100204C21002044210020A6
:10CC700010B50A4B1B68002B08D09847002800D13C
:10CC800010BD00220021FFF747FCF9E7044B1B7899
:10CC9000002BF5D0FFF776FFF2E7C04650210020C9
:10CCA0004121002003210A4802680A430260094822
:10CCB00002680A4302600849084A094B9B1A03DDCF
:10CCC000043BC858D050FBDC064880470648004764
:10CCD00024050040540500404428020000200020A4
:10CCE000A82000202582010021810100FEE7FEE747
:10CCF000FEE7FEE7FEE7FEE749004B081900704734
:10CD0000F0B546464F46C0B48DB004000D0000F0AB
:10CD1000BDF8284B060098461B780F005BB2013324
:10CD200032D022002B002000290003F0BFFB8146F7
:10CD3000002829D120002900FFF7DEFF00221E4B2A
:10CD400000F082FF00281FD0012302931B4B1C48D8
:10CD500003934B46069407950A930494059500F0B7
:10CD6000CDFD43461B78089009915BB2022B12D08F
:10CD700002A800F0C1FD00280DD00A9B0193002BF2
:10CD800011D10898099901E0300039000DB00CBCB0
:10CD900090469946F0BD03F093FC212303600A9B63
:10CDA0000193002BEDD003F08BFC0A9B01930360F1
:10CDB000E7E7C0469D2000200000F03F1826020053
:10CDC000BC17020010B500F047FA10BDF0B546469A
:10CDD0004F46C0B48DB004000D0000F0F9FA294BA5
:10CDE000009001911B785BB29846013312D022006B
:10CDF0002B002000290003F059FB8146002809D1AF
:10CE00000026002732003B002000290000F008FF28
:10CE1000002806D1009801990DB00CBC90469946A7
:10CE2000F0BD01230293184B0694079503934B46DC
:10CE30000A93434604940595002B15D03B0032001D
:10CE40003000390002F040F9434608900991022B66
:10CE50000CD103F035FC212303600A9B0093002BC7
:10CE60000AD108980999D7E70896099702A800F00F
:10CE700043FD0028F1D1ECE703F022FC0A9B00936C
:10CE80000360EEE79D20002020260200F0B5574603
:10CE90004E464B005B089A46C0B4CD4B87B00600A7
:10CEA0000F0089469A4512DDCA4B5344034322D0F2
:10CEB00002000B0002F0A6FF0B00020002F004F9D2
:10CEC0000300180007B00CBC91469A46F0BDC24B57
:10CED0009A4524DCC14B9A4500DD0CE1C04AC14BA8
:10CEE00001F0C6FD0022C04B00F0AEFE002816D0B7
:10CEF00033003900E5E7BD4ABD4B02F009FDBD4AEC
:10CF000004000D00BC4B3000390002F001FD0B00A5
:10CF100002002900200001F0ABFD0300D1E7300042
:10CF20003900FFF7E9FE02000B000020AE4902F0D5
:10CF300069FF0022B14B02F0EBFC04000D00B04A87
:10CF4000B04B02F0E5FCB04AB04B01F091FD22007D
:10CF50002B0002F0DDFCAE4AAE4B02F053FF220084
:10CF60002B0002F0D5FCAC4AAC4B01F081FD220055
:10CF70002B0002F0CDFCAA4AAA4B02F043FF22008C
:10CF80002B0002F0C5FCA84AA84B01F071FD22005D
:10CF90002B0002F0BDFCA64A02900391A54B200095
:10CFA000290002F0B5FCA44AA44B02F02BFF22009A
:10CFB0002B0002F0ADFCA24AA24B01F059FD220069
:10CFC0002B0002F0A5FCA04AA04B02F01BFF2200A0
:10CFD0002B0002F09DFC844B002201F049FD0490DF
:10CFE00005912000290000F0F3F9994B06000F008D
:10CFF0009A4563DC0B00029803990022009201938A
:10D00000049A059B02F060F83200029003913B0005
:10D010003000390001F02CFD02000B00029803994A
:10D0200002F076FC029003910098019902000B0037
:10D0300002F06EFC02000B002000290002F0E2FE6C
:10D04000009A019B04000D003000390001F010FD32
:10D0500002000B002000290002F036F802000B004D
:10D0600001F006FD02000B006248634902F0CAFEAF
:10D0700002000B000298039902F0C4FE04000D00A8
:10D080000098019902000B0001F0F2FC02000B0075
:10D090005648704902F0B6FE02000B00200029003D
:10D0A00002F0B0FE02000B0050486A4902F0AAFEEE
:10D0B0004B46002B00DC84E0030002E7049A059B4A
:10D0C0000298039902F000F832003B0002F020FCC5
:10D0D00032003B0001F0CCFC02000B0001F0C8FC68
:10D0E000444A454B02F08EFE02000B003F48404987
:10D0F00002F088FEDCE702000B0002F009FC0400ED
:10D100000D003F4A3F4B02F003FC3F4A3F4B01F00A
:10D11000AFFC22002B0002F0FBFB3D4A3D4B02F02E
:10D1200071FE22002B0002F0F3FB3B4A3B4B01F067
:10D130009FFC22002B0002F0EBFB394A394B02F036
:10D1400061FE22002B0002F0E3FB374A374B01F06F
:10D150008FFC22002B0002F0DBFB354A009001918E
:10D16000344B2000290002F0D3FB334A334B02F04A
:10D1700049FE22002B0002F0CBFB314A314B01F07B
:10D1800077FC22002B0002F0C3FB2F4A2F4B02F04A
:10D1900039FE22002B0002F0BBFB0022124B01F0F3
:10D1A00067FC02000B000098019901F08DFF32002E
:10D1B0003B0002F0ADFB3B00320001F059FC0300E4
:10D1C0007FE68022120694460300614479E6C04659
:10D1D000FFFFEF3F000010C0FFFFDF3FFFFF3F3EBC
:10D1E0009C7500883CE4377E0000F03F182D4454C5
:10D1F000FB21F93F075C143326A6913C0000E03F79
:10D2000009F7FD0DE13D023F88B20175E0EF493FAE
:10D210003B8F68B52882A43F5544880E55C1C93F4D
:10D220007D6FEB0312D6D43F555555555555C53F27
:10D2300082922EB1C5B8B33F59018D1B6C06E63FF3
:10D24000C88A599CE52A00404B2D8A1C273A034086
:10D250003233EF3FFB21E93FF8B515004F46464614
:10D260005A001C006B42C0B42B434B4F5208DB0FDB
:10D2700088461343BB423AD84B005B0899464E465A
:10D2800043420343DB0F3343BB4230D8434BE318E5
:10D290002B4343D00226A3171E40CB0F1E434B4601
:10D2A00003432ED013002B4332D0BA4241D0B945AC
:10D2B0002ED04B469A1A12153C2A32DC002C55DB34
:10D2C0002A00230001F000FFFFF716FD00F076F9B9
:10D2D000012E46D0022E39D0002E0ED0304A314BCE
:10D2E00002F090FD304A314B02F08CFD05E0020067
:10D2F0000B002800210001F0BBFB0CBC90469946B6
:10D30000F8BD022E10D0032EF7D127482849F4E7A4
:10D3100043462548002B0ADB2649EEE700F04EF98C
:10D32000EBE721482349D3E71F482049E5E7224995
:10D33000E3E791451FD0022EF6D0032EE5D0002062
:10D340000021012ED9D180210906D6E7144A154BB8
:10D3500002F058FD02000B001348144902F052FD80
:10D36000CBE7802424060B191900C6E73C32A7DA64
:10D3700000200021ACE7022E06D0032E09D00A4877
:10D38000012E04D00D49B8E70D480E49B5E70E4906
:10D39000B3E70B480D49B0E70000F07F000010C074
:10D3A000075C143326A6A13C182D4454FB210940E8
:10D3B000FB2109C0FB21F93FFB21F9BFFB21E93F1C
:10D3C000D221337F7CD90240FB21E9BF7CD902C046
:10D3D000F0B556464D4644465F46754BF0B40A00DC
:10D3E0000D00190083B0060004002940994200D1C5
:10D3F000BAE0002D00DC94E02D1500D1A3E06D4BC8
:10D4000012039C468023120B5B0365441A43EB070F
:10D4100000D581E06B109846E30F9B189B18802283
:10D4200016210026002764009203B818984202DCF7
:10D4300087181B1AB618E00F5B0001391B1864002F
:10D4400052080029F1D1002201929446802212064E
:10D450002020914609E09F4241D0E10FC9180138D0
:10D46000CB186400520800281ED0614651189F4214
:10D47000F1DA8D18AC46CD0FED07BA464D4539D0DF
:10D48000DB1B8C42BF417F42DB1B641A01990138D0
:10D490008B46934459460191E10FC9185746CB1862
:10D4A000640052080028E0D123432BD1019B5B0884
:10D4B000414972108C466244F10702D58021090669
:10D4C0000B43414609058D181E002F00300039001E
:10D4D00003B03CBC90469946A246AB46F0BDA14283
:10D4E0000ED88D18AC46CD0FED074D4548D09A4665
:10D4F0000023CAE76546002DC2DB7D1CAA46BFE7B4
:10D500003B00AAE7019B01333ED0019A01239446D8
:10D51000134063445B08CBE7E30F52009A186400A2
:10D5200078E76B005B0803432F00002BCED000256B
:10D53000002A31D1E20A153D6405002AFAD0802381
:10D540005B031A4223D180200023400300E00B003C
:10D550005200591C0242FAD02020401AED1A230032
:10D56000C3408C401A434AE702002B00290002F016
:10D57000CFF932002B0001F07BFA06000F00A5E77F
:10D580006546002DB9DAB2E70136002390E70123A2
:10D5900020205B420021E1E73B000200390002F05D
:10D5A00031FC02000B0001F08FFD06000F008DE73B
:10D5B0000000F07F01FCFFFF0000E03FF8B5564699
:10D5C0004D4644465F46A54BF0B44E008046894622
:10D5D0008A4676089E420CDDA14B9E4200DDA0E00B
:10D5E00000D19BE05346002B00DCE3E09D4B9E4ABC
:10D5F0009FE09E4B9E4200DDB1E09D4B9E4200DCD1
:10D600009FE001235B429B4642464B4640464946CB
:10D6100002F07EF902000B0006000F0002F078F91C
:10D6200004000D00934A944B02F072F9934A944B14
:10D6300001F01EFA22002B0002F06AF9914A924B87
:10D6400001F016FA22002B0002F062F98F4A904B8B
:10D6500001F00EFA22002B0002F05AF98D4A8E4B8F
:10D6600001F006FA22002B0002F052F98B4A8C4B93
:10D6700001F0FEF932003B0002F04AF9894A8A4B78
:10D6800006000F002000290002F042F9874A884B6B
:10D6900002F0B8FB22002B0002F03AF9854A864BD3
:10D6A00002F0B0FB22002B0002F032F9834A844BD7
:10D6B00002F0A8FB22002B0002F02AF9814A824BDB
:10D6C00002F0A0FB22002B0002F022F90B005946C9
:10D6D0000200013100D170E059463000CC00390021
:10D6E00001F0C6F942464B4602F012F9774D784BED
:10D6F0002D191C192268636802F084FB42464B46D0
:10D7000002F080FB02000B002868696802F07AFBD7
:10D7100053460A00002B48DB03000AE0002800D132
:10D7200060E742464B464046494601F0A1F90300F6
:10D730000A00180011003CBC90469946A246AB4630
:10D74000F8BD644A644B01F093F90022634B00F08A
:10D750007BFA002800D154E743464A46E9E7FFF741
:10D76000CBFA5F4B04000D009E4237DC5D4B9E42BE
:10D770005DDC02000B0001F07BF90022574B02F048
:10D7800041FB802306000F000022DB05200029005A
:10D7900001F06EF90B0002003900300001F094FC3A
:10D7A0000023804689469B462EE78022120603000E
:10D7B0008A18BEE72B4B4C4ABBE73000390001F01A
:10D7C00057F942464B4602F0A3F802000B004046D0
:10D7D000494602F017FB03000A00AAE7434B9E42AA
:10D7E0001ADC0022424B02F00DFB002206000F0063
:10D7F0003F4B2000290002F08BF80022374B01F04C
:10D8000037F90B0002003900300001F05DFC022303
:10D81000804689469B46F7E60B000200354900200A
:10D8200001F052FC0323804689469B46ECE6002229
:10D830002A4B02F0E7FA002206000F00274B2000D7
:10D84000290001F015F90B0002003900300001F049
:10D850003BFC0123804689469B46D5E6FFFF0F44EB
:10D860000000F07F182D4454FB21F93FFFFFDB3F00
:10D87000FFFF1F3E11DA22E33AAD903FEB0D762415
:10D880004B7BA93F513DD0A0660DB13F6E204CC5EA
:10D89000CD45B73FFF8300922449C23F0D555555F2
:10D8A0005555D53F2F6C6A2C44B4A2BF9AFDDE5269
:10D8B0002DDEAD3F6D9A74AFF2B0B33F711623FE0B
:10D8C000C671BC3FC4EB98999999C93F482602009C
:10D8D000282602009C7500883CE4377E0000F03F5B
:10D8E000FFFFF23FFFFFE53FFB21F9BFFF7F034052
:10D8F0000000F83F0000F0BF002070470020014901
:10D900007047C0460000F87F002243088B4274D362
:10D9100003098B425FD3030A8B4244D3030B8B4230
:10D9200028D3030C8B420DD3FF22090212BA030C39
:10D930008B4202D31212090265D0030B8B4219D31A
:10D9400000E0090AC30B8B4201D3CB03C01A52413A
:10D95000830B8B4201D38B03C01A5241430B8B4282
:10D9600001D34B03C01A5241030B8B4201D30B036B
:10D97000C01A5241C30A8B4201D3CB02C01A524192
:10D98000830A8B4201D38B02C01A5241430A8B4255
:10D9900001D34B02C01A5241030A8B4201D30B023E
:10D9A000C01A5241CDD2C3098B4201D3CB01C01A58
:10D9B000524183098B4201D38B01C01A5241430962
:10D9C0008B4201D34B01C01A524103098B4201D350
:10D9D0000B01C01A5241C3088B4201D3CB00C01ABD
:10D9E000524183088B4201D38B00C01A5241430835
:10D9F0008B4201D34B00C01A5241411A00D201465A
:10DA0000524110467047FFE701B5002000F0F0F8E2
:10DA100002BDC0460029F7D076E7704703460B43A6
:10DA20007FD4002243088B4274D303098B425FD317
:10DA3000030A8B4244D3030B8B4228D3030C8B4243
:10DA40000DD3FF22090212BA030C8B4202D3121229
:10DA5000090265D0030B8B4219D300E0090AC30BFE
:10DA60008B4201D3CB03C01A5241830B8B4201D3AB
:10DA70008B03C01A5241430B8B4201D34B03C01A94
:10DA80005241030B8B4201D30B03C01A5241C30A0C
:10DA90008B4201D3CB02C01A5241830A8B4201D37D
:10DAA0008B02C01A5241430A8B4201D34B02C01A67
:10DAB0005241030A8B4201D30B02C01A5241CDD20C
:10DAC000C3098B4201D3CB01C01A524183098B4257
:10DAD00001D38B01C01A524143098B4201D34B0140
