:020000021000EC
:108000000040002005D501004DD501004FD50100ED
:108010000000000000000000000000000000000060
:1080200000000000000000000000000051D5010029
:10803000000000000000000053D5010055D50100EC
:1080400057D5010057D50100B1A401001DA80100BA
:1080500057D5010000000000D5A0010025A90100AE
:1080600057D5010035A30100DDA1010057D501005E
:1080700057D5010057D5010057D5010057D501004C
:1080800057D5010031CE010057D5010057D5010069
:1080900011CF010057D50100D1D4010057D50100FF
:1080A00057D5010057D50100000000000000000076
:1080B00000000000000000000000000000000000C0
:1080C00010B5064C2378002B07D1054B002B02D0AE
:1080D000044800E000BF0123237010BDB020002041
:1080E00000000000AC300200084B10B5002B03D09C
:1080F0000749084800E000BF07480368002B00D18B
:1081000010BD064B002BFBD09847F9E7000000009C
:10811000B4200020AC300200B0200020000000009D
:10812000164B002B00D1144B9D46402292029A1A06
:10813000924600218B460F461348144A121A00F04B
:1081400067F80F4B002B00D098470E4B002B00D048
:1081500098470020002104000D000D48002802D09F
:108160000C4800E000BF00F02DF82000290000F0CE
:10817000C1F800F011F8C0460000080000400020DF
:108180000000000000000000B02000202C2500208E
:108190000000000000000000084B10B50400002B98
:1081A00002D0002100E000BF054B1868836A002B55
:1081B00000D09847200000F033F8C04600000000CF
:1081C000481E02000E4B70B500251E000D4CE41A2F
:1081D000A410A54204D0AB00F35898470135F8E746
:1081E00009F024FE084B00251E00084CE41AA410D8
:1081F000A54204D0AB00F35898470135F8E770BDAD
:10820000A8200020A8200020A8200020AC200020CA
:1082100003008218934202D019700133FAE77047C5
:10822000FEE7C0461D4B1B78012B00D070471C4B4E
:108230001B681B07FAD1F0221A4B1B68134018D198
:10824000194B1B6813421CD0154B1B681B07EDD143
:10825000F022144B1B681340402BE7D1124B1B68D4
:108260001342E3D1C12380220121DB00D205D1508A
:10827000DCE7102B01D0302BEAD10B4B1B681342EB
:10828000E6D10A4A0A4B1A6080220A4B12021A608F
:10829000024B1B78012BD7D0C8E7C046E00F00F097
:1082A000E40F00F0E80F00F0EC0F00F0DFFF07C074
:1082B00004050040186C004082B00190019B002B27
:1082C00014D0019B0A48013B01930138C046C046C7
:1082D000C046C046C046C046C046C046C046C0466E
:1082E000C046C046F1D1019B002BEAD102B07047D5
:1082F000E703000010B502F083F901F09DFE01F0E4
:1083000005FF02F021FB02F0BFFA6421012004F016
:10831000ABFC02F011FC02F013FE00F021FE642021
:10832000FFF7CAFFBFF34F8F024A034BDA60BFF378
:108330004F8FFEE70400FA0500ED00E030B502249F
:10834000C822437804575DB2E1B25A40002D00DAEA
:108350007DE0C8225B00DBB24A40002C00DA7EE000
:10836000C82249005CB2C9B25A40002C00DA7FE052
:10837000C8245B00DAB24BB24C40002B00DA80E03C
:10838000C823490054B2C9B25340002C00DA81E03E
:10839000C82352004CB2D2B24B40002C00DA82E02B
:1083A000C8244900CBB251B25440002900DA83E01E
:1083B000C824520059B2D2B25C40002900DA84E0ED
:1083C000C8245B0051B2DBB25440002900DA85E0DA
:1083D000C824520059B2D2B25C40002900DA86E0CB
:1083E000C8245B0051B2DBB25440002900DA87E0B8
:1083F000C824520059B2D2B25C40002900DA88E0A9
:10840000C8245B0051B2DBB25440002900DA89E095
:10841000C824520059B2D2B25C40002900DA8AE086
:10842000C8215B0054B2DBB25140002C00DA8BE073
:10843000C8215CB2D2B25940002C00DA8CE00F2186
:1084400052005B068A431B0F1343C37030BD131CDD
:10845000C8225B00DBB24A40002C00DB80E7111C25
:10846000C82249005CB2C9B25A40002C00DB7FE749
:10847000C824131C5B00DAB24BB24C40002B00DB6B
:108480007EE7C823211C490054B2C9B25340002CD6
:1084900000DB7DE71A1CC82352004CB2D2B24B401D
:1084A000002C00DB7CE7C824191C4900CBB251B278
:1084B0005440002900DB7BE7221CC824520059B23B
:1084C000D2B25C40002900DB7AE7231CC8245B00A1
:1084D00051B2DBB25440002900DB79E7221CC824EA
:1084E000520059B2D2B25C40002900DB78E7231C6D
:1084F000C8245B0051B2DBB25440002900DB77E7AF
:10850000221CC824520059B2D2B25C40002900DBC0
:1085100076E7231CC8245B0051B2DBB2544000292B
:1085200000DB75E7221CC824520059B2D2B25C406D
:10853000002900DB74E7C821231C5B0054B2DBB2C6
:108540005140002C00DB73E70A1CC8215CB2D2B298
:108550005940002C00DB72E70B1C70E7C82110B5F6
:10856000030A020CDBB282B000905CB250B2C2B21D
:108570005940002C00DA83E0C8215B00DBB2514097
:10858000002800DA84E0C821520058B2D2B2594023
:10859000002800DA85E0C8215B0050B2DBB2514010
:1085A000002800DA86E0C820520059B2D2B2584002
:1085B000002900DA87E0C8205B0051B2DBB25040EE
:1085C000002900DA88E0C820520059B2D2B25840DF
:1085D000002900DA89E0C8205B0051B2DBB25040CC
:1085E000002900DA8AE0C820520059B2D2B25840BD
:1085F000002900DA8BE0C8205B0051B2DBB25040AA
:10860000002900DA8CE0C820520059B2D2B258409A
:10861000002900DA8DE0C8205B0051B2DBB2504087
:10862000002900DA8EE0C820520059B2D2B2584078
:10863000002900DA8FE0C8205B0051B2DBB2504065
:10864000002900DA90E0C821520058B2D2B2594055
:10865000002800DA91E0C82150B2DBB25140002876
:1086600000DA92E00F215B0052068B43120F134396
:108670006A46D078DBB2C01A431E984102B010BDE2
:108680000B1CC8215B00DBB25140002800DB7AE7FD
:108690000A1CC821520058B2D2B25940002800DB4F
:1086A00079E70B1CC8215B0050B2DBB251400028B7
:1086B00000DB78E7C8200A1C520059B2D2B25840F9
:1086C000002900DB77E7031CC8205B0051B2DBB256
:1086D0005040002900DB76E7021CC820520059B246
:1086E000D2B25840002900DB75E7031CC8205B00AC
:1086F00051B2DBB25040002900DB74E7021CC820F5
:10870000520059B2D2B25840002900DB73E7031C73
:10871000C8205B0051B2DBB25040002900DB72E799
:10872000021CC820520059B2D2B25840002900DBC6
:1087300071E7031CC8205B0051B2DBB25040002936
:1087400000DB70E7021CC820520059B2D2B2584078
:10875000002900DB6FE7031CC8205B0051B2DBB2CD
:108760005040002900DB6EE7C821021C520058B2BD
:10877000D2B25940002800DB6DE70B1CC82150B273
:10878000DBB25140002800DB6CE70A1C6AE7C046F8
:108790000E4AA8200623D15EFA239B009C460C4B70
:1087A0006144C00019500820115E0A486144195004
:1087B0000A20115E604661306144FF3019500C217F
:1087C000525E054962445A507047C04684230020D7
:1087D00000900040440500004C0500000A0010B560
:1087E000C117D31705F0AEFE8904800B084310BDF6
:1087F00080037047C3179B049B0C1818801300B2AA
:108800007047C046F8B55F4656464D464446F0B4FC
:10881000334B9B460020185EFFF7EAFF314D324B89
:1088200068609A460020185EFFF7E2FF2F4BE86071
:1088300099460020185EFFF7DBFF2D4B6861002092
:10884000185EFFF7D5FF2B4BE8610020185EFFF79D
:10885000CFFF294B68620020185EFFF7C9FF302365
:10886000264F98463E00E862A84469682448FFF70E
:10887000B5FF296804002248FFF7B0FF31682418CB
:108880002048FFF7ABFF6B68201A2B60083570603B
:10889000306008364545E8D17868FFF7ABFF5B46A6
:1088A0001880F868FFF7A6FF534618807869FFF72D
:1088B000A1FF4B461880F869FFF79CFF0C4B18800E
:1088C000786AFFF797FF0B4B1880F86AFFF792FF63
:1088D000094B18803CBC90469946A246AB46F8BD71
:1088E000E0230020D0200020FA2200206C24002069
:1088F000F8220020D4210020DA21002000210020CD
:10890000C903000094C7FFFFF0B55F4656464D46C9
:108910004446F0B4644B83B00020185EFFF768FF54
:10892000624C634B20600020185EFFF761FF614BD3
:1089300099461860604B0020185EFFF759FF5F4FA3
:108940005F4B38600020185EFFF752FF5D4B9B467F
:1089500018605D4B0020185EFFF74AFF5B4B98469E
:1089600018605B4B0020185EFFF742FF0A21594B4D
:10897000594E22689A461B683060FF31D01A206039
:10898000FFF72CFF554D03002A683F2194465A46B5
:1089900012686344981A2B600193FFF71FFF019B35
:1089A0000221181A5B461B682860C01AFFF716FFE1
:1089B00053461B680A219C46534660441860484B46
:1089C000FF319A464B4652461B681268981A4B462E
:1089D0001860FFF703FF434B3F219B461B689946F6
:1089E00081444A465B461A6043461B68D01AFFF72B
:1089F000F5FE4B46181A5B46186043461B68022179
:108A0000C01AFFF7EBFE53461B680A219C465346EB
:108A100060441860344B3A6898461B68FF31D01A9E
:108A20003860FFF7DBFE314B3F2199461B68C718C2
:108A30004B461F603368F81AFFF7D0FE4B463F1ACB
:108A400030680221381A1F60FFF7C8FE43461B68D2
:108A50009C464346604418602068FFF7CBFE124BEB
:108A600018802068FFF7C6FE114B18802068FFF7BA
:108A7000C1FE114B18802868FFF7BCFE1C4B188004
:108A80005B461868FFF7B6FE1A4B18804B4618680D
:108A9000FFF7B0FE184B188003B03CBC90469946D7
:108AA000A246AB46F0BDC046E02300207C24002057
:108AB000FA220020742400206C240020702400205E
:108AC000F822002094240020D421002078240020C3
:108AD000DA21002080240020842400208824002023
:108AE000902400208C24002030210020CC20002065
:108AF0006C22002060220020D6210020002310B527
:108B0000324C6363A363E36301F062FC002854D139
:108B100001F0F0FA002807D02D4B1B78002B45D12F
:108B200003F064FF01F0ECFA72B62A4BE28B1B886B
:108B30009B1AA386284B228C1B889B1AE386274B03
:108B4000628C1B889B1A2387254BA28C1B889B1A3F
:108B50006387244BE28C1B889B1AA387224B228DB0
:108B60001B889B1AE387214B628D1B889B1A40222E
:108B7000A3521F4BA28D1B889B1A4222A3521D4B4E
:108B8000E28D1B889B1A4422A35262B61A4A1B4BE1
:108B900012889A4209D82378202B06D02923012253
:108BA0002370283B6380164B1A7010BD04F020F828
:108BB000FFF728FEFFF7A8FEB4E701F0A7FE0120AB
:108BC000FFF77AFB01F00AFCA2E7C04684230020ED
:108BD0003C210020E0230020FA2200206C24002009
:108BE000F8220020D4210020DA2100206022002079
:108BF0006C220020D6210020FC2200201A04000054
:108C00003721002010B501F0E3FB00280FD10C4AFA
:108C10000C4B12889A4209D80B4B1A78202A05D09F
:108C200029221A70283A5A80084B1A7010BD01F098
:108C30006DFE0120FFF740FB01F0D0FBE7E7C046E7
:108C4000FC2200201A040000842300203721002089
:108C500010B582B06A46FA2368461370E73B53703A
:108C6000FFF76CFB6A46F52313710199009801F038
:108C700003F8402001F0B8FB01F09AFB00F004FB80
:108C80001E4C207801F0B0FB1D4B0020185E00F058
:108C9000F1FA0623E05E00F0EDFA0823E05E00F052
:108CA000E9FA0A23E05E00F0E5FA0C23E05E00F04A
:108CB000E1FA4C23E05E00F0DDFA4E23E05E00F0C6
:108CC000D9FA5023E05E00F0D5FA0E4B187801F087
:108CD0008BFB0E23E05E00F0CDFA1023E05E00F087
:108CE000C9FA1223E05E00F0C5FA1423E05E00F03A
:108CF000C1FA452001F078FB02B010BD84230020AA
:108D0000FC2200203C21002010B5124B1A78002ACA
:108D10000FD0114A1278002A07D11049097800298A
:108D200004D10F4B1A78002A0BD110BD1A7000F035
:108D30008DF90B4B1A78002AF7D0074A1278002ACF
:108D4000F3D1084A1278002AEFD11A70FFF780FF9A
:108D5000EBE7C04638210020372100203D210020CC
:108D60003621002039210020F0B557464E464546B1
:108D7000E0B41D004B008146180016004844401B1B
:108D80009A4608F019F80022724B07F0F1F907F043
:108D9000DDFF730098464B4642466F4C070020604B
:108DA000981A401908F008F800226A4B07F0E0F919
:108DB00007F0CCFF4B465246991A60600600481BEC
:108DC00007F0FAFF0022634B07F0D2F907F0BEFF6D
:108DD000A06048464044401907F0EEFF00225D4B7A
:108DE00007F0C6F907F0B2FFE0600120002F07DBB3
:108DF000380007F0E1FF04F019FC07F0A7FF6668F0
:108E000020600120002E06DB300007F0D5FF04F0C3
:108E10000DFC07F09BFF01236060A06899460028C5
:108E200006DB07F0C9FF04F001FC07F08FFF814665
:108E30004B46E068A3600126002808DB07F0BCFF72
:108E400004F0F4FB07F082FFA368060099460E20A9
:108E5000122114272268414D904628566956EF5733
:108E60004318DB1B98441023EB56411AC21A924652
:108E70006268C3189446DB19CA1B981916216B5EE9
:108E8000BA44D4444A44052B16DC002300260027AC
:108E90009C46984600200022002163604346EB80F8
:108EA00063466F81AE812B812160A260E0601CBCB3
:108EB00090469946A246F0BD4146C82944DBAF23FF
:108EC0009B0099423BDC6346C82B32DBAF26B600E1
:108ED000B3422ADCC82A22DBAF26B600B2421ADC33
:108EE000C82812DBAF26B600B04206DC0EB2B04690
:108EF0001EB2B44617B206B2CFE730000EB2B0468B
:108F00001EB2B44617B206B2C7E7AF26C820B600F5
:108F1000B042EBDDF1E73200C828E3DAF5E7AF262F
:108F2000C822B600B242DBDDF5E73300C82AD3DA47
:108F3000F5E7AF26C823B600B342CBDDF5E719004D
:108F40006346C82BC2DAF4E7AF23C8219B009942DD
:108F5000B9DDF4E70000D03F9824002084230020EE
:108F6000F8B52023334C344A237000231360334A6E
:108F7000202613600022A3806380E3812382638222
:108F8000A382E38223836383A383E38323846384B1
:108F9000A384E38423856385A385E3852363284B2A
:108FA0001A7001F0E3FD0422A35E264D264F002B2C
:108FB0001DD11621625E63800A2A0ADD2278202AEA
:108FC00028D0292A2BD01621625E267063800A2AB7
:108FD000F4DC2378203BDBB2092B1BD89B00EB5839
:108FE0009F4600F005FD0422A35E002BE1D0F8BDF2
:108FF0003B78002B18D000F019FC0422A35ED6E7C2
:1090000000F0C0FA0422A35ED1E700F043FA042284
:10901000A35ECCE700F04AF90422A35EC7E700F0A4
:10902000BDF90422A35EC2E700F040FB0422A35E68
:10903000BDE7C04684230020E423002068220020EE
:10904000372100204C1E02003C21002070B501F0A9
:10905000AFF9194B194C1A78206022719A8E184D6D
:10906000E283DA8E286822841A8F62845A8FA2845F
:109070009A8FE284DA8F228540229A5A62854222B0
:109080009A5AA28544229B5A0200E3850D4B38323E
:109090009A4209D83822210001F0B6FD002802D0FA
:1090A0002B6838332B6070BD01F060FD0023064A49
:1090B0002B6013600020EDE784230020A82400200B
:1090C000E4230020FFFF010068220020F0B5644B7C
:1090D00083B01B78202B21D06A46FA231370AA3B59
:1090E000537068464F3B9370FFF728F96A46F523A3
:1090F0001078137101F078F96B46587801F074F923
:109100006B46987801F070F96B46D87801F06CF9ED
:109110006B46187901F068F903B0F0BD6A46DA339E
:109120001370CA3B5370684602339370FFF706F919
:109130006A46F5231078137101F056F96B4658789A
:1091400001F052F96B46987801F04EF96B46D878E9
:1091500001F04AF96B46187901F046F9414C424E4C
:10916000424F02E00A20FFF7A7F8382221003068BA
:1091700001F06EFE0028CFD0902001F035F925686F
:10918000E8B201F031F92812C0B201F02DF928142B
:10919000C0B201F029F9280E01F026F9207901F07A
:1091A00023F91E23E55EE8B22D1201F01DF9E8B2A5
:1091B00001F01AF92023E55EE8B22D1201F014F94E
:1091C000E8B201F011F92223E55EE8B22D1201F0B8
:1091D0000BF9E8B201F008F92423E55EE8B22D129C
:1091E00001F002F9E8B201F0FFF82623E55EE8B2EB
:1091F0002D1201F0F9F8E8B201F0F6F82823E55E47
:10920000E8B22D1201F0F0F8E8B201F0EDF82A23EF
:10921000E55EE8B22D1201F0E7F8E8B201F0E4F8FB
:109220002C23E55EE8B22D1201F0DEF8E8B201F081
:10923000DBF82E23E55EE8B22D1201F0D5F8E8B296
:1092400001F0D2F8952001F0CFF833683A6838334E
:109250003360934286D30022054B1A705CE7C04608
:1092600084230020E024002068220020E423002042
:109270003921002010B50400C0B2241201F0B4F866
:10928000E0B201F0B1F810BD10B50400C0B201F0B9
:10929000ABF82012C0B201F0A7F82014C0B201F060
:1092A000A3F8200E01F0A0F810BDC046F0B5474667
:1092B0000023324C80B4324D324E334FE38123824F
:1092C0006382A382E38223836383A3830222A35E58
:1092D000002B26D10422A35E002B22D12A78002A5B
:1092E00022D032782B70002A44D1FFF78BFC3B78D8
:1092F000002B14D1FFF708FD244B1B78002B23D142
:10930000234B98461B78002B2CD0224B1B78002B2C
:10931000DCD0214B1B78002BD8D1FFF7D7FE0123DF
:10932000A38004BC9046F0BD0A200138C046C04668
:10933000C046C046C046C046C046C046C046C046FD
:10934000C046C046F1D1C1E7114B98461B78002BAF
:10935000DBD1FA210020490003F086FC01234246BC
:109360001370D2E76421012003F07EFC0123424602
:109370001370CAE701223370A280D2E78423002051
:10938000342100203B210020372100203C210020F7
:10939000642000203921002036210020A0238021D4
:1093A00010B5394ADB059A58C90352025DD4A1228F
:1093B000D2009950354C0622A35E002B02D1A3683F
:1093C000002B55D0E1235B00E38023816381A381DF
:1093D000FFF73EFCFFF7DCF9FA20C000FEF76CFF58
:1093E00024E0A268002A2CD10C21625E002A2CD035
:1093F000E3800821635E0021092B01DD0A3B19B2DD
:1094000021810A21635E0021092B01DD0A3B19B28B
:1094100061810023092A01DD0A3A13B2A381FFF713
:10942000B7F9FFF771FCFA20FEF746FF0622A35EAC
:10943000002BD6D0092B04DD0A3B1BB20C21625E47
:10944000D6E70C23E25E0023D2E7A021203323706D
:1094500001320D4B6280C905CB589B0D1A420CD0CE
:1094600080220B4BD203CA5010BD094A9950A1E784
:109470000C22A35E002BABD0A4E78022A123D20351
:10948000DB00CA50F0E7C04604050000842300203A
:109490000C050000F0B54F464646C0B4334C344E80
:1094A000344D354F83B00222A35E002B3DD1042200
:1094B000A35E002B39D13368022B50D02B78002BC0
:1094C00038D03B78002B35D12B7072B61623E25E74
:1094D0001821635E9C461A23E15E1C20235E994698
:1094E00062B6264850431622A256042A32DD62464E
:1094F000FA2352B29B0049B2594353436A469846F5
:109500004B46D371D3795BB29C4662461C4B5343A6
:109510004246FFF729FCFFF775FBFFF7F5FBFFF766
:1095200037F90222A35E002BC1D003B00CBC9046D9
:109530009946F0BD0A200138C046C046C046C04624
:10954000C046C046C046C046C046C046C046C046EB
:10955000F1D1A8E70022002390460021D8E7013B83
:109560003360638028332370DFE7C0468423002004
:1095700068200020342100203721002070170000CF
:10958000B80B0000F0B55223454657464E4601221F
:109590003F4CE0B4E2523F4B3F4F98463F4D0222D2
:1095A000A35E002B21D10422A35E002B1DD13B68BA
:1095B000022B00D15BE02B78002B03D043461E78B2
:1095C000002E17D00A200138C046C046C046C0460B
:1095D000C046C046C046C046C046C046C046C0465B
:1095E000F1D10222A35E002BDDD01CBC904699462F
:1095F000A246F0BD2E70FFF781FA72B61622A35E66
:109600009A461C23E05E62B6254A1178002924D1CF
:109610001622A35E9946524600230A2A0DDD46B261
:109620000C213823E05E04F029FE4C2203B2A25E36
:10963000F31A53437822FF3253435246194850439A
:109640004A46042A00DC002300220021FFF78CFB9D
:10965000FFF79EF8FFF758FBA1E75823E35E9C460F
:109660001623E15E89468C4507D01670D3E7013B8F
:109670003B60638028332370B7E70B4B626D1B6838
:109680009A1A5223E35E53436B2292469A44C2E7EE
:10969000842300203721002068200020342100206E
:1096A0003A2100207017000070220020F0B55F46BC
:1096B0004D4644465646F0B4574C584F584D83B02B
:1096C0000222A35E002B21D10422A35E002B1DD118
:1096D0003B68022B00D199E02B78002B03D0514B33
:1096E0001B78002B19D00A200138C046C046C0465E
:1096F000C046C046C046C046C046C046C046C0463A
:10970000C046F1D10222A35E002BDDD003B03CBCE9
:1097100090469946A246AB46F0BD2B70FFF7EEF996
:1097200072B61622A35E9A461822A35E1A21625EC2
:1097300090461C21625E914662B652460A2A61DD5D
:109740004E22A25E5BB293465022A65E0093402357
:109750000F21E05E04F092FD009B00B2181A5B46F8
:109760000621434300933422A05E494204F086FD63
:10977000009B70439C466044820010188300009355
:1097800041466B46D971422349B28846E05E0F21BB
:1097900004F074FD41465B4600B2081A434336218B
:1097A000605E06219B4604F069FD00B246435E44BC
:1097B000B1006B468E194946D97149B289463821A4
:1097C000605E0C2104F05AFD494603B2C81A4C23CE
:1097D000BB22B600E35E310043435343009A564632
:1097E0001148704384461620265E042E02DC0023B6
:1097F000002100226046FFF7B7FAFEF7C9FFFFF726
:1098000083FA5DE7002300210022E8E7013B3B608B
:1098100063802833237079E78423002068200020A8
:10982000342100203721002070170000F0B55F467A
:1098300056464D464446A0238021F0B4654ADB05D8
:109840009A5885B04904D20100D5B6E0A122D200D1
:109850009950614B614C9846614E624D0222A35E65
:10986000002B21D10422A35E002B1DD13368022BD3
:1098700000D1A9E02B78002B03D043461B78002BA6
:1098800024D00A200138C046C046C046C046C04663
:10989000C046C046C046C046C046C046C046F1D1DC
:1098A0000222A35E002BDDD0A0238021494ADB05E4
:1098B0009A584904D20100D482E04B4A995005B02D
:1098C0003CBC90469946A246AB46F0BD2B70FFF7D4
:1098D00015F972B61622A35E99461822A35E1A21C4
:1098E000625E93461C21625E019262B64A460A2A73
:1098F0005FDD4E22A15E5BB202328A46A75E029312
:109900004023E05E0F2104F0B9FC029B00B2181A5C
:109910005346434302933421605E062104F0AEFCBB
:10992000029B00B2181A7843820010188300029339
:1099300059466B46D973422349B28B46E05E0F21EC
:1099400004F09CFC5946534600B2081A43433621A2
:10995000605E06219A4604F091FC00B250444743F1
:10996000B9006B46CF1904215956BF008A463821E9
:10997000605E0C2104F082FC514603B2C81A4C23ED
:10998000BB22E35E390043435343029A4F461748D4
:10999000784384461620275E042F02DC0023002132
:1099A00000226046FFF7E0F9FEF7F2FEFFF7ACF9A0
:1099B00054E7002300210022E8E70B4A995048E7CA
:1099C000A122D20099507AE7013B336063802833AB
:1099D000237074E704050000372100208423002051
:1099E00068200020352100200C05000070170000C1
:1099F000F0B55F4656464D464446A0238021F0B45C
:109A00008C4ADB059A5885B04904D20100D5FEE0A6
:109A1000A122D2009950FFF71BF900F0C9FC864B38
:109A2000984200D8FDE0854C854D14E000F062FBC3
:109A300000280DD02B78002B19D003F0D9F8FEF7B1
:109A4000E1FEFEF761FF0120FEF736FC00F058FB57
:109A5000013C002C0ED000F0BBFC0028E6D000F04A
:109A600091FF0120FEF728FC00F0B8FCDEE702F0D1
:109A7000BDFFE8E7002303930293019399469A46BA
:109A80009B4600936F4B00250026002798464AE02E
:109A900000F030FB00283FD0694B1B78002B54D0DE
:109AA00003F0A6F8FEF7AEFEFEF72EFF0120FEF74C
:109AB00003FC00F025FB644B013400229B5E009AFE
:109AC00094469C4463460093604B00229B5EED18D5
:109AD0005F4B00229B5EF6185E4B00229B5EFF18D8
:109AE0005D4B00229B5E019A94469C446346019321
:109AF0005A4B00229B5E9944594B00229B5E9A442C
:109B0000584B00229B5E9B44574B00229B5E029A5F
:109B100094469C44634602930120FEF7CDFBF42358
:109B2000FF339C4214DC00F053FC0028B0D000F05E
:109B300029FF0120FEF7C0FB00F050FC43461968E6
:109B4000039A8C4662440392A2E702F04FFFADE70E
:109B50005946AB460D00FA2152464B464900009843
:109B6000B946B2461F00160004F088FBFA213F4CAC
:109B70004900E083584604F081FBFA212084490023
:109B8000504604F07BFBFA2160844900484604F00B
:109B900075FBFA21A0844900019804F06FFBFA21BB
:109BA000E0844900380004F069FBFA21208549006F
:109BB000300004F063FBFA2160854900280004F0BE
:109BC0005DFBFA21A0854900029804F057FBFA21B9
:109BD000E0854900039804F051FB01252023206310
:109BE000012023706580FEF767FBA0228021114BC6
:109BF000D205D35849041B0E1D4216D01C4BD15020
:109C000005B03CBC90469946A246AB46F0BD184A0A
:109C10009950FFF71DF800F0CBFB074B984200D995
:109C200001E71448FEF748FBFDE6A123DB00D15015
:109C3000E6E7C04604050000FF2C3101C40900001E
:109C40003C21002070220020E0230020FA22002086
:109C50006C240020F8220020D4210020DA210020EA
:109C6000602200206C220020D621002084230020C6
:109C70000C050000204E000000B583B00090C0B27B
:109C8000019100F0B1FB6B46587800F0ADFB6B46DC
:109C9000987800F0A9FB6B46D87800F0A5FB6B46DE
:109CA000187900F0A1FB03B000BDC04600B583B039
:109CB0006A46FA23907013706846AA3B5370FEF709
:109CC0003DFB03B000BDC04600B52F4B83B01A78F2
:109CD000824207D0202A07D0292851D00A2848D00C
:109CE000202817D003B000BD0A38C0B21F2835D8CD
:109CF000264A8000125897460122254B1A706A4660
:109D0000FA231370AA3B5370002368469370FEF742
:109D100015FBE7E706215A5E002AE3D19A68002A7C
:109D2000E0D10C215A5E002ADCD120221A701F3AA1
:109D30005A80E4E725221A70243A5A80DFE7242269
:109D40001A70233A5A80DAE723221A70223A5A808C
:109D5000D5E722221A70213A5A80D0E76A46FA23C0
:109D60001370AA3B53704F3B93706846FEF7E6FAB8
:109D7000B8E7012206495A800A7029211970BEE706
:109D8000012218705A80BAE784230020741E020052
:109D90003B21002070B59E4E030C5DB2337884B039
:109DA000040A00900191E4B2202B0BD0282C21D082
:109DB000FEF7D4FB002823D1302C21D8954BA400EA
:109DC0001B599F46282C17D0012C23D0302C11D1A1
:109DD000FEF7C4FB002813D1322D00D1E1E0332D72
:109DE00000D1FEE0312D05D13378202B02D10122A4
:109DF000894B1A7004B070BDFEF7B0FB002811D07B
:109E0000FA2302A80370AA3B43704F3B8370FEF70E
:109E100095FAEFE7FEF7A2FB0028F1D1E8B2FFF7D1
:109E200053FFE7E701237D4A11784B4013707C4BC9
:109E30001870DFE7EBB2012B00D199E0002BDFD1E6
:109E40004C21725A013A12B2002A0DDB72522AE0FA
:109E5000EBB2012B00D1B4E0002BD1D14E21725ACC
:109E6000013A12B2002AF1DA73521CE0EBB2012B74
:109E700000D1AEE0002BC3D15021725A013A12B288
:109E8000002AF1DB72520EE0664B1A78002A5CD190
:109E900001321A70644BF28A1B6873655823F252C0
:109EA000A8E7EBB2B383FA2302A80370AA3B43707E
:109EB00000238370FEF742FA9CE7EBB2012B60D0DF
:109EC000002B9DD1738A013B1BB21A007F3201DA4D
:109ED0007F235B427382E6E7EBB2012B38D0002B85
:109EE0008ED1B38A013B1BB21A007F3201DA7F2385
:109EF0005B42B382D7E7EBB2012B31D0002B00D00D
:109F00007EE7F389013B1BB21A007F3201DA7F231F
:109F10005B42F381C7E7EBB2012B3AD0002B00D0B4
:109F20006EE7338A013B1BB21A007F3201DA7F23CE
:109F30005B423382B7E7EBB23383B4E7EBB27383B0
:109F4000B1E77F235B1BF382ADE700221A7051E774
:109F5000B38A01331BB2802BCBDD8023B382A2E70F
:109F6000F38901331BB2802BD3DD8023F3819AE781
:109F70004C22B35A01331BB2322B00DD3223B352D1
:109F800091E7738A01331BB2802BA3DD8023738298
:109F900089E7338A01331BB2802BCADD80233382E9
:109FA00081E70121A022214BD2051970204BD35803
:109FB0001B0F194224D18021A1234905DB00D15078
:109FC00018E74E22B35A01331BB2322BD7DD3223AE
:109FD000D5E75022B35A01331BB2322BCFDD3223E7
:109FE000CDE70022114B80211A70A023104ADB0517
:109FF0009A584905D20008D4A122D2009950F9E616
:10A0000080210C4B4905D150F4E60A4A9950F1E6FB
:10A0100084230020F41E0200392100203C2100206E
:10A02000642000203A210020702200203D210020E1
:10A03000040500000C050000A02300211C4ADB05DC
:10A0400010B59950A2211B4A1B48C9005050C1218C
:10A05000012089005050C0224024184852008450EA
:10A060004458174A2240C024240422434250032269
:10A0700014495A5014495A5014495A5014495A50C4
:10A080001C395A5008315A5010315A5008315A5020
:10A09000A1228021D200C9039950802149049950FE
:10A0A0008021490599508021C905995010BDC046AD
:10A0B00014070000006000400105020000E100E01C
:10A0C000FFFF00FF540700005C070000640700006A
:10A0D000740700008023054A5B00D158002904D092
:10A0E0000021D1500122024B1A70704700600040DD
:10A0F0003E210020014B18787047C0463E210020C9
:10A100000022014B1A7070473E210020F0B54746EF
:10A11000002380B4A227264AFF001360254AA82600
:10A120001370254A0433D3519C46C1239B009846A3
:10A13000E0234146A924DB025350604601211F4B16
:10A14000F60093511E4DF53BFF3B53511D4BE40070
:10A1500013511D4BD160D851F02740463F031F508B
:10A16000E430985158511851184CC0251851D960F5
:10A1700011601960C221164B4D3C6D00FF3C5C51D3
:10A1800089005858134A0240C0200004024380202E
:10A1900080005A5058515D580F4A2A40C0252D0260
:10A1A0002A435A501C60186004BC9046F0BDC0465B
:10A1B000482100204421002000A00040C4090000E4
:10A1C00044050000FFFF0000009000404C05000027
:10A1D00000E100E0FFFF00FFFF00FFFFA02370B5DC
:10A1E000434A5B00D358002B46D00121414A1378E3
:10A1F000194264D00133DBB201263F4D13702C7835
:10A200003E4BC8211E70200004F034F8C9B200296A
:10A2100059D00134E4B2A821394801268446344B90
:10A220002C70C9005A58A02462445A50354AA125BE
:10A23000D6608022E405ED00920362518022120470
:10A240006251802292046251802292056251A022C2
:10A250000021520099502C4B64311868421C1A603E
:10A2600004F008F8002907D1284BE3589B0F1E4241
:10A2700038D18023DB056351A2221D4B520099582F
:10A2800000290DD0FA240121E400A44620480170E1
:10A2900020480170204819586144195000219950F4
:10A2A000A423134A5B00D158002907D01B4C1C483B
:10A2B000A4460168614401600021D15070BD194B72
:10A2C0001970012398E7184B1E70184B1A68002A62
:10A2D00002D11E6001249EE70124012A9BD1013294
:10A2E0001A6098E78022124BD205E250C4E7C046BC
:10A2F00000A00040452100204621002044210020EC
:10A30000C409000000900040402100200405000026
:10A31000382100203521002044050000FFFF000007
:10A320004821002034210020362100206820002010
:10A330000C050000A02310B51B4A5B00D158002972
:10A3400007D08024A0201949A403C005445000214F
:10A35000D150A223144A5B00D158002907D0802491
:10A36000A02012492404C00544500021D150A42348
:10A370000D4A5B00D158002907D08024A0200B494A
:10A38000A404C00544500021D150A623064A5B0016
:10A39000D158002907D08024A0200449A405C00575
:10A3A00044500021D15010BD009000400C05000029
:10A3B0000122044BDA64044A9858044B1B68C01805
:10A3C0007047C04600A000404C0500004821002016
:10A3D000014B18787047C046442100200022014BF1
:10A3E0001A7070474421002010B5802304240A4AC3
:10A3F000D4500A4B1A78002A08D000221A70084B51
:10A40000084AD0500422044B1A6010BD01000648CF
:10A4100000F050F9F6E7C04600E100E06C200020B3
:10A420001C0500000020004074220020F0B55F46AB
:10A4300056464D464446F0B483B00192002A24DDCE
:10A44000802399467C3B9246984600230C008A4420
:10A45000124E134D04279B4609E05B46114A3370A8
:10A46000114B0134D15043462B6054450DD04B461F
:10A470002178EF503378002BEFD10C4800F01AF917
:10A48000434601342B605445F1D1019803B03CBCE4
:10A4900090469946A246AB46F0BDC0466C200020CF
:10A4A00000E100E0002000401C05000074220020B4
:10A4B000842270B5474B52009958002934D1464C3C
:10A4C0008E23444D5B00EA58002A09D000224348FD
:10A4D000EA509A3BC35C002B3AD10122404B1A70E0
:10A4E00092223C4B52009958002928D18223E35CE8
:10A4F000002B00D170BD00253A4B20001D6000F0FC
:10A50000E7F8FA2829D0384C2368F52839D0012BF0
:10A510004FD0022B52D0032B57D0344B1A68002A4D
:10A5200029D000232360E5E700219950A322D2001F
:10A530009958294CC9B2200000F0BCF8C0E70021AE
:10A5400099509022D2009958294806F007FDCDE78E
:10A5500000F0BEF8274BE850C2E7244B1A68012AE6
:10A5600031D0214C2268002A05D1234BFA321A70CF
:10A5700001232360BEE7012201201A60FFF796FB4A
:10A58000CFE7042BC9D11D4B1B4D1B782871292BFC
:10A59000C7D06B782978A8781B020B4300041A00F7
:10A5A0000300E878134300061843F521FFF7F2FB98
:10A5B000B7E7114B5870022323609BE70E4B98704E
:10A5C0000323236096E71D60CBE70B4BD870042371
:10A5D00023608FE700200040DC210020742200204F
:10A5E0006C20002068200020502100204C210020F9
:10A5F000B81F02001C05000018250020842300203D
:10A6000010B51E4800F04CF81D4800F049F8A02392
:10A61000E7220321DB05D2009950E82100220E2019
:10A62000C9005A50174B1849585018490230585011
:10A63000174818495850A0200421C0001950842000
:10A6400040001A5014301A5001329A601A60C22227
:10A650001E38FF3892009850A120043A800098508C
:10A66000C0230D4A5B00D1507C3014580B4B234063
:10A67000C024240423431350116010BDDC210020AA
:10A6800074220020002000400C050000140500008A
:10A6900000E0D7012405000000E100E0FFFF00FF1B
:10A6A000002380227F21835401328154013283545C
:10A6B0007047C046812210B57F24835C013323405C
:10A6C0008354C1540132835C0133835410BDC046AE
:10A6D000802110B57F240200435CC05C013323401D
:10A6E00053540231535C013B535410BDF0B55746EF
:10A6F0004E4645468446E0B489469A460120002AE3
:10A700003BD0B12300276146244E254D254CDB006C
:10A710002F702770F1504946234BF150802189005A
:10A720007750B06029780029FCD000212970012AD7
:10A730002ED0802101251948890045500121174854
:10A7400089460160802189008846FF39A325FF39A9
:10A75000534600268C46ED0021780029FCD0267057
:10A760004159013AD2B21970012A0BD0494601620F
:10A77000002A01D00133EFE700201CBC9046994627
:10A78000A246F0BD41466746013347500262E3E707
:10A7900080210225014889004550CFE70030004064
:10A7A00054210020552100201C050000F0B547462B
:10A7B00080B407000120002A27D00025B126A84632
:10A7C000134CF6002570134DAF5180274646BF004D
:10A7D000EE51114EA951A86021780029FCD000212A
:10A7E0000020013A2170D1B201310A4E0A4D5918A8
:10A7F0001A7872512278002AFCD0013320708B42E3
:10A80000F6D101220020034B5A6104BC9046F0BDF2
:10A8100054210020003000401C050000F8B58423BE
:10A82000144A5B00D158002904D00021D1500122E4
:10A83000114B1A708E230F4A5B00D158002904D0A7
:10A840000021D15001220D4B1A709225094C6D0048
:10A850006359002B0CD00A4EA759FFF7A9FD390008
:10A860000200084806F07AFB0323A351002363513A
:10A87000F8BDC04600300040552100205421002082
:10A88000C4040000CC1F0200A023E2211A4ADB0509
:10A89000C90010B55A5008395A500421174B053ACF
:10A8A000FF3A9950164A023999500022CD200731BB
:10A8B000FF315A5014315A501249C0045850A12047
:10A8C000C1218000890058500539FF395A50A02213
:10A8D000FC39FF39D2009950C023C0240A4A033101
:10A8E0005B00D1507C30135824061B021B0A234303
:10A8F0001350116010BDC0460C060000003000402F
:10A900000C0500002405000000E100E08022044B5B
:10A91000D2009A58002A01D101321A607047C0460D
:10A920000070004080220021054B52009950A12266
:10A93000D2009A58D3009B1A024A13807047C0462F
:10A9400000700040FC2200200A4B0B490B4AC0203B
:10A950009950A0210122C9005A50FD39FF395A509F
:10A96000074A000653581B021B0A03435350802317
:10A9700013607047007000400410000004050000E0
:10A9800000E100E0F0B5474680B4604C82B0257825
:10A99000012D32D0002D1CD0022D07D1FFF708FD6C
:10A9A0005B4B1B68C01A5B4B984250D83220013871
:10A9B000C046C046C046C046C046C046C046C04667
:10A9C000C046C046C046C046F1D102B004BC904665
:10A9D000F0BDB1227721504BD200995080227539B9
:10A9E000920099504D4A4631995001229A60227046
:10A9F000FFF7DEFC464B1860D8E7FFF7D9FC444E62
:10AA00003368C01A434B9842D0D9454F03223B00CC
:10AA100000217720FFF76AFE3B7877211A047B78C4
:10AA200058201B021343BA7813433E4A1360B122E5
:10AA3000394BD200995002228A31FF315A5037499E
:10AA400058509D602270FFF7B3FC3060AEE7344D84
:10AA500003222B0000217720FFF748FE2B780021EE
:10AA60001A046B781B021343AA782F4D13432F4A05
:10AA700013606A89288912029B1A98461A000023DB
:10AA800003F060FD4E06CB110021C2093243AE88AF
:10AA9000300412184B41009201930021E88842468D
:10AAA000002303F04FFD0E06020A32436E880B129C
:10AAB000F003002116001F00424636184F410023C4
:10AAC000A889002103F03EFDFA23DB009C464902E1
:10AAD000C00D0843164B60441860124B32001868D2
:10AAE00000213B0003F02EFDCD02420D4B152A4301
:10AAF00000980199121A8B4111005B04CA0B1A438A
:10AB00000C4B1A600023237050E7C04656210020EA
:10AB1000702100200F270000003000401C050000BD
:10AB20006821002024250020582100202025002015
:10AB3000642200207022002070B5A024094E0A4D26
:10AB40002B00022221007720FFF7D0FD2B786A78B6
:10AB50001B0202341343E4B233800236B02CEFD12F
:10AB600070BDC046582100206C21002030B5012561
:10AB70002048214BA0221860204BD205DB7A842488
:10AB80009D401F4B6400D5500023062203511D4BEE
:10AB900083B0C25084210359164A4900002BF9D0D2
:10ABA000A323DB00D358A0200093A123C005DB0022
:10ABB000C550009B01330093114BC550002360200A
:10ABC0005350104BD0505358002BFCD0A323094AAC
:10ABD000DB00D358A0220193A123D205DB00D5507E
:10ABE000019B642001330193FDF766FB012003B054
:10ABF00030BDC0460040004080210020742100206C
:10AC00000C0500001C050000F0B5564644465F46A2
:10AC10004D4684460120F0B4874B884C92461C6018
:10AC2000874BA022DB7AD2059840864B8426D050F1
:10AC3000002306227600A351834B87B0E250842282
:10AC400052009346A2597D4B002AF8D0A324E40079
:10AC50001A59A1260492A022AF27F600D2059051DE
:10AC6000049E0136049603AE377067463F0CB84623
:10AC7000777067463F0AB946B7706746F770002994
:10AC800000D19EE057466D462F802F880197002FF8
:10AC900000D196E06B4F5D46D051002292465A514A
:10ACA00000940C005A4651469B46A246745C664D81
:10ACB0005C519C58002CFCD084275C4600257F000A
:10ACC000E551009D0131645905940429EED15146A6
:10ACD0004B1C5A4C9A460A785B4B2500E2503C00CC
:10ACE00084222B59554E5200002BF9D00023B3502B
:10ACF000A323DB00F358A0250593A123ED05DB007A
:10AD0000E8504B46FF201B02000203406446FF2030
:10AD100020401818FF26434636041B0433401B18F6
:10AD200001985446013880B20130844601208246A1
:10AD300044488C448146AF20C9438046CB18424EDC
:10AD400000931420644544D00138C046C046C04634
:10AD5000C046C046C046C046C046C046C046C046C3
:10AD6000C046F1D15146364B4046DB7A99404B46BE
:10AD7000E950314B1B68985198580028FCD00020AE
:10AD800083465F460930FF301F50A320C00018588B
:10AD900005902078985198580028FCD000208346D0
:10ADA0005F460930FF301F50A320C0001B580134FC
:10ADB0000593A123DB00E950009B1919234B99420D
:10ADC000BFD9002007B03CBC90469946A246AB468E
:10ADD000F0BD0138C046C046C046C046C046C04669
:10ADE000C046C046C046C046C046C046F1D101205C
:10ADF000134BA022DB7A04219840124BD205D0508D
:10AE00000D4B1A68104BD1500531FF315358002BB0
:10AE1000FCD0842300215B00D150A323DB00D35856
:10AE2000A0220593A123D205DB00D050059B012071
:10AE300001330593C6E7C046802100200040004052
:10AE4000742100200C0500001C050000FEFF01001D
:10AE5000F0B544465F4656464D46F0B483B06C4666
:10AE600003232370030C6370030AE070A37092B293
:10AE70000020002901D0002A06D103B03CBC904636
:10AE80009946A246AB46F0BD284B294CA02723602B
:10AE9000284CFF05E57AA4460124AC40264D7C51A0
:10AEA0008424640018511800244B00259A4600237E
:10AEB0009846A323DB000700A1469B466B465646F7
:10AEC0005B5D83510359002BFCD04B464646FE5038
:10AED0005B46FB5801350193042DEFD1174B8424B9
:10AEE000A32698460027013A95B201350F484D191F
:10AEF0006400F6004346C75003590C4A002BFBD0B0
:10AF000084235B00D75093590B700131A942F1D1D2
:10AF10006346DA7A0123A0219340A122C905D20019
:10AF20008B50019B012001330193A6E700400040B4
:10AF300080210020742100200C0500001C05000069
:10AF4000F0B55F4656464D464446F0B489B006AD6E
:10AF5000062200212800FDF75BF940236B70353B8A
:10AF6000AB70023BEB7009332B71013B6B71894B6A
:10AF70002900981D06229A4605F0E7FFAB780322C8
:10AF800098464146A0230020C131FF31DB058900EE
:10AF9000CA50E97884468946C131FF318900CA50D8
:10AFA000297944468B46C131FF318900C8506F79F9
:10AFB000A12039004E46C131FF318900CA5076497F
:10AFC000C0000C50754C0E515E46A04604340E5124
:10AFD00001263400BC401C506F78714C3F060F5165
:10AFE0002F78704D64464F518427543D7F00CC51DB
:10AFF0004E51E025ED005A516B4D5A51802292017D
:10B000001E501A505246694D2960D27A96404246E7
:10B010009E505022664BCC51CA508422C8595E4B78
:10B0200052000028F9D0A321C9005958A02001914D
:10B03000A121C005C90046500199012701310191A4
:10B040005649465000205A4998505F50585084271E
:10B05000995851487F000029F9D00023C351A323F8
:10B06000DB00C35802938422C1594B4B5200002984
:10B07000F9D0A321C9005958A0200291A121C005EF
:10B08000C9004650029905270131029143494650B3
:10B090000020474998505F505850842799583E489F
:10B0A0007F000029F9D00023C351A323DB00C3583C
:10B0B0008421C259384B4900002AF9D0A322A02785
:10B0C000A120D2009A58C000FF05D2B23E50002005
:10B0D000002A06D009B03CBC90469946A246AB4631
:10B0E000F0BD2E483E5006205A50314A98508420D8
:10B0F0005F58294A4000002FF9D0A323DB00D35822
:10B10000A0210393A123C905DB00CE50039B01338B
:10B110000393224BCE50002360211350244BD15077
:10B1200084235B00984613581B4F002BF8D0A323B1
:10B13000DB00FB5864200493A023DB059946A12380
:10B140004A46DB00D650049B01330493FDF7B4F864
:10B1500053462F60DA7A0123494693400F4A8B50B9
:10B16000002241467A50124A0339FF39B95042460B
:10B17000B9580029FCD0A3220749D2008A58A0213F
:10B180000592A122C905D2008B50059B01200133F5
:10B1900005939FE774210020004000400C0500004B
:10B1A0002405000054050000340700008021002021
:10B1B0001C05000030B5554C83B0A37A002B00D19C
:10B1C00097E06B46DD1D00232B7023680122597C1C
:10B1D000636818782B00FFF7E9FA002800D088E0B0
:10B1E000236801225979636818782B00FFF7DEFA8B
:10B1F000002800D07DE0236801221979636818785F
:10B200002B00FFF7D3FA002800D072E02423E35C80
:10B21000002B36D00C232B70236801221979636828
:10B2200018782B00FFF7C2FA002862D13230FDF700
:10B2300043F8C0232B70A37ADB0762D42368012272
:10B240001979636818782B00FFF7B0FA002850D1FD
:10B25000637C002B58D12B7023680122597C6368D2
:10B2600018782B00FFF7A2FA002842D12368287033
:10B2700059796368012218782B00FFF797FA40424A
:10B2800035E004232B70236801221979636818784C
:10B290002B00FFF78BFA00282BD1A27C4023002A39
:10B2A0002AD02B70236801221979636818782B0043
:10B2B000FFF77CFA00281CD13230FCF7FDFF637CDD
:10B2C0005A1E93412B7023680122597C63681878B9
:10B2D0002B00FFF76BFA00280BD1230022681033F4
:10B2E0005179626810780122FFF760FA404203B09A
:10B2F00030BD01204042FAE7A27AD207D1D52033EF
:10B30000CFE7E0232B7099E70223A4E77020002009
:10B3100070B5060082B0282800D9BBE02323694C11
:10B3200001ADE35C00282CD1002B18D02870A27C42
:10B330008023002A02D07E3B2B7080332222A25C25
:10B34000002A00D08AE023680122D97D636818783A
:10B350002B00FFF72BFA002801D12323E054002310
:10B360002B7007336B7023680222597D636818784D
:10B370002B00FFF71BFA002800D08BE0207502B0ED
:10B3800070BD012B19D030232B70A27C8033002A92
:10B3900002D07E3B2B7080332222A25C002A5BD13C
:10B3A00023680122D97D636818782B00FFF7FEF926
:10B3B000002802D101222323E25420232B70012EE6
:10B3C0006BD0052E59D9142E4AD903236B70A37A5A
:10B3D000002B6FD004236A46D370E37A042B69D024
:10B3E000236801229978636818786B460333FFF766
:10B3F000DDF9002860D16B460722DB78E3726B78B9
:10B400009B011343DBB26B7023680222597D636892
:10B4100018782B00FFF7CAF900283BD10823012236
:10B42000A372207322751C33E35C002B12D12374AA
:10B43000637C002B0ED16B46DA702368597C6368FD
:10B4400018786B460333FFF7B1F9002802D16B4639
:10B45000DB786374002092E72B70A1E72B7072E712
:10B4600002236B70A37A002B05D005236A46D370A4
:10B47000E37A052BB4D18723C5E701236B70A37A48
:10B48000002B05D006236A46D370E37A062BA7D19A
:10B490004723B8E70120404271E700236B70A37A8D
:10B4A000002B05D006236A46D370E37A062B97D18A
:10B4B0000723A8E7C723A6E76B789A01072313435E
:10B4C000DBB2A0E77020002010B5114A0100537ACA
:10B4D000012B19D0002B13D0022B0AD0032B0CD137
:10B4E000102320240370D37C0020002B00D00C708C
:10B4F00010BD082310240370F5E701204042F7E750
:10B50000022304240370EEE7042308240370EAE70F
:10B510007020002070B51C4C82B0A37A002B27D07D
:10B520006B46DD1DBB2816D8612817D902232B7066
:10B53000E27A00269A420BD0236801229978636848
:10B5400018782B00FFF732F9002811D12B78E3721D
:10B55000300002B070BD01232B70E9E7292804D820
:10B56000132808D904232B70E2E703232B70DFE7AD
:10B5700001267642ECE7092802D905232B70D7E78C
:10B5800006232B70D4E7C0467020002070B5584CBD
:10B5900082B0A37A0600002B00D196E02423E35C5E
:10B5A000002B00D091E0227D002A30D0421E272AB5
:10B5B00000D885E02322A25C01AD002A18D02B70B0
:10B5C000A37C8022002B02D0022302322B70222384
:10B5D000E35C002B00D071E023680122D97D636811
:10B5E00018782B00FFF7E2F8002801D12323E0545C
:10B5F00000232B7007336B7023680222597D636828
:10B6000018782B00FFF7D2F8002800D12075F92018
:10B61000032E31D86B46D8702368012259786368AD
:10B6200018786B460333FFF7C1F800284DD16B46FD
:10B63000FA20D9788000013102F020FEA37A80B28E
:10B64000E0814008002B14D001ADBB2821D9012393
:10B6500001222B70E37A93420BD023680122997860
:10B66000636818782B00FFF7A1F8002801D12B7828
:10B67000E372002002B070BDFA23311C9B009E4291
:10B680000FD8FA2089B2800002F0F8FD0138C0B26C
:10B69000C0E761280ED829281AD9032303222B706A
:10B6A000D8E7FA20191C89B2800002F0E7FD0138C2
:10B6B000C0B2AFE7022302222B70CBE72A708BE7E0
:10B6C000C0B2FFF725FE0020D4E701204042D1E7B9
:10B6D000132805D8092807D9052305222B70B9E7B7
:10B6E000042304222B70B5E7062306222B70B1E752
:10B6F00070200020F0B54746242380B4304D82B03E
:10B70000EB5C0024002B2BD1AC7A002C54D00133FD
:10B71000984304402F7C2C74041B621E9441060045
:10B720006442002821D12A7D002A30D06A7C002A78
:10B7300016D107326A4413702B689046597C6B68A7
:10B74000187813000122FFF731F8002808D143468A
:10B750001B786B74002E03D0FFF72CFD002827D137
:10B76000200002B004BC9046F0BD6A7C002AF3D1F0
:10B7700007226A4413702B689046597C6B681878CE
:10B7800013000122FFF712F80028E0D0E4E76B462F
:10B79000DA712B680122597C6B6818786B46073385
:10B7A000FFF704F80028DBD16B46DB796B74D7E731
:10B7B00001242F746442D3E701246442D0E7C046D9
:10B7C00070200020F0B54F4646467023C0B40500F7
:10B7D00083B0034069D06B469E1D01233370484CF3
:10B7E00001222368597D636818783300FEF7DEFF75
:10B7F000002800D07EE040223378307093432373DA
:10B800002A4266D03A2084463738814601383823A8
:10B81000392201213B278046A80604D443463A003A
:10B82000337049466346E80601D4130031702A0795
:10B8300000D4337023680122997D6368187833003F
:10B84000FEF7B4FF002855D108232A009A4320D0E0
:10B850002323E35C002B1CD06B46D871A37C802291
:10B86000002B03D06A460223D37182222223E35C99
:10B87000002B01D06B46DA7123680122D97D636801
:10B8800018786B460733FEF791FF002801D1232378
:10B89000E05400233220A5722375FCF70DFD002033
:10B8A00003B00CBC90469946F0BD00281ED16B46F3
:10B8B0004027134C9E1D23683770597D6368012211
:10B8C00018783300FEF772FF002813D13378BB439A
:10B8D00023733E2004238446373881460138337071
:10B8E0003D22383305213F27804695E76A46961D5D
:10B8F000337074E700230120A3724042D0E7C046B2
:10B9000070200020802370B5774C84B002AD2B707E
:10B9100023680122597D636818782B00FEF746FFE3
:10B92000061E00D0C2E06420FCF7C6FC23682E701F
:10B93000597D6368012218782B00FEF737FF002835
:10B9400000D0B3E070232B7023680122D97E636896
:10B9500018782B00FEF72AFF002800D0B5E02368F6
:10B960000622597E636818782B00FEF7BFFE002878
:10B9700000D09BE004216B7901269B001940022333
:10B98000EA78520013406A780B433240134300D1E7
:10B9900082E0D9B2012B03D0022900D098E0002325
:10B9A000E37400232B7023680122D97E6368187822
:10B9B0002B00FEF7FBFE051E00D086E00122FF23D0
:10B9C0005242A37223726372E372E2812274A374FF
:10B9D0002332FE3BA35423732233E0546075207559
:10B9E0002000163A16300021FCF712FC2423E554FF
:10B9F0000133E554A37AE584002B57D06B46DD1D57
:10BA000018232B70237A032B0FD0236801229979F6
:10BA1000636818782B00FEF7C9FE002846D12B7802
:10BA2000DB082372A37A002B40D000232B70637AAB
:10BA3000002B0FD023680122D979636818782B0076
:10BA4000FEF7B4FE002831D12B78DB086372A37AAD
:10BA5000002B2BD005232B70E37A052B0BD023680A
:10BA600001229978636818782B00FEF79FFE002862
:10BA70001CD12B78E372FA208000FFF787FD0028A5
:10BA800014D10020FFF736FE041E0FD10020FFF76F
:10BA900099FE200004B070BD23680122D978636844
:10BAA00018782B00FEF722FE002802D00124644201
:10BAB000EFE70F222B78134010D0042B00D06EE755
:10BAC0000A4805F04BFAE6746BE703246442E0E7AA
:10BAD0000124074805F042FA6442DAE701240548E8
:10BAE00005F03CFA6442D4E770200020A420020054
:10BAF0002C20020054200200F0B544465F46564612
:10BB00004D4698462423F0B4954C91B004900B9187
:10BB1000E35C002B00D01BE142461370A37A002B9C
:10BB200000D115E1237C002B00D111E15A0600D58C
:10BB3000BCE000220392029206329146043A9346F8
:10BB4000924606329446043A0A92099206320892C4
:10BB500007920692063A0592002206270626082535
:10BB60000820022101929A0610D55A4603925246A5
:10BB700002920A9AE1469346099A2F009246089A41
:10BB8000060094460191079D06980599DA0607D5A7
:10BB90005A4603925246E1462F0006000292019156
:10BBA0001B0703D4039B029F9946019E23680DAD9A
:10BBB000197B6368022218782B00FEF797FD002896
:10BBC00000D0C5E02B786A781B021A439246BA422D
:10BBD00000D286E0626853885B089A450ED92368D4
:10BBE0001078D97C01222B00FEF780FD002800D0C0
:10BBF000AEE02B78DB0600D5ADE0626823681078F4
:10BC0000597B32002B00FEF771FD8346002800D0DF
:10BC10009EE04946504602F031FB1A9B01381870ED
:10BC20005A4643461A70002E02D0237C1B076CD460
:10BC300005239A46013B99469B46023B01939C464D
:10BC40000326012200210023BB424AD0237C580650
:10BC500014D56B5CAA5C1B021343049A1380434601
:10BC60001A784023134342461370BC4539D04846E6
:10BC70003200DC465646237C01990190980632D466
:10BC8000DB062ED56B5CAA5C1B021343049A0020D2
:10BC9000938043461A78102313434246137011B021
:10BCA0003CBC90469946A246AB46F0BD02220392A8
:10BCB000029206329146043A9346924606329446E0
:10BCC000043A0A9209920632089207920692063ABC
:10BCD0000592043A082708260A250A200421019221
:10BCE00041E70020DBE76B5CAA5C1B021343049A6C
:10BCF000538043461A782023134342461370BC45B1
:10BD0000EFD0237C32000199BAE72B786A780B993F
:10BD10001B0213430B80AB78EA781B0213434B8062
:10BD20002B796A791B0213438B8043461A780823C8
:10BD30001343424613700B239A46013B99469B4698
:10BD4000023B01939C46092607220621023B7BE722
:10BD500001204042A3E7FFF72DFA022040429EE770
:10BD600070200020F0B54F4646462423C0B4284C2E
:10BD700083B0E35C070089469046002B3BD0A37A52
:10BD8000002B38D0236801AE197B63680222187833
:10BD90003300FEF7ABFC00282DD1357873782D02E7
:10BDA0001D43BD422AD3606843885B089D420CD97D
:10BDB00023680078D97C01223300FEF797FC002825
:10BDC00019D13378DB061DD460682368FAB2597B39
:10BDD00000784B46FEF78AFC00280CD13900280079
:10BDE00002F0C2F9434601381870002003B00CBCC1
:10BDF00090469946F0BD01204042F7E7434618704F
:10BE00000138F3E7FFF7D6F902204042EEE7C046DB
:10BE10007020002070B50D0082B0161E20D0124C8C
:10BE2000A37A002B1CD0020A01AB1A70C0B2626860
:10BE3000587040185189884212DC21681078C97EF8
:10BE40000222FEF7B3FC00280AD12368EAB2197E69
:10BE5000636818783300FEF7A9FC404202B070BD59
:10BE600001204042FAE7C04670200020F0B5564657
:10BE70005F464D464446F0B48BB003932523514EA4
:10BE800001910292F35C8246002B75D1002973D098
:10BE9000002800D194E00400102800DD75E0A3B272
:10BEA0009B46B37A002B67D0002305AF70683B70C8
:10BEB0007B7043899C425FDC019B0025984638E0FB
:10BEC00033681078D97E02223B00FEF76FFC002811
:10BED00052D133684A46197E7368187806ABFEF76C
:10BEE00005FC002848D1220006A9404605F01EF8AE
:10BEF00000284CD15D44ADB2AA454BD953465C1BDA
:10BF0000102C00DD1024A3B29B46019B9846A84448
:10BF10004346002B30D0B37A002B2DD02B0A3B7038
:10BF20007068EBB222047B70120CD31842899342E2
:10BF300022DC33680078D97E02223B00FEF736FC13
:10BF4000002819D1E3B2994633684A46197E7368CE
:10BF500018784346FEF72AFC00280DD1B37A002B4F
:10BF60000AD02B0A3B707268EBB27B702404240C5D
:10BF700051891B198B42A3DD012040420BB03CBC10
:10BF800090469946A246AB46F0BD102487E70220B2
:10BF90004042F3E7029A130A3B7033687A70597F84
:10BFA0007368022218783B00FEF700FC0028E3D1FA
:10BFB00025230122F2546B469B890020F384DDE7A0
:10BFC00005AFE8E770200020242330B55A4C83B039
:10BFD000E35C834276D0002800D17AE02522A25C7F
:10BFE000002A00D19EE0002B00D06EE0A27A002A49
:10BFF00000D19AE06A46D51D2B7023680122597C36
:10C00000636818782B00FEF7D1FB002801D12B784C
:10C010006374A37C002B36D02368012219796368EE
:10C0200018782B00FEF762FB00282CD1A37ADB07DF
:10C0300000D56FE020222B7893432B7023680122D8
:10C040001979636818782B00FEF7B0FB00281AD125
:10C050000330FCF731F92223E35C3022002B01D0BE
:10C06000802380322B702323E35C002B00D02A70C6
:10C0700023680122D97D636818782B00FEF796FBB0
:10C08000002800D1A074E08CFFF780FA6B460022F4
:10C0900006331A706268232110780122FEF786FBAE
:10C0A00024230122E254223B2B702368597C6368CD
:10C0B00018782B00FEF77AFB002801D12B786374E7
:10C0C000FFF778F8002003B030BD6B46DD1D00237C
:10C0D00092E7002B22D1A27A002A29D06A46D51DE8
:10C0E0002B7023680122597C636818782B00FEF7B7
:10C0F0005DFB002801D12B786374237C01222B7017
:10C100006368232118782B00FEF750FB00222423BC
:10C11000E254D5E720232A7813438EE76B46DD1DD2
:10C120002870DEE701204042CDE76B46DD1D70E759
:10C130006B46DD1DE1E7C04670200020802210B56F
:10C14000C823D20002490348FFF790FE10BDC04645
:10C150003C210200F60B0000F0B5404C87B002AF66
:10C16000050003AE21000322380004F0EEFE211D7D
:10C170000322300004F0E9FE21000322083104A864
:10C1800004F0E3FE210003220C3105A804F0DDFEDB
:10C19000032108006A466C4628403B5C1370EA089D
:10C1A0000A40BB5CB25C6370AB090B40F95CF35CAA
:10C1B000A170315C01AC2170627003216A4628488D
:10C1C000A370FFF727FE002845D122000321254850
:10C1D000FFF720FE00283ED1032204A9684604F0A0
:10C1E000B4FE032205A9200004F0AFFE6B0708D5BA
:10C1F0006A460123694612781A430A70227813436B
:10C200002370AB0608D56A460123694652781A4363
:10C210004A70627813436370EB0512D488206A4633
:10C220000321C000FFF7F6FD002814D122000321EE
:10C230000D48FFF7EFFD00280DD10C4B1D8107B015
:10C24000F0BD6A460123694692781A438A70A27843
:10C250001343A370E2E701204042F0E7F020020020
:10C26000260400002A04000031040000842100207C
:10C2700010B5144986B004000C22103103A804F054
:10C2800064FEC82C1AD82100C82001F0F7FF01383D
:10C2900080B201AA030A507002210B481370FFF705
:10C2A000B9FD00280AD103AA0C210848FFF7B2FD06
:10C2B000002803D1064B9C8106B010BD01204042EE
:10C2C000FAE7C046F020020016020000C10A000092
:10C2D00084210020F0B5050083B043076BD0C8234C
:10C2E000DB00994267D8080002F0B4FF4D4902F024
:10C2F000E3FA6B46DC1C071C2000FFF7E5F8237807
:10C30000042B00D17DE033D9082B6AD0102B52D1F9
:10C310008A21381CC90502F099FC02F03FF9424914
:10C3200086B2381C02F092FC02F038F980B201ACFF
:10C33000330A2370030A6670A370E070EB0729D4F8
:10C34000AB073CD400206B0737D5EE20220002213A
:10C350004000FFF75FFD00282DD16B462D309A1D60
:10C360000221FF30FFF756FD431E9841404224E072
:10C37000022B20D18D21381CC90502F067FC02F088
:10C380000DF92A4986B2381C02F060FC02F006F969
:10C3900080B2CCE7EA20220002214000FFF73AFDFC
:10C3A000002808D16B4625309A1D0221FF30FFF787
:10C3B00031FD0028C4D00120404203B0F0BDEC2084
:10C3C000220002214000FFF725FD0028F3D16B4633
:10C3D00029309A1D0221FF30FFF71CFD0028B1D043
:10C3E000E9E78B21381CC90502F030FC02F0D6F8D1
:10C3F0000F4986B2381C02F029FC02F0CFF880B257
:10C4000095E78C21381CC90502F020FC02F0C6F823
:10C41000084986B2381C02F019FC02F0BFF880B25D
:10C4200085E7C046000048430000C0440000404685
:10C43000000040450000C045F0B54E464546574611
:10C44000E0B486B0924B03AC0600220004216820C1
:10C450000393FFF7DFFC4022A32332402370904672
:10C4600000D10DE11D3363700833A370063BE37008
:10C47000C0277F00374000D1FDE0C423237108337B
:10C480006371063BA371A32322000A218148E37153
:10C4900023726372FFF7BEFC0323334099464A467A
:10C4A0002023002A00D1B833220001217A482370CA
:10C4B0006D46FFF7AFFC09227849B30600D4D8E0F7
:10C4C0001C31280004F041FD97202A000921C000FA
:10C4D000FFF7A0FC002F09D0F30500D5D4E0704B86
:10C4E0000393220004216F48FFF794FCF30700D464
:10C4F000B6E08B20F8232200012100012370FFF712
:10C5000089FCFA210720FFF7E5FEA4203F232A003B
:10C51000012140002B70FFF77DFC002350209A463C
:10C520002A000121FF302B70FFF774FC5346EF20E7
:10C530002B7014232A00022140006B70FFF76AFC65
:10C540005346ED202B7064232A00022140006B70BB
:10C55000FFF760FC53462B708E23AE206B706B335D
:10C56000AB702A00693B04214000EB70FFF752FCDE
:10C570005346AD202B7008232A00022140006B7027
:10C58000FFF748FC5346AC202B7002232A000221FF
:10C5900040006B70FFF73EFCB307DB0FD83322007F
:10C5A000012141482370FFF735FC730752D53F4BFB
:10C5B00000932A0004213E48FFF72CFCFEF7FAFD09
:10C5C000F30641D53B4B00932A0004213A48FFF77C
:10C5D00021FCFEF7EFFD0823384C33436381FEF75F
:10C5E000E9FD4346002B22D10A20434684460C3005
:10C5F00082461038A3731422042310211A25804682
:10C60000002F04D043462A00A373514663461420EA
:10C61000304201D01300A1734A46002A00D0A37310
:10C62000002006B01CBC90469946A246F0BD1020E2
:10C63000062384460C3082461038A3731A22043332
:10C64000162120258046DBE70422A3212800FBF7E2
:10C65000DFFDB9E704228B212800FBF7D9FDA8E70D
:10C660008B20D8232200012100012370FFF7D2FB89
:10C6700092E7283125E7A32323716371A37102E7B1
:10C680006370A370E370F3E60D4B039329E7C04694
:10C6900002CAE309A70A0000B60A0000F02002005F
:10C6A000B080B490A20A00003D070000C0C2C4C61A
:10C6B000980A0000202830389E0A000084210020BB
:10C6C000B28BB69BF0B544465F4656464D460023B6
:10C6D000F0B491B014001A9A070013807B4B88467F
:10C6E000987B1B9A08A9FFF73DFB061E00D0E4E0EB
:10C6F0001422764B5B891A4200D07DE0022500228D
:10C70000AC46013D062404210320A94692469346E7
:10C710000C320792013A0692013A0592013A0492CC
:10C72000013A0392013A0292013A0192013A0092CF
:10C730005D0630D5524608ADAA5CA3461202924669
:10C740002A004D46525D55461543424615806546C2
:10C7500008AA525D079C1202944608AA105C624621
:10C76000104342465080009808AA515C125C0902AE
:10C770001143424691801A9A0498118808220A436C
:10C780001A990A80069A05990092039A9446029A89
:10C790009146019A9246C0256D002B4222D0554603
:10C7A00008AA525D4D461202904608AA525D4546BF
:10C7B00015433D80654608AA525DA3461202944681
:10C7C00008AA105C62461043788008AA0098515C61
:10C7D000125C09020A43BA801A9A118870220A432D
:10C7E0001A990A809B074BD1300011B03CBC90468F
:10C7F0009946A246AB46F0BD089A11BA099A216043
:10C8000010BA0A9A606012BA9246A2600B9A00149B
:10C8100012BAE2600C1451466443091440431214E6
:10C8200049435243201840188018F12212069446BA
:10C83000802260449204904242D880211A9A490092
:10C84000128816240A431A9913200A80102293464C
:10C850000C320792013A0692013A0592013A04928B
:10C86000013A0392013A0292013A0192013A00928E
:10C87000033A9446013A9146013A1421924657E709
:10C8800008AB9C465C4664446378E778DA070BD5CE
:10C890000E4A1268002A07D007200100FB08394021
:10C8A00018400131904763781B079DD5074B5B68A3
:10C8B000002B99D0B809984796E70126764293E76E
:10C8C000FEF778FC1A9B1E80013E8DE78421002034
:10C8D0000023F0B5C356002B36DD30220023202480
:10C8E0000821282610259446382703228256002A3C
:10C8F00018DD062141560022002902DD134398B2BB
:10C90000F0BD00293AD10721415640320029F5DC1B
:10C9100051D10821415640320029EFDC59D1E022A3
:10C920005200EBE7002A27D1042282560B00002A8E
:10C93000DFDC3ED1052282562B00002AD9DC3B00E9
:10C94000002AD6D06346D4E7002B0CD10123C3566E
:10C95000002B16DD3122012321240921292611254E
:10C9600094463927C1E73422042324240C212C26A1
:10C97000142594463C27B8E72300BAE780225200EA
:10C98000BCE7002B0CD10223C356002B16DD32224C
:10C99000022322240A212A26122594463A27A4E7B4
:10C9A0003522052325240D212D26152594463D27C6
:10C9B0009BE733009DE7A02252009FE7002B0BD19D
:10C9C0003722072327240F212F26172594463F2798
:10C9D0008BE70132FF3291E73622062326240E210F
:10C9E0002E26162594463E277FE7C046F0B55F46C3
:10C9F00056464D464446F0B4724B91B004AA944654
:10CA000001930E23634400930CAA00230AA908A8EB
:10CA1000FFF758FE40B2002800D0CBE00C9802F09F
:10CA2000D1FBC221890502F011F9041C0D9802F016
:10CA3000C9FBC221890502F009F980460E9802F06F
:10CA4000C1FBC221890502F001F981460F9802F06D
:10CA5000B9FBC221890502F0F9F8211C051C201C34
:10CA600002F0F4F84146071C404602F0EFF8494650
:10CA70008246484602F0EAF8291C0290281C02F07F
:10CA8000E5F85146061C381C02F0F4F9029902F050
:10CA9000F1F9311C039601F099FD04F0CFF90490EF
:10CAA0000591291C484602F0D1F841468346201CD6
:10CAB00002F0CCF8011C584601F088FD04F0BEF9E4
:10CAC00002000B0002F004FC049A059B00F0AAFD92
:10CAD00000223D4B03F04CFB04F038F93B4B291C82
:10CAE0001880404602F0B2F849468346201C02F006
:10CAF000ADF8011C584602F0BDF904F09FF9C023BF
:10CB000000221B0603F034FB00F02AFD80268B4632
:10CB1000844636065E44604600222B4B310003F00B
:10CB200027FB04F013F92A4B51461880381C01F0FA
:10CB30004DFD029902F09EF9039902F09BF904F071
:10CB40007DF906000F004046494602F07FF8291C97
:10CB50008046201C02F07AF8011C404601F036FDA8
:10CB600004F06CF902000B0002F0B2FB32003B0053
:10CB700000F058FD0022144B03F0FAFA04F0E6F836
:10CB8000144B188004AB1A8B134B1A8004AB5A8BCE
:10CB9000124B1A8004AB9A8B114B1A8004AB1A8A81
:10CBA000104B1A8004AB5A8A0F4B1A8004AB9A8A36
:10CBB0000E4B1A8011B03CBC90469946A246AB463B
:10CBC000F0BDC046D8210020005FC4406022002094
:10CBD0006C220020D6210020F8220020D421002041
:10CBE000DA210020E0230020FA2200206C2400201B
:10CBF00000B5154B89B000930F2306A96B440022A2
:10CC000004A8FEF779FF41B2002919D16B461A8BAF
:10CC10000E4B1A806B465A8B0D4B1A806B469A8BC3
:10CC20000C4B1A806B461A8A0B4B1A806B465A8A39
:10CC30000A4B1A806B469A8A094B1A8009B000BDCC
:10CC4000084804F08BF9F9E7D8210020F8220020E9
:10CC5000D4210020DA210020E0230020FA22002045
:10CC60006C240020342D020070B5050082B0002035
:10CC70000E00FEF747FE0100324804F06FF97820FD
:10CC8000FEF7A0FD0100304804F068F97820FEF7B7
:10CC900031FD01002D4804F061F9002D22D16B46D1
:10CCA000DC1D0122DD711A2123006820FDF77EFDC5
:10CCB0000100274804F052F9FA203100400101F048
:10CCC000DDFA013820701921230001226820FDF7C8
:10CCD0006DFD01001F4804F041F940221E4B1A600F
:10CCE00002B070BDFFF72AFA01001C4804F036F9C3
:10CCF0001B48FFF7EDFDFFF72FFA0100194804F07C
:10CD00002DF97220FF30FFF797FB0100164804F061
:10CD100025F96420FFF7ACFA0100144804F01EF96D
:10CD20000120FFF751F90100114804F017F90A201A
:10CD3000FEF7F0FB01000F4804F010F90A20FBF7A2
:10CD4000BBFACAE7542D02006C2D0200842D0200AC
:10CD50002C2E0200442E020000E100E09C2D020077
:10CD60009C200020B42D0200CC2D0200E42D0200F6
:10CD7000FC2D0200142E020010B50B0001000B4820
:10CD800004F0ECF88021A123A022FA20C900DB00E6
:10CD9000D205D150C000FBF78FFABFF34F8F044A82
:10CDA000044BDA60BFF34F8FFEE7C0465C2E0200F3
:10CDB0000400FA0500ED00E080218023184A890272
:10CDC000D1508022D221174B520289005A5040394B
:10CDD0005A5001222F205A600138C046C046C04632
:10CDE000C046C046C046C046C046C046C046C04613
:10CDF000C046F1D19A6000230B4A2F2013600138FE
:10CE0000C046C046C046C046C046C046C046C046F2
:10CE1000C046C046C046C046F1D1044A13707047B0
:10CE200000E100E00010014094210020B421002026
:10CE3000A021F0B5002347462C4A490080B4535046
:10CE40000431535004315350043153504C39535032
:10CE500004315350264B1B68002B37D02549002640
:10CE600052582549254F0C68141B00222402240A1D
:10CE7000904602E0002D1AD02B001A68A24216D864
:10CE8000A41AB6181A7CDD69002AF3D042469969C3
:10CE90001A745A693B68002B1BD010009847002871
:10CEA000E8D000220021FFF767FF002DE4D1144BEA
:10CEB00014491A780B789A420ED0134A9B009E5060
:10CEC00080218023114A49035B00D15004BC904665
:10CED000F0BD08009047CDE70132D3B2022B01D05C
:10CEE0000B70EAE700230B70E7E7C0460010014033
:10CEF0009821002004050000942100209C2100209E
:10CF0000A8210020A9210020AC21002000E100E0A0
:10CF1000F0B55F4656464D464446F0B4C54BC64A4A
:10CF20001B68C6498BB0059309781378994200D1E4
:10CF300057E10133DBB2022B00D100231370C04A4A
:10CF40009B009B58BB4A9A46059B53441B021B0AF5
:10CF5000136001230193BB4B00241B689B46BA4B13
:10CF60005A461B78914619000393B84B88461B68B4
:10CF700047460493AF4B013F1B680793B44B1B78A4
:10CF8000099300239C4606930893FBB26646984695
:10CF9000FF2B32D04346D800049B9C4613006044CC
:10CFA0000178457800961A00A9421FD046684A00C9
:10CFB000B446521886780131D200C9B262448E421A
:10CFC00000D1EDE01678022E00D1C7E0032EEAD1A1
:10CFD000002BE8D01C74DB69002BFBD101334578B2
:10CFE0000093002399461A00A942DFD14746013F2A
:10CFF000FBB2009E9846FF2BCCD1089BC8460292FC
:10D00000B446002B00D0F0E0069B002B02D0894BE9
:10D01000079A1A606346002B02D04246894B1A6079
:10D02000019B002B00D02DE15B46029A00259B1A44
:10D030005A1E9341DBB205937E4B00271B68029971
:10D040009C46804B1B689B46814B1B7806930023B4
:10D050000193804B994601230093039B013BDBB274
:10D060000393FF2B00D1F9E0049ADB0092460E00F7
:10D070009A44002D28D06A68A9682C00ED6963469F
:10D08000D31A1B021B0A4B4552D86A4612785B180A
:10D0900023606760A7602274E761002E58D0316872
:10D0A0003000994205D3B9E01168994200D3A3E05A
:10D0B0001000C2695B1A002AF6D1E26132002360D7
:10D0C000C4611600002DD6D153461A785B78310022
:10D0D0009342C2D0514649685300884651469B1836
:10D0E0000132D2B20A708978DB004344914200D108
:10D0F0009DE0197832000129E3D15C68227C9046DA
:10D10000414632000029DCD19A686260D968A1608A
:10D110001869E0605B69A361069B002BAFD04346B2
:10D12000002263606346D31A1B021B0A4B45ACD92D
:10D1300063469A1A1202120A8A4264D28B1A6A460B
:10D14000127823606760A7602274E761002EA6D181
:10D1500022000123A34601931600B3E75668002B73
:10D1600030D09E421ED0009A1F00944602E09642A4
:10D1700006D01700FA69002AF9D16246009212E738
:10D1800065460095BA420FD01568D269FA61002A47
:10D1900016D013689C466544156045784B4602E7F7
:10D1A00000210FE71A001F00DE69002E0CD00125B8
:10D1B00000951568D269B1463300FA61002AE8D1BA
:10D1C0004578F0E60023EEE60125234B9D600095AF
:10D1D0000695002500230795013599460895099580
:10D1E000D2E700239A460193B5E66A4624215218F5
:10D1F000174B12781A7007E7C91A1160E2612360B1
:10D200003200C4615DE76B461B7827606760A760EA
:10D210002374E761002E9BD000233168CB1A336062
:10D2200022000123E661A346019316004AE7524615
:10D2300015705EE794210020A8210020A92100207C
:10D24000AC21002098210020A0210020A421002052
:10D25000AA210020FEFF7F0000100140019B002B4F
:10D2600000D09DE0029B994236D1059B002B33D123
:10D270000023534A13700BB03CBC90469946A2461B
:10D28000AB46F0BD4F4B002418680025029B0021DF
:10D290000026574615E01A68BA4200D984E0D868DB
:10D2A000BF1A89181E60DC69002807D0DD611D00E7
:10D2B000059A986052181202120A5A602300200040
:10D2C000019C002BE7D1002C01D03E4B18600023BD
:10D2D000029301330593AFE6002900D15DE00B68AE
:10D2E00039489846394B3A4DC4583A4B2E781B680A
:10D2F000E11A0902090A0331002E2DD042468A4262
:10D3000000D20A00A820D21812022F49130AC00026
:10D310002E4D0B504A591B1B121B1202120A1B02E4
:10D3200003321B0A9A42A3D94B590B502F200138C4
:10D33000C046C046C046C046C046C046C046C046BD
:10D34000C046C046C046C046F1D180218023224A53
:10D3500089025B00D1508BE78026D1277602BF007F
:10D36000C651403FC651C02280271B4EBF0252000B
:10D37000B7503760012606602F200138C046C046EE
:10D38000C046C046C046C046C046C046C046C0466D
:10D39000C046C046F1D12E70B0E7FFF70DFD67E73C
:10D3A0005A46084B1A605DE7BA46002C01D0054981
:10D3B00008605146521A1A600293012305933BE616
:10D3C000AA2100209821002000100140040500003F
:10D3D000B42100209421002000E100E051DF7047DB
:10D3E00061DF7047F0B557464E464546E0B4344BD2
:10D3F000344E1D6899466B425D41334BEDB21C685B
:10D40000984663425C4182B0E4B2304FB246002D90
:10D4100013D0002C40D13C68338801A920000B8038
:10D42000FFF7DEFF052837D000282AD00022002190
:10D43000FFF7A2FC0024002DEBD101A8FFF7CEFFDF
:10D4400005280DD0002822D000220021FFF794FCEF
:10D45000002C27D0012401A8FFF7C0FF0528F1D137
:10D46000002C19D153466A461B8801A99380174B9B
:10D470001C682000FFF7B4FF05280DD00125002807
:10D48000D4D1434620001B6898470024D3E74B467D
:10D4900001981B689847DBE702B01CBC9046994690
:10D4A000A246F0BD6A46074B01A91B889380074B33
:10D4B0001C682000FFF794FF0528B5D10124CAE7B6
:10D4C000BC210020B6210020C0210020B82100206E
:10D4D00010B50A4B1B68002B08D09847002800D1D4
:10D4E00010BD00220021FFF747FCF9E7044B1B7831
:10D4F000002BF5D0FFF776FFF2E7C046C4210020ED
:10D50000B521002003210A4802680A430260094845
:10D5100002680A4302600849084A094B9B1A03DD66
:10D52000043BC858D050FBDC0648804706480047FB
:10D530002405004054050040B430020000200020C3
:10D54000B02000202582010021810100FEE7FEE7D6
:10D55000FEE7FEE7FEE7FEE749004B0819007047CB
:10D56000F0B546464F46C0B48DB004000D0000F043
:10D57000BDF8284B060098461B780F005BB20133BC
:10D5800032D022002B002000290003F0BFFB81468F
:10D59000002829D120002900FFF7DEFF00221E4BC2
:10D5A00000F082FF00281FD0012302931B4B1C4870
:10D5B00003934B46069407950A930494059500F04F
:10D5C000CDFD43461B78089009915BB2022B12D027
:10D5D00002A800F0C1FD00280DD00A9B0193002B8A
:10D5E00011D10898099901E0300039000DB00CBC48
:10D5F00090469946F0BD03F093FC212303600A9BFB
:10D600000193002BEDD003F08BFC0A9B0193036088
:10D61000E7E7C046A52000200000F03F842E02006E
:10D620002820020010B500F047FA10BDF0B54646BC
:10D630004F46C0B48DB004000D0000F0F9FA294B3C
:10D64000009001911B785BB29846013312D0220002
:10D650002B002000290003F059FB8146002809D146
:10D660000026002732003B002000290000F008FFC0
:10D67000002806D1009801990DB00CBC904699463F
:10D68000F0BD01230293184B0694079503934B4674
:10D690000A93434604940595002B15D03B003200B5
:10D6A0003000390002F040F9434608900991022BFE
:10D6B0000CD103F035FC212303600A9B0093002B5F
:10D6C0000AD108980999D7E70896099702A800F0A7
:10D6D00043FD0028F1D1ECE703F022FC0A9B009304
:10D6E0000360EEE7A52000208C2E0200F0B557461F
:10D6F0004E464B005B089A46C0B4CD4B87B006003F
:10D700000F0089469A4512DDCA4B5344034322D089
:10D7100002000B0002F0A6FF0B00020002F004F969
:10D720000300180007B00CBC91469A46F0BDC24BEE
:10D730009A4524DCC14B9A4500DD0CE1C04AC14B3F
:10D7400001F0C6FD0022C04B00F0AEFE002816D04E
:10D7500033003900E5E7BD4ABD4B02F009FDBD4A83
:10D7600004000D00BC4B3000390002F001FD0B003D
:10D7700002002900200001F0ABFD0300D1E73000DA
:10D780003900FFF7E9FE02000B000020AE4902F06D
:10D7900069FF0022B14B02F0EBFC04000D00B04A1F
:10D7A000B04B02F0E5FCB04AB04B01F091FD220015
:10D7B0002B0002F0DDFCAE4AAE4B02F053FF22001C
:10D7C0002B0002F0D5FCAC4AAC4B01F081FD2200ED
:10D7D0002B0002F0CDFCAA4AAA4B02F043FF220024
:10D7E0002B0002F0C5FCA84AA84B01F071FD2200F5
:10D7F0002B0002F0BDFCA64A02900391A54B20002D
:10D80000290002F0B5FCA44AA44B02F02BFF220031
:10D810002B0002F0ADFCA24AA24B01F059FD220000
:10D820002B0002F0A5FCA04AA04B02F01BFF220037
:10D830002B0002F09DFC844B002201F049FD049076
:10D8400005912000290000F0F3F9994B06000F0024
:10D850009A4563DC0B000298039900220092019321
:10D86000049A059B02F060F83200029003913B009D
:10D870003000390001F02CFD02000B0002980399E2
:10D8800002F076FC029003910098019902000B00CF
:10D8900002F06EFC02000B002000290002F0E2FE04
:10D8A000009A019B04000D003000390001F010FDCA
:10D8B00002000B002000290002F036F802000B00E5
:10D8C00001F006FD02000B006248634902F0CAFE47
:10D8D00002000B000298039902F0C4FE04000D0040
:10D8E0000098019902000B0001F0F2FC02000B000D
:10D8F0005648704902F0B6FE02000B0020002900D5
:10D9000002F0B0FE02000B0050486A4902F0AAFE85
:10D910004B46002B00DC84E0030002E7049A059BE1
:10D920000298039902F000F832003B0002F020FC5C
:10D9300032003B0001F0CCFC02000B0001F0C8FCFF
:10D94000444A454B02F08EFE02000B003F4840491E
:10D9500002F088FEDCE702000B0002F009FC040084
:10D960000D003F4A3F4B02F003FC3F4A3F4B01F0A2
:10D97000AFFC22002B0002F0FBFB3D4A3D4B02F0C6
:10D9800071FE22002B0002F0F3FB3B4A3B4B01F0FF
:10D990009FFC22002B0002F0EBFB394A394B02F0CE
:10D9A00061FE22002B0002F0E3FB374A374B01F007
:10D9B0008FFC22002B0002F0DBFB354A0090019126
:10D9C000344B2000290002F0D3FB334A334B02F0E2
:10D9D00049FE22002B0002F0CBFB314A314B01F013
:10D9E00077FC22002B0002F0C3FB2F4A2F4B02F0E2
:10D9F00039FE22002B0002F0BBFB0022124B01F08B
:10DA000067FC02000B000098019901F08DFF3200C5
:10DA10003B0002F0ADFB3B00320001F059FC03007B
:10DA20007FE68022120694460300614479E6C046F0
:10DA3000FFFFEF3F000010C0FFFFDF3FFFFF3F3E53
:10DA40009C7500883CE4377E0000F03F182D44545C
:10DA5000FB21F93F075C143326A6913C0000E03F10
:10DA600009F7FD0DE13D023F88B20175E0EF493F46
:10DA70003B8F68B52882A43F5544880E55C1C93FE5
:10DA80007D6FEB0312D6D43F555555555555C53FBF
:10DA900082922EB1C5B8B33F59018D1B6C06E63F8B
:10DAA000C88A599CE52A00404B2D8A1C273A03401E
:10DAB0003233EF3FFB21E93FF8B515004F464646AC
:10DAC0005A001C006B42C0B42B434B4F5208DB0F73
:10DAD00088461343BB423AD84B005B0899464E46F2
