:020000021000EC
:108000000040002085CF0100CDCF0100CFCF01007F
:108010000000000000000000000000000000000060
:10802000000000000000000000000000D1CF0100AF
:108030000000000000000000D3CF0100D5CF0100F8
:10804000D7CF0100D7CF01002D9F0100BDA20100B5
:10805000D7CF010000000000359B0100C5A301003F
:10806000D7CF0100B19D01003D9C0100D7CF010099
:10807000D7CF0100D7CF0100D7CF0100D7CF010064
:10808000D7CF0100B1C80100D7CF0100D7CF010081
:1080900091C90100D7CF010051CF0100D7CF010016
:1080A000D7CF0100D7CF0100000000000000000082
:1080B00000000000000000000000000000000000C0
:1080C00010B5064C2378002B07D1054B002B02D0AE
:1080D000044800E000BF0123237010BDB020002041
:1080E000000000008C2B0200084B10B5002B03D0C1
:1080F0000749084800E000BF07480368002B00D18B
:1081000010BD064B002BFBD09847F9E7000000009C
:10811000B42000208C2B0200B020002000000000C2
:10812000164B002B00D1144B9D46402292029A1A06
:10813000924600218B460F461348144A121A00F04B
:1081400067F80F4B002B00D098470E4B002B00D048
:1081500098470020002104000D000D48002802D09F
:108160000C4800E000BF00F02DF82000290000F0CE
:10817000C1F800F011F8C0460000080000400020DF
:108180000000000000000000B020002004250020B6
:108190000000000000000000084B10B50400002B98
:1081A00002D0002100E000BF054B1868836A002B55
:1081B00000D09847200000F033F8C04600000000CF
:1081C000741902000E4B70B500251E000D4CE41A08
:1081D000A410A54204D0AB00F35898470135F8E746
:1081E00009F0BAFB084B00251E00084CE41AA41045
:1081F000A54204D0AB00F35898470135F8E770BDAD
:10820000A8200020A8200020A8200020AC200020CA
:1082100003008218934202D019700133FAE77047C5
:10822000FEE7C0461D4B1B78012B00D070471C4B4E
:108230001B681B07FAD1F0221A4B1B68134018D198
:10824000194B1B6813421CD0154B1B681B07EDD143
:10825000F022144B1B681340402BE7D1124B1B68D4
:108260001342E3D1C12380220121DB00D205D1508A
:10827000DCE7102B01D0302BEAD10B4B1B681342EB
:10828000E6D10A4A0A4B1A6080220A4B12021A608F
:10829000024B1B78012BD7D0C8E7C046E00F00F097
:1082A000E40F00F0E80F00F0EC0F00F0DFFF07C074
:1082B00004050040186C004082B00190019B002B27
:1082C00014D0019B0A48013B01930138C046C046C7
:1082D000C046C046C046C046C046C046C046C0466E
:1082E000C046C046F1D1019B002BEAD102B07047D5
:1082F000E703000010B501F0D3FE01F0CDFB01F063
:1083000035FC02F071F802F00FF86421012004F04E
:10831000EBF902F051F902F053FB00F0E3FC0748DF
:1083200008F0B2FB6420FFF7C7FFBFF34F8F044A8A
:10833000044BDA60BFF34F8FFEE7C04678190200A6
:108340000400FA0500ED00E030B50224C8224378AD
:1083500004575DB2E1B25A40002D00DA7DE0C82238
:108360005B00DBB24A40002C00DA7EE0C822490004
:108370005CB2C9B25A40002C00DA7FE0C8245B002E
:10838000DAB24BB24C40002B00DA80E0C82349003F
:1083900054B2C9B25340002C00DA81E0C823520025
:1083A0004CB2D2B24B40002C00DA82E0C824490023
:1083B000CBB251B25440002900DA83E0C824520005
:1083C00059B2D2B25C40002900DA84E0C8245B00D4
:1083D00051B2DBB25440002900DA85E0C8245200D3
:1083E00059B2D2B25C40002900DA86E0C8245B00B2
:1083F00051B2DBB25440002900DA87E0C8245200B1
:1084000059B2D2B25C40002900DA88E0C8245B008F
:1084100051B2DBB25440002900DA89E0C82452008E
:1084200059B2D2B25C40002900DA8AE0C8215B0070
:1084300054B2DBB25140002C00DA8BE0C8215CB2B0
:10844000D2B25940002C00DA8CE00F2152005B06BA
:108450008A431B0F1343C37030BD131CC8225B003B
:10846000DBB24A40002C00DB80E7111CC822490027
:108470005CB2C9B25A40002C00DB7FE7C824131C51
:108480005B00DAB24BB24C40002B00DB7EE7C82326
:10849000211C490054B2C9B25340002C00DB7DE7D7
:1084A0001A1CC82352004CB2D2B24B40002C00DB45
:1084B0007CE7C824191C4900CBB251B254400029B2
:1084C00000DB7BE7221CC824520059B2D2B25C40C8
:1084D000002900DB7AE7231CC8245B0051B2DBB221
:1084E0005440002900DB79E7221CC824520059B20D
:1084F000D2B25C40002900DB78E7231CC8245B0073
:1085000051B2DBB25440002900DB77E7221CC824BB
:10851000520059B2D2B25C40002900DB76E7231C3E
:10852000C8245B0051B2DBB25440002900DB75E780
:10853000221CC824520059B2D2B25C40002900DB90
:1085400074E7C821231C5B0054B2DBB25140002CFD
:1085500000DB73E70A1CC8215CB2D2B25940002C80
:1085600000DB72E70B1C70E7C82110B5030A020C90
:10857000DBB282B000905CB250B2C2B25940002C63
:1085800000DA83E0C8215B00DBB25140002800DA4A
:1085900084E0C821520058B2D2B25940002800DA13
:1085A00085E0C8215B0050B2DBB25140002800DA00
:1085B00086E0C820520059B2D2B25840002900DAF1
:1085C00087E0C8205B0051B2DBB25040002900DADE
:1085D00088E0C820520059B2D2B25840002900DACF
:1085E00089E0C8205B0051B2DBB25040002900DABC
:1085F0008AE0C820520059B2D2B25840002900DAAD
:108600008BE0C8205B0051B2DBB25040002900DA99
:108610008CE0C820520059B2D2B25840002900DA8A
:108620008DE0C8205B0051B2DBB25040002900DA77
:108630008EE0C820520059B2D2B25840002900DA68
:108640008FE0C8205B0051B2DBB25040002900DA55
:1086500090E0C821520058B2D2B25940002800DA46
:1086600091E0C82150B2DBB25140002800DA92E01C
:108670000F215B0052068B43120F13436A46D078DA
:10868000DBB2C01A431E984102B010BD0B1CC821BA
:108690005B00DBB25140002800DB7AE70A1CC821EE
:1086A000520058B2D2B25940002800DB79E70B1CC7
:1086B000C8215B0050B2DBB25140002800DB78E7F4
:1086C000C8200A1C520059B2D2B25840002900DB1F
:1086D00077E7031CC8205B0051B2DBB25040002991
:1086E00000DB76E7021CC820520059B2D2B25840D3
:1086F000002900DB75E7031CC8205B0051B2DBB228
:108700005040002900DB74E7021CC820520059B217
:10871000D2B25840002900DB73E7031CC8205B007D
:1087200051B2DBB25040002900DB72E7021CC820C6
:10873000520059B2D2B25840002900DB71E7031C45
:10874000C8205B0051B2DBB25040002900DB70E76B
:10875000021CC820520059B2D2B25840002900DB96
:108760006FE7031CC8205B0051B2DBB25040002908
:1087700000DB6EE7C821021C520058B2D2B2594049
:10878000002800DB6DE70B1CC82150B2DBB2514062
:10879000002800DB6CE70A1C6AE7C0460E4AA820E6
:1087A0000623D15EFA239B009C460C4B6144C0001B
:1087B00019500820115E0A48614419500A20115EC0
:1087C000604661306144FF3019500C21525E05490A
:1087D00062445A507047C0467C23002000900040FD
:1087E000440500004C0500000A0010B5C117D3175E
:1087F00005F0E8FB8904800B084310BD8003704737
:10880000C3179B049B0C1818801300B27047C04616
:10881000F8B55F4656464D464446F0B4334B9B464A
:108820000020185EFFF7EAFF314D324B68609A4630
:108830000020185EFFF7E2FF2F4BE860994600200A
:10884000185EFFF7DBFF2D4B68610020185EFFF715
:10885000D5FF2B4BE8610020185EFFF7CFFF294BB7
:1088600068620020185EFFF7C9FF3023264F984644
:108870003E00E862A84469682448FFF7B5FF29680C
:1088800004002248FFF7B0FF316824182048FFF7A2
:10889000ABFF6B68201A2B600835706030600836BB
:1088A0004545E8D17868FFF7ABFF5B461880F8686C
:1088B000FFF7A6FF534618807869FFF7A1FF4B46E4
:1088C0001880F869FFF79CFF0C4B1880786AFFF757
:1088D00097FF0B4B1880F86AFFF792FF094B18803F
:1088E0003CBC90469946A246AB46F8BDD823002032
:1088F000CC200020F22200206C240020F022002056
:10890000CC210020D2210020FC200020BF08000044
:1089100081D1FFFF002310B5314C6363A363E36390
:1089200001F094FA002853D101F014F9002807D07F
:108930002C4B1B78002B46D103F098FD01F010F969
:1089400072B6294BE28B1B889B1AA386274B228C7D
:108950001B889B1AE386264B628C1B889B1A2387F5
:10896000244BA28C1B889B1A6387234BE28C1B88A9
:108970009B1AA387214B228D1B889B1AE387204BD0
:10898000628D1B889B1A4022A3521E4BA28D1B880E
:108990009B1A4222A3521C4BE28D1B889B1A442235
:1089A000A35262B6C823194A5B0012889A4209D8BA
:1089B0002378202B06D0292301222370283B6380B3
:1089C000134B1A7010BD03F053FEFFF721FFB5E7FC
:1089D00001F0ECFC0120FFF76FFC01F03DFAA3E78A
:1089E0007C23002032210020D8230020F222002006
:1089F0006C240020F0220020CC210020D221002075
:108A00005822002064220020CE210020F4220020E1
:108A10002E21002010B501F019FA002810D1C8232A
:108A20000B4A5B0012889A4209D80A4B1A78202A0E
:108A300005D029221A70283A5A80074B1A7010BDA7
:108A400001F0B4FC0120FFF737FC01F005FAE6E77E
:108A5000F42200207C2300202E21002010B582B0BB
:108A60006A46FA2368461370E73B5370FFF76CFCC5
:108A70006A46F52313710199009800F03BFE4020EF
:108A800001F0F0F901F0D2F900F08AFA164C2078E2
:108A900001F0E8F9154B0020185E00F077FA062384
:108AA000E05E00F073FA0823E05E00F06FFA0A233C
:108AB000E05E00F06BFA0C23E05E00F067FA4C23F6
:108AC000E05E00F063FA4E23E05E00F05FFA5023B0
:108AD000E05E00F05BFA064B187801F0C3F9452020
:108AE00001F0C0F902B010BD7C230020F422002068
:108AF0003221002010B5124B1A78002A0FD0114AEB
:108B00001278002A07D110490978002904D10F4BA7
:108B10001A78002A0BD110BD1A7000F047F90B4BE0
:108B20001A78002AF7D0074A1278002AF3D1084AA7
:108B30001278002AEFD11A70FFF790FFEBE7C046DA
:108B40002F2100202E210020332100202D21002064
:108B500030210020F8B54F464646C0B41E0081467D
:108B60004D002818801B170007F084FE00225A4B86
:108B700007F05CF805F06AFA4B46584C7F008046D7
:108B80002060D81B801907F075FE0022524B07F0B9
:108B90004DF805F05BFA4B465D1B6060A81B07F0C3
:108BA00069FE00224C4B07F041F805F04FFAA06037
:108BB00038004844801907F05DFE0022464B07F05C
:108BC00035F805F043FAE060404607F095FE04F002
:108BD0006DFA07F019FE2060606807F08DFE04F062
:108BE00065FA07F011FE6060A06807F085FE04F0EA
:108BF0005DFA07F009FEA060E06807F07DFE04F072
:108C000055FA07F001FEE06072B62668344BB446B0
:108C10000E215A5E1220195E1425585F6768551898
:108C20002D1A6544BC46256010269D5F511A561BBF
:108C3000361866446660A668091AB4466144A160A5
:108C4000E16852198C4612186244E26062B616213D
:108C50005A5E2568052A3BDDC82D34D36068C828D4
:108C60002CD3A168C82924D3E268C82A1FD396262A
:108C7000B600B54200D9350096262560B600B04250
:108C800000D9300096266060B600B14200D93100AC
:108C90009626A160B600B24200D93200DD80E260C3
:108CA000188159819A810CBC90469946F8BDC8221A
:108CB000DDE7E268C821C82AD9D2F8E7A168C82050
:108CC000C829D1D2F5E76068C825C828C9D2F5E718
:108CD0006068A168E268CAE70000D03F7024002005
:108CE0007C230020202370B52B4C2C4A23700023BA
:108CF00013602B4A202613600022A3806380E38147
:108D000023826382A382E38223836383A383E38337
:108D1000238463842363234B1A7001F067FC0423CC
:108D2000E25E214D002A1DD11621635E62800A2B6E
:108D30000ADD2378202B2AD0292B23D01621635E2D
:108D4000267062800A2BF4DC2378203BDBB2092BEF
:108D5000EAD89B00EB589F4600F094FB0423E25EA8
:108D6000002AE1D070BD00F0DFFA0423E25ED9E70B
:108D700000F070FA0423E25ED4E700F005FA042361
:108D8000E25ECFE700F086F90423E25ECAE700F076
:108D900019F90423E25EC5E77C230020DC230020D0
:108DA000602200202E2100208819020070B501F0F9
:108DB0003DF8154B154C1A78206022719A8E144D8F
:108DC000E283DA8E286822841A8F62845A8FA28402
:108DD0009A8FE2840200DB8F383223850D4B9A4252
:108DE00009D83822210001F04FFC002802D02B685E
:108DF00038332B6070BD01F0F9FB0023064A2B606D
:108E000013600020EDE7C0467C2300208024002072
:108E1000DC230020FFFF010060220020F0B5564B4C
:108E200083B01B78202B21D06A46FA231370AA3B0B
:108E3000537068464F3B9370FFF786FA6A46F523F6
:108E40001078137101F00EF86B46587801F00AF8AB
:108E50006B46987801F006F86B46D87801F002F876
:108E60006B46187900F0FEFF03B0F0BD6A46DA33B6
:108E70001370CA3B5370684602339370FFF764FA6D
:108E80006A46F5231078137100F0ECFF6B465878B2
:108E900000F0E8FF6B46987800F0E4FF6B46D87866
:108EA00000F0E0FF6B46187900F0DCFF334C344EE5
:108EB000344F02E00A20FFF7FFF938222100306822
:108EC00001F006FD0028CFD0902000F0CBFF2568F0
:108ED000E8B200F0C7FF2812C0B200F0C3FF2814A8
:108EE000C0B200F0BFFF280E00F0BCFF207900F0F8
:108EF000B9FF1E23E55EE8B22D1200F0B3FFE8B221
:108F000000F0B0FF2023E55EE8B22D1200F0AAFFCA
:108F1000E8B200F0A7FF2223E55EE8B22D1200F0D0
:108F2000A1FFE8B200F09EFF2423E55EE8B22D1217
:108F300000F098FFE8B200F095FF2623E55EE8B266
:108F40002D1200F08FFFE8B200F08CFF2823E55EC1
:108F5000E8B22D1200F086FFE8B200F083FF952002
:108F600000F080FF33683A68383333609342A1D30E
:108F70000022054B1A7077E77C230020B8240020DC
:108F800060220020DC2300203021002010B50400E6
:108F9000C0B2241200F066FFE0B200F063FF10BD23
:108FA00010B50400C0B200F05DFF2012C0B200F0A6
:108FB00059FF2014C0B200F055FF200E00F052FF00
:108FC00010BDC046F0B5474600232B4C80B42B4D56
:108FD0002B4E2C4FE38123826382A382E38223837F
:108FE0006383A3830222A35E002B24D10422A35E09
:108FF000002B20D12A78002A2ED02B703378002B1A
:1090000036D1FFF707FDFFF775FD3B78002B15D133
:109010001D4B98461B78002B22D01C4B1B78002B35
:10902000E0D01B4B1B78002BDCD1FFF7F7FE0222B0
:10903000A35E002BDAD004BC9046F0BD124B9846DC
:109040001B78002BE9D1FA210020490003F04CFBEA
:10905000012342461370E0E70120FFF72DF9C1E735
:109060006421012003F040FB012342461370D4E742
:109070000123A380DFE7C0467C2300202C210020B1
:109080002E210020322100206420002030210020E9
:109090002D210020A023802110B5374ADB059A58E6
:1090A000C90352025AD4A122D2009950334C06224D
:1090B000A35E002B02D1A368002B52D0C8235B0013
:1090C000E38023816381A381FFF768FB2C48FFF7CE
:1090D000F3F824E0A268002A2CD10C21625E002A59
:1090E0002CD0E3800821635E0021092B01DD0A3BBF
:1090F00019B221810A21635E0021092B01DD0A3B9F
:1091000019B261810023092A01DD0A3A13B2A38151
:10911000FFF744FBFFF7EEFCFA20FFF7CDF806223D
:10912000A35E002BD6D0092B04DD0A3B1BB20C2119
:10913000625ED6E70C23E25E0023D2E7A021203353
:10914000237001320C4B6280C905CB589B0D1A422B
:109150000CD080220B4BD203CA5010BD094A995043
:10916000A4E70C22A35E002BAED0A7E78022A123A8
:10917000D203DB00CA50F0E7040500007C23002086
:10918000881300000C050000F0B54F4646466423E6
:10919000C0B42A4C2A4E2B4D2B4F83B0E3820222BF
:1091A000A35E002B39D10422A35E002B35D1336896
:1091B000022B3BD02B78002B34D03B78002B31D1C5
:1091C0002B7072B621481622A35E58431A23E15E23
:1091D00080461823E25E1C20235E9C4662B616235E
:1091E000E356042B25DD1A4B49B252B2994660462C
:1091F00059435A436B46D871D8794B4640B24343E2
:109200004046FFF7A7FCFFF7C9FAFFF703FCFFF79B
:1092100071FC0222A35E002BC5D003B00CBC9046AB
:109220009946F0BD0120FFF747F8B8E7013B3360EE
:10923000C0E7002300220021E2E7C0467C23002093
:10924000682000202C2100202E2100207017000013
:10925000B80B0000F0B54F46464602224C23C0B47E
:109260002B4C2C4DE2520633013AE2522A4E123375
:109270002A4F83B0E3820222A35E002B13D1042283
:10928000A35E002B0FD12B68022B11D03378002B5B
:1092900002D03B78002B0ED00120FFF70DF8022200
:1092A000A35E002BEBD003B00CBC90469946F0BDFA
:1092B000013B2B60EAE73370FFF72CFB72B61622F6
:1092C000A35E98461C22A35E994662B642460023DE
:1092D0000A2A10DD3823E05E182104F00FFD6A46EB
:1092E0004B46D371D37900B25BB2C01A4C23E35E14
:1092F0000B4A4343534342460A480021504300224D
:10930000FFF728FCFFF74AFAFFF7F4FBB3E7C04684
:109310007C230020682000202C2100202E2100200A
:10932000EE02000070170000F0B544465F464D465F
:1093300056466423F0B44E4C4E4DE3824E4B4F4F95
:10934000984685B00222A35E002B14D10422A35EAE
:10935000002B10D12B68022B14D03B78002B03D0AC
:1093600043461B78002B10D00120FEF7A5FF0222F8
:10937000A35E002BEAD005B03CBC90469946A246BD
:10938000AB46F0BD013B2B60E7E73B70FFF7C2FA4D
:1093900072B61622A35E99461823E65E1A22A35ED1
:1093A0009B461C22A35E9A4662B64B460A2B5ADDA8
:1093B0004E230521E05E04F0A1FC03B2019350238B
:1093C000E25E103B0292E05E1E2104F097FC76B252
:1093D000019B00B2361A3421605E06215E4304F020
:1093E0008DFC59466B46D973422349B28B46029A8B
:1093F00000B2361A5643B0008619E05E1E2104F012
:109400007DFC5946019B00B2081A434306219B4646
:109410003623E05E04F072FC029A00B258445043D6
:109420008300181843009B4618213823E05E04F09F
:1094300065FC6A4653461371137900B25BB2C01AD9
:109440004C23E35E78224343FF32534376004A467F
:109450000B48594650433200FFF77CFBFFF79EF95B
:10946000FFF748FB6EE70022002393460026EEE755
:109470007C230020682000202E2100202C210020A9
:1094800070170000F0B55F4656464D464446A0238F
:109490008021F0B4874ADB059A5885B04904D2018F
:1094A00000D5F6E0A122D200995000F0BFFC824B1B
:1094B000984200D8F5E0814C06E000F04BFB002814
:1094C00011D1013C002C18D000F0C0FC0028F4D0D1
:1094D00000F0A8FF0120FEF7EFFE00F0BDFC00F059
:1094E00039FB0028EDD002F0C1FF013C0120FEF75E
:1094F000E3FE00F035FB002CE6D10023039302933A
:109500000193984699469A4600936D4B0025002694
:1095100000279B460AE000F01DFB00281BD101201C
:10952000FEF7CAFEF423FF339C4253DC00F08EFCAE
:109530000028F0D000F076FF0120FEF7BDFE00F01D
:109540008BFC5B461968039A8C466244039200F0D8
:1095500001FB0028E3D002F089FF0120FEF7ACFEFA
:1095600000F0FEFA574B012000229B5E009A013466
:1095700094469C4463460093534B00229B5EED1837
:10958000524B00229B5EF618514B00229B5EFF1847
:10959000504B00229B5E98444F4B00229B5E9944A7
:1095A0004E4B00229B5E9A444D4B00229B5E019ADB
:1095B00094469C44634601934A4B00229B5E029A68
:1095C00094469C4463460293FEF776FEF423FF33F1
:1095D0009C42ABDD5146AA460D00FA214A4643465D
:1095E00049000098B846B1461F00160004F086FBFB
:1095F000FA213D4C4900E083504604F07FFBFA21FC
:1096000020844900484604F079FBFA21608449002F
:10961000404604F073FBFA21A0844900380004F0AE
:109620006DFBFA21E0844900300004F067FBFA2169
:1096300020854900280004F061FBFA21608549007B
:10964000019804F05BFBFA21A0854900029804F020
:1096500055FBFA21E0854900039804F04FFB0125F2
:1096600020232063012023706580FEF725FEA022C1
:109670008021104BD205D35849041B0E1D4214D033
:109680001A4BD15005B03CBC90469946A246AB4619
:10969000F0BD164A995000F0C9FB074B984200D91B
:1096A00009E71348FEF708FE05E7A123DB00D150C8
:1096B000E8E7C04604050000FF2C3101C4090000A2
:1096C00068220020D8230020F22200206C240020F1
:1096D000F0220020CC210020D2210020582200209E
:1096E00064220020CE2100207C2300200C050000F5
:1096F000204E000000B583B00090C0B2019100F090
:10970000B1FB6B46587800F0ADFB6B46987800F0E3
:10971000A9FB6B46D87800F0A5FB6B46187900F0E2
:10972000A1FB03B000BDC04600B583B06A46FA2372
:10973000907013706846AA3B5370FEF705FE03B0A5
:1097400000BDC04600B5294B83B01A78824205D0CF
:10975000202A05D0292844D0202818D003B000BDE5
:109760002038C0B2092831D8214A800012589746C3
:1097700025221A70243A5A806A46FA231370AA3BAB
:109780005370002368469370FEF7DEFDE6E706217E
:109790005A5E002AE2D19A68002ADFD10C215A5E73
:1097A000002ADBD120221A701F3A5A80E4E72422D3
:1097B0001A70233A5A80DFE723221A70223A5A801D
:1097C000DAE722221A70213A5A80D5E76A46FA234C
:1097D0001370AA3B53704F3B93706846FEF7B4FD7D
:1097E000BCE7012218705A80C6E7C0467C230020DF
:1097F000B019020070B59E4E030C5DB2337884B090
:10980000040A00900191E4B2202B29D0282C17D013
:10981000FEF7AAFE002819D1302C17D8954BA400CA
:109820001B599F46322D00D1D9E0332D00D108E1DC
:10983000312D05D13378202B02D101228E4B1A70A5
:1098400004B070BDFEF790FE002815D0FA2302A8E0
:109850000370AA3B43704F3B8370FEF775FDEFE743
:10986000282CEFD0012CEBD1FEF77EFE0028EDD1A5
:10987000E8B2FFF767FFE3E70123804A11784B4026
:1098800013707F4B1870DBE7EBB2012B00D194E033
:10989000002BDBD1338A013B1BB21A007F3201DA85
:1098A0007F235B42338231E0EBB2012B00D18DE0AC
:1098B000002BCBD1F389013B1BB21A007F3201DAB6
:1098C0007F235B42F38121E0EBB2012B00D1A7E0C3
:1098D000002BBBD1738A013B1BB21A007F3201DA25
:1098E0007F235B42738211E0EBB2012B00D186E053
:1098F000002BABD1B38A013B1BB21A007F3201DAD5
:109900007F235B42B38201E0EBB23383FA2302A8E8
:109910000370AA3B437000238370FEF715FD8FE7A9
:10992000EBB27383F2E7EBB2B383EFE77F235B1B0A
:10993000F382EBE7EBB2012B00D17AE0002B85D16B
:109940004C21725A013A12B2002A0DDB7252DDE745
:10995000EBB2012B5CD0002B00D077E74E21725A7E
:10996000013A12B2002AF1DA7352CFE7EBB2012BBF
:109970001AD0002B00D069E75021725A013A12B276
:10998000002AF1DB7252C1E73E4B1A78002A08D157
:1099900001321A703C4BF28A1B6873655823F252ED
:1099A0004EE700221A704BE75022B35A01331BB224
:1099B000322B00DD3223B352A8E7338A01331BB2C6
:1099C000802B00DC6EE7802333829FE7F38901332D
:1099D0001BB2802B00DC75E78023F38196E7012121
:1099E000A0222A4BD2051970294BD3581B0F1942BC
:1099F00036D18021A1234905DB00D15020E7B38A6D
:109A000001331BB2802B00DC7CE78023B3827DE72F
:109A10004E22B35A01331BB2322BCCDD3223CAE7BC
:109A2000738A01331BB2802B00DC5BE780237382D7
:109A30006CE74C22B35A01331BB2322BBBDD32230D
:109A4000B9E70022114B80211A70A023104ADB05D0
:109A50009A584905D20008D4A122D2009950EFE6C5
:109A600080210C4B4905D150EAE60A4A9950E7E6B5
:109A70007C230020D8190200302100203221002050
:109A800064200020312100206822002033210020A2
:109A9000040500000C050000A02300211C4ADB0582
:109AA00010B59950A2211B4A1B48C9005050C12132
:109AB000012089005050C022402418485200845090
:109AC0004458174A2240C02424042243425003220F
:109AD00014495A5014495A5014495A5014495A506A
:109AE0001C395A5008315A5010315A5008315A50C6
:109AF000A1228021D200C9039950802149049950A4
:109B00008021490599508021C905995010BDC04652
:109B100014070000006000400105020000E100E0C1
:109B2000FFFF00FF540700005C070000640700000F
:109B3000740700008023054A5B00D158002904D037
:109B40000021D1500122024B1A7070470060004082
:109B500034210020014B18787047C0463421002082
:109B60000022014B1A70704734210020F0B547469F
:109B7000002380B4A227254AFF001360244AA826A8
:109B80001370244A0433D3519C46C1239B0098464A
:109B9000E0234146A924DB025350604601211E4BBD
:109BA000F60093511D4D1E4BE40053511D4B1351B4
:109BB0001D4BD160D851F02740463F031F50E43081
:109BC000985158511851194CC0251851D96011603D
:109BD0001960C221164B4D3C6D00FF3C5C51890061
:109BE0005858144A0240C0200004024380208000DC
:109BF0005A5058515D58104A2A40C0252D022A4318
:109C00005A501C60186004BC9046F0BD40210020F2
:109C10003C21002000A00040C409000044050000D1
:109C200050C30000FFFF0000009000404C05000002
:109C300000E100E0FFFF00FFFF00FFFFA02370B581
:109C4000494A5B00D358002B4BD00121474A137877
:109C5000194266D001210133DBB21370444A1378F4
:109C6000194267D00133DBB2424D13702C78C82102
:109C7000200004F03FF8C9B200295FD00134E4B2FB
:109C8000A8213D4801268446374B2C70C9005A58FC
:109C9000A02462445A50394AA125D6608022E405A6
:109CA000ED009203625180221204625180229204DC
:109CB0006251802292056251A022002152009950E7
:109CC0002F4B64311868421C1A6004F013F8002905
:109CD00007D12C4BE3589B0F1E4240D18023DB055C
:109CE0006351A222204B5200995800290AD0264CD9
:109CF0002648A44619586144195001202449087087
:109D000000219950A423184A5B00D158002907D09C
:109D1000204C2148A4460168614401600021D150D3
:109D200070BD1E4B1970012301211370104A137866
:109D3000194297D11A4B1970012395E70121194B4C
:109D40001970194B1A68002A02D11960012497E78B
:109D50000124012A00D093E701321A6090E78022A3
:109D6000124BD205E250BCE700A000403D2100208C
:109D70003F2100203E210020C40900000090004047
:109D8000382100200405000050C3000044050000F5
:109D90003C210020FFFF0000402100202C2100205A
:109DA0002F2100202D210020682000200C0500001C
:109DB000A02310B51B4A5B00D158002907D080248E
:109DC000A0201949A403C00544500021D150A2236A
:109DD000144A5B00D158002907D08024A0201249E2
:109DE0002404C00544500021D150A4230D4A5B0037
:109DF000D158002907D08024A0200B49A404C00515
:109E000044500021D150A623064A5B00D1580029B6
:109E100007D08024A0200449A405C0054450002197
:109E2000D15010BD009000400C0500000122044BF1
:109E3000DA64044A9858044B1B68C0187047C0463F
:109E400000A000404C05000040210020014B187884
:109E50007047C0463C2100200022014B1A70704719
:109E60003C21002010B5802304240A4AD4500A4B18
:109E70001A78002A08D000221A70084B084AD050DD
:109E80000422044B1A6010BD0100064800F062F97C
:109E9000F6E7C04600E100E06C2000201C05000051
:109EA000002000406C220020F0B55F4656464D462B
:109EB0004446F0B483B00192002A24DD8023994601
:109EC0007C3B9246984600230C008A44124E134D68
:109ED00004279B4609E05B46114A3370114B01345D
:109EE000D15043462B6054450DD04B462178EF505E
:109EF0003378002BEFD10C4800F02CF943460134A5
:109F00002B605445F1D1019803B03CBC9046994672
:109F1000A246AB46F0BDC0466C20002000E100E048
:109F2000002000401C0500006C220020842270B537
:109F30004E4B52009958002934D14D4C8E234B4D35
:109F40005B00EA58002A09D000224A48EA509A3BAE
:109F5000C35C002B45D10122474B1A709222434B20
:109F600052009958002928D18223E35C002B00D1AC
:109F700070BD0025414B20001D6000F0F9F8FA2863
:109F800037D03F4C2368F52847D0012B5DD0022BFA
:109F900060D0032B65D03B4B1A68002A37D00023D2
:109FA0002360E5E700219950A322D2009958304C54
:109FB000C9B2200000F0CEF8C0E7002199509022ED
:109FC000D2009958304806F05FFDA02380212F4A27
:109FD000DB059A58C903520208D4A122D200995035
:109FE000C2E700F0C5F82A4BE850B7E7294A995074
:109FF000BAE7244B1A68012A31D0214C2268002A82
:10A0000005D1254BFA321A7001232360B0E70122F3
:10A0100001201A60FFF788FBC1E7042BBBD11F4B5F
:10A020001D4D1B782871292BB9D06B782978A87819
:10A030001B020B4300041A000300E87813430006D8
:10A040001843F521FFF7D6FBA9E7134B58700223FD
:10A0500023608DE7104B98700323236088E71D6011
:10A06000CBE70D4BD8700423236081E7002000402C
:10A07000D42100206C2200206C20002068200020C9
:10A0800048210020442100209C1A02000405000001
:10A090001C0500000C050000F02400207C2300209B
:10A0A00010B51E4800F04CF81D4800F049F8A023F8
:10A0B000E7220321DB05D2009950E82100220E207F
:10A0C000C9005A50174B1849585018490230585077
:10A0D000174818495850A0200421C0001950842066
:10A0E00040001A5014301A5001329A601A60C2228D
:10A0F0001E38FF3892009850A120043A80009850F2
:10A10000C0230D4A5B00D1507C3014580B4B2340C8
:10A11000C024240423431350116010BDD421002017
:10A120006C220020002000400C05000014050000F7
:10A1300000E0D7012405000000E100E0FFFF00FF80
:10A14000002380227F2183540132815401328354C1
:10A150007047C046812210B57F24835C01332340C1
:10A160008354C1540132835C0133835410BDC04613
:10A17000802110B57F240200435CC05C0133234082
:10A1800053540231535C013B535410BDF0B5574654
:10A190004E4645468446E0B489469A460120002A48
:10A1A0003BD0B12300276146244E254D254CDB00D2
:10A1B0002F702770F1504946234BF15080218900C0
:10A1C0007750B06029780029FCD000212970012A3D
:10A1D0002ED08021012519488900455001211748BA
:10A1E00089460160802189008846FF39A325FF390F
:10A1F000534600268C46ED0021780029FCD02670BD
:10A200004159013AD2B21970012A0BD04946016274
:10A21000002A01D00133EFE700201CBC904699468C
:10A22000A246F0BD41466746013347500262E3E76C
:10A2300080210225014889004550CFE700300040C9
:10A240004C2100204D2100201C050000F0B54746A0
:10A2500080B407000120002A27D00025B126A84697
:10A26000134CF6002570134DAF5180274646BF00B2
:10A27000EE51114EA951A86021780029FCD000218F
:10A280000020013A2170D1B201310A4E0A4D59180D
:10A290001A7872512278002AFCD0013320708B4248
:10A2A000F6D101220020034B5A6104BC9046F0BD58
:10A2B0004C210020003000401C050000F8B584232C
:10A2C000144A5B00D158002904D00021D15001224A
:10A2D000114B1A708E230F4A5B00D158002904D00D
:10A2E0000021D15001220D4B1A709225094C6D00AE
:10A2F0006359002B0CD00A4EA759FFF797FD390080
:10A300000200084806F0C0FB0323A3510023635159
:10A31000F8BDC046003000404D2100204C210020F7
:10A32000C4040000B01A0200A023E2211A4ADB058F
:10A33000C90010B55A5008395A500421174B053A34
:10A34000FF3A9950164A023999500022CD20073120
:10A35000FF315A5014315A501249C0045850A120AC
:10A36000C1218000890058500539FF395A50A02278
:10A37000FC39FF39D2009950C023C0240A4A033166
:10A380005B00D1507C30135824061B021B0A234368
:10A390001350116010BDC0460C0600000030004094
:10A3A0000C0500002405000000E100E08022044BC1
:10A3B000D2009A58002A01D101321A607047C04673
:10A3C0000070004080220021054B52009950A122CC
:10A3D000D2009A58D3009B1A024A13807047C04695
:10A3E00000700040F42200200A4B0B490B4AC020A9
:10A3F0009950A0210122C9005A50FD39FF395A5005
:10A40000074A000653581B021B0A0343535080237C
:10A410001360704700700040041000000405000045
:10A4200000E100E0F0B5474680B4584C82B0257892
:10A43000012D23D0002D0DD0022D07D1FFF7F6FC02
:10A44000534B1B68C01A534B984241D802B004BC0E
:10A450009046F0BDB12277214F4BD2009950802217
:10A460007539920099504D4A4631995001229A60AF
:10A470002270FFF7DBFC464B1860E7E7FFF7D6FCDE
:10A48000434E3368C01A434B9842DFD9444F0322EE
:10A490003B0000217720FFF779FE3B7877211A04F3
:10A4A0007B7858201B021343BA7813433D4A13604C
:10A4B000B122394BD200995002228A31FF315A50D1
:10A4C000364958509D602270FFF7B0FC3060BDE700
:10A4D000334D03222B0000217720FFF757FE2B7806
:10A4E00000211A046B781B021343AA782E4D1343E4
:10A4F0002E4A13606A89288912029B1A98461A000C
:10A50000002303F05FFD4E06CB110021C209324348
:10A51000AE88300412184B41009201930021E88864
:10A520004246002303F04EFD0E06020A32436E88B7
:10A530000B12F003002116001F00424636184F414F
:10A540000023A889002103F03DFDFA23DB009C468F
:10A550004902C00D0843164B60441860114B32008D
:10A56000186800213B0003F02DFDCD02420D4B1574
:10A570002A4300980199121A8B4111005B04CA0BFF
:10A580001A430C4B1A60002323705FE74E21002012
:10A59000682100200F270000003000401C0500004B
:10A5A00060210020FC24002050210020F8240020FD
:10A5B0005C2200206822002070B5A024094E0A4DBC
:10A5C0002B00022221007720FFF7E0FD2B786A782C
:10A5D0001B0202341343E4B233800236B02CEFD1B5
:10A5E00070BDC046502100206421002030B50125F7
:10A5F0002048214BA0221860204BD205DB7A84240E
:10A600009D401F4B6400D5500023062203511D4B73
:10A6100083B0C25084210359164A4900002BF9D057
:10A62000A323DB00D358A0200093A123C005DB00A7
:10A63000C550009B01330093114BC550002360208F
:10A640005350104BD0505358002BFCD0A323094A31
:10A65000DB00D358A0220193A123D205DB00D55003
:10A66000019B642001330193FDF726FE012003B016
:10A6700030BDC04600400040782100206C21002001
:10A680000C0500001C050000F0B5564644465F4628
:10A690004D4684460120F0B4874B884C92461C609E
:10A6A000874BA022DB7AD2059840864B8426D05077
:10A6B000002306227600A351834B87B0E250842208
:10A6C00052009346A2597D4B002AF8D0A324E400FF
:10A6D0001A59A1260492A022AF27F600D205905164
:10A6E000049E0136049603AE377067463F0CB846A9
:10A6F000777067463F0AB946B7706746F77000291A
:10A7000000D19EE057466D462F802F880197002F7D
:10A7100000D196E06B4F5D46D051002292465A51CF
:10A7200000940C005A4651469B46A246745C664D06
:10A730005C519C58002CFCD084275C4600257F008F
:10A74000E551009D0131645905940429EED151462B
:10A750004B1C5A4C9A460A785B4B2500E2503C0051
:10A7600084222B59554E5200002BF9D00023B350B0
:10A77000A323DB00F358A0250593A123ED05DB00FF
:10A78000E8504B46FF201B02000203406446FF20B6
:10A7900020401818FF26434636041B0433401B187C
:10A7A00001985446013880B2013084460120824627
:10A7B00044488C448146AF20C9438046CB18424E62
:10A7C00000931420644544D00138C046C046C046BA
:10A7D000C046C046C046C046C046C046C046C04649
:10A7E000C046F1D15146364B4046DB7A99404B4644
:10A7F000E950314B1B68985198580028FCD0002034
:10A8000083465F460930FF301F50A320C000185810
:10A8100005902078985198580028FCD00020834655
:10A820005F460930FF301F50A320C0001B58013481
:10A830000593A123DB00E950009B1919234B994292
:10A84000BFD9002007B03CBC90469946A246AB4613
:10A85000F0BD0138C046C046C046C046C046C046EE
:10A86000C046C046C046C046C046C046F1D10120E1
:10A87000134BA022DB7A04219840124BD205D05012
:10A880000D4B1A68104BD1500531FF315358002B36
:10A89000FCD0842300215B00D150A323DB00D358DC
:10A8A000A0220593A123D205DB00D050059B0120F7
:10A8B00001330593C6E7C0467821002000400040E0
:10A8C0006C2100200C0500001C050000FEFF0100AB
:10A8D000F0B544465F4656464D46F0B483B06C46EC
:10A8E00003232370030C6370030AE070A37092B219
:10A8F0000020002901D0002A06D103B03CBC9046BC
:10A900009946A246AB46F0BD284B294CA0272360B0
:10A91000284CFF05E57AA4460124AC40264D7C5125
:10A920008424640018511800244B00259A46002303
:10A930009846A323DB000700A1469B466B4656467C
:10A940005B5D83510359002BFCD04B464646FE50BD
:10A950005B46FB5801350193042DEFD1174B84243E
:10A96000A32698460027013A95B201350F484D19A4
:10A970006400F6004346C75003590C4A002BFBD035
:10A9800084235B00D75093590B700131A942F1D158
:10A990006346DA7A0123A0219340A122C905D2009F
:10A9A0008B50019B012001330193A6E7004000403A
:10A9B000782100206C2100200C0500001C050000FF
:10A9C000F0B55F4656464D464446F0B489B006ADF4
:10A9D000062200212800FDF71BFC40236B70353B4D
:10A9E000AB70023BEB7009332B71013B6B71894BF0
:10A9F0002900981D06229A4606F03DF8AB780322FE
:10AA000098464146A0230020C131FF31DB05890073
:10AA1000CA50E97884468946C131FF318900CA505D
:10AA2000297944468B46C131FF318900C8506F797E
:10AA3000A12039004E46C131FF318900CA50764904
:10AA4000C0000C50754C0E515E46A04604340E51A9
:10AA500001263400BC401C506F78714C3F060F51EA
:10AA60002F78704D64464F518427543D7F00CC5160
:10AA70004E51E025ED005A516B4D5A518022920102
:10AA80001E501A505246694D2960D27A964042466D
:10AA90009E505022664BCC51CA508422C8595E4BFE
:10AAA00052000028F9D0A321C9005958A0200191D3
:10AAB000A121C005C900465001990127013101912A
:10AAC0005649465000205A4998505F5058508427A4
:10AAD000995851487F000029F9D00023C351A3237E
:10AAE000DB00C35802938422C1594B4B520000290A
:10AAF000F9D0A321C9005958A0200291A121C00575
:10AB0000C900465002990527013102914349465038
:10AB10000020474998505F505850842799583E4824
:10AB20007F000029F9D00023C351A323DB00C358C1
:10AB30008421C259384B4900002AF9D0A322A0270A
:10AB4000A120D2009A58C000FF05D2B23E5000208A
:10AB5000002A06D009B03CBC90469946A246AB46B6
:10AB6000F0BD2E483E5006205A50314A985084205D
:10AB70005F58294A4000002FF9D0A323DB00D358A7
:10AB8000A0210393A123C905DB00CE50039B013311
:10AB90000393224BCE50002360211350244BD150FD
:10ABA00084235B00984613581B4F002BF8D0A32337
:10ABB000DB00FB5864200493A023DB059946A12306
:10ABC0004A46DB00D650049B01330493FDF774FB27
:10ABD00053462F60DA7A0123494693400F4A8B503F
:10ABE000002241467A50124A0339FF39B950424691
:10ABF000B9580029FCD0A3220749D2008A58A021C5
:10AC00000592A122C905D2008B50059B012001337A
:10AC100005939FE76C210020004000400C050000D8
:10AC200024050000540500003407000078210020AE
:10AC30001C05000030B5554C83B0A37A002B00D121
:10AC400097E06B46DD1D00232B7023680122597CA1
:10AC5000636818782B00FFF7F9FA002800D088E025
:10AC6000236801225979636818782B00FFF7EEFA00
:10AC7000002800D07DE023680122197963681878E4
:10AC80002B00FFF7E3FA002800D072E02423E35CF6
:10AC9000002B36D00C232B702368012219796368AE
:10ACA00018782B00FFF7D2FA002862D13230FDF776
:10ACB00003FBC0232B70A37ADB0762D42368012235
:10ACC0001979636818782B00FFF7C0FA002850D173
:10ACD000637C002B58D12B7023680122597C636858
:10ACE00018782B00FFF7B2FA002842D123682870A9
:10ACF00059796368012218782B00FFF7A7FA4042C0
:10AD000035E004232B7023680122197963681878D1
:10AD10002B00FFF79BFA00282BD1A27C4023002AAE
:10AD20002AD02B70236801221979636818782B00C8
:10AD3000FFF78CFA00281CD13230FDF7BDFA637C96
:10AD40005A1E93412B7023680122597C636818783E
:10AD50002B00FFF77BFA00280BD123002268103369
:10AD60005179626810780122FFF770FA404203B00F
:10AD700030BD01204042FAE7A27AD207D1D5203374
:10AD8000CFE7E0232B7099E70223A4E7702000208F
:10AD900070B5060082B0282800D9BBE02323694C97
:10ADA00001ADE35C00282CD1002B18D02870A27CC8
:10ADB0008023002A02D07E3B2B7080332222A25CAB
:10ADC000002A00D08AE023680122D97D63681878C0
:10ADD0002B00FFF73BFA002801D12323E054002386
:10ADE0002B7007336B7023680222597D63681878D3
:10ADF0002B00FFF72BFA002800D08BE0207502B063
:10AE000070BD012B19D030232B70A27C8033002A17
:10AE100002D07E3B2B7080332222A25C002A5BD1C1
:10AE200023680122D97D636818782B00FFF70EFA9A
:10AE3000002802D101222323E25420232B70012E6B
:10AE40006BD0052E59D9142E4AD903236B70A37ADF
:10AE5000002B6FD004236A46D370E37A042B69D0A9
:10AE6000236801229978636818786B460333FFF7EB
:10AE7000EDF9002860D16B460722DB78E3726B782E
:10AE80009B011343DBB26B7023680222597D636818
:10AE900018782B00FFF7DAF900283BD108230122AC
:10AEA000A372207322751C33E35C002B12D1237430
:10AEB000637C002B0ED16B46DA702368597C636883
:10AEC00018786B460333FFF7C1F9002802D16B46AF
:10AED000DB786374002092E72B70A1E72B7072E798
:10AEE00002236B70A37A002B05D005236A46D3702A
:10AEF000E37A052BB4D18723C5E701236B70A37ACE
:10AF0000002B05D006236A46D370E37A062BA7D11F
:10AF10004723B8E70120404271E700236B70A37A12
:10AF2000002B05D006236A46D370E37A062B97D10F
:10AF30000723A8E7C723A6E76B789A0107231343E3
:10AF4000DBB2A0E77020002010B5114A0100537A4F
:10AF5000012B19D0002B13D0022B0AD0032B0CD1BC
:10AF6000102320240370D37C0020002B00D00C7011
:10AF700010BD082310240370F5E701204042F7E7D5
:10AF8000022304240370EEE7042308240370EAE795
:10AF90007020002070B51C4C82B0A37A002B27D003
:10AFA0006B46DD1DBB2816D8612817D902232B70EC
:10AFB000E27A00269A420BD02368012299786368CE
:10AFC00018782B00FFF742F9002811D12B78E37293
:10AFD000300002B070BD01232B70E9E7292804D8A6
:10AFE000132808D904232B70E2E703232B70DFE733
:10AFF00001267642ECE7092802D905232B70D7E712
:10B0000006232B70D4E7C0467020002070B5584C42
:10B0100082B0A37A0600002B00D196E02423E35CE3
:10B02000002B00D091E0227D002A30D0421E272A3A
:10B0300000D885E02322A25C01AD002A18D02B7035
:10B04000A37C8022002B02D0022302322B70222309
:10B05000E35C002B00D071E023680122D97D636896
:10B0600018782B00FFF7F2F8002801D12323E054D1
:10B0700000232B7007336B7023680222597D6368AD
:10B0800018782B00FFF7E2F8002800D12075F9208E
:10B09000032E31D86B46D870236801225978636833
:10B0A00018786B460333FFF7D1F800284DD16B4673
:10B0B000FA20D9788000013102F020FEA37A80B214
:10B0C000E0814008002B14D001ADBB2821D9012319
:10B0D00001222B70E37A93420BD0236801229978E6
:10B0E000636818782B00FFF7B1F8002801D12B789E
:10B0F000E372002002B070BDFA23311C9B009E4217
:10B100000FD8FA2089B2800002F0F8FD0138C0B2F1
:10B11000C0E761280ED829281AD9032303222B70EF
:10B12000D8E7FA20191C89B2800002F0E7FD013847
:10B13000C0B2AFE7022302222B70CBE72A708BE765
:10B14000C0B2FFF725FE0020D4E701204042D1E73E
:10B15000132805D8092807D9052305222B70B9E73C
:10B16000042304222B70B5E7062306222B70B1E7D7
:10B1700070200020F0B54746242380B4304D82B0C3
:10B18000EB5C0024002B2BD1AC7A002C54D0013383
:10B19000984304402F7C2C74041B621E94410600CB
:10B1A0006442002821D12A7D002A30D06A7C002AFE
:10B1B00016D107326A4413702B689046597C6B682D
:10B1C000187813000122FFF741F8002808D1434600
:10B1D0001B786B74002E03D0FFF72CFD002827D1BD
:10B1E000200002B004BC9046F0BD6A7C002AF3D176
:10B1F00007226A4413702B689046597C6B68187854
:10B2000013000122FFF722F80028E0D0E4E76B46A4
:10B21000DA712B680122597C6B6818786B4607330A
:10B22000FFF714F80028DBD16B46DB796B74D7E7A6
:10B2300001242F746442D3E701246442D0E7C0465E
:10B2400070200020F0B54F4646467023C0B405007C
:10B2500083B0034069D06B469E1D01233370484C78
:10B2600001222368597D636818783300FEF7EEFFEA
:10B27000002800D07EE0402233783070934323735F
:10B280002A4266D03A20844637388146013838232E
:10B29000392201213B278046A80604D443463A00C0
:10B2A000337049466346E80601D4130031702A071B
:10B2B00000D4337023680122997D636818783300C5
:10B2C000FEF7C4FF002855D108232A009A4320D056
:10B2D0002323E35C002B1CD06B46D871A37C802217
:10B2E000002B03D06A460223D37182222223E35C1F
:10B2F000002B01D06B46DA7123680122D97D636887
:10B3000018786B460733FEF7A1FF002801D12323ED
:10B31000E05400233220A5722375FCF7CDFF0020F6
:10B3200003B00CBC90469946F0BD00281ED16B4678
:10B330004027134C9E1D23683770597D6368012296
:10B3400018783300FEF782FF002813D13378BB430F
:10B3500023733E20042384463738814601383370F6
:10B360003D22383305213F27804695E76A46961DE2
:10B37000337074E700230120A3724042D0E7C04637
:10B3800070200020802370B5774C84B002AD2B7004
:10B3900023680122597D636818782B00FEF756FF59
:10B3A000061E00D0C2E06420FCF786FF23682E70E2
:10B3B000597D6368012218782B00FEF747FF0028AB
:10B3C00000D0B3E070232B7023680122D97E63681C
:10B3D00018782B00FEF73AFF002800D0B5E023686C
:10B3E0000622597E636818782B00FEF7CFFE0028EE
:10B3F00000D09BE004216B7901269B0019400223B9
:10B40000EA78520013406A780B433240134300D16C
:10B4100082E0D9B2012B03D0022900D098E00023AA
:10B42000E37400232B7023680122D97E63681878A7
:10B430002B00FEF70BFF051E00D086E00122FF2344
:10B440005242A37223726372E372E2812274A37484
:10B450002332FE3BA35423732233E05460752075DE
:10B460002000163A16300021FCF7D2FE2423E554C2
:10B470000133E554A37AE584002B57D06B46DD1DDC
:10B4800018232B70237A032B0FD02368012299797C
:10B49000636818782B00FEF7D9FE002846D12B7878
:10B4A000DB082372A37A002B40D000232B70637A31
:10B4B000002B0FD023680122D979636818782B00FC
:10B4C000FEF7C4FE002831D12B78DB086372A37A23
:10B4D000002B2BD005232B70E37A052B0BD0236890
:10B4E00001229978636818782B00FEF7AFFE0028D8
:10B4F0001CD12B78E372FA208000FFF787FD00282B
:10B5000014D10020FFF736FE041E0FD10020FFF7F4
:10B5100099FE200004B070BD23680122D9786368C9
:10B5200018782B00FEF732FE002802D00124644276
:10B53000EFE70F222B78134010D0042B00D06EE7DA
:10B540000A4805F0A1FAE6746BE703246442E0E7D9
:10B550000124074805F098FA6442DAE70124054817
:10B5600005F092FA6442D4E770200020881B0200A4
:10B57000101B0200381B0200F0B544465F465646D9
:10B580004D4698462423F0B4954C91B004900B910D
:10B59000E35C002B00D01BE142461370A37A002B22
:10B5A00000D115E1237C002B00D111E15A0600D512
:10B5B000BCE000220392029206329146043A93467E
:10B5C000924606329446043A0A920992063208924A
:10B5D00007920692063A05920022062706260825BB
:10B5E0000820022101929A0610D55A46039252462B
:10B5F00002920A9AE1469346099A2F009246089AC7
:10B60000060094460191079D06980599DA0607D52C
:10B610005A4603925246E1462F00060002920191DB
:10B620001B0703D4039B029F9946019E23680DAD1F
:10B63000197B6368022218782B00FEF7A7FD00280B
:10B6400000D0C5E02B786A781B021A439246BA42B2
:10B6500000D286E0626853885B089A450ED9236859
:10B660001078D97C01222B00FEF790FD002800D035
:10B67000AEE02B78DB0600D5ADE062682368107879
:10B68000597B32002B00FEF781FD8346002800D055
:10B690009EE04946504602F031FB1A9B0138187073
:10B6A0005A4643461A70002E02D0237C1B076CD4E6
:10B6B00005239A46013B99469B46023B01939C46D3
:10B6C0000326012200210023BB424AD0237C5806D6
:10B6D00014D56B5CAA5C1B021343049A1380434687
:10B6E0001A784023134342461370BC4539D048466C
:10B6F0003200DC465646237C01990190980632D4EC
:10B70000DB062ED56B5CAA5C1B021343049A002057
:10B71000938043461A78102313434246137011B0A6
:10B720003CBC90469946A246AB46F0BD022203922D
:10B73000029206329146043A934692460632944665
:10B74000043A0A9209920632089207920692063A41
:10B750000592043A082708260A250A2004210192A6
:10B7600041E70020DBE76B5CAA5C1B021343049AF1
:10B77000538043461A782023134342461370BC4536
:10B78000EFD0237C32000199BAE72B786A780B99C5
:10B790001B0213430B80AB78EA781B0213434B80E8
:10B7A0002B796A791B0213438B8043461A7808234E
:10B7B0001343424613700B239A46013B99469B461E
:10B7C000023B01939C46092607220621023B7BE7A8
:10B7D00001204042A3E7FFF72DFA022040429EE7F6
:10B7E00070200020F0B54F4646462423C0B4284CB4
:10B7F00083B0E35C070089469046002B3BD0A37AD8
:10B80000002B38D0236801AE197B636802221878B8
:10B810003300FEF7BBFC00282DD1357873782D025C
:10B820001D43BD422AD3606843885B089D420CD902
:10B8300023680078D97C01223300FEF7A7FC00289A
:10B8400019D13378DB061DD460682368FAB2597BBE
:10B8500000784B46FEF79AFC00280CD139002800EE
:10B8600002F0C2F9434601381870002003B00CBC46
:10B8700090469946F0BD01204042F7E743461870D4
:10B880000138F3E7FFF7D6F902204042EEE7C04661
:10B890007020002070B50D0082B0161E20D0124C12
:10B8A000A37A002B1CD0020A01AB1A70C0B26268E6
:10B8B000587040185189884212DC21681078C97E7E
:10B8C0000222FEF7C3FC00280AD12368EAB2197EDF
:10B8D000636818783300FEF7B9FC404202B070BDCF
:10B8E00001204042FAE7C04670200020F0B55646DD
:10B8F0005F464D464446F0B48BB003932523514E2A
:10B9000001910292F35C8246002B75D1002973D01D
:10B91000002800D194E00400102800DD75E0A3B2F7
:10B920009B46B37A002B67D0002305AF70683B704D
:10B930007B7043899C425FDC019B0025984638E080
:10B9400033681078D97E02223B00FEF77FFC002886
:10B9500052D133684A46197E7368187806ABFEF7F1
:10B9600015FC002848D1220006A9404605F074F8CD
:10B9700000284CD15D44ADB2AA454BD953465C1B5F
:10B98000102C00DD1024A3B29B46019B9846A844CE
:10B990004346002B30D0B37A002B2DD02B0A3B70BE
:10B9A0007068EBB222047B70120CD3184289934268
:10B9B00022DC33680078D97E02223B00FEF746FC89
:10B9C000002819D1E3B2994633684A46197E736854
:10B9D00018784346FEF73AFC00280DD1B37A002BC5
:10B9E0000AD02B0A3B707268EBB27B702404240CE3
:10B9F00051891B198B42A3DD012040420BB03CBC96
:10BA000090469946A246AB46F0BD102487E7022037
:10BA10004042F3E7029A130A3B7033687A70597F09
:10BA20007368022218783B00FEF710FC0028E3D16F
:10BA300025230122F2546B469B890020F384DDE725
:10BA400005AFE8E770200020242330B55A4C83B0BE
:10BA5000E35C834276D0002800D17AE02522A25C04
:10BA6000002A00D19EE0002B00D06EE0A27A002ACE
:10BA700000D19AE06A46D51D2B7023680122597CBB
:10BA8000636818782B00FEF7E1FB002801D12B78C2
:10BA90006374A37C002B36D0236801221979636874
:10BAA00018782B00FEF772FB00282CD1A37ADB0755
:10BAB00000D56FE020222B7893432B70236801225E
:10BAC0001979636818782B00FEF7C0FB00281AD19B
:10BAD0000330FCF7F1FB2223E35C3022002B01D082
:10BAE000802380322B702323E35C002B00D02A704C
:10BAF00023680122D97D636818782B00FEF7A6FB26
:10BB0000002800D1A074E08CFFF780FA6B46002279
:10BB100006331A706268232110780122FEF796FB23
:10BB200024230122E254223B2B702368597C636852
:10BB300018782B00FEF78AFB002801D12B7863745C
:10BB4000FFF778F8002003B030BD6B46DD1D002301
:10BB500092E7002B22D1A27A002A29D06A46D51D6D
:10BB60002B7023680122597C636818782B00FEF73C
:10BB70006DFB002801D12B786374237C01222B708C
:10BB80006368232118782B00FEF760FB0022242332
:10BB9000E254D5E720232A7813438EE76B46DD1D58
:10BBA0002870DEE701204042CDE76B46DD1D70E7DF
:10BBB0006B46DD1DE1E7C04670200020802210B5F5
:10BBC000C823D20002490348FFF790FE10BDC046CB
:10BBD000201C0200F60B0000F0B5404C87B002AF0D
:10BBE000050003AE21000322380004F044FF211DAC
:10BBF0000322300004F03FFF21000322083104A893
:10BC000004F039FF210003220C3105A804F033FFB2
:10BC1000032108006A466C4628403B5C1370EA0822
:10BC20000A40BB5CB25C6370AB090B40F95CF35C2F
:10BC3000A170315C01AC2170627003216A46284812
:10BC4000A370FFF727FE002845D1220003212548D5
:10BC5000FFF720FE00283ED1032204A9684604F025
:10BC60000AFF032205A9200004F005FF6B0708D591
:10BC70006A460123694612781A430A7022781343F0
:10BC80002370AB0608D56A460123694652781A43E9
:10BC90004A70627813436370EB0512D488206A46B9
:10BCA0000321C000FFF7F6FD002814D12200032174
:10BCB0000D48FFF7EFFD00280DD10C4B1D8107B09B
:10BCC000F0BD6A460123694692781A438A70A278C9
:10BCD0001343A370E2E701204042F0E7D41B0200C7
:10BCE000260400002A040000310400007C2100200A
:10BCF00010B5144986B004000C22103103A804F0DA
:10BD0000BAFEC82C1AD82100C82001F0F7FF01386C
:10BD100080B201AA030A507002210B481370FFF78A
:10BD2000B9FD00280AD103AA0C210848FFF7B2FD8B
:10BD3000002803D1064B9C8106B010BD0120404273
:10BD4000FAE7C046D41B020016020000C10A000038
:10BD50007C210020F0B5050083B043076BD0C823D9
:10BD6000DB00994267D8080002F0D2FF4D4902F08B
:10BD700001FB6B46DC1C071C2000FFF7E5F823786D
:10BD8000042B00D17DE033D9082B6AD0102B52D17F
:10BD90008A21381CC90502F0B7FC02F03FF942497C
:10BDA00086B2381C02F0B0FC02F038F980B201AC67
:10BDB000330A2370030A6670A370E070EB0729D47E
:10BDC000AB073CD400206B0737D5EE2022000221C0
:10BDD0004000FFF75FFD00282DD16B462D309A1DE6
:10BDE0000221FF30FFF756FD431E9841404224E0F8
:10BDF000022B20D18D21381CC90502F085FC02F0F0
:10BE00000DF92A4986B2381C02F07EFC02F006F9D0
:10BE100080B2CCE7EA20220002214000FFF73AFD81
:10BE2000002808D16B4625309A1D0221FF30FFF70C
:10BE300031FD0028C4D00120404203B0F0BDEC2009
:10BE4000220002214000FFF725FD0028F3D16B46B8
:10BE500029309A1D0221FF30FFF71CFD0028B1D0C8
:10BE6000E9E78B21381CC90502F04EFC02F0D6F838
:10BE70000F4986B2381C02F047FC02F0CFF880B2BE
:10BE800095E78C21381CC90502F03EFC02F0C6F88B
:10BE9000084986B2381C02F037FC02F0BFF880B2C5
:10BEA00085E7C046000048430000C044000040460B
:10BEB000000040450000C045F0B54E464546574697
:10BEC000E0B486B0924B03AC060022000421682047
:10BED0000393FFF7DFFC4022A323324023709046F8
:10BEE00000D10DE11D3363700833A370063BE3708E
:10BEF000C0277F00374000D1FDE0C4232371083301
:10BF00006371063BA371A32322000A218148E371D8
:10BF100023726372FFF7BEFC0323334099464A46FF
:10BF20002023002A00D1B833220001217A4823704F
:10BF30006D46FFF7AFFC09227849B30600D4D8E07C
:10BF40001C31280004F097FD97202A000921C00029
:10BF5000FFF7A0FC002F09D0F30500D5D4E0704B0B
:10BF60000393220004216F48FFF794FCF30700D4E9
:10BF7000B6E08B20F8232200012100012370FFF797
:10BF800089FCFA210720FFF7E5FEA4203F232A00C1
:10BF9000012140002B70FFF77DFC002350209A46C2
:10BFA0002A000121FF302B70FFF774FC5346EF206D
:10BFB0002B7014232A00022140006B70FFF76AFCEB
:10BFC0005346ED202B7064232A00022140006B7041
:10BFD000FFF760FC53462B708E23AE206B706B33E3
:10BFE000AB702A00693B04214000EB70FFF752FC64
:10BFF0005346AD202B7008232A00022140006B70AD
:10C00000FFF748FC5346AC202B7002232A00022184
:10C0100040006B70FFF73EFCB307DB0FD833220004
:10C02000012141482370FFF735FC730752D53F4B80
:10C0300000932A0004213E48FFF72CFCFEF7FAFD8E
:10C04000F30641D53B4B00932A0004213A48FFF701
:10C0500021FCFEF7EFFD0823384C33436381FEF7E4
:10C06000E9FD4346002B22D10A20434684460C308A
:10C0700082461038A3731422042310211A25804607
:10C08000002F04D043462A00A37351466346142070
:10C09000304201D01300A1734A46002A00D0A37396
:10C0A000002006B01CBC90469946A246F0BD102068
:10C0B000062384460C3082461038A3731A220433B8
:10C0C000162120258046DBE70422A3212800FCF767
:10C0D0009FF8B9E704228B212800FCF799F8A8E71C
:10C0E0008B20D8232200012100012370FFF7D2FB0F
:10C0F00092E7283125E7A32323716371A37102E737
:10C100006370A370E370F3E60D4B039329E7C04619
:10C1100002CAE309A70A0000B60A0000D41B020005
:10C12000B080B490A20A00003D070000C0C2C4C69F
:10C13000980A0000202830389E0A00007C21002048
:10C14000B28BB69BF0B544465F4656464D4600233B
:10C15000F0B491B014001A9A070013807B4B884604
:10C16000987B1B9A08A9FFF73DFB061E00D0E4E070
:10C170001422764B5B891A4200D07DE00225002212
:10C18000AC46013D062404210320A946924693466D
:10C190000C320792013A0692013A0592013A049252
:10C1A000013A0392013A0292013A0192013A009255
:10C1B0005D0630D5524608ADAA5CA34612029246EF
:10C1C0002A004D46525D5546154342461580654648
:10C1D00008AA525D079C1202944608AA105C6246A7
:10C1E000104342465080009808AA515C125C090234
:10C1F0001143424691801A9A0498118808220A43F2
:10C200001A990A80069A05990092039A9446029A0E
:10C210009146019A9246C0256D002B4222D0554688
:10C2200008AA525D4D461202904608AA525D454644
:10C2300015433D80654608AA525DA3461202944606
:10C2400008AA105C62461043788008AA0098515CE6
:10C25000125C09020A43BA801A9A118870220A43B2
:10C260001A990A809B074BD1300011B03CBC904614
:10C270009946A246AB46F0BD089A11BA099A2160C8
:10C2800010BA0A9A606012BA9246A2600B9A001421
:10C2900012BAE2600C14514664430914404312146C
:10C2A00049435243201840188018F1221206944640
:10C2B000802260449204904242D880211A9A490018
:10C2C000128816240A431A9913200A8010229346D2
:10C2D0000C320792013A0692013A0592013A049211
:10C2E000013A0392013A0292013A0192013A009214
:10C2F000033A9446013A9146013A1421924657E78F
:10C3000008AB9C465C4664446378E778DA070BD553
:10C310000E4A1268002A07D007200100FB083940A6
:10C3200018400131904763781B079DD5074B5B6828
:10C33000002B99D0B809984796E70126764293E7F3
:10C34000FEF778FC1A9B1E80013E8DE77C210020C1
:10C350000023F0B5C356002B36DD30220023202405
:10C360000821282610259446382703228256002AC1
:10C3700018DD062141560022002902DD134398B240
:10C38000F0BD00293AD10721415640320029F5DCA1
:10C3900051D10821415640320029EFDC59D1E02229
:10C3A0005200EBE7002A27D1042282560B00002A14
:10C3B000DFDC3ED1052282562B00002AD9DC3B006F
:10C3C000002AD6D06346D4E7002B0CD10123C356F4
:10C3D000002B16DD312201232124092129261125D4
:10C3E00094463927C1E73422042324240C212C2627
:10C3F000142594463C27B8E72300BAE78022520070
:10C40000BCE7002B0CD10223C356002B16DD3222D1
:10C41000022322240A212A26122594463A27A4E739
:10C420003522052325240D212D26152594463D274B
:10C430009BE733009DE7A02252009FE7002B0BD122
:10C440003722072327240F212F26172594463F271D
:10C450008BE70132FF3291E73622062326240E2194
:10C460002E26162594463E277FE7C046F0B55F4648
:10C4700056464D464446F0B4724B91B004AA9446D9
:10C4800001930E23634400930CAA00230AA908A871
:10C49000FFF758FE40B2002800D0CBE00C9802F025
:10C4A000EFFBC221890502F02FF9041C0D9802F060
:10C4B000E7FBC221890502F027F980460E9802F0B9
:10C4C000DFFBC221890502F01FF981460F9802F0B7
:10C4D000D7FBC221890502F017F9211C051C201C7D
:10C4E00002F012F94146071C404602F00DF9494698
:10C4F0008246484602F008F9291C0290281C02F0E6
:10C5000003F95146061C381C02F012FA029902F097
:10C510000FFA311C039601F0B7FD04F025FA0490E0
:10C520000591291C484602F0EFF841468346201C3D
:10C5300002F0EAF8011C584601F0A6FD04F014FAD6
:10C5400002000B0002F022FC049A059B00F0AAFDF9
:10C5500000223D4B03F06AFB04F056F93B4B291CCB
:10C560001880404602F0D0F849468346201C02F06D
:10C57000CBF8011C584602F0DBF904F0F5F9C023B2
:10C5800000221B0603F052FB00F02AFD80268B469A
:10C59000844636065E44604600222B4B310003F091
:10C5A00045FB04F031F92A4B51461880381C01F044
:10C5B0006BFD029902F0BCF9039902F0B9F904F09D
:10C5C000D3F906000F004046494602F09DF8291CA9
:10C5D0008046201C02F098F8011C404601F054FDF2
:10C5E00004F0C2F902000B0002F0D0FB32003B0065
:10C5F00000F058FD0022144B03F018FB04F004F97E
:10C60000144B188004AB1A8B134B1A8004AB5A8B53
:10C61000124B1A8004AB9A8B114B1A8004AB1A8A06
:10C62000104B1A8004AB5A8A0F4B1A8004AB9A8ABB
:10C630000E4B1A8011B03CBC90469946A246AB46C0
:10C64000F0BDC046D0210020005FC4405822002029
:10C6500064220020CE210020F0220020CC210020E6
:10C66000D2210020D8230020F22200206C240020B8
:10C6700000B5154B89B000930F2306A96B44002227
:10C6800004A8FEF779FF41B2002919D16B461A8B35
:10C690000E4B1A806B465A8B0D4B1A806B469A8B49
:10C6A0000C4B1A806B461A8A0B4B1A806B465A8ABF
:10C6B0000A4B1A806B469A8A094B1A8009B000BD52
:10C6C000084804F0E1F9F9E7D0210020F022002029
:10C6D000CC210020D2210020D8230020F2220020EB
:10C6E0006C2400201828020070B5050082B00020DC
:10C6F0000E00FEF747FE0100324804F0C5F978202D
:10C70000FEF7A0FD0100304804F0BEF97820FEF7E6
:10C7100031FD01002D4804F0B7F9002D22D16B4600
:10C72000DC1D0122DD711A2123006820FDF78EFD3A
:10C730000100274804F0A8F9FA203100400101F077
:10C74000DDFA013820701921230001226820FDF74D
:10C750007DFD01001F4804F097F940221E4B1A602E
:10C7600002B070BDFFF72AFA01001C4804F08CF9F2
:10C770001B48FFF7EDFDFFF72FFA0100194804F001
:10C7800083F97220FF30FFF797FB0100164804F091
:10C790007BF96420FFF7ACFA0100144804F074F947
:10C7A0000120FFF751F90100114804F06DF90A204A
:10C7B000FEF7F0FB01000F4804F066F90A20FBF7D2
:10C7C0007BFDCAE7382802005028020068280200D2
:10C7D000102902002829020000E100E08028020060
:10C7E0009C20002098280200B0280200C8280200DF
:10C7F000E0280200F828020010B50B0001000B48E9
:10C8000004F042F98021A123A022FA20C900DB0014
:10C81000D205D150C000FBF74FFDBFF34F8F044A44
:10C82000044BDA60BFF34F8FFEE7C0464029020099
:10C830000400FA0500ED00E080218023184A8902F7
:10C84000D1508022D221174B520289005A504039D0
:10C850005A5001222F205A600138C046C046C046B7
:10C86000C046C046C046C046C046C046C046C04698
:10C87000C046F1D19A6000230B4A2F201360013883
:10C88000C046C046C046C046C046C046C046C04678
:10C89000C046C046C046C046F1D1044A1370704736
:10C8A00000E100E0001001408C210020AC210020BC
:10C8B000A021F0B5002347462C4A490080B45350CC
:10C8C0000431535004315350043153504C395350B8
:10C8D00004315350264B1B68002B37D025490026C6
:10C8E00052582549254F0C68141B00222402240AA3
:10C8F000904602E0002D1AD02B001A68A24216D8EA
:10C90000A41AB6181A7CDD69002AF3D04246996948
:10C910001A745A693B68002B1BD0100098470028F6
:10C92000E8D000220021FFF767FF002DE4D1144B6F
:10C9300014491A780B789A420ED0134A9B009E50E5
:10C9400080218023114A49035B00D15004BC9046EA
:10C95000F0BD08009047CDE70132D3B2022B01D0E1
:10C960000B70EAE700230B70E7E7C04600100140B8
:10C9700090210020040500008C210020942100203B
:10C98000A0210020A1210020A421002000E100E03E
:10C99000F0B55F4656464D464446F0B4C54BC64AD0
:10C9A0001B68C6498BB0059309781378994200D16A
:10C9B00057E10133DBB2022B00D100231370C04AD0
:10C9C0009B009B58BB4A9A46059B53441B021B0A7B
:10C9D000136001230193BB4B00241B689B46BA4B99
:10C9E0005A461B78914619000393B84B88461B683A
:10C9F00047460493AF4B013F1B680793B44B1B782A
:10CA0000099300239C4606930893FBB2664698461A
:10CA1000FF2B32D04346D800049B9C461300604451
:10CA20000178457800961A00A9421FD046684A004E
:10CA3000B446521886780131D200C9B262448E429F
:10CA400000D1EDE01678022E00D1C7E0032EEAD126
:10CA5000002BE8D01C74DB69002BFBD10133457837
:10CA60000093002399461A00A942DFD14746013FAF
:10CA7000FBB2009E9846FF2BCCD1089BC846029281
:10CA8000B446002B00D0F0E0069B002B02D0894B6F
:10CA9000079A1A606346002B02D04246894B1A60FF
:10CAA000019B002B00D02DE15B46029A00259B1ACA
:10CAB0005A1E9341DBB205937E4B00271B680299F7
:10CAC0009C46804B1B689B46814B1B78069300233A
:10CAD0000193804B994601230093039B013BDBB2FA
:10CAE0000393FF2B00D1F9E0049ADB0092460E007D
:10CAF0009A44002D28D06A68A9682C00ED69634625
:10CB0000D31A1B021B0A4B4552D86A4612785B188F
:10CB100023606760A7602274E761002E58D03168F7
:10CB20003000994205D3B9E01168994200D3A3E0DF
:10CB30001000C2695B1A002AF6D1E261320023605C
:10CB4000C4611600002DD6D153461A785B783100A7
:10CB50009342C2D0514649685300884651469B18BB
:10CB60000132D2B20A708978DB004344914200D18D
:10CB70009DE0197832000129E3D15C68227C90465F
:10CB8000414632000029DCD19A686260D968A16010
:10CB90001869E0605B69A361069B002BAFD0434638
:10CBA000002263606346D31A1B021B0A4B45ACD9B3
:10CBB00063469A1A1202120A8A4264D28B1A6A4691
:10CBC000127823606760A7602274E761002EA6D107
:10CBD00022000123A34601931600B3E75668002BF9
:10CBE00030D09E421ED0009A1F00944602E096422A
:10CBF00006D01700FA69002AF9D16246009212E7BE
:10CC000065460095BA420FD01568D269FA61002ACC
:10CC100016D013689C466544156045784B4602E77C
:10CC200000210FE71A001F00DE69002E0CD001253D
:10CC300000951568D269B1463300FA61002AE8D13F
:10CC40004578F0E60023EEE60125234B9D60009534
:10CC50000695002500230795013599460895099505
:10CC6000D2E700239A460193B5E66A46242152187A
:10CC7000174B12781A7007E7C91A1160E261236036
:10CC80003200C4615DE76B461B7827606760A76070
:10CC90002374E761002E9BD000233168CB1A3360E8
:10CCA00022000123E661A346019316004AE752469B
:10CCB00015705EE78C210020A0210020A12100201A
:10CCC000A421002090210020982100209C210020F8
:10CCD000A2210020FEFF7F0000100140019B002BDD
:10CCE00000D09DE0029B994236D1059B002B33D1A9
:10CCF0000023534A13700BB03CBC90469946A246A1
:10CD0000AB46F0BD4F4B002418680025029B002164
:10CD10000026574615E01A68BA4200D984E0D86860
:10CD2000BF1A89181E60DC69002807D0DD611D006C
:10CD3000059A986052181202120A5A6023002000C5
:10CD4000019C002BE7D1002C01D03E4B1860002342
:10CD5000029301330593AFE6002900D15DE00B6833
:10CD600039489846394B3A4DC4583A4B2E781B688F
:10CD7000E11A0902090A0331002E2DD042468A42E7
:10CD800000D20A00A820D21812022F49130AC000AC
:10CD90002E4D0B504A591B1B121B1202120A1B026A
:10CDA00003321B0A9A42A3D94B590B502F2001384A
:10CDB000C046C046C046C046C046C046C046C04643
:10CDC000C046C046C046C046F1D180218023224AD9
:10CDD00089025B00D1508BE78026D1277602BF0005
:10CDE000C651403FC651C02280271B4EBF02520091
:10CDF000B7503760012606602F200138C046C04674
:10CE0000C046C046C046C046C046C046C046C046F2
:10CE1000C046C046F1D12E70B0E7FFF70DFD67E7C1
:10CE20005A46084B1A605DE7BA46002C01D0054906
:10CE300008605146521A1A600293012305933BE69B
:10CE4000A2210020902100200010014004050000D4
:10CE5000AC2100208C21002000E100E051DF704770
:10CE600061DF7047F0B557464E464546E0B4344B57
:10CE7000344E1D6899466B425D41334BEDB21C68E0
:10CE8000984663425C4182B0E4B2304FB246002D16
:10CE900013D0002C40D13C68338801A920000B80BE
:10CEA000FFF7DEFF052837D000282AD00022002116
:10CEB000FFF7A2FC0024002DEBD101A8FFF7CEFF65
:10CEC00005280DD0002822D000220021FFF794FC75
:10CED000002C27D0012401A8FFF7C0FF0528F1D1BD
:10CEE000002C19D153466A461B8801A99380174B21
:10CEF0001C682000FFF7B4FF05280DD0012500288D
:10CF0000D4D1434620001B6898470024D3E74B4602
:10CF100001981B689847DBE702B01CBC9046994615
:10CF2000A246F0BD6A46074B01A91B889380074BB8
:10CF30001C682000FFF794FF0528B5D10124CAE73B
:10CF4000B4210020AE210020B8210020B021002013
:10CF500010B50A4B1B68002B08D09847002800D159
:10CF600010BD00220021FFF747FCF9E7044B1B78B6
:10CF7000002BF5D0FFF776FFF2E7C046BC2100207A
:10CF8000AD21002003210A4802680A4302600948D3
:10CF900002680A4302600849084A094B9B1A03DDEC
:10CFA000043BC858D050FBDC064880470648004781
:10CFB0002405004054050040942B0200002000206E
:10CFC000B02000202582010021810100FEE7FEE75C
:10CFD000FEE7FEE7FEE7FEE749004B081900704751
:10CFE000F0B546464F46C0B48DB004000D0000F0C9
:10CFF000BDF8284B060098461B780F005BB2013342
:10D0000032D022002B002000290003F0DDFB8146F6
:10D01000002829D120002900FFF7DEFF00221E4B47
:10D0200000F082FF00281FD0012302931B4B1C48F5
:10D0300003934B46069407950A930494059500F0D4
:10D04000CDFD43461B78089009915BB2022B12D0AC
:10D0500002A800F0C1FD00280DD00A9B0193002B0F
:10D0600011D10898099901E0300039000DB00CBCCD
:10D0700090469946F0BD03F0E9FC212303600A9B2A
:10D080000193002BEDD003F0E1FC0A9B01930360B8
:10D09000E7E7C046A52000200000F03F6829020015
:10D0A0000C1B020010B500F047FA10BDF0B5464663
:10D0B0004F46C0B48DB004000D0000F0F9FA294BC2
:10D0C000009001911B785BB29846013312D0220088
:10D0D0002B002000290003F077FB8146002809D1AE
:10D0E0000026002732003B002000290000F008FF46
:10D0F000002806D1009801990DB00CBC90469946C5
:10D10000F0BD01230293184B0694079503934B46F9
:10D110000A93434604940595002B15D03B0032003A
:10D120003000390002F05EF9434608900991022B65
:10D130000CD103F08BFC212303600A9B0093002B8E
:10D140000AD108980999D7E70896099702A800F02C
:10D1500043FD0028F1D1ECE703F078FC0A9B009333
:10D160000360EEE7A520002070290200F0B55746C5
:10D170004E464B005B089A46C0B4CD4B87B00600C4
:10D180000F0089469A4512DDCA4B5344034322D00F
:10D1900002000B0002F0C4FF0B00020002F022F9B3
:10D1A0000300180007B00CBC91469A46F0BDC24B74
:10D1B0009A4524DCC14B9A4500DD0CE1C04AC14BC5
:10D1C00001F0E4FD0022C04B00F0AEFE002816D0B6
:10D1D00033003900E5E7BD4ABD4B02F027FDBD4AEB
:10D1E00004000D00BC4B3000390002F01FFD0B00A5
:10D1F00002002900200001F0C9FD0300D1E7300042
:10D200003900FFF7E9FE02000B000020AE4902F0F2
:10D2100087FF0022B14B02F009FD04000D00B04A67
:10D22000B04B02F003FDB04AB04B01F0AFFD22005D
:10D230002B0002F0FBFCAE4AAE4B02F071FF220065
:10D240002B0002F0F3FCAC4AAC4B01F09FFD220036
:10D250002B0002F0EBFCAA4AAA4B02F061FF22006D
:10D260002B0002F0E3FCA84AA84B01F08FFD22003E
:10D270002B0002F0DBFCA64A02900391A54B200094
:10D28000290002F0D3FCA44AA44B02F049FF22007B
:10D290002B0002F0CBFCA24AA24B01F077FD22004A
:10D2A0002B0002F0C3FCA04AA04B02F039FF220081
:10D2B0002B0002F0BBFC844B002201F067FD0490C0
:10D2C00005912000290000F0F3F9994B06000F00AA
:10D2D0009A4563DC0B0002980399002200920193A7
:10D2E000049A059B02F07EF83200029003913B0005
:10D2F0003000390001F04AFD02000B00029803994A
:10D3000002F094FC029003910098019902000B0036
:10D3100002F08CFC02000B002000290002F000FF4C
:10D32000009A019B04000D003000390001F02EFD31
:10D3300002000B002000290002F054F802000B004C
:10D3400001F024FD02000B006248634902F0E8FE90
:10D3500002000B000298039902F0E2FE04000D00A7
:10D360000098019902000B0001F010FD02000B0073
:10D370005648704902F0D4FE02000B00200029003C
:10D3800002F0CEFE02000B0050486A4902F0C8FECF
:10D390004B46002B00DC84E0030002E7049A059B67
:10D3A0000298039902F01EF832003B0002F03EFCA6
:10D3B00032003B0001F0EAFC02000B0001F0E6FC49
:10D3C000444A454B02F0ACFE02000B003F48404986
:10D3D00002F0A6FEDCE702000B0002F027FC0400CE
:10D3E0000D003F4A3F4B02F021FC3F4A3F4B01F00A
:10D3F000CDFC22002B0002F019FC3D4A3D4B02F00F
:10D400008FFE22002B0002F011FC3B4A3B4B01F047
:10D41000BDFC22002B0002F009FC394A394B02F016
:10D420007FFE22002B0002F001FC374A374B01F04F
:10D43000ADFC22002B0002F0F9FB354A009001916F
:10D44000344B2000290002F0F1FB334A334B02F049
:10D4500067FE22002B0002F0E9FB314A314B01F05C
:10D4600095FC22002B0002F0E1FB2F4A2F4B02F02B
:10D4700057FE22002B0002F0D9FB0022124B01F0D4
:10D4800085FC02000B000098019901F0ABFF32000F
:10D490003B0002F0CBFB3B00320001F077FC0300C5
:10D4A0007FE68022120694460300614479E6C04676
:10D4B000FFFFEF3F000010C0FFFFDF3FFFFF3F3ED9
:10D4C0009C7500883CE4377E0000F03F182D4454E2
:10D4D000FB21F93F075C143326A6913C0000E03F96
:10D4E00009F7FD0DE13D023F88B20175E0EF493FCC
:10D4F0003B8F68B52882A43F5544880E55C1C93F6B
:10D500007D6FEB0312D6D43F555555555555C53F44
:10D5100082922EB1C5B8B33F59018D1B6C06E63F10
:10D52000C88A599CE52A00404B2D8A1C273A0340A3
:10D530003233EF3FFB21E93FF8B515004F46464631
:10D540005A001C006B42C0B42B434B4F5208DB0FF8
:10D5500088461343BB423AD84B005B0899464E4677
:10D5600043420343DB0F3343BB4230D8434BE31802
:10D570002B4343D00226A3171E40CB0F1E434B461E
:10D5800003432ED013002B4332D0BA4241D0B945C9
:10D590002ED04B469A1A12153C2A32DC002C55DB51
:10D5A0002A00230001F01EFFFFF716FD00F076F9B8
:10D5B000012E46D0022E39D0002E0ED0304A314BEB
:10D5C00002F0AEFD304A314B02F0AAFD05E0020048
:10D5D0000B002800210001F0D9FB0CBC90469946B5
:10D5E000F8BD022E10D0032EF7D127482849F4E7C2
:10D5F00043462548002B0ADB2649EEE700F04EF9AA
:10D60000EBE721482349D3E71F482049E5E72249B2
:10D61000E3E791451FD0022EF6D0032EE5D000207F
:10D620000021012ED9D180210906D6E7144A154BD5
:10D6300002F076FD02000B001348144902F070FD61
:10D64000CBE7802424060B191900C6E73C32A7DA81
:10D6500000200021ACE7022E06D0032E09D00A4894
:10D66000012E04D00D49B8E70D480E49B5E70E4923
:10D67000B3E70B480D49B0E70000F07F000010C091
:10D68000075C143326A6A13C182D4454FB21094005
:10D69000FB2109C0FB21F93FFB21F9BFFB21E93F39
:10D6A000D221337F7CD90240FB21E9BF7CD902C063
:10D6B000F0B556464D4644465F46754BF0B40A00F9
:10D6C0000D00190083B0060004002940994200D1E2
:10D6D000BAE0002D00DC94E02D1500D1A3E06D4BE5
:10D6E00012039C468023120B5B0365441A43EB072D
:10D6F00000D581E06B109846E30F9B189B188022A1
:10D7000016210026002764009203B818984202DC14
:10D7100087181B1AB618E00F5B0001391B1864004C
:10D7200052080029F1D1002201929446802212066B
:10D730002020914609E09F4241D0E10FC9180138ED
:10D74000CB186400520800281ED0614651189F4231
:10D75000F1DA8D18AC46CD0FED07BA464D4539D0FC
:10D76000DB1B8C42BF417F42DB1B641A01990138ED
:10D770008B46934459460191E10FC9185746CB187F
:10D78000640052080028E0D123432BD1019B5B08A1
:10D79000414972108C466244F10702D58021090686
:10D7A0000B43414609058D181E002F00300039003B
:10D7B00003B03CBC90469946A246AB46F0BDA142A0
:10D7C0000ED88D18AC46CD0FED074D4548D09A4682
:10D7D0000023CAE76546002DC2DB7D1CAA46BFE7D1
:10D7E0003B00AAE7019B01333ED0019A01239446F6
:10D7F000134063445B08CBE7E30F52009A186400C0
:10D8000078E76B005B0803432F00002BCED0002588
:10D81000002A31D1E20A153D6405002AFAD080239E
:10D820005B031A4223D180200023400300E00B0059
:10D830005200591C0242FAD02020401AED1A23004F
:10D84000C3408C401A434AE702002B00290002F033
:10D85000EDF932002B0001F099FA06000F00A5E760
:10D860006546002DB9DAB2E70136002390E70123BF
:10D8700020205B420021E1E73B000200390002F07A
:10D880004FFC02000B0001F0ADFD06000F008DE71C
:10D890000000F07F01FCFFFF0000E03FF8B55646B6
:10D8A0004D4644465F46A54BF0B44E00804689463F
:10D8B0008A4676089E420CDDA14B9E4200DDA0E028
:10D8C00000D19BE05346002B00DCE3E09D4B9E4AD9
:10D8D0009FE09E4B9E4200DDB1E09D4B9E4200DCEE
:10D8E0009FE001235B429B4642464B4640464946E9
:10D8F00002F09CF902000B0006000F0002F096F9FE
:10D9000004000D00934A944B02F090F9934A944B13
:10D9100001F03CFA22002B0002F088F9914A924B68
:10D9200001F034FA22002B0002F080F98F4A904B6C
:10D9300001F02CFA22002B0002F078F98D4A8E4B70
:10D9400001F024FA22002B0002F070F98B4A8C4B74
:10D9500001F01CFA32003B0002F068F9894A8A4B58
:10D9600006000F002000290002F060F9874A884B6A
:10D9700002F0D6FB22002B0002F058F9854A864BB4
:10D9800002F0CEFB22002B0002F050F9834A844BB8
:10D9900002F0C6FB22002B0002F048F9814A824BBC
:10D9A00002F0BEFB22002B0002F040F90B005946AA
:10D9B0000200013100D170E059463000CC0039003E
:10D9C00001F0E4F942464B4602F030F9774D784BCE
:10D9D0002D191C192268636802F0A2FB42464B46CF
:10D9E00002F09EFB02000B002868696802F098FBB9
:10D9F00053460A00002B48DB03000AE0002800D150
:10DA000060E742464B464046494601F0BFF90300F5
:10DA10000A00180011003CBC90469946A246AB464D
:10DA2000F8BD644A644B01F0B1F90022634B00F089
:10DA30007BFA002800D154E743464A46E9E7FFF75E
:10DA4000CBFA5F4B04000D009E4237DC5D4B9E42DB
:10DA50005DDC02000B0001F099F90022574B02F047
:10DA60005FFB802306000F000022DB052000290059
:10DA700001F08CF90B0002003900300001F0B2FC1B
:10DA80000023804689469B462EE78022120603002B
:10DA90008A18BEE72B4B4C4ABBE73000390001F037
:10DAA00075F942464B4602F0C1F802000B004046B1
:10DAB000494602F035FB03000A00AAE7434B9E42A9
:10DAC0001ADC0022424B02F02BFB002206000F0062
:10DAD0003F4B2000290002F0A9F80022374B01F04B
