:020000021000EC
:10800000004000206DCC0100B5CC0100B7CC0100D0
:108010000000000000000000000000000000000060
:10802000000000000000000000000000B9CC0100CA
:108030000000000000000000BBCC0100BDCC01002E
:10804000BFCC0100BFCC0100F99E010089A2010054
:10805000BFCC010000000000399B010091A301008A
:10806000BFCC01007D9D0100419C0100BFCC0100FF
:10807000BFCC0100BFCC0100BFCC0100BFCC0100D0
:10808000BFCC010099C50100BFCC0100BFCC0100ED
:1080900079C60100BFCC010039CC0100BFCC010082
:1080A000BFCC0100BFCC01000000000000000000B8
:1080B00000000000000000000000000000000000C0
:1080C00010B5064C2378002B07D1054B002B02D0AE
:1080D000044800E000BF0123237010BDAC20002045
:1080E000000000004C290200084B10B5002B03D003
:1080F0000749084800E000BF07480368002B00D18B
:1081000010BD064B002BFBD09847F9E7000000009C
:10811000B02000204C290200AC200020000000000C
:10812000164B002B00D1144B9D46402292029A1A06
:10813000924600218B460F461348144A121A00F04B
:1081400067F80F4B002B00D098470E4B002B00D048
:1081500098470020002104000D000D48002802D09F
:108160000C4800E000BF00F02DF82000290000F0CE
:10817000C1F800F011F8C0460000080000400020DF
:108180000000000000000000AC2000205C24002063
:108190000000000000000000084B10B50400002B98
:1081A00002D0002100E000BF054B1868836A002B55
:1081B00000D09847200000F033F8C04600000000CF
:1081C0005C1602000E4B70B500251E000D4CE41A23
:1081D000A410A54204D0AB00F35898470135F8E746
:1081E00009F02EFA084B00251E00084CE41AA410D2
:1081F000A54204D0AB00F35898470135F8E770BDAD
:10820000A4200020A4200020A4200020A8200020DA
:1082100003008218934202D019700133FAE77047C5
:10822000FEE7C0461D4B1B78012B00D070471C4B4E
:108230001B681B07FAD1F0221A4B1B68134018D198
:10824000194B1B6813421CD0154B1B681B07EDD143
:10825000F022144B1B681340402BE7D1124B1B68D4
:108260001342E3D1C12380220121DB00D205D1508A
:10827000DCE7102B01D0302BEAD10B4B1B681342EB
:10828000E6D10A4A0A4B1A6080220A4B12021A608F
:10829000024B1B78012BD7D0C8E7C046E00F00F097
:1082A000E40F00F0E80F00F0EC0F00F0DFFF07C074
:1082B00004050040186C004082B00190019B002B27
:1082C00014D0019B0A48013B01930138C046C046C7
:1082D000C046C046C046C046C046C046C046C0466E
:1082E000C046C046F1D1019B002BEAD102B07047D5
:1082F000E703000010B501F0B9FE01F0CFFB01F07B
:1083000037FC02F057F801F0F5FF6421012004F07A
:108310005FF802F037F902F039FB00F081FC074802
:1083200008F026FA6420FFF7C7FFBFF34F8F044A17
:10833000044BDA60BFF34F8FFEE7C04660160200C1
:108340000400FA0500ED00E030B50224C8224378AD
:1083500004575DB2E1B25A40002D00DA7DE0C82238
:108360005B00DBB24A40002C00DA7EE0C822490004
:108370005CB2C9B25A40002C00DA7FE0C8245B002E
:10838000DAB24BB24C40002B00DA80E0C82349003F
:1083900054B2C9B25340002C00DA81E0C823520025
:1083A0004CB2D2B24B40002C00DA82E0C824490023
:1083B000CBB251B25440002900DA83E0C824520005
:1083C00059B2D2B25C40002900DA84E0C8245B00D4
:1083D00051B2DBB25440002900DA85E0C8245200D3
:1083E00059B2D2B25C40002900DA86E0C8245B00B2
:1083F00051B2DBB25440002900DA87E0C8245200B1
:1084000059B2D2B25C40002900DA88E0C8245B008F
:1084100051B2DBB25440002900DA89E0C82452008E
:1084200059B2D2B25C40002900DA8AE0C8215B0070
:1084300054B2DBB25140002C00DA8BE0C8215CB2B0
:10844000D2B25940002C00DA8CE00F2152005B06BA
:108450008A431B0F1343C37030BD131CC8225B003B
:10846000DBB24A40002C00DB80E7111CC822490027
:108470005CB2C9B25A40002C00DB7FE7C824131C51
:108480005B00DAB24BB24C40002B00DB7EE7C82326
:10849000211C490054B2C9B25340002C00DB7DE7D7
:1084A0001A1CC82352004CB2D2B24B40002C00DB45
:1084B0007CE7C824191C4900CBB251B254400029B2
:1084C00000DB7BE7221CC824520059B2D2B25C40C8
:1084D000002900DB7AE7231CC8245B0051B2DBB221
:1084E0005440002900DB79E7221CC824520059B20D
:1084F000D2B25C40002900DB78E7231CC8245B0073
:1085000051B2DBB25440002900DB77E7221CC824BB
:10851000520059B2D2B25C40002900DB76E7231C3E
:10852000C8245B0051B2DBB25440002900DB75E780
:10853000221CC824520059B2D2B25C40002900DB90
:1085400074E7C821231C5B0054B2DBB25140002CFD
:1085500000DB73E70A1CC8215CB2D2B25940002C80
:1085600000DB72E70B1C70E7C82110B5030A020C90
:10857000DBB282B000905CB250B2C2B25940002C63
:1085800000DA83E0C8215B00DBB25140002800DA4A
:1085900084E0C821520058B2D2B25940002800DA13
:1085A00085E0C8215B0050B2DBB25140002800DA00
:1085B00086E0C820520059B2D2B25840002900DAF1
:1085C00087E0C8205B0051B2DBB25040002900DADE
:1085D00088E0C820520059B2D2B25840002900DACF
:1085E00089E0C8205B0051B2DBB25040002900DABC
:1085F0008AE0C820520059B2D2B25840002900DAAD
:108600008BE0C8205B0051B2DBB25040002900DA99
:108610008CE0C820520059B2D2B25840002900DA8A
:108620008DE0C8205B0051B2DBB25040002900DA77
:108630008EE0C820520059B2D2B25840002900DA68
:108640008FE0C8205B0051B2DBB25040002900DA55
:1086500090E0C821520058B2D2B25940002800DA46
:1086600091E0C82150B2DBB25140002800DA92E01C
:108670000F215B0052068B43120F13436A46D078DA
:10868000DBB2C01A431E984102B010BD0B1CC821BA
:108690005B00DBB25140002800DB7AE70A1CC821EE
:1086A000520058B2D2B25940002800DB79E70B1CC7
:1086B000C8215B0050B2DBB25140002800DB78E7F4
:1086C000C8200A1C520059B2D2B25840002900DB1F
:1086D00077E7031CC8205B0051B2DBB25040002991
:1086E00000DB76E7021CC820520059B2D2B25840D3
:1086F000002900DB75E7031CC8205B0051B2DBB228
:108700005040002900DB74E7021CC820520059B217
:10871000D2B25840002900DB73E7031CC8205B007D
:1087200051B2DBB25040002900DB72E7021CC820C6
:10873000520059B2D2B25840002900DB71E7031C45
:10874000C8205B0051B2DBB25040002900DB70E76B
:10875000021CC820520059B2D2B25840002900DB96
:108760006FE7031CC8205B0051B2DBB25040002908
:1087700000DB6EE7C821021C520058B2D2B2594049
:10878000002800DB6DE70B1CC82150B2DBB2514062
:10879000002800DB6CE70A1C6AE7C0460E4AA820E6
:1087A0000623D15EFA239B009C460C4B6144C0001B
:1087B00019500820115E0A48614419500A20115EC0
:1087C000604661306144FF3019500C21525E05490A
:1087D00062445A507047C046142300200090004065
:1087E000440500004C050000002310B53C4C6363B9
:1087F000A363E363A36401F00FFB00280FD0394BA0
:1088000014211868421C1A6005F0E8F8002952D0BB
:1088100001F0B2FD0120FFF74FFD01F003FB01F075
:108820009BF9002853D172B62F4BE28B1B889B1A01
:10883000A3862E4B228C1B889B1AE3862C4B628CC2
:108840001B889B1A23872B4BA28C1B889B1A638740
:10885000294BE28C1B889B1AA387284B228D1B88EF
:108860009B1AE387264B628D1B889B1A4022A352DA
:10887000244BA28D1B889B1A4222A352224BE28DCD
:108880001B889B1A4422A352204B226B1B689B1A05
:10889000A36462B6C8231E4A5B0012889A4209D8B4
:1088A0002378202B06D0292301222370283B6380C4
:1088B000184B1A7010BDA0238021174ADB059A5867
:1088C000C905520008D4A122D2009950A0E703F0B4
:1088D0007DFC01F047F9A6E7104A995098E7C04699
:1088E00014230020CC200020702300208A220020A6
:1088F0000424002088220020642100206A21002016
:10890000F0210020FC210020662100200022002010
:108910008C220020CA200020040500000C05000065
:1089200010B501F079FA00280FD0184B14211868FF
:10893000421C1A6005F052F8002917D001F01CFD06
:108940000120FFF7B9FC01F06DFAC823104A5B0063
:1089500012889A4209D80F4B1A78202A05D029226A
:108960001A70283A5A800C4B1A7010BDA02380212F
:108970000A4ADB059A58C905520003D4A122D20045
:108980009950DBE7064A9950D8E7C046CC20002032
:108990008C22002014230020CA200020040500009F
:1089A0000C05000010B582B06A46FA2368461370C1
:1089B000E73B5370FFF7C8FC6A46F5231371019932
:1089C000009800F09FFE402001F032FA01F014FA06
:1089D00000F0AEFA144C207801F02AFA134B002074
:1089E000185E00F09BFA0623E05E00F097FA082379
:1089F000E05E00F093FA0A23E05E00F08FFA0C23A9
:108A0000E05E00F08BFA4C23E05E00F087FA4E2324
:108A1000E05E00F083FA5023E05E00F07FFA45202C
:108A200001F006FA02B010BD142300208C220020B1
:108A300010B5124B1A78002A0FD0114A1278002A6A
:108A400007D110490978002904D10F4B1A78002A60
:108A50000BD110BD1A7000F047F90B4B1A78002AA1
:108A6000F7D0074A1278002AF3D1084A1278002A70
:108A7000EFD11A70FFF796FFEBE7C046CB2000203E
:108A8000CA200020D2200020C9200020D0200020B1
:108A9000F8B54F464646C0B41E0081464D00281822
:108AA000801B170007F05AFD00225A4B06F032FFD8
:108AB00005F040F94B46584C7F0080462060D81B9B
:108AC000801907F04BFD0022524B06F023FF05F002
:108AD00031F94B465D1B6060A81B07F03FFD00228B
:108AE0004C4B06F017FF05F025F9A060380048440C
:108AF000801907F033FD0022464B06F00BFF05F00E
:108B000019F9E060404607F06BFD04F043F907F007
:108B1000EFFC2060606807F063FD04F03BF907F0AC
:108B2000E7FC6060A06807F05BFD04F033F907F034
:108B3000DFFCA060E06807F053FD04F02BF907F0BC
:108B4000D7FCE06072B62668344BB4460E215A5EFC
:108B50001220195E1425585F676855182D1A654450
:108B6000BC46256010269D5F511A561B3618664478
:108B70006660A668091AB4466144A160E1685219AA
:108B80008C4612186244E26062B616215A5E25686D
:108B9000052A3BDDC82D34D36068C8282CD3A168D2
:108BA000C82924D3E268C82A1FD39626B600B54246
:108BB00000D9350096262560B600B04200D93000B5
:108BC00096266060B600B14200D931009626A160B9
:108BD000B600B24200D93200DD80E26018815981CE
:108BE0009A810CBC90469946F8BDC822DDE7E26840
:108BF000C821C82AD9D2F8E7A168C820C829D1D28B
:108C0000F5E76068C825C828C9D2F5E76068A1689B
:108C1000E268CAE70000D03F0824002014230020A7
:108C2000202370B52B4C2C4A2370002313602B4A51
:108C3000202613600022A3806380E3812382638265
:108C4000A382E38223836383A383E38323846384F4
:108C50002363234B1A7001F0AFFC0423E25E214D25
:108C6000002A1DD11621635E62800A2B0ADD23785B
:108C7000202B2AD0292B23D01621635E26706280F8
:108C80000A2BF4DC2378203BDBB2092BEAD89B00CB
:108C9000EB589F4600F0DEFB0423E25E002AE1D0A1
:108CA00070BD00F0F5FA0423E25ED9E700F086FA21
:108CB0000423E25ED4E700F00DFA0423E25ECFE77E
:108CC00000F08EF90423E25ECAE700F043F90423C2
:108CD000E25EC5E71423002074230020F821002061
:108CE000CA2000207016020070B501F085F8194CFA
:108CF000194D20602868194B02001B881832A38088
:108D0000174B1B88E380174B1B882381164B1B884E
:108D10006381164B1B88A381154B1B88E381154B80
:108D20001B682361144B1B88A382144B9A4209D8F9
:108D30001822210001F08EFC002802D02B68183385
:108D40002B6070BD01F038FC00230D4A2B601360CE
:108D50000020EDE718240020742300207023002059
:108D60008A22002004240020882200206421002080
:108D70006A210020002200208C220020FFFF010039
:108D8000F8210020F0B5604B83B01B78202B21D058
:108D90006A46FA231370AA3B537068464F3B9370A0
:108DA000FFF7D2FA6A46F5231078137101F040F804
:108DB0006B46587801F03CF86B46987801F038F82B
:108DC0006B46D87801F034F86B46187901F030F82A
:108DD00003B0F0BD6A46DA331370CA3B537068467D
:108DE00002339370FFF7B0FA6A46F52310781371D7
:108DF00001F01EF86B46587801F01AF86B46987827
:108E000001F016F86B46D87801F012F86B46187925
:108E100001F00EF83D4C3E4E3E4F02E00A20FFF7B7
:108E20004BFA18222100306801F038FD0028CFD01D
:108E3000902000F0FDFF2568E8B200F0F9FF28124D
:108E4000C0B200F0F5FF2814C0B200F0F1FF280E08
:108E500000F0EEFF0423E55EE8B22D1200F0E8FF1B
:108E6000E8B200F0E5FF0623E55EE8B22D1200F05F
:108E7000DFFFE8B200F0DCFF0823E55EE8B22D1268
:108E800000F0D6FFE8B200F0D3FF0A23E55EE8B2B7
:108E90002D1200F0CDFFE8B200F0CAFF0C23E55E12
:108EA000E8B22D1200F0C4FFE8B200F0C1FF0E23BB
:108EB000E55EE8B22D1200F0BBFFE8B200F0B8FFAB
:108EC0002569E8B200F0B4FF2812C0B200F0B0FF8C
:108ED0002814C0B200F0ACFF280E00F0A9FFA58A4C
:108EE000E8B200F0A5FF280A00F0A2FF992000F0E8
:108EF0009FFF33683A681833336093428ED3002261
:108F0000054B1A7064E7C04614230020302400206B
:108F1000F821002074230020D020002010B5040088
:108F2000C0B2241200F084FFE0B200F081FF10BD57
:108F300010B50400C0B200F07BFF2012C0B200F0F8
:108F400077FF2014C0B200F073FF200E00F070FF16
:108F500010BDC046F8B51C4807F00AFC00231B4CA6
:108F60001B4D1C4E1C4FE38123826382A382E3824C
:108F700023836383A3830222A35E002B1BD10422DD
:108F8000A35E002B17D12A78002A15D02B703378D6
:108F9000002B15D1FFF7C4FCFFF74AFD3B78002BEF
:108FA000E9D00E4B1B78002BE5D1FFF7EBFE022238
:108FB000A35E002BE3D0F8BD0120FFF77DF9DAE7CF
:108FC0000123A380F7E7C04698160200142300206F
:108FD000C8200020CA200020D0200020C920002066
:108FE000A023802110B5374ADB059A58C9035202E5
:108FF0005AD4A122D2009950334C0622A35E002BF2
:1090000002D1A368002B52D0C8235B00E3802381E8
:109010006381A381FFF7C2FB2C48FFF74DF924E0E1
:10902000A268002A2CD10C21625E002A2CD0E38099
:109030000821635E0021092B01DD0A3B19B2218161
:109040000A21635E0021092B01DD0A3B19B261810F
:109050000023092A01DD0A3A13B2A381FFF79EFB20
:10906000FFF7E6FCFA20FFF727F90622A35E002BA4
:10907000D6D0092B04DD0A3B1BB20C21625ED6E779
:109080000C23E25E0023D2E7A021203323700132BB
:109090000C4B6280C905CB589B0D1A420CD0802224
:1090A0000B4BD203CA5010BD094A9950A4E70C22B9
:1090B000A35E002BAED0A7E78022A123D203DB0062
:1090C000CA50F0E7040500001423002088130000B4
:1090D0000C050000F0B55F4656464D464446F0B4D8
:1090E0002E4883B007F044FB64232D4C2D4D2E4EAB
:1090F0002E4FE3820222A35E002B13D10422A35E33
:10910000002B0FD12B68022B13D03378002B02D009
:109110003B78002B10D00120FFF7CEF80222A35E8F
:10912000002BEBD003B03CBC90469946A246AB4620
:10913000F0BD013B2B60E8E7337072B61622A35EE8
:109140001B4A1C485A431A23E35692464343984607
:109150001823E356434399461C23E356584383465A
:1091600062B600904B4642465146134807F000FB5A
:109170001623E356042B03DC00239B4699469846AE
:109180005B464A4641465046FFF782FCFFF706FB26
:10919000FFF7C6FBFFF74CFCACE7C046A816020081
:1091A0001423002064200020C8200020CA200020B2
:1091B00070170000B80B0000B8160200F0B54F465B
:1091C000464602224C23C0B42B4C2C4DE2520633AF
:1091D000013AE2522A4E12332A4F83B0E38202222E
:1091E000A35E002B13D10422A35E002B0FD12B68AA
:1091F000022B11D03378002B02D03B78002B0ED0FD
:109200000120FFF759F80222A35E002BEBD003B038
:109210000CBC90469946F0BD013B2B60EAE73370E9
:10922000FFF7E2FA72B61622A35E98461C22A35EEE
:10923000994662B6424600230A2A10DD3823E05ED2
:10924000182104F0CFFB6A464B46D371D37900B2A4
:109250005BB2C01A4C23E35E0B4A4343534342467E
:109260000A48002150430022FFF712FCFFF796FA4C
:10927000FFF7DEFBB3E7C046142300206420002084
:10928000C8200020CA200020EE0200007017000055
:10929000F0B556465F464D464446F0B464488DB03E
:1092A00007F066FA6423634C634EE3820023994619
:1092B000624B9A46624B9B460222A35E002B15D15D
:1092C0000422A35E002B11D13368022B18D0534621
:1092D0001B78002B03D05B461B78002B13D001209A
:1092E000FEF7EAFF0222A35E002BE9D0554807F003
:1092F0003FFA0DB03CBC90469946A246AB46F0BD45
:10930000013B3360E3E752461370FFF76DFA72B624
:109310001622A35E98461823E55E1A23E75E1C22F8
:10932000A35E099362B643460A2B5CDD4E230521FA
:10933000E05E04F057FB502302B20A92E15E103B5C
:109340000B91E05E1E2104F04DFB6DB20A9A00B253
:109350002D1A3421605E0621554304F043FB42235D
:1093600000B20B992D1A4D43A80045191E21E05E4D
:1093700004F038FB7FB20A9A00B23F1A5743062125
:109380003622A05E04F02EFB0B9900B23F184F432B
:10939000B800C71918213822A05E04F023FB24224C
:1093A0006B469B181B7800B25BB2C01A4C23E35E7D
:1093B00078224343FF3253436D007F0042462248E8
:1093C000390050432A00FFF763FB6421484604F04C
:1093D000EFFB00290BD001239C46E144FFF7DEF9A7
:1093E000FFF726FB68E7002300270025E6E70A22AF
:1093F000A35E0821625E0620215E14480088069064
:109400004220205E05904020205E04904C20205E8B
:1094100003905020205E02904E20205E01900C258B
:10942000605F00900A4807F0A3F901239946D5E749
:10943000C81602001423002064200020C820002049
:10944000CA2000200C170200701700008C22002098
:10945000E0160200F0B55F4656464D464446A0234E
:109460008021F0B4974ADB059A5887B04904D201AD
:1094700000D516E1A122D200995000F0BDFC924B1C
:10948000984200D815E1A0238027DB0598468D4B34
:109490008E4D00249946FF0502E0013D002D2AD0A3
:1094A00000F0BAFC002818D014212000661C04F03B
:1094B00095FA002909D143464A469B583B4200D0C1
:1094C000E8E0A1234246DB00D75000F091FF0120E5
:1094D000FEF7F2FE340000F0A5FC00F03DFB002892
:1094E000DBD002F073FE013D0120FEF7E5FE00F047
:1094F00039FB002DD4D100239846059304930393A0
:10950000029399469A4601930093714B00269B461D
:1095100004E00120FEF7D0FE632E6FDC00F07CFC3F
:1095200000281ED014212000671C04F057FA0029DF
:109530000BD1A023634ADB0599588022D205114242
:1095400000D0ABE0A121C9005A5000F051FF01202A
:10955000FEF7B2FE00F066FC5B461B683C009C46D2
:10956000654400F0F9FA0028D3D002F02FFE012064
:10957000FEF7A2FE00F0F6FA564B013600229B5E83
:10958000009A012094469C4463460093524B00226B
:109590009B5E019A94469C44634601934F4B002284
:1095A0009B5E9A444E4B00229B5E99444D4B002299
:1095B0009B5E029A94469C44634602934A4B002267
:1095C0009B5E039A94469C4463460393474B002258
:1095D0009B5E049A94469C4463460493444B002249
:1095E0009B5E059A94469C4463460593414B00223A
:1095F0009B5E9844FEF760FE632E8FDD6421009829
:1096000004F0F0F93C4C6421E083019804F0EAF99D
:1096100064212084504604F0E5F9642160844846C2
:1096200004F0E0F96421A084029804F0DBF96421DD
:10963000E084039804F0D6F964212085049804F0AE
:10964000D1F964216085059804F0CCF96421A085E6
:10965000404604F0C7F96421E085280004F0C2F90F
:10966000012520232063012023706580FEF724FE5E
:10967000A0228021134BD205D35849041B0E1D4252
:109680001BD01E4BD15007B03CBC90469946A24619
:10969000AB46F0BD4246194BD75016E717495A5012
:1096A00053E7164A995000F0A7FB074B984200D9A0
:1096B000E9E61348FEF700FEE5E6A123DB00D15002
:1096C000E1E7C04604050000FF2C3101C409000099
:1096D00000220020702300208A2200200424002081
:1096E00088220020642100206A210020F02100202F
:1096F000FC21002066210020142300200C0500001E
:10970000204E000000B583B00090C0B2019100F07F
:109710008FFB6B46587800F08BFB6B46987800F017
:1097200087FB6B46D87800F083FB6B46187900F016
:109730007FFB03B000BDC04600B583B06A46FA2384
:10974000907013706846AA3B5370FEF7FDFD03B09E
:1097500000BDC04600B5294B83B01A78824205D0BF
:10976000202A05D0292844D0202818D003B000BDD5
:109770002038C0B2092831D8214A800012589746B3
:1097800025221A70243A5A806A46FA231370AA3B9B
:109790005370002368469370FEF7D6FDE6E7062176
:1097A0005A5E002AE2D19A68002ADFD10C215A5E63
:1097B000002ADBD120221A701F3A5A80E4E72422C3
:1097C0001A70233A5A80DFE723221A70223A5A800D
:1097D000DAE722221A70213A5A80D5E76A46FA233C
:1097E0001370AA3B53704F3B93706846FEF7ACFD75
:1097F000BCE7012218705A80C6E7C0461423002037
:109800002417020030B5030C85B0009001915CB2C2
:10981000FEF7AAFE002807D16B465B78302B03D8F1
:10982000944A9B00D3589F46FA2302A80370AA3B90
:1098300043704F3B8370FEF787FD05B030BD322C7F
:1098400000D1C0E0332C00D1FDE0312CF5D1012254
:10985000894B1A70F1E7E0B2FFF77CFFEDE7E3B266
:10986000012B00D1BFE0002BDED1844AD389013B1C
:109870001BB219007F3101DA7F235B42D38134E0D0
:10988000E3B2012B00D1CAE0002BCDD17B4A138A71
:10989000013B1BB219007F3101DA7F235B42138247
:1098A00023E0E3B2012B00D1C3E0002BBCD1734A0B
:1098B000538A013B1BB219007F3101DA7F235B42DF
:1098C000538212E0E3B2012B74D0002BACD16B4A6F
:1098D000938A013B1BB219007F3101DA7F235B427F
:1098E000938202E0654AE3B21383FA2302A803706D
:1098F000AA3B437000238370FEF726FD9DE75F4A75
:10990000E3B25383F1E75D4AE3B29383EDE77F234C
:109910005A4A1B1BD382E8E7E3B2012B40D0002B4D
:1099200000D081E74C215548425A013A12B2002A30
:109930000EDB4252D9E7E3B2012B67D0002B00D0F7
:1099400072E74E214D48425A013A12B2002AF0DA2B
:109950004352CAE7E3B2012B4FD0002B00D063E79C
:1099600050214648425A013A12B2002AF0DB4252D4
:10997000BBE7434B1A78002A0CD101321A70414AD6
:109980003E4B1268D98A5A6558223F48995206F0D0
:10999000EFFE52E700223D481A7006F0E9FE4CE760
:1099A0004C2236498B5A01331BB2322B00DD322355
:1099B0008B529AE7314A938A01331BB2802B8FDD99
:1099C0008023938291E70121A022314BD2051970A7
:1099D000304BD3581B0F194244D18021A123490594
:1099E000DB00D15029E7254AD38901331BB2802BF4
:1099F00000DC43E78023D38177E750221F498B5A4D
:109A000001331BB2322BD3DD3223D1E74E221B4967
:109A10008B5A01331BB2322BCADD3223C8E7174AF7
:109A2000138A01331BB2802B00DC38E780231382BA
:109A30005BE7124A538A01331BB2802B00DC3FE7FD
:109A40008023538251E70022114B80211A70A023FA
:109A5000104ADB059A584905D20008D4A122D20049
:109A60009950EAE680210C4B4905D150E5E60A4AB7
:109A70009950E2E64C170200D02000201423002069
:109A8000D1200020002200202818020040180200E7
:109A9000D2200020040500000C050000A0230021B6
:109AA0001C4ADB0510B59950A2211B4A1B48C9006E
:109AB0005050C121012089005050C0224024184834
:109AC000520084504458174A2240C02424042243A0
:109AD0004250032214495A5014495A5014495A50BA
:109AE00014495A501C395A5008315A5010315A50A2
:109AF00008315A50A1228021D200C90399508021F7
:109B0000490499508021490599508021C9059950EF
:109B100010BDC046140700000060004001050200AF
:109B200000E100E0FFFF00FF540700005C070000B9
:109B300064070000740700008023054A5B00D158C9
:109B4000002904D00021D1500122024B1A70704725
:109B500000600040D3200020014B18787047C046B9
:109B6000D32000200022014B1A707047D320002020
:109B7000F0B54746002380B4A227254AFF001360B2
:109B8000244AA8261370244A0433D3519C46C12387
:109B90009B009846E0234146A924DB0253506046CF
:109BA00001211E4BF60093511D4D1E4BE4005351F5
:109BB0001D4B13511D4BD160D851F02740463F0338
:109BC0001F50E430985158511851194CC025185164
:109BD000D96011601960C221164B4D3C6D00FF3CED
:109BE0005C5189005858144A0240C02000040243C6
:109BF000802080005A5058515D58104A2A40C02594
:109C00002D022A435A501C60186004BC9046F0BDD7
:109C1000D8200020D420002000A00040C40900006B
:109C20004405000050C30000FFFF0000009000400A
:109C30004C05000000E100E0FFFF00FFFF00FFFF18
:109C4000A02370B53E4A5B00D358002B3AD00121C7
:109C50003C4A1378194255D001210133DBB213700D
:109C6000394A1378194256D00133DBB2374D13709D
:109C70002C78C821200003F0B1FEC9B200294ED0D3
:109C80000134E4B2A82232482D4984462C70D20017
:109C90008B58802063448B5001222E4B8003DA6066
:109CA000A022A123D205DB00D05080200004D05098
:109CB00080208004D05080208005D050A023002236
:109CC0005B00CA50A2221E4B5200995800290AD0AC
:109CD000214C2248A44619586144195001202049BA
:109CE000087000219950A423154A5B00D15800291F
:109CF00007D01C4C1C48A446016861440160002147
:109D0000D15070BD194B19700123012113700E4AF7
:109D100013781942A8D1164B19700123A6E7012127
:109D2000144B1970144B1A68002A02D119600124CF
:109D3000A8E70124012AA5D101321A60A2E7C04692
:109D400000A00040D5200020D7200020D6200020F1
:109D5000C40900000090004050C30000440500000A
:109D6000D4200020FFFF0000D8200020C8200020C1
:109D7000CB200020C920002064200020A02310B5A3
:109D80001B4A5B00D158002907D08024A020194924
:109D9000A403C00544500021D150A223144A5B0003
:109DA000D158002907D08024A02012492404C005DE
:109DB00044500021D150A4230D4A5B00D158002902
:109DC00007D08024A0200B49A404C00544500021E2
:109DD000D150A623064A5B00D158002907D0802421
:109DE000A0200449A405C00544500021D15010BD55
:109DF000009000400C0500000122044BDA64044A84
:109E00009858044B1B68C0187047C04600A000401B
:109E10004C050000D8200020014B18787047C04640
:109E2000D42000200022014B1A707047D42000205B
:109E300010B5802304240A4AD4500A4B1A78002A09
:109E400008D000221A70084B084AD0500422044B54
:109E50001A6010BD0100064800F062F9F6E7C0463E
:109E600000E100E0682000201C0500000020004008
:109E700004220020F0B55F4656464D464446F0B4F5
:109E800083B00192002A24DD802399467C3B9246D0
:109E9000984600230C008A44124E134D04279B461B
:109EA00009E05B46114A3370114B0134D1504346EF
:109EB0002B6054450DD04B462178EF503378002B62
:109EC000EFD10C4800F02CF9434601342B60544587
:109ED000F1D1019803B03CBC90469946A246AB46EE
:109EE000F0BDC0466820002000E100E000200040F6
:109EF0001C05000004220020842270B54E4B520045
:109F00009958002934D14D4C8E234B4D5B00EA58B3
:109F1000002A09D000224A48EA509A3BC35C002B31
:109F200045D10122474B1A709222434B5200995857
:109F3000002928D18223E35C002B00D170BD0025CD
:109F4000414B20001D6000F0F9F8FA2837D03F4C53
:109F50002368F52847D0012B5DD0022B60D0032B5E
:109F600065D03B4B1A68002A37D000232360E5E711
:109F700000219950A322D2009958304CC9B2200038
:109F800000F0CEF8C0E7002199509022D2009958F5
:109F9000304806F0EDFBA02380212F4ADB059A58BC
:109FA000C903520208D4A122D2009950C2E700F09E
:109FB000C5F82A4BE850B7E7294A9950BAE7244B2D
:109FC0001A68012A31D0214C2268002A05D1254B7C
:109FD000FA321A7001232360B0E7012201201A60CF
:109FE000FFF7AAFBC1E7042BBBD11F4B1D4D1B780C
:109FF0002871292BB9D06B782978A8781B020B43DC
:10A0000000041A000300E878134300061843F52102
:10A01000FFF7F8FBA9E7134B5870022323608DE785
:10A02000104B98700323236088E71D60CBE70D4B2E
:10A03000D8700423236081E7002000406C210020B9
:10A04000042200206820002064200020E02000205E
:10A05000DC2000205C180200040500001C05000044
:10A060000C050000482400201423002010B51E48D1
:10A0700000F04CF81D4800F049F8A023E722032126
:10A08000DB05D2009950E82100220E20C9005A5069
:10A09000174B18495850184902305850174818495A
:10A0A0005850A0200421C0001950842040001A50AC
:10A0B00014301A5001329A601A60C2221E38FF38DA
:10A0C00092009850A120043A80009850C0230D4A75
:10A0D0005B00D1507C3014580B4B2340C024240427
:10A0E00023431350116010BD6C2100200422002076
:10A0F000002000400C0500001405000000E0D7011E
:10A100002405000000E100E0FFFF00FF00238022A3
:10A110007F21835401328154013283547047C046F9
:10A12000812210B57F24835C013323408354C154C2
:10A130000132835C0133835410BDC046802110B5C9
:10A140007F240200435CC05C01332340535402313E
:10A15000535C013B535410BDF0B557464E4645463F
:10A160008446E0B489469A460120002A3BD0B123B8
:10A1700000276146244E254D254CDB002F702770AB
:10A18000F1504946234BF150802189007750B0604F
:10A1900029780029FCD000212970012A2ED08021A5
:10A1A0000125194889004550012117488946016059
:10A1B000802189008846FF39A325FF3953460026B0
:10A1C0008C46ED0021780029FCD026704159013AD7
:10A1D000D2B21970012A0BD049460162002A01D07F
:10A1E0000133EFE700201CBC90469946A246F0BD23
:10A1F00041466746013347500262E3E7802102256A
:10A20000014889004550CFE700300040E42000209D
:10A21000E52000201C050000F0B5474680B407008B
:10A220000120002A27D00025B126A846134CF600AD
:10A230002570134DAF5180274646BF00EE51114E99
:10A24000A951A86021780029FCD000210020013A02
:10A250002170D1B201310A4E0A4D59181A78725143
:10A260002278002AFCD0013320708B42F6D10122E3
:10A270000020034B5A6104BC9046F0BDE42000204E
:10A28000003000401C050000F8B58423144A5B0030
:10A29000D158002904D00021D1500122114B1A704D
:10A2A0008E230F4A5B00D158002904D00021D150E1
:10A2B00001220D4B1A709225094C6D006359002B39
:10A2C0000CD00A4EA759FFF797FD39000200084845
:10A2D00006F04EFA0323A35100236351F8BDC04694
:10A2E00000300040E5200020E4200020C4040000ED
:10A2F00070180200A023E2211A4ADB05C90010B53C
:10A300005A5008395A500421174B053AFF3A9950D0
:10A31000164A023999500022CD200731FF315A5098
:10A3200014315A501249C0045850A120C121800054
:10A33000890058500539FF395A50A022FC39FF399D
:10A34000D2009950C023C0240A4A03315B00D15087
:10A350007C30135824061B021B0A23431350116040
:10A3600010BDC0460C060000003000400C05000087
:10A370002405000000E100E08022044BD2009A583E
:10A38000002A01D101321A607047C04600700040B7
:10A3900080220021054B52009950A122D2009A58E8
:10A3A000D3009B1A024A13807047C04600700040D9
:10A3B0008C2200200A4B0B490B4AC0209950A02147
:10A3C0000122C9005A50FD39FF395A50074A000688
:10A3D00053581B021B0A03435350802313607047DA
:10A3E00000700040041000000405000000E100E0DF
:10A3F000F0B5474680B4584C82B02578012D23D063
:10A40000002D0DD0022D07D1FFF7F6FC534B1B6832
:10A41000C01A534B984241D802B004BC9046F0BDDC
:10A42000B12277214F4BD20099508022753992008A
:10A4300099504D4A4631995001229A602270FFF797
:10A44000DBFC464B1860E7E7FFF7D6FC434E33686A
:10A45000C01A434B9842DFD9444F03223B000021EE
:10A460007720FFF779FE3B7877211A047B78582014
:10A470001B021343BA7813433D4A1360B122394B90
:10A48000D200995002228A31FF315A503649585031
:10A490009D602270FFF7B0FC3060BDE7334D0322B2
:10A4A0002B0000217720FFF757FE2B7800211A049C
:10A4B0006B781B021343AA782E4D13432E4A136068
:10A4C0006A89288912029B1A98461A00002303F011
:10A4D000EDFB4E06CB110021C2093243AE88300499
:10A4E00012184B41009201930021E8884246002354
:10A4F00003F0DCFB0E06020A32436E880B12F003F7
:10A50000002116001F00424636184F410023A8893B
:10A51000002103F0CBFBFA23DB009C464902C00D6F
:10A520000843164B60441860114B32001868002134
:10A530003B0003F0BBFBCD02420D4B152A430098B4
:10A540000199121A8B4111005B04CA0B1A430C4B80
:10A550001A60002323705FE7E6200020002100201E
:10A560000F270000003000401C050000F8200020EC
:10A5700054240020E820002050240020F421002052
:10A580000022002070B5A024094E0A4D2B000222A3
:10A5900021007720FFF7E0FD2B786A781B02023458
:10A5A0001343E4B233800236B02CEFD170BDC04605
:10A5B000E8200020FC20002030B501252048214B58
:10A5C000A0221860204BD205DB7A84249D401F4BCB
:10A5D0006400D5500023062203511D4B83B0C250A6
:10A5E00084210359164A4900002BF9D0A323DB002C
:10A5F000D358A0200093A123C005DB00C550009BC9
:10A6000001330093114BC550002360205350104B71
:10A61000D0505358002BFCD0A323094ADB00D35859
:10A62000A0220193A123D205DB00D550019B642019
:10A6300001330193FDF740FE012003B030BDC04659
:10A640000040004010210020042100200C050000E3
:10A650001C050000F0B5564644465F464D4684460C
:10A660000120F0B4874B884C92461C60874BA02297
:10A67000DB7AD2059840864B8426D05000230622F0
:10A680007600A351834B87B0E25084225200934658
:10A69000A2597D4B002AF8D0A324E4001A59A12620
:10A6A0000492A022AF27F600D2059051049E0136F5
:10A6B000049603AE377067463F0CB846777067461E
:10A6C0003F0AB946B7706746F770002900D19EE08F
:10A6D00057466D462F802F880197002F00D196E0B6
:10A6E0006B4F5D46D051002292465A5100940C00A7
:10A6F0005A4651469B46A246745C664D5C519C5836
:10A70000002CFCD084275C4600257F00E551009D8D
:10A710000131645905940429EED151464B1C5A4C21
:10A720009A460A785B4B2500E2503C0084222B5964
:10A73000554E5200002BF9D00023B350A323DB0069
:10A74000F358A0250593A123ED05DB00E8504B4607
:10A75000FF201B02000203406446FF20204018181F
:10A76000FF26434636041B0433401B180198544609
:10A77000013880B2013084460120824644488C442E
:10A780008146AF20C9438046CB18424E0093142027
:10A79000644544D00138C046C046C046C046C046A5
:10A7A000C046C046C046C046C046C046C046F1D1BD
:10A7B0005146364B4046DB7A99404B46E950314B87
:10A7C0001B68985198580028FCD0002083465F46AB
:10A7D0000930FF301F50A320C00018580590207882
:10A7E000985198580028FCD0002083465F460930D5
:10A7F000FF301F50A320C0001B5801340593A12334
:10A80000DB00E950009B1919234B9942BFD9002066
:10A8100007B03CBC90469946A246AB46F0BD013815
:10A82000C046C046C046C046C046C046C046C046F8
:10A83000C046C046C046C046F1D10120134BA022FD
:10A84000DB7A04219840124BD205D0500D4B1A6888
:10A85000104BD1500531FF315358002BFCD08423CD
:10A8600000215B00D150A323DB00D358A022059325
:10A87000A123D205DB00D050059B012001330593B5
:10A88000C6E7C046102100200040004004210020FF
:10A890000C0500001C050000FEFF0100F0B5444659
:10A8A0005F4656464D46F0B483B06C460323237092
:10A8B000030C6370030AE070A37092B200200029B9
:10A8C00001D0002A06D103B03CBC90469946A2466E
:10A8D000AB46F0BD284B294CA0272360284CFF0530
:10A8E000E57AA4460124AC40264D7C5184246400C2
:10A8F00018511800244B00259A4600239846A3239C
:10A90000DB000700A1469B466B4656465B5D8351C4
:10A910000359002BFCD04B464646FE505B46FB5885
:10A9200001350193042DEFD1174B8424A3269846BB
:10A930000027013A95B201350F484D196400F60021
:10A940004346C75003590C4A002BFBD084235B00BD
:10A95000D75093590B700131A942F1D16346DA7A8D
:10A960000123A0219340A122C905D2008B50019B55
:10A97000012001330193A6E7004000401021002090
:10A98000042100200C0500001C050000F0B55F4606
:10A9900056464D464446F0B489B006AD0622002125
:10A9A0002800FDF735FC40236B70353BAB70023B54
:10A9B000EB7009332B71013B6B71894B2900981D9A
:10A9C00006229A4605F0CBFEAB7803229846414614
:10A9D000A0230020C131FF31DB058900CA50E9788E
:10A9E00084468946C131FF318900CA5029794446DD
:10A9F0008B46C131FF318900C8506F79A1203900E1
:10AA00004E46C131FF318900CA507649C0000C5012
:10AA1000754C0E515E46A04604340E51012634009A
:10AA2000BC401C506F78714C3F060F512F78704D11
:10AA300064464F518427543D7F00CC514E51E02550
:10AA4000ED005A516B4D5A51802292011E501A50FE
:10AA50005246694D2960D27A964042469E50502215
:10AA6000664BCC51CA508422C8595E4B5200002814
:10AA7000F9D0A321C9005958A0200191A121C005F6
:10AA8000C9004650019901270131019156494650AC
:10AA900000205A4998505F5058508427995851487F
:10AAA0007F000029F9D00023C351A323DB00C35842
:10AAB00002938422C1594B4B52000029F9D0A321A3
:10AAC000C9005958A0200291A121C005C9004650D3
:10AAD0000299052701310291434946500020474918
:10AAE00098505F505850842799583E487F0000295D
:10AAF000F9D00023C351A323DB00C3588421C259DA
:10AB0000384B4900002AF9D0A322A027A120D20067
:10AB10009A58C000FF05D2B23E500020002A06D04D
:10AB200009B03CBC90469946A246AB46F0BD2E48C3
:10AB30003E5006205A50314A985084205F58294A86
:10AB40004000002FF9D0A323DB00D358A0210393AA
:10AB5000A123C905DB00CE50039B01330393224B95
:10AB6000CE50002360211350244BD15084235B002E
:10AB7000984613581B4F002BF8D0A323DB00FB583B
:10AB800064200493A023DB059946A1234A46DB00F9
:10AB9000D650049B01330493FDF78EFB53462F6080
:10ABA000DA7A0123494693400F4A8B5000224146EE
:10ABB0007A50124A0339FF39B9504246B958002930
:10ABC000FCD0A3220749D2008A58A0210592A122D5
:10ABD000C905D2008B50059B0120013305939FE7E7
:10ABE00004210020004000400C0500002405000066
:10ABF0005405000034070000102100201C0500004F
:10AC000030B5554C83B0A37A002B00D197E06B464A
:10AC1000DD1D00232B7023680122597C636818789E
:10AC20002B00FFF7F9FA002800D088E02368012202
:10AC30005979636818782B00FFF7EEFA002800D0E6
:10AC40007DE0236801221979636818782B00FFF7EB
:10AC5000E3FA002800D072E02423E35C002B36D016
:10AC60000C232B70236801221979636818782B0054
:10AC7000FFF7D2FA002862D13230FDF71DFBC02366
:10AC80002B70A37ADB0762D42368012219796368E9
:10AC900018782B00FFF7C0FA002850D1637C002BF6
:10ACA00058D12B7023680122597C636818782B00D7
:10ACB000FFF7B2FA002842D12368287059796368F7
:10ACC000012218782B00FFF7A7FA404235E0042351
:10ACD0002B70236801221979636818782B00FFF71D
:10ACE0009BFA00282BD1A27C4023002A2AD02B706B
:10ACF000236801221979636818782B00FFF78CFA12
:10AD000000281CD13230FDF7D7FA637C5A1E9341DC
:10AD10002B7023680122597C636818782B00FFF799
:10AD20007BFA00280BD12300226810335179626826
:10AD300010780122FFF770FA404203B030BD0120C5
:10AD40004042FAE7A27AD207D1D52033CFE7E023F9
:10AD50002B7099E70223A4E76C20002070B5060051
:10AD600082B0282800D9BBE02323694C01ADE35C05
:10AD700000282CD1002B18D02870A27C8023002A18
:10AD800002D07E3B2B7080332222A25C002A00D0AE
:10AD90008AE023680122D97D636818782B00FFF7C9
:10ADA0003BFA002801D12323E05400232B70073302
:10ADB0006B7023680222597D636818782B00FFF7B7
:10ADC0002BFA002800D08BE0207502B070BD012B5B
:10ADD00019D030232B70A27C8033002A02D07E3B16
:10ADE0002B7080332222A25C002A5BD123680122CF
:10ADF000D97D636818782B00FFF70EFA002802D17E
:10AE000001222323E25420232B70012E6BD0052E28
:10AE100059D9142E4AD903236B70A37A002B6FD013
:10AE200004236A46D370E37A042B69D02368012295
:10AE30009978636818786B460333FFF7EDF90028BB
:10AE400060D16B460722DB78E3726B789B0113437A
:10AE5000DBB26B7023680222597D636818782B007F
:10AE6000FFF7DAF900283BD108230122A3722073EF
:10AE700022751C33E35C002B12D12374637C002BFE
:10AE80000ED16B46DA702368597C636818786B467C
:10AE90000333FFF7C1F9002802D16B46DB786374F6
:10AEA000002092E72B70A1E72B7072E702236B70F2
:10AEB000A37A002B05D005236A46D370E37A052BCD
:10AEC000B4D18723C5E701236B70A37A002B05D08B
:10AED00006236A46D370E37A062BA7D14723B8E747
:10AEE0000120404271E700236B70A37A002B05D04C
:10AEF00006236A46D370E37A062B97D10723A8E787
:10AF0000C723A6E76B789A0107231343DBB2A0E7B8
:10AF10006C20002010B5114A0100537A012B19D082
:10AF2000002B13D0022B0AD0032B0CD1102320248A
:10AF30000370D37C0020002B00D00C7010BD0823C0
:10AF400010240370F5E701204042F7E702230424B0
:10AF50000370EEE7042308240370EAE76C20002066
:10AF600070B51C4C82B0A37A002B27D06B46DD1D38
:10AF7000BB2816D8612817D902232B70E27A002645
:10AF80009A420BD0236801229978636818782B00C5
:10AF9000FFF742F9002811D12B78E372300002B09C
:10AFA00070BD01232B70E9E7292804D8132808D99C
:10AFB00004232B70E2E703232B70DFE701267642A0
:10AFC000ECE7092802D905232B70D7E706232B705D
:10AFD000D4E7C0466C20002070B5584C82B0A37AEC
:10AFE0000600002B00D196E02423E35C002B00D068
:10AFF00091E0227D002A30D0421E272A00D885E029
:10B000002322A25C01AD002A18D02B70A37C8022E1
:10B01000002B02D0022302322B702223E35C002B90
:10B0200000D071E023680122D97D636818782B0075
:10B03000FFF7F2F8002801D12323E05400232B70FE
:10B0400007336B7023680222597D636818782B00E0
:10B05000FFF7E2F8002800D12075F920032E31D83F
:10B060006B46D870236801225978636818786B465C
:10B070000333FFF7D1F800284DD16B46FA20D97879
:10B080008000013102F0AEFCA37A80B2E08140087A
:10B09000002B14D001ADBB2821D9012301222B7034
:10B0A000E37A93420BD02368012299786368187879
:10B0B0002B00FFF7B1F8002801D12B78E3720020B4
:10B0C00002B070BDFA23311C9B009E420FD8FA20BB
:10B0D00089B2800002F086FC0138C0B2C0E7612866
:10B0E0000ED829281AD9032303222B70D8E7FA2077
:10B0F000191C89B2800002F075FC0138C0B2AFE7BC
:10B10000022302222B70CBE72A708BE7C0B2FFF735
:10B1100025FE0020D4E701204042D1E7132805D8BE
:10B12000092807D9052305222B70B9E70423042237
:10B130002B70B5E7062306222B70B1E76C200020A8
:10B14000F0B54746242380B4304D82B0EB5C002438
:10B15000002B2BD1AC7A002C54D0013398430440FF
:10B160002F7C2C74041B621E94410600644200284C
:10B1700021D12A7D002A30D06A7C002A16D10732DC
:10B180006A4413702B689046597C6B6818781300DA
:10B190000122FFF741F8002808D143461B786B7461
:10B1A000002E03D0FFF72CFD002827D1200002B08D
:10B1B00004BC9046F0BD6A7C002AF3D107226A44A1
:10B1C00013702B689046597C6B6818781300012225
:10B1D000FFF722F80028E0D0E4E76B46DA712B682D
:10B1E0000122597C6B6818786B460733FFF714F817
:10B1F0000028DBD16B46DB796B74D7E701242F7411
:10B200006442D3E701246442D0E7C0466C200020AA
:10B21000F0B54F4646467023C0B4050083B00340E6
:10B2200069D06B469E1D01233370484C0122236870
:10B23000597D636818783300FEF7EEFF002800D0D0
:10B240007EE0402233783070934323732A4266D0E5
:10B250003A20844637388146013838233922012183
:10B260003B278046A80604D443463A00337049463B
:10B270006346E80601D4130031702A0700D4337006
:10B2800023680122997D636818783300FEF7C4FFB4
:10B29000002855D108232A009A4320D02323E35CB9
:10B2A000002B1CD06B46D871A37C8022002B03D0CE
:10B2B0006A460223D37182222223E35C002B01D051
:10B2C0006B46DA7123680122D97D636818786B4672
:10B2D0000733FEF7A1FF002801D12323E054002308
:10B2E0003220A5722375FCF7E7FF002003B00CBCE9
:10B2F00090469946F0BD00281ED16B464027134C5E
:10B300009E1D23683770597D6368012218783300C9
:10B31000FEF782FF002813D13378BB4323733E200E
:10B320000423844637388146013833703D22383350
:10B3300005213F27804695E76A46961D337074E7DE
:10B3400000230120A3724042D0E7C0466C200020B9
:10B35000802370B5774C84B002AD2B702368012236
:10B36000597D636818782B00FEF756FF061E00D043
:10B37000C2E06420FCF7A0FF23682E70597D63684B
:10B38000012218782B00FEF747FF002800D0B3E019
:10B3900070232B7023680122D97E636818782B00F4
:10B3A000FEF73AFF002800D0B5E023680622597E58
:10B3B000636818782B00FEF7CFFE002800D09BE0D2
:10B3C00004216B7901269B0019400223EA78520080
:10B3D00013406A780B433240134300D182E0D9B264
:10B3E000012B03D0022900D098E00023E37400234E
:10B3F0002B7023680122D97E636818782B00FEF732
:10B400000BFF051E00D086E00122FF235242A372EB
:10B4100023726372E372E2812274A3742332FE3BCF
:10B42000A35423732233E054607520752000163A2C
:10B4300016300021FCF7ECFE2423E5540133E554DB
:10B44000A37AE584002B57D06B46DD1D18232B70A3
:10B45000237A032B0FD02368012299796368187827
:10B460002B00FEF7D9FE002846D12B78DB0823728B
:10B47000A37A002B40D000232B70637A002B0FD0CF
:10B4800023680122D979636818782B00FEF7C4FE7F
:10B49000002831D12B78DB086372A37A002B2BD0E4
:10B4A00005232B70E37A052B0BD0236801229978B2
:10B4B000636818782B00FEF7AFFE00281CD12B78AC
:10B4C000E372FA208000FFF787FD002814D10020E6
:10B4D000FFF736FE041E0FD10020FFF799FE200073
:10B4E00004B070BD23680122D978636818782B00F6
:10B4F000FEF732FE002802D001246442EFE70F225B
:10B500002B78134010D0042B00D06EE70A4805F0CA
:10B510002FF9E6746BE703246442E0E7012407484F
:10B5200005F026F96442DAE70124054805F020F920
:10B530006442D4E76C20002048190200D0180200B1
:10B54000F8180200F0B54F4646462423C0B4284CF4
:10B5500083B0E35C070089469046002B3BD0A37A7A
:10B56000002B38D0236801AE197B6368022218785B
:10B570003300FEF7F1FD00282DD1357873782D02C8
:10B580001D43BD422AD3606843885B089D420CD9A5
:10B5900023680078D97C01223300FEF7DDFD002806
:10B5A00019D13378DB061DD460682368FAB2597B61
:10B5B00000784B46FEF7D0FD00280CD1390028005A
:10B5C00002F086F9434601381870002003B00CBC25
:10B5D00090469946F0BD01204042F7E74346187077
:10B5E0000138F3E7FFF70CFB02204042EEE7C046CC
:10B5F0006C20002070B50D0082B0161E20D0124CB9
:10B60000A37A002B1CD0020A01AB1A70C0B2626888
:10B61000587040185189884212DC21681078C97E20
:10B620000222FEF7F9FD00280AD12368EAB2197E4A
:10B63000636818783300FEF7EFFD404202B070BD3A
:10B6400001204042FAE7C0466C200020F0B5564683
:10B650005F464D464446F0B48BB003932523514ECC
:10B6600001910292F35C8246002B75D1002973D0C0
:10B67000002800D194E00400102800DD75E0A3B29A
:10B680009B46B37A002B67D0002305AF70683B70F0
:10B690007B7043899C425FDC019B0025984638E023
:10B6A00033681078D97E02223B00FEF7B5FD0028F2
:10B6B00052D133684A46197E7368187806ABFEF794
:10B6C0004BFD002848D1220006A9404605F038F875
:10B6D00000284CD15D44ADB2AA454BD953465C1B02
:10B6E000102C00DD1024A3B29B46019B9846A84471
:10B6F0004346002B30D0B37A002B2DD02B0A3B7061
:10B700007068EBB222047B70120CD318428993420A
:10B7100022DC33680078D97E02223B00FEF77CFDF4
:10B72000002819D1E3B2994633684A46197E7368F6
:10B7300018784346FEF770FD00280DD1B37A002B30
:10B740000AD02B0A3B707268EBB27B702404240C85
:10B7500051891B198B42A3DD012040420BB03CBC38
:10B7600090469946A246AB46F0BD102487E70220DA
:10B770004042F3E7029A130A3B7033687A70597FAC
:10B780007368022218783B00FEF746FD0028E3D1DB
:10B7900025230122F2546B469B890020F384DDE7C8
:10B7A00005AFE8E76C200020242330B55A4C83B065
:10B7B000E35C834276D0002800D17AE02522A25CA7
:10B7C000002A00D19EE0002B00D06EE0A27A002A71
:10B7D00000D19AE06A46D51D2B7023680122597C5E
:10B7E000636818782B00FEF717FD002801D12B782D
:10B7F0006374A37C002B36D0236801221979636817
:10B8000018782B00FEF7A8FC00282CD1A37ADB07C0
:10B8100000D56FE020222B7893432B702368012200
:10B820001979636818782B00FEF7F6FC00281AD106
:10B830000330FCF741FD2223E35C3022002B01D0D2
:10B84000802380322B702323E35C002B00D02A70EE
:10B8500023680122D97D636818782B00FEF7DCFC91
:10B86000002800D1A074E08CFFF7B6FB6B460022E5
:10B8700006331A706268232110780122FEF7CCFC8F
:10B8800024230122E254223B2B702368597C6368F5
:10B8900018782B00FEF7C0FC002801D12B786374C8
:10B8A000FFF7AEF9002003B030BD6B46DD1D00236D
:10B8B00092E7002B22D1A27A002A29D06A46D51D10
:10B8C0002B7023680122597C636818782B00FEF7DF
:10B8D000A3FC002801D12B786374237C01222B70F8
:10B8E0006368232118782B00FEF796FC002224239E
:10B8F000E254D5E720232A7813438EE76B46DD1DFB
:10B900002870DEE701204042CDE76B46DD1D70E781
:10B910006B46DD1DE1E7C0466C200020802210B59B
:10B92000C823D20002490348FFF790FE10BDC0466D
:10B93000E0190200F60B0000F0B5404C87B002AFF2
:10B94000050003AE21000322380004F008FF211D8A
:10B950000322300004F003FF21000322083104A871
:10B9600004F0FDFE210003220C3105A804F0F7FECF
:10B97000032108006A466C4628403B5C1370EA08C5
:10B980000A40BB5CB25C6370AB090B40F95CF35CD2
:10B99000A170315C01AC2170627003216A462848B5
:10B9A000A370FFF727FE002845D122000321254878
:10B9B000FFF720FE00283ED1032204A9684604F0C8
:10B9C000CEFE032205A9200004F0C9FE6B0708D5AE
:10B9D0006A460123694612781A430A702278134393
:10B9E0002370AB0608D56A460123694652781A438C
:10B9F0004A70627813436370EB0512D488206A465C
:10BA00000321C000FFF7F6FD002814D12200032116
:10BA10000D48FFF7EFFD00280DD10C4B1D8107B03D
:10BA2000F0BD6A460123694692781A438A70A2786B
:10BA30001343A370E2E701204042F0E794190200AB
:10BA4000260400002A040000310400001421002014
:10BA500010B5144986B004000C22103103A804F07C
:10BA60007EFEC82C1AD82100C82001F0BBFF013887
:10BA700080B201AA030A507002210B481370FFF72D
:10BA8000B9FD00280AD103AA0C210848FFF7B2FD2E
:10BA9000002803D1064B9C8106B010BD0120404216
:10BAA000FAE7C0469419020016020000C10A00001D
:10BAB00014210020F0B5050083B043076BD0C823E4
:10BAC000DB00994267D8080002F096FF4D4902F06A
:10BAD000C5FA6B46DC1C071C2000FFF71BFA237815
:10BAE000042B00D17DE033D9082B6AD0102B52D122
:10BAF0008A21381CC90502F07BFC02F003F9424997
:10BB000086B2381C02F074FC02F0FCF880B201AC82
:10BB1000330A2370030A6670A370E070EB0729D420
:10BB2000AB073CD400206B0737D5EE202200022162
:10BB30004000FFF75FFD00282DD16B462D309A1D88
:10BB40000221FF30FFF756FD431E9841404224E09A
:10BB5000022B20D18D21381CC90502F049FC02F0CE
:10BB6000D1F82A4986B2381C02F042FC02F0CAF829
:10BB700080B2CCE7EA20220002214000FFF73AFD24
:10BB8000002808D16B4625309A1D0221FF30FFF7AF
:10BB900031FD0028C4D00120404203B0F0BDEC20AC
:10BBA000220002214000FFF725FD0028F3D16B465B
:10BBB00029309A1D0221FF30FFF71CFD0028B1D06B
:10BBC000E9E78B21381CC90502F012FC02F09AF853
:10BBD0000F4986B2381C02F00BFC02F093F880B2D9
:10BBE00095E78C21381CC90502F002FC02F08AF8A6
:10BBF000084986B2381C02F0FBFB02F083F880B2E1
:10BC000085E7C046000048430000C04400004046AD
:10BC1000000040450000C045F0B54E464546574639
:10BC2000E0B486B0924B03AC0600220004216820E9
:10BC30000393FFF7DFFC4022A3233240237090469A
:10BC400000D10DE11D3363700833A370063BE37030
:10BC5000C0277F00374000D1FDE0C42323710833A3
:10BC60006371063BA371A32322000A218148E3717B
:10BC700023726372FFF7BEFC0323334099464A46A2
:10BC80002023002A00D1B833220001217A482370F2
:10BC90006D46FFF7AFFC09227849B30600D4D8E01F
:10BCA0001C31280004F05BFD97202A000921C00008
:10BCB000FFF7A0FC002F09D0F30500D5D4E0704BAE
:10BCC0000393220004216F48FFF794FCF30700D48C
:10BCD000B6E08B20F8232200012100012370FFF73A
:10BCE00089FCFA210720FFF7E5FEA4203F232A0064
:10BCF000012140002B70FFF77DFC002350209A4665
:10BD00002A000121FF302B70FFF774FC5346EF200F
:10BD10002B7014232A00022140006B70FFF76AFC8D
:10BD20005346ED202B7064232A00022140006B70E3
:10BD3000FFF760FC53462B708E23AE206B706B3385
:10BD4000AB702A00693B04214000EB70FFF752FC06
:10BD50005346AD202B7008232A00022140006B704F
:10BD6000FFF748FC5346AC202B7002232A00022127
:10BD700040006B70FFF73EFCB307DB0FD8332200A7
:10BD8000012141482370FFF735FC730752D53F4B23
:10BD900000932A0004213E48FFF72CFCFEF730FFF9
:10BDA000F30641D53B4B00932A0004213A48FFF7A4
:10BDB00021FCFEF725FF0823384C33436381FEF74F
:10BDC0001FFF4346002B22D10A20434684460C30F5
:10BDD00082461038A3731422042310211A258046AA
:10BDE000002F04D043462A00A37351466346142013
:10BDF000304201D01300A1734A46002A00D0A37339
:10BE0000002006B01CBC90469946A246F0BD10200A
:10BE1000062384460C3082461038A3731A2204335A
:10BE2000162120258046DBE70422A3212800FCF709
:10BE3000EFF9B9E704228B212800FCF7E9F9A8E71C
:10BE40008B20D8232200012100012370FFF7D2FBB1
:10BE500092E7283125E7A32323716371A37102E7D9
:10BE60006370A370E370F3E60D4B039329E7C046BC
:10BE700002CAE309A70A0000B60A000094190200EA
:10BE8000B080B490A20A00003D070000C0C2C4C642
:10BE9000980A0000202830389E0A00001421002053
:10BEA000B28BB69BF0B544465F4656464D460023DE
:10BEB000F0B491B014001A9A070013807B4B8846A7
:10BEC000987B1B9A08A9FFF73DFB061E00D0E4E013
:10BED0001422764B5B891A4200D07DE002250022B5
:10BEE000AC46013D062404210320A9469246934610
:10BEF0000C320792013A0692013A0592013A0492F5
:10BF0000013A0392013A0292013A0192013A0092F7
:10BF10005D0630D5524608ADAA5CA3461202924691
:10BF20002A004D46525D55461543424615806546EA
:10BF300008AA525D079C1202944608AA105C624649
:10BF4000104342465080009808AA515C125C0902D6
:10BF50001143424691801A9A0498118808220A4394
:10BF60001A990A80069A05990092039A9446029AB1
:10BF70009146019A9246C0256D002B4222D055462B
:10BF800008AA525D4D461202904608AA525D4546E7
:10BF900015433D80654608AA525DA34612029446A9
:10BFA00008AA105C62461043788008AA0098515C89
:10BFB000125C09020A43BA801A9A118870220A4355
:10BFC0001A990A809B074BD1300011B03CBC9046B7
:10BFD0009946A246AB46F0BD089A11BA099A21606B
:10BFE00010BA0A9A606012BA9246A2600B9A0014C4
:10BFF00012BAE2600C14514664430914404312140F
:10C0000049435243201840188018F12212069446E2
:10C01000802260449204904242D880211A9A4900BA
:10C02000128816240A431A9913200A801022934674
:10C030000C320792013A0692013A0592013A0492B3
:10C04000013A0392013A0292013A0192013A0092B6
:10C05000033A9446013A9146013A1421924657E731
:10C0600008AB9C465C4664446378E778DA070BD5F6
:10C070000E4A1268002A07D007200100FB08394049
:10C0800018400131904763781B079DD5074B5B68CB
:10C09000002B99D0B809984796E70126764293E796
:10C0A000FEF7AEFD1A9B1E80013E8DE71421002095
:10C0B0000023F0B5C356002B36DD302200232024A8
:10C0C0000821282610259446382703228256002A64
:10C0D00018DD062141560022002902DD134398B2E3
:10C0E000F0BD00293AD10721415640320029F5DC44
:10C0F00051D10821415640320029EFDC59D1E022CC
:10C100005200EBE7002A27D1042282560B00002AB6
:10C11000DFDC3ED1052282562B00002AD9DC3B0011
:10C12000002AD6D06346D4E7002B0CD10123C35696
:10C13000002B16DD31220123212409212926112576
:10C1400094463927C1E73422042324240C212C26C9
:10C15000142594463C27B8E72300BAE78022520012
:10C16000BCE7002B0CD10223C356002B16DD322274
:10C17000022322240A212A26122594463A27A4E7DC
:10C180003522052325240D212D26152594463D27EE
:10C190009BE733009DE7A02252009FE7002B0BD1C5
:10C1A0003722072327240F212F26172594463F27C0
:10C1B0008BE70132FF3291E73622062326240E2137
:10C1C0002E26162594463E277FE7C046F0B55F46EB
:10C1D00056464D464446F0B4724B91B004AA94467C
:10C1E00001930E23634400930CAA00230AA908A814
:10C1F000FFF758FE40B2002800D0CBE00C9802F0C8
:10C20000B3FBC221890502F0F3F8041C0D9802F07B
:10C21000ABFBC221890502F0EBF880460E9802F0D4
:10C22000A3FBC221890502F0E3F881460F9802F0D2
:10C230009BFBC221890502F0DBF8211C051C201C98
:10C2400002F0D6F84146071C404602F0D1F84946B4
:10C250008246484602F0CCF8291C0290281C02F0C5
:10C26000C7F85146061C381C02F0D6F9029902F0B4
:10C27000D3F9311C039601F07BFD04F0E9F9049039
:10C280000591291C484602F0B3F841468346201C1C
:10C2900002F0AEF8011C584601F06AFD04F0D8F92E
:10C2A00002000B0002F0E6FB049A059B00F06EFD15
:10C2B00000223D4B03F02EFB04F01AF93B4B291CE6
:10C2C0001880404602F094F849468346201C02F04C
:10C2D0008FF8011C584602F09FF904F0B9F9C02309
:10C2E00000221B0603F016FB00F0EEFC80268B46B6
:10C2F000844636065E44604600222B4B310003F034
:10C3000009FB04F0F5F82A4B51461880381C01F05F
:10C310002FFD029902F080F9039902F07DF904F0F3
:10C3200097F906000F004046494602F061F8291CC3
:10C330008046201C02F05CF8011C404601F018FD0C
:10C3400004F086F902000B0002F094FB32003B007F
:10C3500000F01CFD0022144B03F0DCFA04F0C8F8D6
:10C36000144B188004AB1A8B134B1A8004AB5A8BF6
:10C37000124B1A8004AB9A8B114B1A8004AB1A8AA9
:10C38000104B1A8004AB5A8A0F4B1A8004AB9A8A5E
:10C390000E4B1A8011B03CBC90469946A246AB4663
:10C3A000F0BDC04668210020005FC440F02100209D
:10C3B000FC2100206621002088220020642100202A
:10C3C0006A210020702300208A22002004240020FB
:10C3D00070B5050082B000200E00FEF7B9FF010025
:10C3E000324804F0C5F97820FEF712FF010030480A
:10C3F00004F0BEF97820FEF7A3FE01002D4804F0FA
:10C40000B7F9002D22D16B46DC1D0122DD711A2106
:10C4100023006820FDF700FF0100274804F0A8F979
:10C42000FA203100400101F0DDFA013820701921B5
:10C43000230001226820FDF7EFFE01001F4804F0F1
:10C4400097F940221E4B1A6002B070BDFFF766FAE2
:10C4500001001C4804F08CF91B48FFF729FEFFF788
:10C460006BFA0100194804F083F97220FF30FFF7DE
:10C47000D3FB0100164804F07BF96420FFF7E8FACB
:10C480000100144804F074F90120FFF78DF9010050
:10C49000114804F06DF90A20FEF762FD01000F4813
:10C4A00004F066F90A20FBF707FFCAE7F825020047
:10C4B0001026020028260200D0260200E8260200EC
:10C4C00000E100E0402602009820002058260200EB
:10C4D0007026020088260200A0260200B82602006C
:10C4E00010B50B0001000B4804F042F98021A12394
:10C4F000A022FA20C900DB00D205D150C000FBF712
:10C50000DBFEBFF34F8F044A044BDA60BFF34F8F5B
:10C51000FEE7C046002702000400FA0500ED00E037
:10C5200080218023184A8902D1508022D221174BC2
:10C53000520289005A5040395A5001222F205A6025
:10C540000138C046C046C046C046C046C046C04688
:10C55000C046C046C046C046C046F1D19A600023DE
:10C560000B4A2F2013600138C046C046C046C04663
:10C57000C046C046C046C046C046C046C046C0468B
:10C58000F1D1044A1370704700E100E0001001404F
:10C590002421002044210020A021F0B5002347469B
:10C5A0002C4A490080B45350043153500431535045
:10C5B000043153504C39535004315350264B1B68AF
:10C5C000002B37D02549002652582549254F0C68A5
:10C5D000141B00222402240A904602E0002D1AD0E7
:10C5E0002B001A68A24216D8A41AB6181A7CDD6964
:10C5F000002AF3D0424699691A745A693B68002BA5
:10C600001BD0100098470028E8D000220021FFF737
:10C6100067FF002DE4D1144B14491A780B789A4225
:10C620000ED0134A9B009E5080218023114A49035B
:10C630005B00D15004BC9046F0BD08009047CDE7A8
:10C640000132D3B2022B01D00B70EAE700230B704A
:10C65000E7E7C04600100140282100200405000043
:10C66000242100202C210020382100203921002005
:10C670003C21002000E100E0F0B55F4656464D4603
:10C680004446F0B4C54BC64A1B68C6498BB00593F7
:10C6900009781378994200D157E10133DBB2022BBC
:10C6A00000D100231370C04A9B009B58BB4A9A4696
:10C6B000059B53441B021B0A136001230193BB4BD0
:10C6C00000241B689B46BA4B5A461B7891461900BA
:10C6D0000393B84B88461B6847460493AF4B013F12
:10C6E0001B680793B44B1B78099300239C46069361
:10C6F0000893FBB266469846FF2B32D04346D800DB
:10C70000049B9C46130060440178457800961A000B
:10C71000A9421FD046684A00B446521886780131B3
:10C72000D200C9B262448E4200D1EDE01678022EEA
:10C7300000D1C7E0032EEAD1002BE8D01C74DB69DE
:10C74000002BFBD1013345780093002399461A0052
:10C75000A942DFD14746013FFBB2009E9846FF2B1E
:10C76000CCD1089BC8460292B446002B00D0F0E022
:10C77000069B002B02D0894B079A1A606346002B58
:10C7800002D04246894B1A60019B002B00D02DE15C
:10C790005B46029A00259B1A5A1E9341DBB2059311
:10C7A0007E4B00271B6802999C46804B1B689B466A
:10C7B000814B1B78069300230193804B99460123FC
:10C7C0000093039B013BDBB20393FF2B00D1F9E005
:10C7D000049ADB0092460E009A44002D28D06A6825
:10C7E000A9682C00ED696346D31A1B021B0A4B454E
:10C7F00052D86A4612785B1823606760A76022747B
:10C80000E761002E58D031683000994205D3B9E075
:10C810001168994200D3A3E01000C2695B1A002A94
:10C82000F6D1E26132002360C4611600002DD6D13A
:10C8300053461A785B7831009342C2D0514649681A
:10C840005300884651469B180132D2B20A7089784B
:10C85000DB004344914200D19DE019783200012968
:10C86000E3D15C68227C9046414632000029DCD14D
:10C870009A686260D968A1601869E0605B69A36129
:10C88000069B002BAFD04346002263606346D31A59
:10C890001B021B0A4B45ACD963469A1A1202120AB4
:10C8A0008A4264D28B1A6A46127823606760A76056
:10C8B0002274E761002EA6D122000123A346019332
:10C8C0001600B3E75668002B30D09E421ED0009A67
:10C8D0001F00944602E0964206D01700FA69002A2B
:10C8E000F9D16246009212E765460095BA420FD030
:10C8F0001568D269FA61002A16D013689C4665440F
:10C90000156045784B4602E700210FE71A001F002B
:10C91000DE69002E0CD0012500951568D269B1465C
:10C920003300FA61002AE8D14578F0E60023EEE60C
:10C930000125234B9D600095069500250023079552
:10C940000135994608950995D2E700239A46019347
:10C95000B5E66A4624215218174B12781A7007E779
:10C96000C91A1160E26123603200C4615DE76B4661
:10C970001B7827606760A7602374E761002E9BD057
:10C9800000233168CB1A336022000123E661A346FD
:10C99000019316004AE7524615705EE724210020F5
:10C9A00038210020392100203C21002028210020AE
:10C9B00030210020342100203A210020FEFF7F009A
:10C9C00000100140019B002B00D09DE0029B99428A
:10C9D00036D1059B002B33D10023534A13700BB083
:10C9E0003CBC90469946A246AB46F0BD4F4B002456
:10C9F00018680025029B00210026574615E01A689A
:10CA0000BA4200D984E0D868BF1A89181E60DC6970
:10CA1000002807D0DD611D00059A986052181202A7
:10CA2000120A5A6023002000019C002BE7D1002C41
:10CA300001D03E4B18600023029301330593AFE60B
:10CA4000002900D15DE00B6839489846394B3A4DD2
:10CA5000C4583A4B2E781B68E11A0902090A0331BF
:10CA6000002E2DD042468A4200D20A00A820D218B9
:10CA700012022F49130AC0002E4D0B504A591B1B9E
:10CA8000121B1202120A1B0203321B0A9A42A3D97A
:10CA90004B590B502F200138C046C046C046C046F7
:10CAA000C046C046C046C046C046C046C046C04656
:10CAB000F1D180218023224A89025B00D1508BE78B
:10CAC0008026D1277602BF00C651403FC651C02202
:10CAD00080271B4EBF025200B75037600126066008
:10CAE0002F200138C046C046C046C046C046C0469A
:10CAF000C046C046C046C046C046C046F1D12E70B2
:10CB0000B0E7FFF70DFD67E75A46084B1A605DE78F
:10CB1000BA46002C01D0054908605146521A1A60E5
:10CB20000293012305933BE63A21002028210020AF
:10CB300000100140040500004421002024210020B1
:10CB400000E100E051DF704761DF7047F0B5574604
:10CB50004E464546E0B4344B344E1D6899466B4210
:10CB60005D41334BEDB21C68984663425C4182B034
:10CB7000E4B2304FB246002D13D0002C40D13C68B7
:10CB8000338801A920000B80FFF7DEFF052837D08E
:10CB900000282AD000220021FFF7A2FC0024002D4B
:10CBA000EBD101A8FFF7CEFF05280DD0002822D039
:10CBB00000220021FFF794FC002C27D0012401A8BB
:10CBC000FFF7C0FF0528F1D1002C19D153466A4662
:10CBD0001B8801A99380174B1C682000FFF7B4FF46
:10CBE00005280DD001250028D4D1434620001B681C
:10CBF00098470024D3E74B4601981B689847DBE72A
:10CC000002B01CBC90469946A246F0BD6A46074B4E
:10CC100001A91B889380074B1C682000FFF794FF35
:10CC20000528B5D10124CAE74C2100204621002067
:10CC3000502100204821002010B50A4B1B68002B12
:10CC400008D09847002800D110BD00220021FFF72E
:10CC500047FCF9E7044B1B78002BF5D0FFF776FF74
:10CC6000F2E7C046542100204521002003210A4854
:10CC700002680A430260094802680A4302600849E0
:10CC8000084A094B9B1A03DD043BC858D050FBDC13
:10CC900006488047064800472405004054050040E8
:10CCA0005429020000200020AC2000202582010031
:10CCB00021810100FEE7FEE7FEE7FEE7FEE7FEE773
:10CCC00049004B0819007047F0B546464F46C0B4BE
:10CCD0008DB004000D0000F0BDF8284B060098460A
:10CCE0001B780F005BB2013332D022002B002000F2
:10CCF000290003F0DDFB8146002829D1200029000E
:10CD0000FFF7DEFF00221E4B00F082FF00281FD03D
:10CD1000012302931B4B1C4803934B460694079533
:10CD20000A930494059500F0CDFD43461B780890C6
:10CD300009915BB2022B12D002A800F0C1FD0028BD
:10CD40000DD00A9B0193002B11D10898099901E09D
:10CD5000300039000DB00CBC90469946F0BD03F090
:10CD6000E9FC212303600A9B0193002BEDD003F023
:10CD7000E1FC0A9B01930360E7E7C046A120002085
:10CD80000000F03F28270200CC18020010B500F088
:10CD900047FA10BDF0B546464F46C0B48DB004000A
:10CDA0000D0000F0F9FA294B009001911B785BB25D
:10CDB0009846013312D022002B002000290003F0F6
:10CDC00077FB8146002809D10026002732003B006E
:10CDD0002000290000F008FF002806D100980199E2
:10CDE0000DB00CBC90469946F0BD01230293184B40
:10CDF0000694079503934B460A934346049405957E
:10CE0000002B15D03B0032003000390002F05EF9F3
:10CE1000434608900991022B0CD103F08BFC21238F
:10CE200003600A9B0093002B0AD108980999D7E761
:10CE30000896099702A800F043FD0028F1D1ECE71D
:10CE400003F078FC0A9B00930360EEE7A12000202A
:10CE500030270200F0B557464E464B005B089A4615
:10CE6000C0B4CD4B87B006000F0089469A4512DD4D
:10CE7000CA4B5344034322D002000B0002F0C4FF0C
:10CE80000B00020002F022F90300180007B00CBCEE
:10CE900091469A46F0BDC24B9A4524DCC14B9A4557
:10CEA00000DD0CE1C04AC14B01F0E4FD0022C04BA3
:10CEB00000F0AEFE002816D033003900E5E7BD4A89
:10CEC000BD4B02F027FDBD4A04000D00BC4B3000F5
:10CED000390002F01FFD0B0002002900200001F0C4
:10CEE000C9FD0300D1E730003900FFF7E9FE020079
:10CEF0000B000020AE4902F087FF0022B14B02F088
:10CF000009FD04000D00B04AB04B02F003FDB04A29
:10CF1000B04B01F0AFFD22002B0002F0FBFCAE4A4B
:10CF2000AE4B02F071FF22002B0002F0F3FCAC4A82
:10CF3000AC4B01F09FFD22002B0002F0EBFCAA4A53
:10CF4000AA4B02F061FF22002B0002F0E3FCA84A8A
:10CF5000A84B01F08FFD22002B0002F0DBFCA64A5B
:10CF600002900391A54B2000290002F0D3FCA44AB3
:10CF7000A44B02F049FF22002B0002F0CBFCA24A96
:10CF8000A24B01F077FD22002B0002F0C3FCA04A67
:10CF9000A04B02F039FF22002B0002F0BBFC844BB7
:10CFA000002201F067FD049005912000290000F0A7
:10CFB000F3F9994B06000F009A4563DC0B000298C9
:10CFC0000399002200920193049A059B02F07EF8D7
:10CFD0003200029003913B003000390001F04AFD1D
:10CFE00002000B000298039902F094FC0290039156
:10CFF0000098019902000B0002F08CFC02000B006B
:10D000002000290002F000FF009A019B04000D009F
:10D010003000390001F02EFD02000B002000290035
:10D0200002F054F802000B0001F024FD02000B0096
:10D030006248634902F0E8FE02000B00029803997F
:10D0400002F0E2FE04000D000098019902000B00BE
:10D0500001F010FD02000B005648704902F0D4FEAA
:10D0600002000B002000290002F0CEFE02000B009F
:10D0700050486A4902F0C8FE4B46002B00DC84E0B1
:10D08000030002E7049A059B0298039902F01EF838
:10D0900032003B0002F03EFC32003B0001F0EAFCB3
:10D0A00002000B0001F0E6FC444A454B02F0ACFEE6
:10D0B00002000B003F48404902F0A6FEDCE70200F8
:10D0C0000B0002F027FC04000D003F4A3F4B02F02A
:10D0D00021FC3F4A3F4B01F0CDFC22002B0002F027
:10D0E00019FC3D4A3D4B02F08FFE22002B0002F05E
:10D0F00011FC3B4A3B4B01F0BDFC22002B0002F02F
:10D1000009FC394A394B02F07FFE22002B0002F065
:10D1100001FC374A374B01F0ADFC22002B0002F036
:10D12000F9FB354A00900191344B2000290002F0B0
:10D13000F1FB334A334B02F067FE22002B0002F072
:10D14000E9FB314A314B01F095FC22002B0002F043
:10D15000E1FB2F4A2F4B02F057FE22002B0002F07A
:10D16000D9FB0022124B01F085FC02000B00009855
:10D17000019901F0ABFF32003B0002F0CBFB3B001A
:10D18000320001F077FC03007FE68022120694460D
:10D190000300614479E6C046FFFFEF3F000010C086
:10D1A000FFFFDF3FFFFF3F3E9C7500883CE4377E7A
:10D1B0000000F03F182D4454FB21F93F075C143365
:10D1C00026A6913C0000E03F09F7FD0DE13D023F3E
:10D1D00088B20175E0EF493F3B8F68B52882A43FD4
:10D1E0005544880E55C1C93F7D6FEB0312D6D43F1D
:10D1F000555555555555C53F82922EB1C5B8B33FCB
:10D2000059018D1B6C06E63FC88A599CE52A0040EF
:10D210004B2D8A1C273A03403233EF3FFB21E93F75
:10D22000F8B515004F4646465A001C006B42C0B484
:10D230002B434B4F5208DB0F88461343BB423AD86F
:10D240004B005B0899464E4643420343DB0F334392
:10D25000BB4230D8434BE3182B4343D00226A317DD
:10D260001E40CB0F1E434B4603432ED013002B43CF
:10D2700032D0BA4241D0B9452ED04B469A1A121537
:10D280003C2A32DC002C55DB2A00230001F01EFF73
:10D29000FFF716FD00F076F9012E46D0022E39D0A8
:10D2A000002E0ED0304A314B02F0AEFD304A314BE9
:10D2B00002F0AAFD05E002000B002800210001F0A9
:10D2C000D9FB0CBC90469946F8BD022E10D0032E17
:10D2D000F7D127482849F4E743462548002B0ADBC5
:10D2E0002649EEE700F04EF9EBE721482349D3E762
:10D2F0001F482049E5E72249E3E791451FD0022E68
:10D30000F6D0032EE5D000200021012ED9D18021B6
:10D310000906D6E7144A154B02F076FD02000B0011
:10D320001348144902F070FDCBE7802424060B1942
:10D330001900C6E73C32A7DA00200021ACE7022E34
:10D3400006D0032E09D00A48012E04D00D49B8E7B3
:10D350000D480E49B5E70E49B3E70B480D49B0E754
:10D360000000F07F000010C0075C143326A6A13C2B
:10D37000182D4454FB210940FB2109C0FB21F93F32
:10D38000FB21F9BFFB21E93FD221337F7CD9024049
:10D39000FB21E9BF7CD902C0F0B556464D46444654
:10D3A0005F46754BF0B40A000D00190083B006000B
:10D3B00004002940994200D1BAE0002D00DC94E03D
:10D3C0002D1500D1A3E06D4B12039C468023120B58
:10D3D0005B0365441A43EB0700D581E06B10984668
:10D3E000E30F9B189B18802216210026002764005B
:10D3F0009203B818984202DC87181B1AB618E00F7F
:10D400005B0001391B18640052080029F1D1002289
:10D4100001929446802212062020914609E09F4204
:10D4200041D0E10FC9180138CB1864005208002818
:10D430001ED0614651189F42F1DA8D18AC46CD0FCF
:10D44000ED07BA464D4539D0DB1B8C42BF417F42C8
:10D45000DB1B641A019901388B46934459460191AC
:10D46000E10FC9185746CB18640052080028E0D1D4
:10D4700023432BD1019B5B08414972108C466244C7
:10D48000F10702D5802109060B43414609058D1895
:10D490001E002F003000390003B03CBC9046994676
:10D4A000A246AB46F0BDA1420ED88D18AC46CD0FBA
:10D4B000ED074D4548D09A460023CAE76546002D42
:10D4C000C2DB7D1CAA46BFE73B00AAE7019B0133F4
:10D4D0003ED0019A01239446134063445B08CBE796
:10D4E000E30F52009A18640078E76B005B0803436F
:10D4F0002F00002BCED00025002A31D1E20A153DA5
:10D500006405002AFAD080235B031A4223D18020CD
:10D510000023400300E00B005200591C0242FAD0E5
:10D520002020401AED1A2300C3408C401A434AE7DA
:10D5300002002B00290002F0EDF932002B0001F06F
:10D5400099FA06000F00A5E76546002DB9DAB2E7A3
:10D550000136002390E7012320205B420021E1E710
:10D560003B000200390002F04FFC02000B0001F00A
:10D57000ADFD06000F008DE70000F07F01FCFFFF0E
:10D580000000E03FF8B556464D4644465F46A54B81
:10D59000F0B44E00804689468A4676089E420CDDED
:10D5A000A14B9E4200DDA0E000D19BE05346002B42
:10D5B00000DCE3E09D4B9E4A9FE09E4B9E4200DDD7
:10D5C000B1E09D4B9E4200DC9FE001235B429B4605
:10D5D00042464B464046494602F09CF902000B0089
:10D5E00006000F0002F096F904000D00934A944BD8
:10D5F00002F090F9934A944B01F03CFA22002B0080
:10D6000002F088F9914A924B01F034FA22002B0083
:10D6100002F080F98F4A904B01F02CFA22002B0087
:10D6200002F078F98D4A8E4B01F024FA22002B008B
:10D6300002F070F98B4A8C4B01F01CFA32003B006F
:10D6400002F068F9894A8A4B06000F002000290081
:10D6500002F060F9874A884B02F0D6FB22002B00CB
:10D6600002F058F9854A864B02F0CEFB22002B00CF
:10D6700002F050F9834A844B02F0C6FB22002B00D3
:10D6800002F048F9814A824B02F0BEFB22002B00D7
:10D6900002F040F90B0059460200013100D170E060
:10D6A00059463000CC00390001F0E4F942464B46BF
:10D6B00002F030F9774D784B2D191C1922686368F8
:10D6C00002F0A2FB42464B4602F09EFB02000B001A
:10D6D0002868696802F098FB53460A00002B48DB73
:10D6E00003000AE0002800D160E742464B4640466E
:10D6F000494601F0BFF903000A00180011003CBCC4
:10D7000090469946A246AB46F8BD644A644B01F088
:10D71000B1F90022634B00F07BFA002800D154E7F6
:10D7200043464A46E9E7FFF7CBFA5F4B04000D009A
:10D730009E4237DC5D4B9E425DDC02000B0001F037
:10D7400099F90022574B02F05FFB802306000F007F
:10D750000022DB052000290001F08CF90B000200FB
:10D760003900300001F0B2FC0023804689469B4618
:10D770002EE78022120603008A18BEE72B4B4C4A84
:10D78000BBE73000390001F075F942464B4602F024
:10D79000C1F802000B004046494602F035FB030089
:10D7A0000A00AAE7434B9E421ADC0022424B02F0D9
:10D7B0002BFB002206000F003F4B2000290002F047
:10D7C000A9F80022374B01F055F90B00020039008F
:10D7D000300001F07BFC0223804689469B46F7E639
:10D7E0000B0002003549002001F070FC0323804645
:10D7F00089469B46ECE600222A4B02F005FB0022FC
:10D8000006000F00274B2000290001F033F90B0020
:10D8100002003900300001F059FC0123804689469E
:10D820009B46D5E6FFFF0F440000F07F182D4454BF
:10D83000FB21F93FFFFFDB3FFFFF1F3E11DA22E331
:10D840003AAD903FEB0D76244B7BA93F513DD0A0E4
:10D85000660DB13F6E204CC5CD45B73FFF830092AA
:10D860002449C23F0D5555555555D53F2F6C6A2C4F
:10D8700044B4A2BF9AFDDE522DDEAD3F6D9A74AF67
:10D88000F2B0B33F711623FEC671BC3FC4EB98994A
:10D890009999C93F58270200382702009C750088D3
:10D8A0003CE4377E0000F03FFFFFF23FFFFFE53F23
:10D8B000FB21F9BFFF7F03400000F83F0000F0BFED
:10D8C00000207047002001497047C0460000F87FE3
:10D8D000002243088B4274D303098B425FD3030AAF
:10D8E0008B4244D3030B8B4228D3030C8B420DD3C2
:10D8F000FF22090212BA030C8B4202D31212090250
:10D9000065D0030B8B4219D300E0090AC30B8B428D
:10D9100001D3CB03C01A5241830B8B4201D38B033B
:10D92000C01A5241430B8B4201D34B03C01A5241E0
:10D93000030B8B4201D30B03C01A5241C30A8B4223
:10D9400001D3CB02C01A5241830A8B4201D38B020E
:10D95000C01A5241430A8B4201D34B02C01A5241B2
:10D96000030A8B4201D30B02C01A5241CDD2C30924
:10D970008B4201D3CB01C01A524183098B4201D3A0
:10D980008B01C01A524143098B4201D34B01C01A8B
:10D99000524103098B4201D30B01C01A5241C30803
:10D9A0008B4201D3CB00C01A524183088B4201D372
:10D9B0008B00C01A524143088B4201D34B00C01A5E
:10D9C0005241411A00D20146524110467047FFE7CA
:10D9D00001B5002000F0F0F802BDC0460029F7D0E4
:10D9E00076E7704703460B437FD4002243088B42FF
:10D9F00074D303098B425FD3030A8B4244D3030BD6
:10DA00008B4228D3030C8B420DD3FF22090212BA9A
:10DA1000030C8B4202D31212090265D0030B8B4216
:10DA200019D300E0090AC30B8B4201D3CB03C01A00
:10DA30005241830B8B4201D38B03C01A5241430BDB
:10DA40008B4201D34B03C01A5241030B8B4201D3CB
:10DA50000B03C01A5241C30A8B4201D3CB02C01A36
:10DA60005241830A8B4201D38B02C01A5241430AAE
:10DA70008B4201D34B02C01A5241030A8B4201D39D
:10DA80000B02C01A5241CDD2C3098B4201D3CB0144
:10DA9000C01A524183098B4201D38B01C01A5241F3
:10DAA00043098B4201D34B01C01A524103098B42F7
:10DAB00001D30B01C01A5241C3088B4201D3CB00E2
:10DAC000C01A524183088B4201D38B00C01A5241C5
:10DAD00043088B4201D34B00C01A5241411A00D275
